{
  "contractName": "BitCollect",
  "abi": [
    {
      "inputs": [
        {
          "internalType": "address[]",
          "name": "_organizers",
          "type": "address[]"
        },
        {
          "internalType": "address payable[]",
          "name": "_beneficiaries",
          "type": "address[]"
        },
        {
          "internalType": "uint256",
          "name": "_end_date",
          "type": "uint256"
        }
      ],
      "payable": false,
      "stateMutability": "nonpayable",
      "type": "constructor"
    },
    {
      "anonymous": false,
      "inputs": [
        {
          "indexed": false,
          "internalType": "enum BitCollect.State",
          "name": "s",
          "type": "uint8"
        }
      ],
      "name": "campainStatus",
      "type": "event"
    },
    {
      "constant": true,
      "inputs": [
        {
          "internalType": "uint256",
          "name": "",
          "type": "uint256"
        }
      ],
      "name": "beneficiaries",
      "outputs": [
        {
          "internalType": "address payable",
          "name": "",
          "type": "address"
        }
      ],
      "payable": false,
      "stateMutability": "view",
      "type": "function"
    },
    {
      "constant": true,
      "inputs": [
        {
          "internalType": "address",
          "name": "",
          "type": "address"
        }
      ],
      "name": "beneficiaries_map",
      "outputs": [
        {
          "internalType": "uint256",
          "name": "amount",
          "type": "uint256"
        },
        {
          "internalType": "bool",
          "name": "flag",
          "type": "bool"
        }
      ],
      "payable": false,
      "stateMutability": "view",
      "type": "function"
    },
    {
      "constant": true,
      "inputs": [
        {
          "internalType": "uint256",
          "name": "",
          "type": "uint256"
        }
      ],
      "name": "organizers",
      "outputs": [
        {
          "internalType": "address",
          "name": "",
          "type": "address"
        }
      ],
      "payable": false,
      "stateMutability": "view",
      "type": "function"
    },
    {
      "constant": true,
      "inputs": [],
      "name": "state",
      "outputs": [
        {
          "internalType": "enum BitCollect.State",
          "name": "",
          "type": "uint8"
        }
      ],
      "payable": false,
      "stateMutability": "view",
      "type": "function"
    },
    {
      "constant": false,
      "inputs": [
        {
          "internalType": "address[]",
          "name": "to",
          "type": "address[]"
        },
        {
          "internalType": "uint256[]",
          "name": "wei_partition",
          "type": "uint256[]"
        }
      ],
      "name": "startCampaign",
      "outputs": [],
      "payable": true,
      "stateMutability": "payable",
      "type": "function"
    },
    {
      "constant": false,
      "inputs": [
        {
          "internalType": "address[]",
          "name": "to",
          "type": "address[]"
        },
        {
          "internalType": "uint256[]",
          "name": "wei_partition",
          "type": "uint256[]"
        }
      ],
      "name": "makeDonation",
      "outputs": [],
      "payable": true,
      "stateMutability": "payable",
      "type": "function"
    }
  ],
  "bytecode": "0x60806040523480156200001157600080fd5b506040516200189638038062001896833981810160405260608110156200003757600080fd5b81019080805160405193929190846401000000008211156200005857600080fd5b838201915060208201858111156200006f57600080fd5b82518660208202830111640100000000821117156200008d57600080fd5b8083526020830192505050908051906020019060200280838360005b83811015620000c6578082015181840152602081019050620000a9565b5050505090500160405260200180516040519392919084640100000000821115620000f057600080fd5b838201915060208201858111156200010757600080fd5b82518660208202830111640100000000821117156200012557600080fd5b8083526020830192505050908051906020019060200280838360005b838110156200015e57808201518184015260208101905062000141565b50505050905001604052602001805190602001909291905050506000835111620001f0576040517f08c379a00000000000000000000000000000000000000000000000000000000081526004018080602001828103825260208152602001807f4572726f723a204e656564206174206c656173742031206f7267616e697a657281525060200191505060405180910390fd5b60008251116200024c576040517f08c379a00000000000000000000000000000000000000000000000000000000081526004018080602001828103825260238152602001806200182d6023913960400191505060405180910390fd5b428111620002a6576040517f08c379a0000000000000000000000000000000000000000000000000000000008152600401808060200182810382526046815260200180620018506046913960600191505060405180910390fd5b60008351905060008090505b81811015620003af576001858281518110620002ca57fe5b602002602001015190806001815401808255809150509060018203906000526020600020016000909192909190916101000a81548173ffffffffffffffffffffffffffffffffffffffff021916908373ffffffffffffffffffffffffffffffffffffffff160217905550506000600260008784815181106200034857fe5b602002602001015173ffffffffffffffffffffffffffffffffffffffff1673ffffffffffffffffffffffffffffffffffffffff16815260200190815260200160002060006101000a81548160ff0219169083151502179055508080600101915050620002b2565b508251905060008090505b8181101562000516576003848281518110620003d257fe5b602002602001015190806001815401808255809150509060018203906000526020600020016000909192909190916101000a81548173ffffffffffffffffffffffffffffffffffffffff021916908373ffffffffffffffffffffffffffffffffffffffff160217905550506000600460008684815181106200045057fe5b602002602001015173ffffffffffffffffffffffffffffffffffffffff1673ffffffffffffffffffffffffffffffffffffffff16815260200190815260200160002060000181905550600160046000868481518110620004ac57fe5b602002602001015173ffffffffffffffffffffffffffffffffffffffff1673ffffffffffffffffffffffffffffffffffffffff16815260200190815260200160002060010160006101000a81548160ff0219169083151502179055508080600101915050620003ba565b508160078190555060008060006101000a81548160ff021916908360028111156200053d57fe5b02179055507f66fe4817acfd8756899e5d70b8db5e2f51795f380411f9aa53f14f246cd7d2046000809054906101000a900460ff16604051808260028111156200058357fe5b60ff16815260200191505060405180910390a15050505061128380620005aa6000396000f3fe6080604052600436106100555760003560e01c80635d3e96131461005a57806379de6d21146100ca5780639a18f30b14610216578063a4c8be1e146102e4578063c19d93fb1461035f578063efeb5e5814610398575b600080fd5b34801561006657600080fd5b506100a96004803603602081101561007d57600080fd5b81019080803573ffffffffffffffffffffffffffffffffffffffff169060200190929190505050610413565b60405180838152602001821515151581526020019250505060405180910390f35b610214600480360360408110156100e057600080fd5b81019080803590602001906401000000008111156100fd57600080fd5b82018360208201111561010f57600080fd5b8035906020019184602083028401116401000000008311171561013157600080fd5b919080806020026020016040519081016040528093929190818152602001838360200280828437600081840152601f19601f8201169050808301925050505050505091929192908035906020019064010000000081111561019157600080fd5b8201836020820111156101a357600080fd5b803590602001918460208302840111640100000000831117156101c557600080fd5b919080806020026020016040519081016040528093929190818152602001838360200280828437600081840152601f19601f820116905080830192505050505050509192919290505050610444565b005b6102e26004803603604081101561022c57600080fd5b810190808035906020019064010000000081111561024957600080fd5b82018360208201111561025b57600080fd5b8035906020019184602083028401116401000000008311171561027d57600080fd5b90919293919293908035906020019064010000000081111561029e57600080fd5b8201836020820111156102b057600080fd5b803590602001918460208302840111640100000000831117156102d257600080fd5b90919293919293905050506108da565b005b3480156102f057600080fd5b5061031d6004803603602081101561030757600080fd5b8101908080359060200190929190505050610f35565b604051808273ffffffffffffffffffffffffffffffffffffffff1673ffffffffffffffffffffffffffffffffffffffff16815260200191505060405180910390f35b34801561036b57600080fd5b50610374610f71565b6040518082600281111561038457fe5b60ff16815260200191505060405180910390f35b3480156103a457600080fd5b506103d1600480360360208110156103bb57600080fd5b8101908080359060200190929190505050610f83565b604051808273ffffffffffffffffffffffffffffffffffffffff1673ffffffffffffffffffffffffffffffffffffffff16815260200191505060405180910390f35b60046020528060005260406000206000915090508060000154908060010160009054906101000a900460ff16905082565b4260075481106104bc576040517f08c379a00000000000000000000000000000000000000000000000000000000081526004018080602001828103825260178152602001807f4572726f723a2063616d706169676e206578706972656400000000000000000081525060200191505060405180910390fd5b82600080905060008090505b600380549050811080156104da575081155b15610584576000151560046000600384815481106104f457fe5b9060005260206000200160009054906101000a900473ffffffffffffffffffffffffffffffffffffffff1673ffffffffffffffffffffffffffffffffffffffff1673ffffffffffffffffffffffffffffffffffffffff16815260200190815260200160002060010160009054906101000a900460ff161515141561057757600191505b80806001019150506104c8565b5060001515811515146105e2576040517f08c379a000000000000000000000000000000000000000000000000000000000815260040180806020018281038252603d815260200180611212603d913960400191505060405180910390fd5b60003411610658576040517f08c379a00000000000000000000000000000000000000000000000000000000081526004018080602001828103825260158152602001807f4572726f723a2030207765692070726f7669646564000000000000000000000081525060200191505060405180910390fd5b83518551146106b2576040517f08c379a00000000000000000000000000000000000000000000000000000000081526004018080602001828103825260428152602001806111726042913960600191505060405180910390fd5b600080905060008090505b85518110156106eb578581815181106106d257fe5b60200260200101518201915080806001019150506106bd565b50803414610744576040517f08c379a00000000000000000000000000000000000000000000000000000000081526004018080602001828103825260498152602001806111296049913960600191505060405180910390fd5b61074c610fbf565b34816000018181525050868160200181905250858160400181905250600660003373ffffffffffffffffffffffffffffffffffffffff1673ffffffffffffffffffffffffffffffffffffffff16815260200190815260200160002081908060018154018082558091505090600182039060005260206000209060040201600090919290919091506000820151816000015560208201518160010190805190602001906107f9929190610fe9565b506040820151816002019080519060200190610816929190611073565b5060608201518160030160006101000a81548160ff0219169083151502179055505050506000915060008090505b87518110156108d05786818151811061085957fe5b6020026020010151600460008a848151811061087157fe5b602002602001015173ffffffffffffffffffffffffffffffffffffffff1673ffffffffffffffffffffffffffffffffffffffff168152602001908152602001600020600001600082825401925050819055508080600101915050610844565b5050505050505050565b426007548110610952576040517f08c379a00000000000000000000000000000000000000000000000000000000081526004018080602001828103825260178152602001807f4572726f723a2063616d706169676e206578706972656400000000000000000081525060200191505060405180910390fd5b33600080905060008090505b60018054905081108015610970575081155b156109f2578273ffffffffffffffffffffffffffffffffffffffff166001828154811061099957fe5b9060005260206000200160009054906101000a900473ffffffffffffffffffffffffffffffffffffffff1673ffffffffffffffffffffffffffffffffffffffff1614156109e557600191505b808060010191505061095e565b5080610a49576040517f08c379a000000000000000000000000000000000000000000000000000000000815260040180806020018281038252602c8152602001806111e6602c913960400191505060405180910390fd5b868680806020026020016040519081016040528093929190818152602001838360200280828437600081840152601f19601f82011690508083019250505050505050600080905060008090505b60038054905081108015610aa8575081155b15610b5257600015156004600060038481548110610ac257fe5b9060005260206000200160009054906101000a900473ffffffffffffffffffffffffffffffffffffffff1673ffffffffffffffffffffffffffffffffffffffff1673ffffffffffffffffffffffffffffffffffffffff16815260200190815260200160002060010160009054906101000a900460ff1615151415610b4557600191505b8080600101915050610a96565b506000151581151514610bb0576040517f08c379a000000000000000000000000000000000000000000000000000000000815260040180806020018281038252603d815260200180611212603d913960400191505060405180910390fd5b60006002811115610bbd57fe5b6000809054906101000a900460ff166002811115610bd757fe5b14610c2d576040517f08c379a00000000000000000000000000000000000000000000000000000000081526004018080602001828103825260328152602001806111b46032913960400191505060405180910390fd5b610cb9898980806020026020016040519081016040528093929190818152602001838360200280828437600081840152601f19601f82011690508083019250505050505050888880806020026020016040519081016040528093929190818152602001838360200280828437600081840152601f19601f82011690508083019250505050505050610444565b60001515600260003373ffffffffffffffffffffffffffffffffffffffff1673ffffffffffffffffffffffffffffffffffffffff16815260200190815260200160002060009054906101000a900460ff1615151415610d6b576001600260003373ffffffffffffffffffffffffffffffffffffffff1673ffffffffffffffffffffffffffffffffffffffff16815260200190815260200160002060006101000a81548160ff0219169083151502179055505b600080905060008090505b600180549050811015610e2957600115156002600060018481548110610d9857fe5b9060005260206000200160009054906101000a900473ffffffffffffffffffffffffffffffffffffffff1673ffffffffffffffffffffffffffffffffffffffff1673ffffffffffffffffffffffffffffffffffffffff16815260200190815260200160002060009054906101000a900460ff1615151415610e1c5781806001019250505b8080600101915050610d76565b50600180549050811415610eb25760016000806101000a81548160ff02191690836002811115610e5557fe5b02179055507f66fe4817acfd8756899e5d70b8db5e2f51795f380411f9aa53f14f246cd7d2046000809054906101000a900460ff1660405180826002811115610e9a57fe5b60ff16815260200191505060405180910390a1610f29565b60008060006101000a81548160ff02191690836002811115610ed057fe5b02179055507f66fe4817acfd8756899e5d70b8db5e2f51795f380411f9aa53f14f246cd7d2046000809054906101000a900460ff1660405180826002811115610f1557fe5b60ff16815260200191505060405180910390a15b50505050505050505050565b60018181548110610f4257fe5b906000526020600020016000915054906101000a900473ffffffffffffffffffffffffffffffffffffffff1681565b6000809054906101000a900460ff1681565b60038181548110610f9057fe5b906000526020600020016000915054906101000a900473ffffffffffffffffffffffffffffffffffffffff1681565b60405180608001604052806000815260200160608152602001606081526020016000151581525090565b828054828255906000526020600020908101928215611062579160200282015b828111156110615782518260006101000a81548173ffffffffffffffffffffffffffffffffffffffff021916908373ffffffffffffffffffffffffffffffffffffffff16021790555091602001919060010190611009565b5b50905061106f91906110c0565b5090565b8280548282559060005260206000209081019282156110af579160200282015b828111156110ae578251825591602001919060010190611093565b5b5090506110bc9190611103565b5090565b61110091905b808211156110fc57600081816101000a81549073ffffffffffffffffffffffffffffffffffffffff0219169055506001016110c6565b5090565b90565b61112591905b80821115611121576000816000905550600101611109565b5090565b9056fe4572726f723a20546f74616c20706f766964656420776569732061726520646966666572656e742066726f6d207468652070726f7669646564207765697320706172746974696f6e734572726f723a2064657374696e61746f72732073697a6520697320646966666572656e742066726f6d2074686520776569277320706172746974696f6e2073697a654572726f723a205468652063616d706169676e20697320616c72656164792073746172746564206f7220697320656e6465644572726f723a206f6e6c79206f7267616e697a6572732063616e207374617274207468652063616d7061696e4572726f723a206f6e65206f72206d6f7265206f66207468652070726f76696465642062656e6566696369617269657320646f206e6f74206578697374a265627a7a723158200261e27322eb8250e281d5df68350b1e2a33c304e1781036ebab6677253a1be864736f6c634300051000324572726f723a204e656564206174206c6561737420312062656e6566696369617269654572726f723a207468652070726f76696465642063616d7061696e20656e64206461746520696c206973206561726c696572207468616e207468652073746172742064617465",
  "source": "pragma solidity >=0.4.21 <0.7.0;\r\n\r\nimport \"./Library.sol\";\r\n\r\ncontract BitCollect{\r\n\r\n    using Library for Library.Reward;\r\n    using Library for Library.Donation;\r\n\r\n    enum State {PENDING, RUNNING, ENDED}\r\n    State public state;\r\n\r\n    address[] public organizers;\r\n    mapping(address => bool) private organizers_donation;\r\n\r\n    address payable[] public beneficiaries;\r\n    mapping(address => Library.Reward) public beneficiaries_map;\r\n\r\n    address[] donors;\r\n    mapping(address => Library.Donation[]) private donations;\r\n\r\n    uint campaign_end_timestamp;\r\n\r\n    event campainStatus(State s);\r\n\r\n    modifier isOrganizer(address expected) {\r\n        bool is_organizer = false;\r\n        for(uint i = 0; i<organizers.length && !is_organizer; i++){\r\n            if(organizers[i] == expected)\r\n                is_organizer = true;\r\n        }\r\n\r\n        require(is_organizer, \"Error: only organizers can start the campain\");\r\n        _;\r\n    }\r\n\r\n    modifier beneficiariesExist(address[] memory b) {\r\n        bool error = false;\r\n        for(uint i = 0; i<beneficiaries.length && !error; i++){\r\n            if(beneficiaries_map[beneficiaries[i]].flag == false)\r\n                error = true;\r\n        }\r\n\r\n        require(error==false, \"Error: one or more of the provided beneficiaries do not exist\");\r\n        _;\r\n    }\r\n\r\n    modifier campaignNotEnded(uint current_timestamp) {\r\n        require(current_timestamp < campaign_end_timestamp, \"Error: campaign expired\");\r\n        _;\r\n    }\r\n\r\n    constructor(address[] memory _organizers, address payable[] memory _beneficiaries, uint _end_date) public {\r\n        require(_organizers.length>0, \"Error: Need at least 1 organizer\"); //RQ-PARAMS\r\n        require(_beneficiaries.length>0, \"Error: Need at least 1 beneficiarie\"); //RQ-PARAMS\r\n        require(_end_date>block.timestamp, \"Error: the provided campain end date il is earlier than the start date\");\r\n\r\n        uint l = _organizers.length;\r\n        for(uint i = 0; i < l; i++) {\r\n            organizers.push(_organizers[i]);\r\n            organizers_donation[_organizers[i]] = false;\r\n        }\r\n\r\n        l = _beneficiaries.length;\r\n        for(uint i = 0; i < l; i++) {\r\n            beneficiaries.push(_beneficiaries[i]);\r\n            beneficiaries_map[_beneficiaries[i]].amount = 0;\r\n            beneficiaries_map[_beneficiaries[i]].flag = true;\r\n        }\r\n\r\n        campaign_end_timestamp = _end_date;\r\n\r\n        state = State.PENDING;\r\n        emit campainStatus(state);\r\n    }\r\n\r\n    function startCampaign(address[] calldata to, uint[] calldata wei_partition) campaignNotEnded(block.timestamp) external payable\r\n                                         isOrganizer(msg.sender) beneficiariesExist(to){//RQ-PARAMS\r\n        require(state==State.PENDING, \"Error: The campaign is already started or is ended\");\r\n\r\n        makeDonation(to, wei_partition);\r\n\r\n        if(organizers_donation[msg.sender] == false)\r\n            organizers_donation[msg.sender] = true;\r\n\r\n\r\n        uint organizers_donors = 0;\r\n        for(uint i = 0; i<organizers.length; i++){\r\n            if(organizers_donation[organizers[i]] == true)\r\n                organizers_donors++;\r\n        }\r\n\r\n        if(organizers_donors==organizers.length){\r\n            state = State.RUNNING;\r\n            emit campainStatus(state);\r\n        }\r\n        else{\r\n            state = State.PENDING;\r\n            emit campainStatus(state);\r\n        }\r\n    }\r\n\r\n\r\n    function makeDonation(address[] memory to, uint[] memory wei_partition)public payable campaignNotEnded(block.timestamp)\r\n                        beneficiariesExist(to){\r\n        require(msg.value>0, \"Error: 0 wei provided\");\r\n        require(to.length==wei_partition.length, \"Error: destinators size is different from the wei's partition size\");\r\n        \r\n        uint total_donation = 0;\r\n        for(uint i = 0; i<wei_partition.length; i++){\r\n            total_donation += wei_partition[i];\r\n        }\r\n        require(msg.value==total_donation,\"Error: Total povided weis are different from the provided weis partitions\");\r\n        \r\n        Library.Donation memory d;\r\n        d.amount = msg.value;\r\n        d.donation_beneficiaries = to;\r\n        d.danation_partitions = wei_partition;\r\n        donations[msg.sender].push(d);\r\n\r\n        total_donation = 0;\r\n        for(uint i = 0; i<to.length; i++)\r\n            beneficiaries_map[to[i]].amount += wei_partition[i];\r\n    }\r\n\r\n\r\n}",
  "sourcePath": "G:\\SSD Workspace\\Ethereum\\BitCollect\\contracts\\BitCollect.sol",
  "compiler": {
    "name": "solc",
    "version": "0.5.16+commit.9c3226ce.Emscripten.clang"
  },
  "schemaVersion": "3.2.0",
  "updatedAt": "2020-06-25T16:19:26.393Z",
  "networkType": "ethereum",
  "devdoc": {
    "methods": {}
  },
  "userdoc": {
    "methods": {}
  }
}