{
  "contractName": "BitCollect",
  "abi": [
    {
      "inputs": [
        {
          "internalType": "uint256",
          "name": "fraud_threshold",
          "type": "uint256"
        },
        {
          "internalType": "uint256",
          "name": "_report_investment",
          "type": "uint256"
        }
      ],
      "stateMutability": "nonpayable",
      "type": "constructor"
    },
    {
      "anonymous": false,
      "inputs": [
        {
          "indexed": false,
          "internalType": "address",
          "name": "cont",
          "type": "address"
        }
      ],
      "name": "campaignCreated",
      "type": "event"
    },
    {
      "inputs": [
        {
          "internalType": "address[]",
          "name": "_organizers",
          "type": "address[]"
        },
        {
          "internalType": "address payable[]",
          "name": "_beneficiaries",
          "type": "address[]"
        },
        {
          "internalType": "uint256",
          "name": "_end_date",
          "type": "uint256"
        },
        {
          "internalType": "uint256[]",
          "name": "rewards_costs",
          "type": "uint256[]"
        },
        {
          "internalType": "string",
          "name": "campaign_info_hashes",
          "type": "string"
        }
      ],
      "name": "createCampaign",
      "outputs": [],
      "stateMutability": "payable",
      "type": "function",
      "payable": true
    },
    {
      "inputs": [
        {
          "internalType": "uint256",
          "name": "t",
          "type": "uint256"
        }
      ],
      "name": "setFraudThreshold",
      "outputs": [],
      "stateMutability": "nonpayable",
      "type": "function"
    },
    {
      "inputs": [
        {
          "internalType": "uint256",
          "name": "t",
          "type": "uint256"
        }
      ],
      "name": "setFraudInvestment",
      "outputs": [],
      "stateMutability": "nonpayable",
      "type": "function"
    }
  ],
  "bytecode": "0x608060405234801561001057600080fd5b50604051614e90380380614e908339818101604052604081101561003357600080fd5b810190808051906020019092919080519060200190929190505050600082116100a7576040517f08c379a000000000000000000000000000000000000000000000000000000000815260040180806020018281038252602d815260200180614e26602d913960400191505060405180910390fd5b60008111610100576040517f08c379a000000000000000000000000000000000000000000000000000000000815260040180806020018281038252603d815260200180614e53603d913960400191505060405180910390fd5b336000806101000a81548173ffffffffffffffffffffffffffffffffffffffff021916908373ffffffffffffffffffffffffffffffffffffffff16021790555081600381905550806004819055505050614cc78061015f6000396000f3fe608060405260043610620000385760003560e01c8063a9fcd8e4146200003d578063ca22195b14620002cd578063e3be5e5d146200030c575b600080fd5b620002cb600480360360a08110156200005557600080fd5b81019080803590602001906401000000008111156200007357600080fd5b8201836020820111156200008657600080fd5b80359060200191846020830284011164010000000083111715620000a957600080fd5b919080806020026020016040519081016040528093929190818152602001838360200280828437600081840152601f19601f820116905080830192505050505050509192919290803590602001906401000000008111156200010a57600080fd5b8201836020820111156200011d57600080fd5b803590602001918460208302840111640100000000831117156200014057600080fd5b919080806020026020016040519081016040528093929190818152602001838360200280828437600081840152601f19601f8201169050808301925050505050505091929192908035906020019092919080359060200190640100000000811115620001ab57600080fd5b820183602082011115620001be57600080fd5b80359060200191846020830284011164010000000083111715620001e157600080fd5b919080806020026020016040519081016040528093929190818152602001838360200280828437600081840152601f19601f820116905080830192505050505050509192919290803590602001906401000000008111156200024257600080fd5b8201836020820111156200025557600080fd5b803590602001918460018302840111640100000000831117156200027857600080fd5b91908080601f016020809104026020016040519081016040528093929190818152602001838380828437600081840152601f19601f8201169050808301925050505050505091929192905050506200034b565b005b348015620002da57600080fd5b506200030a60048036036020811015620002f357600080fd5b810190808035906020019092919050505062000732565b005b3480156200031957600080fd5b5062000349600480360360208110156200033257600080fd5b81019080803590602001909291905050506200083e565b005b6000855111620003c3576040517f08c379a00000000000000000000000000000000000000000000000000000000081526004018080602001828103825260208152602001807f4572726f723a204e656564206174206c656173742031206f7267616e697a657281525060200191505060405180910390fd5b60008451116200041f576040517f08c379a000000000000000000000000000000000000000000000000000000000815260040180806020018281038252602381526020018062004b7c6023913960400191505060405180910390fd5b42831162000479576040517f08c379a000000000000000000000000000000000000000000000000000000000815260040180806020018281038252604681526020018062004c4c6046913960600191505060405180910390fd5b6000858585856003548660045460405162000494906200094a565b808060200180602001888152602001806020018781526020018060200186815260200185810385528c818151815260200191508051906020019060200280838360005b83811015620004f4578082015181840152602081019050620004d7565b5050505090500185810384528b818151815260200191508051906020019060200280838360005b83811015620005385780820151818401526020810190506200051b565b50505050905001858103835289818151815260200191508051906020019060200280838360005b838110156200057c5780820151818401526020810190506200055f565b50505050905001858103825287818151815260200191508051906020019080838360005b83811015620005bd578082015181840152602081019050620005a0565b50505050905090810190601f168015620005eb5780820380516001836020036101000a031916815260200191505b509b505050505050505050505050604051809103906000f08015801562000616573d6000803e3d6000fd5b5090506001819080600181540180825580915050600190039060005260206000200160009091909190916101000a81548173ffffffffffffffffffffffffffffffffffffffff021916908373ffffffffffffffffffffffffffffffffffffffff1602179055506001808054905003600260008373ffffffffffffffffffffffffffffffffffffffff1673ffffffffffffffffffffffffffffffffffffffff168152602001908152602001600020819055507f3b5c6dff367f8fe540e018ee8cb76957ce7d9fafe57f188fa343a6d06084475581604051808273ffffffffffffffffffffffffffffffffffffffff1673ffffffffffffffffffffffffffffffffffffffff16815260200191505060405180910390a1505050505050565b6000809054906101000a900473ffffffffffffffffffffffffffffffffffffffff1673ffffffffffffffffffffffffffffffffffffffff163373ffffffffffffffffffffffffffffffffffffffff1614620007d9576040517f08c379a000000000000000000000000000000000000000000000000000000000815260040180806020018281038252604381526020018062004b9f6043913960600191505060405180910390fd5b6000811162000834576040517f08c379a000000000000000000000000000000000000000000000000000000000815260040180806020018281038252603d81526020018062004c0f603d913960400191505060405180910390fd5b8060048190555050565b6000809054906101000a900473ffffffffffffffffffffffffffffffffffffffff1673ffffffffffffffffffffffffffffffffffffffff163373ffffffffffffffffffffffffffffffffffffffff1614620008e5576040517f08c379a000000000000000000000000000000000000000000000000000000000815260040180806020018281038252604381526020018062004b9f6043913960600191505060405180910390fd5b6000811162000940576040517f08c379a000000000000000000000000000000000000000000000000000000000815260040180806020018281038252602d81526020018062004be2602d913960400191505060405180910390fd5b8060038190555050565b61422380620009598339019056fe60806040523480156200001157600080fd5b506040516200422338038062004223833981810160405260e08110156200003757600080fd5b81019080805160405193929190846401000000008211156200005857600080fd5b838201915060208201858111156200006f57600080fd5b82518660208202830111640100000000821117156200008d57600080fd5b8083526020830192505050908051906020019060200280838360005b83811015620000c6578082015181840152602081019050620000a9565b5050505090500160405260200180516040519392919084640100000000821115620000f057600080fd5b838201915060208201858111156200010757600080fd5b82518660208202830111640100000000821117156200012557600080fd5b8083526020830192505050908051906020019060200280838360005b838110156200015e57808201518184015260208101905062000141565b5050505090500160405260200180519060200190929190805160405193929190846401000000008211156200019257600080fd5b83820191506020820185811115620001a957600080fd5b8251866020820283011164010000000082111715620001c757600080fd5b8083526020830192505050908051906020019060200280838360005b8381101562000200578082015181840152602081019050620001e3565b5050505090500160405260200180519060200190929190805160405193929190846401000000008211156200023457600080fd5b838201915060208201858111156200024b57600080fd5b82518660018202830111640100000000821117156200026957600080fd5b8083526020830192505050908051906020019080838360005b838110156200029f57808201518184015260208101905062000282565b50505050905090810190601f168015620002cd5780820380516001836020036101000a031916815260200191505b506040526020018051906020019092919050505060008090505b8751811015620003e25760018882815181106200030057fe5b60200260200101519080600181540180825580915050600190039060005260206000200160009091909190916101000a81548173ffffffffffffffffffffffffffffffffffffffff021916908373ffffffffffffffffffffffffffffffffffffffff1602179055506000600260008a84815181106200037b57fe5b602002602001015173ffffffffffffffffffffffffffffffffffffffff1673ffffffffffffffffffffffffffffffffffffffff16815260200190815260200160002060006101000a81548160ff0219169083151502179055508080600101915050620002e7565b5060008090505b8651811015620005435760048782815181106200040257fe5b60200260200101519080600181540180825580915050600190039060005260206000200160009091909190916101000a81548173ffffffffffffffffffffffffffffffffffffffff021916908373ffffffffffffffffffffffffffffffffffffffff1602179055506000600560008984815181106200047d57fe5b602002602001015173ffffffffffffffffffffffffffffffffffffffff1673ffffffffffffffffffffffffffffffffffffffff16815260200190815260200160002060000181905550600160056000898481518110620004d957fe5b602002602001015173ffffffffffffffffffffffffffffffffffffffff1673ffffffffffffffffffffffffffffffffffffffff16815260200190815260200160002060010160006101000a81548160ff0219169083151502179055508080600101915050620003e9565b508460118190555083600b90805190602001906200056392919062000618565b5081601290805190602001906200057c9291906200066a565b5060008060006101000a81548160ff021916908360048111156200059c57fe5b021790555082600c8190555080600d8190555060006003819055507f66fe4817acfd8756899e5d70b8db5e2f51795f380411f9aa53f14f246cd7d2046000809054906101000a900460ff1660405180826004811115620005f857fe5b60ff16815260200191505060405180910390a15050505050505062000719565b82805482825590600052602060002090810192821562000657579160200282015b828111156200065657825182559160200191906001019062000639565b5b509050620006669190620006f1565b5090565b828054600181600116156101000203166002900490600052602060002090601f016020900481019282601f10620006ad57805160ff1916838001178555620006de565b82800160010185558215620006de579182015b82811115620006dd578251825591602001919060010190620006c0565b5b509050620006ed9190620006f1565b5090565b6200071691905b8082111562000712576000816000905550600101620006f8565b5090565b90565b613afa80620007296000396000f3fe6080604052600436106101c25760003560e01c806383fa9ec6116100f7578063a4e00d6e11610095578063dd4c844111610064578063dd4c844114610a25578063dd9c331b14610a8a578063efeb5e5814610af6578063f19f892d14610b71576101c2565b8063a4e00d6e146108d9578063c0d18502146108f0578063c19d93fb1461095c578063c3a4de3614610995576101c2565b80639af6549a116100d15780639af6549a1461080e5780639c378d80146108255780639ec25aa51461082f578063a4c8be1e1461085e576101c2565b806383fa9ec6146106c257806395931ba2146106f15780639a18f30b14610740576101c2565b80635a7e8e66116101645780636d67d4321161013e5780636d67d432146104b05780636f9c584f146104db57806379de6d211461050a5780637f1e573c14610656576101c2565b80635a7e8e66146103ea5780635d3e9613146104155780636cd9b60814610485576101c2565b806343bfdd5d116101a057806343bfdd5d1461030b5780634abfa163146103365780634f42b0d8146103b157806359bf3d97146103bb576101c2565b806304dd9686146101c75780631e67f721146102335780632f14bae81461029f575b600080fd5b3480156101d357600080fd5b506101dc610b9c565b6040518080602001828103825283818151815260200191508051906020019060200280838360005b8381101561021f578082015181840152602081019050610204565b505050509050019250505060405180910390f35b34801561023f57600080fd5b50610248610db0565b6040518080602001828103825283818151815260200191508051906020019060200280838360005b8381101561028b578082015181840152602081019050610270565b505050509050019250505060405180910390f35b3480156102ab57600080fd5b506102b4610e3e565b6040518080602001828103825283818151815260200191508051906020019060200280838360005b838110156102f75780820151818401526020810190506102dc565b505050509050019250505060405180910390f35b34801561031757600080fd5b50610320610ecc565b6040518082815260200191505060405180910390f35b34801561034257600080fd5b5061036f6004803603602081101561035957600080fd5b8101908080359060200190929190505050610ed2565b604051808273ffffffffffffffffffffffffffffffffffffffff1673ffffffffffffffffffffffffffffffffffffffff16815260200191505060405180910390f35b6103b9610f0e565b005b3480156103c757600080fd5b506103d061156f565b604051808215151515815260200191505060405180910390f35b3480156103f657600080fd5b506103ff6115c3565b6040518082815260200191505060405180910390f35b34801561042157600080fd5b506104646004803603602081101561043857600080fd5b81019080803573ffffffffffffffffffffffffffffffffffffffff1690602001909291905050506115c9565b60405180838152602001821515151581526020019250505060405180910390f35b34801561049157600080fd5b5061049a6115fa565b6040518082815260200191505060405180910390f35b3480156104bc57600080fd5b506104c5611600565b6040518082815260200191505060405180910390f35b3480156104e757600080fd5b506104f0611606565b604051808215151515815260200191505060405180910390f35b6106546004803603604081101561052057600080fd5b810190808035906020019064010000000081111561053d57600080fd5b82018360208201111561054f57600080fd5b8035906020019184602083028401116401000000008311171561057157600080fd5b919080806020026020016040519081016040528093929190818152602001838360200280828437600081840152601f19601f820116905080830192505050505050509192919290803590602001906401000000008111156105d157600080fd5b8201836020820111156105e357600080fd5b8035906020019184602083028401116401000000008311171561060557600080fd5b919080806020026020016040519081016040528093929190818152602001838360200280828437600081840152601f19601f820116905080830192505050505050509192919290505050611706565b005b34801561066257600080fd5b5061066b611edf565b6040518080602001828103825283818151815260200191508051906020019060200280838360005b838110156106ae578082015181840152602081019050610693565b505050509050019250505060405180910390f35b3480156106ce57600080fd5b506106d7612017565b604051808215151515815260200191505060405180910390f35b3480156106fd57600080fd5b5061072a6004803603602081101561071457600080fd5b810190808035906020019092919050505061206b565b6040518082815260200191505060405180910390f35b61080c6004803603604081101561075657600080fd5b810190808035906020019064010000000081111561077357600080fd5b82018360208201111561078557600080fd5b803590602001918460208302840111640100000000831117156107a757600080fd5b9091929391929390803590602001906401000000008111156107c857600080fd5b8201836020820111156107da57600080fd5b803590602001918460208302840111640100000000831117156107fc57600080fd5b909192939192939050505061208c565b005b34801561081a57600080fd5b506108236126ae565b005b61082d612b35565b005b34801561083b57600080fd5b50610844612da5565b604051808215151515815260200191505060405180910390f35b34801561086a57600080fd5b506108976004803603602081101561088157600080fd5b8101908080359060200190929190505050612ef0565b604051808273ffffffffffffffffffffffffffffffffffffffff1673ffffffffffffffffffffffffffffffffffffffff16815260200191505060405180910390f35b3480156108e557600080fd5b506108ee612f2c565b005b3480156108fc57600080fd5b50610905613173565b6040518080602001828103825283818151815260200191508051906020019060200280838360005b8381101561094857808201518184015260208101905061092d565b505050509050019250505060405180910390f35b34801561096857600080fd5b506109716132ab565b6040518082600481111561098157fe5b60ff16815260200191505060405180910390f35b3480156109a157600080fd5b506109aa6132bd565b6040518080602001828103825283818151815260200191508051906020019080838360005b838110156109ea5780820151818401526020810190506109cf565b50505050905090810190601f168015610a175780820380516001836020036101000a031916815260200191505b509250505060405180910390f35b348015610a3157600080fd5b50610a7460048036036020811015610a4857600080fd5b81019080803573ffffffffffffffffffffffffffffffffffffffff16906020019092919050505061335b565b6040518082815260200191505060405180910390f35b348015610a9657600080fd5b50610a9f6133a7565b6040518080602001828103825283818151815260200191508051906020019060200280838360005b83811015610ae2578082015181840152602081019050610ac7565b505050509050019250505060405180910390f35b348015610b0257600080fd5b50610b2f60048036036020811015610b1957600080fd5b81019080803590602001909291905050506133ff565b604051808273ffffffffffffffffffffffffffffffffffffffff1673ffffffffffffffffffffffffffffffffffffffff16815260200191505060405180910390f35b348015610b7d57600080fd5b50610b8661343b565b6040518082815260200191505060405180910390f35b606080600960003373ffffffffffffffffffffffffffffffffffffffff1673ffffffffffffffffffffffffffffffffffffffff168152602001908152602001600020805480602002602001604051908101604052809291908181526020016000905b82821015610d2057838290600052602060002090600302016040518060600160405290816000820154815260200160018201805480602002602001604051908101604052809291908181526020018280548015610cb057602002820191906000526020600020905b8160009054906101000a900473ffffffffffffffffffffffffffffffffffffffff1673ffffffffffffffffffffffffffffffffffffffff1681526020019060010190808311610c66575b5050505050815260200160028201805480602002602001604051908101604052809291908181526020018280548015610d0857602002820191906000526020600020905b815481526020019060010190808311610cf4575b50505050508152505081526020019060010190610bfe565b50505050905060608151604051908082528060200260200182016040528015610d585781602001602082028038833980820191505090505b50905060008090505b8151811015610da757828181518110610d7657fe5b602002602001015160000151828281518110610d8e57fe5b6020026020010181815250508080600101915050610d61565b50809250505090565b60606001805480602002602001604051908101604052809291908181526020018280548015610e3457602002820191906000526020600020905b8160009054906101000a900473ffffffffffffffffffffffffffffffffffffffff1673ffffffffffffffffffffffffffffffffffffffff1681526020019060010190808311610dea575b5050505050905090565b60606004805480602002602001604051908101604052809291908181526020018280548015610ec257602002820191906000526020600020905b8160009054906101000a900473ffffffffffffffffffffffffffffffffffffffff1673ffffffffffffffffffffffffffffffffffffffff1681526020019060010190808311610e78575b5050505050905090565b60075481565b60088181548110610edf57fe5b906000526020600020016000915054906101000a900473ffffffffffffffffffffffffffffffffffffffff1681565b60046000809054906101000a900460ff166004811115610f2a57fe5b816004811115610f3657fe5b14610f8c576040517f08c379a000000000000000000000000000000000000000000000000000000000815260040180806020018281038252603e8152602001806137da603e913960400191505060405180910390fd5b60001515601060003373ffffffffffffffffffffffffffffffffffffffff1673ffffffffffffffffffffffffffffffffffffffff16815260200190815260200160002060009054906101000a900460ff16151514611052576040517f08c379a000000000000000000000000000000000000000000000000000000000815260040180806020018281038252601e8152602001807f596f75206861766520616c7265616479206265656e20726566756e646564000081525060200191505060405180910390fd5b600080905060011515600260003373ffffffffffffffffffffffffffffffffffffffff1673ffffffffffffffffffffffffffffffffffffffff16815260200190815260200160002060009054906101000a900460ff16151514156110b557600190505b80600960003373ffffffffffffffffffffffffffffffffffffffff1673ffffffffffffffffffffffffffffffffffffffff16815260200190815260200160002080549050101580611156575060011515600f60003373ffffffffffffffffffffffffffffffffffffffff1673ffffffffffffffffffffffffffffffffffffffff16815260200190815260200160002060009054906101000a900460ff161515145b6111ab576040517f08c379a00000000000000000000000000000000000000000000000000000000081526004018080602001828103825260408152602001806139756040913960400191505060405180910390fd5b60008090506060600960003373ffffffffffffffffffffffffffffffffffffffff1673ffffffffffffffffffffffffffffffffffffffff168152602001908152602001600020805480602002602001604051908101604052809291908181526020016000905b82821015611333578382906000526020600020906003020160405180606001604052908160008201548152602001600182018054806020026020016040519081016040528092919081815260200182805480156112c357602002820191906000526020600020905b8160009054906101000a900473ffffffffffffffffffffffffffffffffffffffff1673ffffffffffffffffffffffffffffffffffffffff1681526020019060010190808311611279575b505050505081526020016002820180548060200260200160405190810160405280929190818152602001828054801561131b57602002820191906000526020600020905b815481526020019060010190808311611307575b50505050508152505081526020019060010190611211565b5050505090505b805183101561137c5761136d81848151811061135257fe5b6020026020010151600001518361344190919063ffffffff16565b9150828060010193505061133a565b600080905060011515600f60003373ffffffffffffffffffffffffffffffffffffffff1673ffffffffffffffffffffffffffffffffffffffff16815260200190815260200160002060009054906101000a900460ff161515141561140857611405600d546113f7600e546003546134c990919063ffffffff16565b61344190919063ffffffff16565b90505b6001601060003373ffffffffffffffffffffffffffffffffffffffff1673ffffffffffffffffffffffffffffffffffffffff16815260200190815260200160002060006101000a81548160ff02191690831515021790555060003373ffffffffffffffffffffffffffffffffffffffff1682850160405180600001905060006040518083038185875af1925050503d80600081146114c2576040519150601f19603f3d011682016040523d82523d6000602084013e6114c7565b606091505b505090506001151581151514611528576040517f08c379a00000000000000000000000000000000000000000000000000000000081526004018080602001828103825260268152602001806138b36026913960400191505060405180910390fd5b7f9bb5f29b9278b7f706a7caa67770ad63d5af89b481bdc02309439d76ca0a19df8483604051808381526020018281526020019250505060405180910390a1505050505050565b6000601060003373ffffffffffffffffffffffffffffffffffffffff1673ffffffffffffffffffffffffffffffffffffffff16815260200190815260200160002060009054906101000a900460ff16905090565b600d5481565b60056020528060005260406000206000915090508060000154908060010160009054906101000a900460ff16905082565b60115481565b600e5481565b600060011515600560003373ffffffffffffffffffffffffffffffffffffffff1673ffffffffffffffffffffffffffffffffffffffff16815260200190815260200160002060010160009054906101000a900460ff161515146116b4576040517f08c379a00000000000000000000000000000000000000000000000000000000081526004018080602001828103825260318152602001806138616031913960400191505060405180910390fd5b600660003373ffffffffffffffffffffffffffffffffffffffff1673ffffffffffffffffffffffffffffffffffffffff16815260200190815260200160002060009054906101000a900460ff16905090565b60115442111561177e576040517f08c379a00000000000000000000000000000000000000000000000000000000081526004018080602001828103825260208152602001807f4572726f723a2063616d706169676e20646561646c696e65206578706972656481525060200191505060405180910390fd5b81600080905060008090505b6004805490508110801561179c575081155b15611846576000151560056000600484815481106117b657fe5b9060005260206000200160009054906101000a900473ffffffffffffffffffffffffffffffffffffffff1673ffffffffffffffffffffffffffffffffffffffff1673ffffffffffffffffffffffffffffffffffffffff16815260200190815260200160002060010160009054906101000a900460ff161515141561183957600191505b808060010191505061178a565b5060001515811515146118a4576040517f08c379a000000000000000000000000000000000000000000000000000000000815260040180806020018281038252603d815260200180613a52603d913960400191505060405180910390fd5b600080905060008090505b600180549050811015611939573373ffffffffffffffffffffffffffffffffffffffff16600182815481106118e057fe5b9060005260206000200160009054906101000a900473ffffffffffffffffffffffffffffffffffffffff1673ffffffffffffffffffffffffffffffffffffffff16141561192c57600191505b80806001019150506118af565b506001600481111561194757fe5b6000809054906101000a900460ff16600481111561196157fe5b14806119f657506000600481111561197557fe5b6000809054906101000a900460ff16600481111561198f57fe5b1480156119995750805b80156119f5575060001515600260003373ffffffffffffffffffffffffffffffffffffffff1673ffffffffffffffffffffffffffffffffffffffff16815260200190815260200160002060009054906101000a900460ff161515145b5b611a4b576040517f08c379a0000000000000000000000000000000000000000000000000000000008152600401808060200182810382526049815260200180613a096049913960600191505060405180910390fd5b60003411611ac1576040517f08c379a00000000000000000000000000000000000000000000000000000000081526004018080602001828103825260158152602001807f4572726f723a2030207765692070726f7669646564000000000000000000000081525060200191505060405180910390fd5b8351855114611b1b576040517f08c379a00000000000000000000000000000000000000000000000000000000081526004018080602001828103825260428152602001806139126042913960600191505060405180910390fd5b600080905060008090505b8551811015611b6457611b55868281518110611b3e57fe5b60200260200101518361344190919063ffffffff16565b91508080600101915050611b26565b50803414611bbd576040517f08c379a00000000000000000000000000000000000000000000000000000000081526004018080602001828103825260498152602001806138186049913960600191505060405180910390fd5b611bc561365f565b34816000018181525050868160200181905250858160400181905250600960003373ffffffffffffffffffffffffffffffffffffffff1673ffffffffffffffffffffffffffffffffffffffff168152602001908152602001600020819080600181540180825580915050600190039060005260206000209060030201600090919091909150600082015181600001556020820151816001019080519060200190611c70929190613680565b506040820151816002019080519060200190611c8d92919061370a565b5050506000600b80549050118015611cbd5750600b600081548110611cae57fe5b90600052602060002001543410155b15611e1757611cca613757565b60008090505b600b8054905081108015611cfb5750600b8181548110611cec57fe5b90600052602060002001543410155b15611d0d578080600101915050611cd0565b600181038260000181815250506001600960003373ffffffffffffffffffffffffffffffffffffffff1673ffffffffffffffffffffffffffffffffffffffff1681526020019081526020016000208054905003826020018181525050600a60003373ffffffffffffffffffffffffffffffffffffffff1673ffffffffffffffffffffffffffffffffffffffff168152602001908152602001600020829080600181540180825580915050600190039060005260206000209060020201600090919091909150600082015181600001556020820151816001015550507f744b881a25971efd286cf16da8b9c684ec04deeab58650ac9134f432baa30f1060405160405180910390a150505b60008090505b8751811015611ea957868181518110611e3257fe5b6020026020010151600560008a8481518110611e4a57fe5b602002602001015173ffffffffffffffffffffffffffffffffffffffff1673ffffffffffffffffffffffffffffffffffffffff168152602001908152602001600020600001600082825401925050819055508080600101915050611e1d565b507f69ee10f8865f0d317c7a1b74da8e2cbffcc7097a4077b37fb42fba449101f93560405160405180910390a150505050505050565b606080600a60003373ffffffffffffffffffffffffffffffffffffffff1673ffffffffffffffffffffffffffffffffffffffff168152602001908152602001600020805480602002602001604051908101604052809291908181526020016000905b82821015611f8757838290600052602060002090600202016040518060400160405290816000820154815260200160018201548152505081526020019060010190611f41565b50505050905060608151604051908082528060200260200182016040528015611fbf5781602001602082028038833980820191505090505b50905060008090505b825181101561200e57828181518110611fdd57fe5b602002602001015160000151828281518110611ff557fe5b6020026020010181815250508080600101915050611fc8565b50809250505090565b6000600f60003373ffffffffffffffffffffffffffffffffffffffff1673ffffffffffffffffffffffffffffffffffffffff16815260200190815260200160002060009054906101000a900460ff16905090565b600b818154811061207857fe5b906000526020600020016000915090505481565b601154421115612104576040517f08c379a00000000000000000000000000000000000000000000000000000000081526004018080602001828103825260208152602001807f4572726f723a2063616d706169676e20646561646c696e65206578706972656481525060200191505060405180910390fd5b600080905060008090505b60018054905081108015612121575081155b156121a3573373ffffffffffffffffffffffffffffffffffffffff166001828154811061214a57fe5b9060005260206000200160009054906101000a900473ffffffffffffffffffffffffffffffffffffffff1673ffffffffffffffffffffffffffffffffffffffff16141561219657600191505b808060010191505061210f565b50806121fa576040517f08c379a00000000000000000000000000000000000000000000000000000000081526004018080602001828103825260268152602001806139b56026913960400191505060405180910390fd5b848480806020026020016040519081016040528093929190818152602001838360200280828437600081840152601f19601f82011690508083019250505050505050600080905060008090505b60048054905081108015612259575081155b156123035760001515600560006004848154811061227357fe5b9060005260206000200160009054906101000a900473ffffffffffffffffffffffffffffffffffffffff1673ffffffffffffffffffffffffffffffffffffffff1673ffffffffffffffffffffffffffffffffffffffff16815260200190815260200160002060010160009054906101000a900460ff16151514156122f657600191505b8080600101915050612247565b506000151581151514612361576040517f08c379a000000000000000000000000000000000000000000000000000000000815260040180806020018281038252603d815260200180613a52603d913960400191505060405180910390fd5b60008060009054906101000a900460ff16600481111561237d57fe5b81600481111561238957fe5b146123df576040517f08c379a000000000000000000000000000000000000000000000000000000000815260040180806020018281038252603e8152602001806137da603e913960400191505060405180910390fd5b61246b888880806020026020016040519081016040528093929190818152602001838360200280828437600081840152601f19601f82011690508083019250505050505050878780806020026020016040519081016040528093929190818152602001838360200280828437600081840152601f19601f82011690508083019250505050505050611706565b60001515600260003373ffffffffffffffffffffffffffffffffffffffff1673ffffffffffffffffffffffffffffffffffffffff16815260200190815260200160002060009054906101000a900460ff161515141561251d576001600260003373ffffffffffffffffffffffffffffffffffffffff1673ffffffffffffffffffffffffffffffffffffffff16815260200190815260200160002060006101000a81548160ff0219169083151502179055505b600080905060008090505b6001805490508110156125db5760011515600260006001848154811061254a57fe5b9060005260206000200160009054906101000a900473ffffffffffffffffffffffffffffffffffffffff1673ffffffffffffffffffffffffffffffffffffffff1673ffffffffffffffffffffffffffffffffffffffff16815260200190815260200160002060009054906101000a900460ff16151514156125ce5781806001019250505b8080600101915050612528565b506125f13460035461344190919063ffffffff16565b60038190555060018054905081141561262c5760016000806101000a81548160ff0219169083600481111561262257fe5b0217905550612650565b60008060006101000a81548160ff0219169083600481111561264a57fe5b02179055505b7f66fe4817acfd8756899e5d70b8db5e2f51795f380411f9aa53f14f246cd7d2046000809054906101000a900460ff166040518082600481111561269057fe5b60ff16815260200191505060405180910390a1505050505050505050565b60011515600560003373ffffffffffffffffffffffffffffffffffffffff1673ffffffffffffffffffffffffffffffffffffffff16815260200190815260200160002060010160009054906101000a900460ff1615151461275a576040517f08c379a00000000000000000000000000000000000000000000000000000000081526004018080602001828103825260318152602001806138616031913960400191505060405180910390fd5b6011544211801561278f57506001600481111561277357fe5b6000809054906101000a900460ff16600481111561278d57fe5b145b156127b85760026000806101000a81548160ff021916908360048111156127b257fe5b02179055505b600260048111156127c557fe5b6000809054906101000a900460ff1660048111156127df57fe5b14612852576040517f08c379a000000000000000000000000000000000000000000000000000000000815260040180806020018281038252601f8152602001807f4572726f723a2063616d706169676e206e6f742079657420657870697265640081525060200191505060405180910390fd5b60001515600660003373ffffffffffffffffffffffffffffffffffffffff1673ffffffffffffffffffffffffffffffffffffffff16815260200190815260200160002060009054906101000a900460ff16151514612918576040517f08c379a00000000000000000000000000000000000000000000000000000000081526004018080602001828103825260188152602001807f4572726f723a20616c72656164792077697468647261776e000000000000000081525060200191505060405180910390fd5b6000600560003373ffffffffffffffffffffffffffffffffffffffff1673ffffffffffffffffffffffffffffffffffffffff16815260200190815260200160002060000154905060008090506000600e5411156129a05761299d60048054905061298f600d54600e5461351390919063ffffffff16565b6134c990919063ffffffff16565b90505b6001600660003373ffffffffffffffffffffffffffffffffffffffff1673ffffffffffffffffffffffffffffffffffffffff16815260200190815260200160002060006101000a81548160ff02191690831515021790555060016007600082825401925050819055506000612a1e828461344190919063ffffffff16565b90506000811115612af15760003373ffffffffffffffffffffffffffffffffffffffff168260405180600001905060006040518083038185875af1925050503d8060008114612a89576040519150601f19603f3d011682016040523d82523d6000602084013e612a8e565b606091505b505090506001151581151514612aef576040517f08c379a00000000000000000000000000000000000000000000000000000000081526004018080602001828103825260218152602001806138926021913960400191505060405180910390fd5b505b7f30114f9a49b53f7fb4c7c9ee7723ca7a693418a4c5f1162e02f95a47348e03498383604051808381526020018281526020019250505060405180910390a1505050565b60016000809054906101000a900460ff166004811115612b5157fe5b816004811115612b5d57fe5b14612bb3576040517f08c379a000000000000000000000000000000000000000000000000000000000815260040180806020018281038252603e8152602001806137da603e913960400191505060405180910390fd5b60001515600f60003373ffffffffffffffffffffffffffffffffffffffff1673ffffffffffffffffffffffffffffffffffffffff16815260200190815260200160002060009054906101000a900460ff16151514612c5c576040517f08c379a000000000000000000000000000000000000000000000000000000000815260040180806020018281038252602e8152602001806139db602e913960400191505060405180910390fd5b600d543414612cb6576040517f08c379a0000000000000000000000000000000000000000000000000000000008152600401808060200182810382526036815260200180613a8f6036913960400191505060405180910390fd5b6001600f60003373ffffffffffffffffffffffffffffffffffffffff1673ffffffffffffffffffffffffffffffffffffffff16815260200190815260200160002060006101000a81548160ff0219169083151502179055506001600e60008282540192505081905550600c54600e541415612d4f5760046000806101000a81548160ff02191690836004811115612d4957fe5b02179055505b7ff0ffd3bfdde8a6f01970d2ce17ab4bdb3d8ea65ed7efca58c63c1c0cc7a8a1826000809054906101000a900460ff1660405180826004811115612d8f57fe5b60ff16815260200191505060405180910390a150565b6000806000905060008090505b60018054905081108015612dc4575081155b15612e46573373ffffffffffffffffffffffffffffffffffffffff1660018281548110612ded57fe5b9060005260206000200160009054906101000a900473ffffffffffffffffffffffffffffffffffffffff1673ffffffffffffffffffffffffffffffffffffffff161415612e3957600191505b8080600101915050612db2565b5080612e9d576040517f08c379a00000000000000000000000000000000000000000000000000000000081526004018080602001828103825260268152602001806139b56026913960400191505060405180910390fd5b600260003373ffffffffffffffffffffffffffffffffffffffff1673ffffffffffffffffffffffffffffffffffffffff16815260200190815260200160002060009054906101000a900460ff1691505090565b60018181548110612efd57fe5b906000526020600020016000915054906101000a900473ffffffffffffffffffffffffffffffffffffffff1681565b600080905060008090505b60018054905081108015612f49575081155b15612fcb573373ffffffffffffffffffffffffffffffffffffffff1660018281548110612f7257fe5b9060005260206000200160009054906101000a900473ffffffffffffffffffffffffffffffffffffffff1673ffffffffffffffffffffffffffffffffffffffff161415612fbe57600191505b8080600101915050612f37565b5080613022576040517f08c379a00000000000000000000000000000000000000000000000000000000081526004018080602001828103825260268152602001806139b56026913960400191505060405180910390fd5b60026000809054906101000a900460ff16600481111561303e57fe5b81600481111561304a57fe5b146130a0576040517f08c379a000000000000000000000000000000000000000000000000000000000815260040180806020018281038252603e8152602001806137da603e913960400191505060405180910390fd5b600047146130f9576040517f08c379a00000000000000000000000000000000000000000000000000000000081526004018080602001828103825260398152602001806138d96039913960400191505060405180910390fd5b60036000806101000a81548160ff0219169083600481111561311757fe5b02179055507f66fe4817acfd8756899e5d70b8db5e2f51795f380411f9aa53f14f246cd7d2046000809054906101000a900460ff166040518082600481111561315c57fe5b60ff16815260200191505060405180910390a15050565b606080600a60003373ffffffffffffffffffffffffffffffffffffffff1673ffffffffffffffffffffffffffffffffffffffff168152602001908152602001600020805480602002602001604051908101604052809291908181526020016000905b8282101561321b578382906000526020600020906002020160405180604001604052908160008201548152602001600182015481525050815260200190600101906131d5565b505050509050606081516040519080825280602002602001820160405280156132535781602001602082028038833980820191505090505b50905060008090505b81518110156132a25782818151811061327157fe5b60200260200101516000015182828151811061328957fe5b602002602001018181525050808060010191505061325c565b50809250505090565b6000809054906101000a900460ff1681565b60128054600181600116156101000203166002900480601f0160208091040260200160405190810160405280929190818152602001828054600181600116156101000203166002900480156133535780601f1061332857610100808354040283529160200191613353565b820191906000526020600020905b81548152906001019060200180831161333657829003601f168201915b505050505081565b6000600560008373ffffffffffffffffffffffffffffffffffffffff1673ffffffffffffffffffffffffffffffffffffffff168152602001908152602001600020600001549050919050565b6060600b8054806020026020016040519081016040528092919081815260200182805480156133f557602002820191906000526020600020905b8154815260200190600101908083116133e1575b5050505050905090565b6004818154811061340c57fe5b906000526020600020016000915054906101000a900473ffffffffffffffffffffffffffffffffffffffff1681565b600c5481565b6000808284019050838110156134bf576040517f08c379a000000000000000000000000000000000000000000000000000000000815260040180806020018281038252601b8152602001807f536166654d6174683a206164646974696f6e206f766572666c6f77000000000081525060200191505060405180910390fd5b8091505092915050565b600061350b83836040518060400160405280601a81526020017f536166654d6174683a206469766973696f6e206279207a65726f000000000000815250613599565b905092915050565b6000808314156135265760009050613593565b600082840290508284828161353757fe5b041461358e576040517f08c379a00000000000000000000000000000000000000000000000000000000081526004018080602001828103825260218152602001806139546021913960400191505060405180910390fd5b809150505b92915050565b60008083118290613645576040517f08c379a00000000000000000000000000000000000000000000000000000000081526004018080602001828103825283818151815260200191508051906020019080838360005b8381101561360a5780820151818401526020810190506135ef565b50505050905090810190601f1680156136375780820380516001836020036101000a031916815260200191505b509250505060405180910390fd5b50600083858161365157fe5b049050809150509392505050565b60405180606001604052806000815260200160608152602001606081525090565b8280548282559060005260206000209081019282156136f9579160200282015b828111156136f85782518260006101000a81548173ffffffffffffffffffffffffffffffffffffffff021916908373ffffffffffffffffffffffffffffffffffffffff160217905550916020019190600101906136a0565b5b5090506137069190613771565b5090565b828054828255906000526020600020908101928215613746579160200282015b8281111561374557825182559160200191906001019061372a565b5b50905061375391906137b4565b5090565b604051806040016040528060008152602001600081525090565b6137b191905b808211156137ad57600081816101000a81549073ffffffffffffffffffffffffffffffffffffffff021916905550600101613777565b5090565b90565b6137d691905b808211156137d25760008160009055506001016137ba565b5090565b9056fe4572726f723a2063616e6e6f742061636365737320746869732066756e6374696f6e616c6974792066726f6d207468652063757272656e742073746174654572726f723a20546f74616c20706f766964656420776569732061726520646966666572656e742066726f6d207468652070726f7669646564207765697320706172746974696f6e734572726f723a206f6e6c792062656e656669636961726965732063616e20616363657373207468652077697468647261774572726f723a205769746864726177207472616e73616374696f6e206572726f724572726f723a204672617564207265666f756e64207472616e73616374696f6e206572726f724572726f723a205761697420756e74696c20616c6c2062656e65666963696172696573207769746864726177207468656972207265776172644572726f723a2064657374696e61746f72732073697a6520697320646966666572656e742066726f6d2074686520776569277320706172746974696f6e2073697a65536166654d6174683a206d756c7469706c69636174696f6e206f766572666c6f77596f752068617665206e6f74206d61646520646f6e6174696f6e732f7265706f7274206f7220796f75206861766520616c72656164792077697468647261776e4572726f723a2066756e6374696f6e20726573657276656420746f206f7267616e697a6572734572726f723a20596f75206861766520616c7265616479207265706f7274656420746869732063616d706169676e4572726f723a205468652063616d706169676e206973206e6f742073746172746564206f7220796f75277265206e6f7420616e206f7267616e697a657220746f2073746172742069744572726f723a206f6e65206f72206d6f7265206f66207468652070726f76696465642062656e6566696369617269657320646f206e6f742065786973744572726f723a20596f75206e65656420746f20696e7665737420736f6d6520657468657220746f207265706f72742061206672617564a2646970667358221220456b235cca113551ce0cf5c861069af8db518c48ba4ed507f01f4cf677691bf664736f6c634300060000334572726f723a204e656564206174206c6561737420312062656e6566696369617269654f6e6c7920746865206f776e6572206f66207468697320426974436f6c6c65637420696e7374616e63652063616e2061636365737320746869732066756e6374696f6e546865206672617564207468726573686f6c642073686f756c64206265206772656174686572207468616e203054686520726571756972656420657468657220666f72206672617564207265706f72742073686f756c64206265206772656174686572207468616e20304572726f723a207468652070726f76696465642063616d7061696e20656e64206461746520696c206973206561726c696572207468616e207468652073746172742064617465a2646970667358221220e01a6d87159494eebdd18fc57b87c63461ecc4211603d8816644bb522cf0711d64736f6c63430006000033546865206672617564207468726573686f6c642073686f756c64206265206772656174686572207468616e203054686520726571756972656420657468657220666f72206672617564207265706f72742073686f756c64206265206772656174686572207468616e2030",
  "source": "pragma solidity >=0.4.21 <0.7.0;\r\n\r\nimport \"./Campaign.sol\";\r\n\r\ncontract BitCollect{\r\n\r\n    address bitcollect_owner;\r\n\r\n    address[] campaigns;\r\n    mapping(address => uint) campaign_index;\r\n\r\n    uint fraudThreshold;\r\n    uint report_investment;\r\n\r\n    event campaignCreated(address cont);\r\n\r\n    modifier isOwner() {\r\n        require(msg.sender==bitcollect_owner, \"Only the owner of this BitCollect instance can access this function\");\r\n        _;\r\n    }\r\n\r\n    constructor(uint fraud_threshold, uint _report_investment) public {\r\n        require(fraud_threshold>0, \"The fraud threshold should be greather than 0\");\r\n        require(_report_investment>0, \"The required ether for fraud report should be greather than 0\");\r\n\r\n        bitcollect_owner = msg.sender;\r\n        fraudThreshold = fraud_threshold;\r\n        report_investment = _report_investment;\r\n    }\r\n\r\n    function createCampaign(address[] memory _organizers, address payable[] memory _beneficiaries, uint _end_date,\r\n    uint[] memory rewards_costs, string memory campaign_info_hashes)\r\n    public payable{\r\n        require(_organizers.length>0, \"Error: Need at least 1 organizer\"); //RQ-PARAMS\r\n        require(_beneficiaries.length>0, \"Error: Need at least 1 beneficiarie\"); //RQ-PARAMS\r\n        require(_end_date>block.timestamp, \"Error: the provided campain end date il is earlier than the start date\");\r\n\r\n        Campaign new_campaign = new Campaign(_organizers, _beneficiaries, _end_date, rewards_costs, fraudThreshold, campaign_info_hashes, report_investment);\r\n        campaigns.push(address(new_campaign));\r\n        campaign_index[address(new_campaign)] = campaigns.length-1;\r\n\r\n        emit campaignCreated(address(new_campaign));\r\n    }\r\n\r\n    function setFraudThreshold(uint t) isOwner() external{\r\n        require(t>0, \"The fraud threshold should be greather than 0\");\r\n        fraudThreshold = t;\r\n    }\r\n\r\n    function setFraudInvestment(uint t) isOwner() external{\r\n        require(t>0, \"The required ether for fraud report should be greather than 0\");\r\n        report_investment = t;\r\n    }\r\n\r\n\r\n}",
  "sourcePath": "G:\\SSD Workspace\\Ethereum\\BitCollect\\contracts\\BitCollect.sol",
  "compiler": {
    "name": "solc",
    "version": "0.6.0+commit.26b70077.Emscripten.clang"
  },
  "schemaVersion": "3.2.0",
  "updatedAt": "2020-07-20T16:42:33.948Z",
  "networkType": "ethereum",
  "devdoc": {
    "methods": {}
  },
  "userdoc": {
    "methods": {}
  }
}