{
  "contractName": "BitCollect",
  "abi": [
    {
      "inputs": [
        {
          "internalType": "uint256",
          "name": "threshold",
          "type": "uint256"
        }
      ],
      "payable": false,
      "stateMutability": "nonpayable",
      "type": "constructor"
    },
    {
      "anonymous": false,
      "inputs": [
        {
          "indexed": false,
          "internalType": "address",
          "name": "cont",
          "type": "address"
        }
      ],
      "name": "campaignCreated",
      "type": "event"
    },
    {
      "constant": false,
      "inputs": [
        {
          "internalType": "address[]",
          "name": "_organizers",
          "type": "address[]"
        },
        {
          "internalType": "address payable[]",
          "name": "_beneficiaries",
          "type": "address[]"
        },
        {
          "internalType": "uint256",
          "name": "_end_date",
          "type": "uint256"
        },
        {
          "internalType": "string",
          "name": "name",
          "type": "string"
        },
        {
          "internalType": "string[]",
          "name": "rewards_names",
          "type": "string[]"
        },
        {
          "internalType": "uint256[]",
          "name": "rewards_costs",
          "type": "uint256[]"
        }
      ],
      "name": "createCampaign",
      "outputs": [],
      "payable": true,
      "stateMutability": "payable",
      "type": "function"
    },
    {
      "constant": false,
      "inputs": [
        {
          "internalType": "uint256",
          "name": "t",
          "type": "uint256"
        }
      ],
      "name": "setThreshold",
      "outputs": [],
      "payable": false,
      "stateMutability": "nonpayable",
      "type": "function"
    }
  ],
  "bytecode": "0x60806040523480156200001157600080fd5b5060405162005d2638038062005d268339818101604052620000379190810190620000e2565b600081116200007d576040517f08c379a0000000000000000000000000000000000000000000000000000000008152600401620000749062000176565b60405180910390fd5b336000806101000a81548173ffffffffffffffffffffffffffffffffffffffff021916908373ffffffffffffffffffffffffffffffffffffffff1602179055508060048190555050620001cd565b600081519050620000dc81620001b3565b92915050565b600060208284031215620000f557600080fd5b60006200010584828501620000cb565b91505092915050565b60006200011d602d8362000198565b91507f546865206672617564207468726573686f6c642073686f756c6420626520677260008301527f656174686572207468616e2030000000000000000000000000000000000000006020830152604082019050919050565b6000602082019050818103600083015262000191816200010e565b9050919050565b600082825260208201905092915050565b6000819050919050565b620001be81620001a9565b8114620001ca57600080fd5b50565b615b4980620001dd6000396000f3fe6080604052600436106200002c5760003560e01c8063833c1a811462000031578063960bfe041462000051575b600080fd5b6200004f6004803603620000499190810190620006a2565b6200007f565b005b3480156200005e57600080fd5b506200007d6004803603620000779190810190620007b5565b620002d7565b005b6000865111620000c6576040517f08c379a0000000000000000000000000000000000000000000000000000000008152600401620000bd9062000e30565b60405180910390fd5b60008551116200010d576040517f08c379a0000000000000000000000000000000000000000000000000000000008152600401620001049062000e0e565b60405180910390fd5b42841162000152576040517f08c379a0000000000000000000000000000000000000000000000000000000008152600401620001499062000e74565b60405180910390fd5b805182511462000199576040517f08c379a0000000000000000000000000000000000000000000000000000000008152600401620001909062000dec565b60405180910390fd5b6000868686868686600454604051620001b29062000373565b620001c4979695949392919062000d4c565b604051809103906000f080158015620001e1573d6000803e3d6000fd5b50905060018190806001815401808255809150509060018203906000526020600020016000909192909190916101000a81548173ffffffffffffffffffffffffffffffffffffffff021916908373ffffffffffffffffffffffffffffffffffffffff160217905550506001808054905003600260008373ffffffffffffffffffffffffffffffffffffffff1673ffffffffffffffffffffffffffffffffffffffff168152602001908152602001600020819055507f3b5c6dff367f8fe540e018ee8cb76957ce7d9fafe57f188fa343a6d06084475581604051620002c6919062000d2f565b60405180910390a150505050505050565b6000809054906101000a900473ffffffffffffffffffffffffffffffffffffffff1673ffffffffffffffffffffffffffffffffffffffff163373ffffffffffffffffffffffffffffffffffffffff161462000369576040517f08c379a0000000000000000000000000000000000000000000000000000000008152600401620003609062000e52565b60405180910390fd5b8060048190555050565b61493280620011d583390190565b600081359050620003928162001186565b92915050565b600081359050620003a981620011a0565b92915050565b600082601f830112620003c157600080fd5b8135620003d8620003d28262000ec4565b62000e96565b91508181835260208401935060208101905083856020840282011115620003fe57600080fd5b60005b8381101562000432578162000417888262000381565b84526020840193506020830192505060018101905062000401565b5050505092915050565b600082601f8301126200044e57600080fd5b8135620004656200045f8262000eed565b62000e96565b915081818352602084019350602081019050838560208402820111156200048b57600080fd5b60005b83811015620004bf5781620004a4888262000398565b8452602084019350602083019250506001810190506200048e565b5050505092915050565b600082601f830112620004db57600080fd5b8135620004f2620004ec8262000f16565b62000e96565b9150818183526020840193506020810190508360005b838110156200053c5781358601620005218882620005d3565b84526020840193506020830192505060018101905062000508565b5050505092915050565b600082601f8301126200055857600080fd5b81356200056f620005698262000f3f565b62000e96565b915081818352602084019350602081019050838560208402820111156200059557600080fd5b60005b83811015620005c95781620005ae88826200068b565b84526020840193506020830192505060018101905062000598565b5050505092915050565b600082601f830112620005e557600080fd5b8135620005fc620005f68262000f68565b62000e96565b915080825260208301602083018583830111156200061957600080fd5b6200062683828462001130565b50505092915050565b600082601f8301126200064157600080fd5b813562000658620006528262000f95565b62000e96565b915080825260208301602083018583830111156200067557600080fd5b6200068283828462001130565b50505092915050565b6000813590506200069c81620011ba565b92915050565b60008060008060008060c08789031215620006bc57600080fd5b600087013567ffffffffffffffff811115620006d757600080fd5b620006e589828a01620003af565b965050602087013567ffffffffffffffff8111156200070357600080fd5b6200071189828a016200043c565b95505060406200072489828a016200068b565b945050606087013567ffffffffffffffff8111156200074257600080fd5b6200075089828a016200062f565b935050608087013567ffffffffffffffff8111156200076e57600080fd5b6200077c89828a01620004c9565b92505060a087013567ffffffffffffffff8111156200079a57600080fd5b620007a889828a0162000546565b9150509295509295509295565b600060208284031215620007c857600080fd5b6000620007d8848285016200068b565b91505092915050565b6000620007ef838362000845565b60208301905092915050565b600062000809838362000856565b60208301905092915050565b600062000823838362000a78565b905092915050565b600062000839838362000d0d565b60208301905092915050565b6200085081620010f2565b82525050565b6200086181620010de565b82525050565b6200087281620010de565b82525050565b6000620008858262001002565b62000891818562001078565b93506200089e8362000fc2565b8060005b83811015620008d5578151620008b98882620007fb565b9750620008c68362001044565b925050600181019050620008a2565b5085935050505092915050565b6000620008ef826200100d565b620008fb818562001089565b9350620009088362000fd2565b8060005b838110156200093f578151620009238882620007e1565b9750620009308362001051565b9250506001810190506200090c565b5085935050505092915050565b6000620009598262001018565b6200096581856200109a565b935083602082028501620009798562000fe2565b8060005b85811015620009bb578484038952815162000999858262000815565b9450620009a6836200105e565b925060208a019950506001810190506200097d565b50829750879550505050505092915050565b6000620009da8262001023565b620009e68185620010ab565b9350620009f38362000ff2565b8060005b8381101562000a2a57815162000a0e88826200082b565b975062000a1b836200106b565b925050600181019050620009f7565b5085935050505092915050565b600062000a448262001039565b62000a508185620010cd565b935062000a628185602086016200113f565b62000a6d8162001175565b840191505092915050565b600062000a85826200102e565b62000a918185620010bc565b935062000aa38185602086016200113f565b62000aae8162001175565b840191505092915050565b600062000ac8604283620010cd565b91507f4572726f723a207265776172647320616e64207265776172647320707269636560008301527f732073686f756c642068617665207468652073616d652063617264696e616c6960208301527f74790000000000000000000000000000000000000000000000000000000000006040830152606082019050919050565b600062000b56602383620010cd565b91507f4572726f723a204e656564206174206c6561737420312062656e65666963696160008301527f72696500000000000000000000000000000000000000000000000000000000006020830152604082019050919050565b600062000bbe602083620010cd565b91507f4572726f723a204e656564206174206c656173742031206f7267616e697a65726000830152602082019050919050565b600062000c00604383620010cd565b91507f6f6e6c7920746865206f776e6572206f66207468697320426974436f6c6c656360008301527f7420696e7374616e63652063616e2061636365737320746869732066756e637460208301527f696f6e00000000000000000000000000000000000000000000000000000000006040830152606082019050919050565b600062000c8e604683620010cd565b91507f4572726f723a207468652070726f76696465642063616d7061696e20656e642060008301527f6461746520696c206973206561726c696572207468616e20746865207374617260208301527f74206461746500000000000000000000000000000000000000000000000000006040830152606082019050919050565b62000d188162001126565b82525050565b62000d298162001126565b82525050565b600060208201905062000d46600083018462000867565b92915050565b600060e082019050818103600083015262000d68818a62000878565b9050818103602083015262000d7e8189620008e2565b905062000d8f604083018862000d1e565b818103606083015262000da3818762000a37565b9050818103608083015262000db981866200094c565b905081810360a083015262000dcf8185620009cd565b905062000de060c083018462000d1e565b98975050505050505050565b6000602082019050818103600083015262000e078162000ab9565b9050919050565b6000602082019050818103600083015262000e298162000b47565b9050919050565b6000602082019050818103600083015262000e4b8162000baf565b9050919050565b6000602082019050818103600083015262000e6d8162000bf1565b9050919050565b6000602082019050818103600083015262000e8f8162000c7f565b9050919050565b6000604051905081810181811067ffffffffffffffff8211171562000eba57600080fd5b8060405250919050565b600067ffffffffffffffff82111562000edc57600080fd5b602082029050602081019050919050565b600067ffffffffffffffff82111562000f0557600080fd5b602082029050602081019050919050565b600067ffffffffffffffff82111562000f2e57600080fd5b602082029050602081019050919050565b600067ffffffffffffffff82111562000f5757600080fd5b602082029050602081019050919050565b600067ffffffffffffffff82111562000f8057600080fd5b601f19601f8301169050602081019050919050565b600067ffffffffffffffff82111562000fad57600080fd5b601f19601f8301169050602081019050919050565b6000819050602082019050919050565b6000819050602082019050919050565b6000819050602082019050919050565b6000819050602082019050919050565b600081519050919050565b600081519050919050565b600081519050919050565b600081519050919050565b600081519050919050565b600081519050919050565b6000602082019050919050565b6000602082019050919050565b6000602082019050919050565b6000602082019050919050565b600082825260208201905092915050565b600082825260208201905092915050565b600082825260208201905092915050565b600082825260208201905092915050565b600082825260208201905092915050565b600082825260208201905092915050565b6000620010eb8262001106565b9050919050565b6000620010ff8262001106565b9050919050565b600073ffffffffffffffffffffffffffffffffffffffff82169050919050565b6000819050919050565b82818337600083830152505050565b60005b838110156200115f57808201518184015260208101905062001142565b838111156200116f576000848401525b50505050565b6000601f19601f8301169050919050565b6200119181620010de565b81146200119d57600080fd5b50565b620011ab81620010f2565b8114620011b757600080fd5b50565b620011c58162001126565b8114620011d157600080fd5b5056fe60806040523480156200001157600080fd5b506040516200493238038062004932833981810160405262000037919081019062000917565b60008751905060008090505b81811015620001405760028982815181106200005b57fe5b602002602001015190806001815401808255809150509060018203906000526020600020016000909192909190916101000a81548173ffffffffffffffffffffffffffffffffffffffff021916908373ffffffffffffffffffffffffffffffffffffffff160217905550506000600360008b8481518110620000d957fe5b602002602001015173ffffffffffffffffffffffffffffffffffffffff1673ffffffffffffffffffffffffffffffffffffffff16815260200190815260200160002060006101000a81548160ff021916908315150217905550808060010191505062000043565b508651905060008090505b81811015620002a75760058882815181106200016357fe5b602002602001015190806001815401808255809150509060018203906000526020600020016000909192909190916101000a81548173ffffffffffffffffffffffffffffffffffffffff021916908373ffffffffffffffffffffffffffffffffffffffff160217905550506000600660008a8481518110620001e157fe5b602002602001015173ffffffffffffffffffffffffffffffffffffffff1673ffffffffffffffffffffffffffffffffffffffff168152602001908152602001600020600001819055506001600660008a84815181106200023d57fe5b602002602001015173ffffffffffffffffffffffffffffffffffffffff1673ffffffffffffffffffffffffffffffffffffffff16815260200190815260200160002060010160006101000a81548160ff02191690831515021790555080806001019150506200014b565b50856010819055508460019080519060200190620002c79291906200038a565b5060008060006101000a81548160ff02191690836004811115620002e757fe5b021790555083600a90805190602001906200030492919062000411565b5082600b90805190602001906200031d92919062000478565b5081600c819055506000600d8190555060006004819055507f66fe4817acfd8756899e5d70b8db5e2f51795f380411f9aa53f14f246cd7d2046000809054906101000a900460ff1660405162000374919062000a52565b60405180910390a1505050505050505062000ca8565b828054600181600116156101000203166002900490600052602060002090601f016020900481019282601f10620003cd57805160ff1916838001178555620003fe565b82800160010185558215620003fe579182015b82811115620003fd578251825591602001919060010190620003e0565b5b5090506200040d9190620004ca565b5090565b82805482825590600052602060002090810192821562000465579160200282015b828111156200046457825182908051906020019062000453929190620004f2565b509160200191906001019062000432565b5b50905062000474919062000579565b5090565b828054828255906000526020600020908101928215620004b7579160200282015b82811115620004b657825182559160200191906001019062000499565b5b509050620004c69190620004ca565b5090565b620004ef91905b80821115620004eb576000816000905550600101620004d1565b5090565b90565b828054600181600116156101000203166002900490600052602060002090601f016020900481019282601f106200053557805160ff191683800117855562000566565b8280016001018555821562000566579182015b828111156200056557825182559160200191906001019062000548565b5b509050620005759190620004ca565b5090565b620005a791905b80821115620005a35760008181620005999190620005aa565b5060010162000580565b5090565b90565b50805460018160011615610100020316600290046000825580601f10620005d25750620005f3565b601f016020900490600052602060002090810190620005f29190620004ca565b5b50565b600081519050620006078162000c5a565b92915050565b6000815190506200061e8162000c74565b92915050565b600082601f8301126200063657600080fd5b81516200064d620006478262000a9d565b62000a6f565b915081818352602084019350602081019050838560208402820111156200067357600080fd5b60005b83811015620006a757816200068c8882620005f6565b84526020840193506020830192505060018101905062000676565b5050505092915050565b600082601f830112620006c357600080fd5b8151620006da620006d48262000ac6565b62000a6f565b915081818352602084019350602081019050838560208402820111156200070057600080fd5b60005b838110156200073457816200071988826200060d565b84526020840193506020830192505060018101905062000703565b5050505092915050565b600082601f8301126200075057600080fd5b815162000767620007618262000aef565b62000a6f565b9150818183526020840193506020810190508360005b83811015620007b1578151860162000796888262000848565b8452602084019350602083019250506001810190506200077d565b5050505092915050565b600082601f830112620007cd57600080fd5b8151620007e4620007de8262000b18565b62000a6f565b915081818352602084019350602081019050838560208402820111156200080a57600080fd5b60005b838110156200083e578162000823888262000900565b8452602084019350602083019250506001810190506200080d565b5050505092915050565b600082601f8301126200085a57600080fd5b8151620008716200086b8262000b41565b62000a6f565b915080825260208301602083018583830111156200088e57600080fd5b6200089b83828462000c16565b50505092915050565b600082601f830112620008b657600080fd5b8151620008cd620008c78262000b6e565b62000a6f565b91508082526020830160208301858383011115620008ea57600080fd5b620008f783828462000c16565b50505092915050565b600081519050620009118162000c8e565b92915050565b600080600080600080600060e0888a0312156200093357600080fd5b600088015167ffffffffffffffff8111156200094e57600080fd5b6200095c8a828b0162000624565b975050602088015167ffffffffffffffff8111156200097a57600080fd5b620009888a828b01620006b1565b96505060406200099b8a828b0162000900565b955050606088015167ffffffffffffffff811115620009b957600080fd5b620009c78a828b01620008a4565b945050608088015167ffffffffffffffff811115620009e557600080fd5b620009f38a828b016200073e565b93505060a088015167ffffffffffffffff81111562000a1157600080fd5b62000a1f8a828b01620007bb565b92505060c062000a328a828b0162000900565b91505092959891949750929550565b62000a4c8162000c02565b82525050565b600060208201905062000a69600083018462000a41565b92915050565b6000604051905081810181811067ffffffffffffffff8211171562000a9357600080fd5b8060405250919050565b600067ffffffffffffffff82111562000ab557600080fd5b602082029050602081019050919050565b600067ffffffffffffffff82111562000ade57600080fd5b602082029050602081019050919050565b600067ffffffffffffffff82111562000b0757600080fd5b602082029050602081019050919050565b600067ffffffffffffffff82111562000b3057600080fd5b602082029050602081019050919050565b600067ffffffffffffffff82111562000b5957600080fd5b601f19601f8301169050602081019050919050565b600067ffffffffffffffff82111562000b8657600080fd5b601f19601f8301169050602081019050919050565b600062000ba88262000bd8565b9050919050565b600062000bbc8262000bd8565b9050919050565b600081905062000bd38262000c4c565b919050565b600073ffffffffffffffffffffffffffffffffffffffff82169050919050565b6000819050919050565b600062000c0f8262000bc3565b9050919050565b60005b8381101562000c3657808201518184015260208101905062000c19565b8381111562000c46576000848401525b50505050565b6005811062000c5757fe5b50565b62000c658162000b9b565b811462000c7157600080fd5b50565b62000c7f8162000baf565b811462000c8b57600080fd5b50565b62000c998162000bf8565b811462000ca557600080fd5b50565b613c7a8062000cb86000396000f3fe6080604052600436106100e85760003560e01c80639af6549a1161008a578063c19d93fb11610059578063c19d93fb1461025e578063d059de1914610289578063e86ae700146102a5578063efeb5e58146102e2576100e8565b80639af6549a146101e95780639c378d8014610200578063a4c8be1e1461020a578063a4e00d6e14610247576100e8565b80635f8d96de116100c65780635f8d96de1461015157806371aac7f91461017c5780637f1e573c14610193578063913b722c146101be576100e8565b806324881536146100ed5780634f42b0d8146101095780635d3e961314610113575b600080fd5b61010760048036036101029190810190612c01565b61031f565b005b6101116108fd565b005b34801561011f57600080fd5b5061013a60048036036101359190810190612bd8565b610f29565b604051610148929190613955565b60405180910390f35b34801561015d57600080fd5b50610166610f5a565b604051610173919061393a565b60405180910390f35b34801561018857600080fd5b50610191610f64565b005b34801561019f57600080fd5b506101a86111e4565b6040516101b59190613718565b60405180910390f35b3480156101ca57600080fd5b506101d3611496565b6040516101e091906136b9565b60405180910390f35b3480156101f557600080fd5b506101fe611524565b005b610208611829565b005b34801561021657600080fd5b50610231600480360361022c9190810190612d7d565b611a8a565b60405161023e919061365a565b60405180910390f35b34801561025357600080fd5b5061025c611ac6565b005b34801561026a57600080fd5b50610273611cbf565b60405161028091906136fd565b60405180910390f35b6102a3600480360361029e9190810190612ce6565b611cd1565b005b3480156102b157600080fd5b506102cc60048036036102c79190810190612ca5565b6123c6565b6040516102d991906136db565b60405180910390f35b3480156102ee57600080fd5b5061030960048036036103049190810190612d7d565b6125a3565b6040516103169190613675565b60405180910390f35b426010548110610364576040517f08c379a000000000000000000000000000000000000000000000000000000000815260040161035b9061375a565b60405180910390fd5b33600080905060008090505b60028054905081108015610382575081155b15610404578273ffffffffffffffffffffffffffffffffffffffff16600282815481106103ab57fe5b9060005260206000200160009054906101000a900473ffffffffffffffffffffffffffffffffffffffff1673ffffffffffffffffffffffffffffffffffffffff1614156103f757600191505b8080600101915050610370565b5080610445576040517f08c379a000000000000000000000000000000000000000000000000000000000815260040161043c9061387a565b60405180910390fd5b888880806020026020016040519081016040528093929190818152602001838360200280828437600081840152601f19601f82011690508083019250505050505050600080905060008090505b600580549050811080156104a4575081155b1561054e576000151560066000600584815481106104be57fe5b9060005260206000200160009054906101000a900473ffffffffffffffffffffffffffffffffffffffff1673ffffffffffffffffffffffffffffffffffffffff1673ffffffffffffffffffffffffffffffffffffffff16815260200190815260200160002060010160009054906101000a900460ff161515141561054157600191505b8080600101915050610492565b506000151581151514610596576040517f08c379a000000000000000000000000000000000000000000000000000000000815260040161058d906138da565b60405180910390fd5b60008060009054906101000a900460ff1660048111156105b257fe5b8160048111156105be57fe5b146105fe576040517f08c379a00000000000000000000000000000000000000000000000000000000081526004016105f59061377a565b60405180910390fd5b6106cf8c8c80806020026020016040519081016040528093929190818152602001838360200280828437600081840152601f19601f820116905080830192505050505050508b8b80806020026020016040519081016040528093929190818152602001838360200280828437600081840152601f19601f820116905080830192505050505050508a8a8080601f016020809104026020016040519081016040528093929190818152602001838380828437600081840152601f19601f82011690508083019250505050505050611cd1565b60001515600360003373ffffffffffffffffffffffffffffffffffffffff1673ffffffffffffffffffffffffffffffffffffffff16815260200190815260200160002060009054906101000a900460ff1615151415610781576001600360003373ffffffffffffffffffffffffffffffffffffffff1673ffffffffffffffffffffffffffffffffffffffff16815260200190815260200160002060006101000a81548160ff0219169083151502179055505b600080905060008090505b60028054905081101561083f576001151560036000600284815481106107ae57fe5b9060005260206000200160009054906101000a900473ffffffffffffffffffffffffffffffffffffffff1673ffffffffffffffffffffffffffffffffffffffff1673ffffffffffffffffffffffffffffffffffffffff16815260200190815260200160002060009054906101000a900460ff16151514156108325781806001019250505b808060010191505061078c565b50346004600082825401925050819055506002805490508114156108855760016000806101000a81548160ff0219169083600481111561087b57fe5b02179055506108a9565b60008060006101000a81548160ff021916908360048111156108a357fe5b02179055505b7f66fe4817acfd8756899e5d70b8db5e2f51795f380411f9aa53f14f246cd7d2046000809054906101000a900460ff166040516108e691906136fd565b60405180910390a150505050505050505050505050565b60046000809054906101000a900460ff16600481111561091957fe5b81600481111561092557fe5b14610965576040517f08c379a000000000000000000000000000000000000000000000000000000000815260040161095c9061377a565b60405180910390fd5b600060011515600360003373ffffffffffffffffffffffffffffffffffffffff1673ffffffffffffffffffffffffffffffffffffffff16815260200190815260200160002060009054906101000a900460ff16151514156109c957600190506109ce565b600090505b80600860003373ffffffffffffffffffffffffffffffffffffffff1673ffffffffffffffffffffffffffffffffffffffff168152602001908152602001600020805490501180610a5d57506000600f60003373ffffffffffffffffffffffffffffffffffffffff1673ffffffffffffffffffffffffffffffffffffffff16815260200190815260200160002054115b610a9c576040517f08c379a0000000000000000000000000000000000000000000000000000000008152600401610a939061385a565b60405180910390fd5b60008090506060600860003373ffffffffffffffffffffffffffffffffffffffff1673ffffffffffffffffffffffffffffffffffffffff168152602001908152602001600020805480602002602001604051908101604052809291908181526020016000905b82821015610d0957838290600052602060002090600702016040518060a00160405290816000820154815260200160018201805480602002602001604051908101604052809291908181526020018280548015610bb457602002820191906000526020600020905b8160009054906101000a900473ffffffffffffffffffffffffffffffffffffffff1673ffffffffffffffffffffffffffffffffffffffff1681526020019060010190808311610b6a575b5050505050815260200160028201805480602002602001604051908101604052809291908181526020018280548015610c0c57602002820191906000526020600020905b815481526020019060010190808311610bf8575b50505050508152602001600382016040518060600160405290816000820154815260200160018201548152602001600282018054600181600116156101000203166002900480601f016020809104026020016040519081016040528092919081815260200182805460018160011615610100020316600290048015610cd25780601f10610ca757610100808354040283529160200191610cd2565b820191906000526020600020905b815481529060010190602001808311610cb557829003601f168201915b50505050508152505081526020016006820160009054906101000a900460ff16151515158152505081526020019060010190610b02565b5050505090505b8051831015610d4257808381518110610d2557fe5b602002602001015160000151820191508280600101935050610d10565b600860003373ffffffffffffffffffffffffffffffffffffffff1673ffffffffffffffffffffffffffffffffffffffff1681526020019081526020016000206000610d8d919061260e565b60008090506000600f60003373ffffffffffffffffffffffffffffffffffffffff1673ffffffffffffffffffffffffffffffffffffffff168152602001908152602001600020541115610e3357600e8054905060045481610dea57fe5b0490506000600f60003373ffffffffffffffffffffffffffffffffffffffff1673ffffffffffffffffffffffffffffffffffffffff168152602001908152602001600020819055505b60003373ffffffffffffffffffffffffffffffffffffffff16828501604051610e5b90613645565b60006040518083038185875af1925050503d8060008114610e98576040519150601f19603f3d011682016040523d82523d6000602084013e610e9d565b606091505b505090506001151581151514610ee8576040517f08c379a0000000000000000000000000000000000000000000000000000000008152600401610edf906137fa565b60405180910390fd5b7f9bb5f29b9278b7f706a7caa67770ad63d5af89b481bdc02309439d76ca0a19df8483604051610f1992919061397e565b60405180910390a1505050505050565b60066020528060005260406000206000915090508060000154908060010160009054906101000a900460ff16905082565b6000601054905090565b33600080905060008090505b60028054905081108015610f82575081155b15611004578273ffffffffffffffffffffffffffffffffffffffff1660028281548110610fab57fe5b9060005260206000200160009054906101000a900473ffffffffffffffffffffffffffffffffffffffff1673ffffffffffffffffffffffffffffffffffffffff161415610ff757600191505b8080600101915050610f70565b5080611045576040517f08c379a000000000000000000000000000000000000000000000000000000000815260040161103c9061387a565b60405180910390fd5b60016000809054906101000a900460ff16600481111561106157fe5b81600481111561106d57fe5b146110ad576040517f08c379a00000000000000000000000000000000000000000000000000000000081526004016110a49061377a565b60405180910390fd5b60026000806101000a81548160ff021916908360048111156110cb57fe5b02179055506000600d54111561119a576000600580549050600d54816110ed57fe5b04905060008090505b6005805490508110156111975781600660006005848154811061111557fe5b9060005260206000200160009054906101000a900473ffffffffffffffffffffffffffffffffffffffff1673ffffffffffffffffffffffffffffffffffffffff1673ffffffffffffffffffffffffffffffffffffffff1681526020019081526020016000206000016000828254019250508190555080806001019150506110f6565b50505b7f66fe4817acfd8756899e5d70b8db5e2f51795f380411f9aa53f14f246cd7d2046000809054906101000a900460ff166040516111d791906136fd565b60405180910390a1505050565b60608060405180602001604052806000815250905060606040518060400160405280600181526020017f400000000000000000000000000000000000000000000000000000000000000081525090506060600960003373ffffffffffffffffffffffffffffffffffffffff1673ffffffffffffffffffffffffffffffffffffffff168152602001908152602001600020805480602002602001604051908101604052809291908181526020016000905b8282101561137c57838290600052602060002090600302016040518060600160405290816000820154815260200160018201548152602001600282018054600181600116156101000203166002900480601f0160208091040260200160405190810160405280929190818152602001828054600181600116156101000203166002900480156113645780601f1061133957610100808354040283529160200191611364565b820191906000526020600020905b81548152906001019060200180831161134757829003601f168201915b50505050508152505081526020019060010190611294565b50505050905060008090505b815181101561148c5760008090505b8282815181106113a357fe5b602002602001015160000151811161147e5761146f8585600a84815481106113c757fe5b906000526020600020018054600181600116156101000203166002900480601f0160208091040260200160405190810160405280929190818152602001828054600181600116156101000203166002900480156114655780601f1061143a57610100808354040283529160200191611465565b820191906000526020600020905b81548152906001019060200180831161144857829003601f168201915b50505050506125df565b94508080600101915050611397565b508080600101915050611388565b5082935050505090565b6060600580548060200260200160405190810160405280929190818152602001828054801561151a57602002820191906000526020600020905b8160009054906101000a900473ffffffffffffffffffffffffffffffffffffffff1673ffffffffffffffffffffffffffffffffffffffff16815260200190600101908083116114d0575b5050505050905090565b3360011515600660008373ffffffffffffffffffffffffffffffffffffffff1673ffffffffffffffffffffffffffffffffffffffff16815260200190815260200160002060010160009054906101000a900460ff161515146115bb576040517f08c379a00000000000000000000000000000000000000000000000000000000081526004016115b2906137ba565b60405180910390fd5b60026000809054906101000a900460ff1660048111156115d757fe5b8160048111156115e357fe5b14611623576040517f08c379a000000000000000000000000000000000000000000000000000000000815260040161161a9061377a565b60405180910390fd5b6000600660003373ffffffffffffffffffffffffffffffffffffffff1673ffffffffffffffffffffffffffffffffffffffff16815260200190815260200160002060000154116116a8576040517f08c379a000000000000000000000000000000000000000000000000000000000815260040161169f9061373a565b60405180910390fd5b6000600660003373ffffffffffffffffffffffffffffffffffffffff1673ffffffffffffffffffffffffffffffffffffffff1681526020019081526020016000206000015490506000600660003373ffffffffffffffffffffffffffffffffffffffff1673ffffffffffffffffffffffffffffffffffffffff1681526020019081526020016000206000018190555060003373ffffffffffffffffffffffffffffffffffffffff168260405161175d90613645565b60006040518083038185875af1925050503d806000811461179a576040519150601f19603f3d011682016040523d82523d6000602084013e61179f565b606091505b5050905060011515811515146117ea576040517f08c379a00000000000000000000000000000000000000000000000000000000081526004016117e1906137da565b60405180910390fd5b7f93740124b37b8f64043ddd706a499c11b58d2642466169e4c310f6b55ead67b6338360405161181b929190613690565b60405180910390a150505050565b60016000809054906101000a900460ff16600481111561184557fe5b81600481111561185157fe5b14611891576040517f08c379a00000000000000000000000000000000000000000000000000000000081526004016118889061377a565b60405180910390fd5b6000600f60003373ffffffffffffffffffffffffffffffffffffffff1673ffffffffffffffffffffffffffffffffffffffff1681526020019081526020016000205414611913576040517f08c379a000000000000000000000000000000000000000000000000000000000815260040161190a9061389a565b60405180910390fd5b60003411611956576040517f08c379a000000000000000000000000000000000000000000000000000000000815260040161194d9061391a565b60405180910390fd5b34600f60003373ffffffffffffffffffffffffffffffffffffffff1673ffffffffffffffffffffffffffffffffffffffff16815260200190815260200160002081905550600e3390806001815401808255809150509060018203906000526020600020016000909192909190916101000a81548173ffffffffffffffffffffffffffffffffffffffff021916908373ffffffffffffffffffffffffffffffffffffffff1602179055505034600d60008282540192505081905550600c54600e8054905010611a425760046000806101000a81548160ff02191690836004811115611a3c57fe5b02179055505b7ff0ffd3bfdde8a6f01970d2ce17ab4bdb3d8ea65ed7efca58c63c1c0cc7a8a1826000809054906101000a900460ff16604051611a7f91906136fd565b60405180910390a150565b60028181548110611a9757fe5b906000526020600020016000915054906101000a900473ffffffffffffffffffffffffffffffffffffffff1681565b33600080905060008090505b60028054905081108015611ae4575081155b15611b66578273ffffffffffffffffffffffffffffffffffffffff1660028281548110611b0d57fe5b9060005260206000200160009054906101000a900473ffffffffffffffffffffffffffffffffffffffff1673ffffffffffffffffffffffffffffffffffffffff161415611b5957600191505b8080600101915050611ad2565b5080611ba7576040517f08c379a0000000000000000000000000000000000000000000000000000000008152600401611b9e9061387a565b60405180910390fd5b60026000809054906101000a900460ff166004811115611bc357fe5b816004811115611bcf57fe5b14611c0f576040517f08c379a0000000000000000000000000000000000000000000000000000000008152600401611c069061377a565b60405180910390fd5b60004714611c52576040517f08c379a0000000000000000000000000000000000000000000000000000000008152600401611c499061381a565b60405180910390fd5b60036000806101000a81548160ff02191690836004811115611c7057fe5b02179055507f66fe4817acfd8756899e5d70b8db5e2f51795f380411f9aa53f14f246cd7d2046000809054906101000a900460ff16604051611cb291906136fd565b60405180910390a1505050565b6000809054906101000a900460ff1681565b426010548110611d16576040517f08c379a0000000000000000000000000000000000000000000000000000000008152600401611d0d9061375a565b60405180910390fd5b83600080905060008090505b60058054905081108015611d34575081155b15611dde57600015156006600060058481548110611d4e57fe5b9060005260206000200160009054906101000a900473ffffffffffffffffffffffffffffffffffffffff1673ffffffffffffffffffffffffffffffffffffffff1673ffffffffffffffffffffffffffffffffffffffff16815260200190815260200160002060010160009054906101000a900460ff1615151415611dd157600191505b8080600101915050611d22565b506000151581151514611e26576040517f08c379a0000000000000000000000000000000000000000000000000000000008152600401611e1d906138da565b60405180910390fd5b60016004811115611e3357fe5b6000809054906101000a900460ff166004811115611e4d57fe5b1480611ed9575060006004811115611e6157fe5b6000809054906101000a900460ff166004811115611e7b57fe5b148015611ed8575060001515600360003373ffffffffffffffffffffffffffffffffffffffff1673ffffffffffffffffffffffffffffffffffffffff16815260200190815260200160002060009054906101000a900460ff161515145b5b611f18576040517f08c379a0000000000000000000000000000000000000000000000000000000008152600401611f0f906138ba565b60405180910390fd5b60003411611f5b576040517f08c379a0000000000000000000000000000000000000000000000000000000008152600401611f52906138fa565b60405180910390fd5b8451865114611f9f576040517f08c379a0000000000000000000000000000000000000000000000000000000008152600401611f969061383a565b60405180910390fd5b600080905060008090505b8651811015611fd857868181518110611fbf57fe5b6020026020010151820191508080600101915050611faa565b5080341461201b576040517f08c379a00000000000000000000000000000000000000000000000000000000081526004016120129061379a565b60405180910390fd5b612023612632565b34816000018181525050878160200181905250868160400181905250600860003373ffffffffffffffffffffffffffffffffffffffff1673ffffffffffffffffffffffffffffffffffffffff16815260200190815260200160002081908060018154018082558091505090600182039060005260206000209060070201600090919290919091506000820151816000015560208201518160010190805190602001906120d0929190612669565b5060408201518160020190805190602001906120ed9291906126f3565b5060608201518160030160008201518160000155602082015181600101556040820151816002019080519060200190612127929190612740565b50505060808201518160060160006101000a81548160ff0219169083151502179055505050506000600b8054905011801561217a5750600b60008154811061216b57fe5b90600052602060002001543410155b156122fd576121876127c0565b60008090505b600a80549050811080156121b85750600b81815481106121a957fe5b90600052602060002001543410155b156121ca57808060010191505061218d565b600181038260000181815250506001600860003373ffffffffffffffffffffffffffffffffffffffff1673ffffffffffffffffffffffffffffffffffffffff1681526020019081526020016000208054905003826020018181525050878260400181905250600960003373ffffffffffffffffffffffffffffffffffffffff1673ffffffffffffffffffffffffffffffffffffffff1681526020019081526020016000208290806001815401808255809150509060018203906000526020600020906003020160009091929091909150600082015181600001556020820151816001015560408201518160020190805190602001906122ca929190612740565b505050507f744b881a25971efd286cf16da8b9c684ec04deeab58650ac9134f432baa30f1060405160405180910390a150505b60008090505b885181101561238f5787818151811061231857fe5b6020026020010151600660008b848151811061233057fe5b602002602001015173ffffffffffffffffffffffffffffffffffffffff1673ffffffffffffffffffffffffffffffffffffffff168152602001908152602001600020600001600082825401925050819055508080600101915050612303565b507f69ee10f8865f0d317c7a1b74da8e2cbffcc7097a4077b37fb42fba449101f93560405160405180910390a15050505050505050565b606081600080905060008090505b600580549050811080156123e6575081155b156124905760001515600660006005848154811061240057fe5b9060005260206000200160009054906101000a900473ffffffffffffffffffffffffffffffffffffffff1673ffffffffffffffffffffffffffffffffffffffff1673ffffffffffffffffffffffffffffffffffffffff16815260200190815260200160002060010160009054906101000a900460ff161515141561248357600191505b80806001019150506123d4565b5060001515811515146124d8576040517f08c379a00000000000000000000000000000000000000000000000000000000081526004016124cf906138da565b60405180910390fd5b6060845160405190808252806020026020018201604052801561250a5781602001602082028038833980820191505090505b50905060008090505b8551811015612597576006600087838151811061252c57fe5b602002602001015173ffffffffffffffffffffffffffffffffffffffff1673ffffffffffffffffffffffffffffffffffffffff1681526020019081526020016000206000015482828151811061257e57fe5b6020026020010181815250508080600101915050612513565b50809350505050919050565b600581815481106125b057fe5b906000526020600020016000915054906101000a900473ffffffffffffffffffffffffffffffffffffffff1681565b60608383836040516020016125f693929190613614565b60405160208183030381529060405290509392505050565b508054600082556007029060005260206000209081019061262f91906127e1565b50565b6040518060a0016040528060008152602001606081526020016060815260200161265a612863565b81526020016000151581525090565b8280548282559060005260206000209081019282156126e2579160200282015b828111156126e15782518260006101000a81548173ffffffffffffffffffffffffffffffffffffffff021916908373ffffffffffffffffffffffffffffffffffffffff16021790555091602001919060010190612689565b5b5090506126ef9190612884565b5090565b82805482825590600052602060002090810192821561272f579160200282015b8281111561272e578251825591602001919060010190612713565b5b50905061273c91906128c7565b5090565b828054600181600116156101000203166002900490600052602060002090601f016020900481019282601f1061278157805160ff19168380011785556127af565b828001600101855582156127af579182015b828111156127ae578251825591602001919060010190612793565b5b5090506127bc91906128c7565b5090565b60405180606001604052806000815260200160008152602001606081525090565b61286091905b8082111561285c5760008082016000905560018201600061280891906128ec565b600282016000612818919061290d565b60038201600080820160009055600182016000905560028201600061283d919061292e565b50506006820160006101000a81549060ff0219169055506007016127e7565b5090565b90565b60405180606001604052806000815260200160008152602001606081525090565b6128c491905b808211156128c057600081816101000a81549073ffffffffffffffffffffffffffffffffffffffff02191690555060010161288a565b5090565b90565b6128e991905b808211156128e55760008160009055506001016128cd565b5090565b90565b508054600082559060005260206000209081019061290a91906128c7565b50565b508054600082559060005260206000209081019061292b91906128c7565b50565b50805460018160011615610100020316600290046000825580601f106129545750612973565b601f01602090049060005260206000209081019061297291906128c7565b5b50565b60008135905061298581613c09565b92915050565b60008083601f84011261299d57600080fd5b8235905067ffffffffffffffff8111156129b657600080fd5b6020830191508360208202830111156129ce57600080fd5b9250929050565b600082601f8301126129e657600080fd5b81356129f96129f4826139d4565b6139a7565b91508181835260208401935060208101905083856020840282011115612a1e57600080fd5b60005b83811015612a4e5781612a348882612976565b845260208401935060208301925050600181019050612a21565b5050505092915050565b60008083601f840112612a6a57600080fd5b8235905067ffffffffffffffff811115612a8357600080fd5b602083019150836020820283011115612a9b57600080fd5b9250929050565b600082601f830112612ab357600080fd5b8135612ac6612ac1826139fc565b6139a7565b91508181835260208401935060208101905083856020840282011115612aeb57600080fd5b60005b83811015612b1b5781612b018882612bc3565b845260208401935060208301925050600181019050612aee565b5050505092915050565b60008083601f840112612b3757600080fd5b8235905067ffffffffffffffff811115612b5057600080fd5b602083019150836001820283011115612b6857600080fd5b9250929050565b600082601f830112612b8057600080fd5b8135612b93612b8e82613a24565b6139a7565b91508082526020830160208301858383011115612baf57600080fd5b612bba838284613ba9565b50505092915050565b600081359050612bd281613c20565b92915050565b600060208284031215612bea57600080fd5b6000612bf884828501612976565b91505092915050565b60008060008060008060608789031215612c1a57600080fd5b600087013567ffffffffffffffff811115612c3457600080fd5b612c4089828a0161298b565b9650965050602087013567ffffffffffffffff811115612c5f57600080fd5b612c6b89828a01612a58565b9450945050604087013567ffffffffffffffff811115612c8a57600080fd5b612c9689828a01612b25565b92509250509295509295509295565b600060208284031215612cb757600080fd5b600082013567ffffffffffffffff811115612cd157600080fd5b612cdd848285016129d5565b91505092915050565b600080600060608486031215612cfb57600080fd5b600084013567ffffffffffffffff811115612d1557600080fd5b612d21868287016129d5565b935050602084013567ffffffffffffffff811115612d3e57600080fd5b612d4a86828701612aa2565b925050604084013567ffffffffffffffff811115612d6757600080fd5b612d7386828701612b6f565b9150509250925092565b600060208284031215612d8f57600080fd5b6000612d9d84828501612bc3565b91505092915050565b6000612db28383612de5565b60208301905092915050565b6000612dca83836135f6565b60208301905092915050565b612ddf81613b61565b82525050565b612dee81613b06565b82525050565b612dfd81613b06565b82525050565b612e0c81613af4565b82525050565b6000612e1d82613a70565b612e278185613aab565b9350612e3283613a50565b8060005b83811015612e63578151612e4a8882612da6565b9750612e5583613a91565b925050600181019050612e36565b5085935050505092915050565b6000612e7b82613a7b565b612e858185613abc565b9350612e9083613a60565b8060005b83811015612ec1578151612ea88882612dbe565b9750612eb383613a9e565b925050600181019050612e94565b5085935050505092915050565b612ed781613b18565b82525050565b612ee681613b73565b82525050565b6000612ef782613a86565b612f018185613ad8565b9350612f11818560208601613bb8565b612f1a81613beb565b840191505092915050565b6000612f3082613a86565b612f3a8185613ae9565b9350612f4a818560208601613bb8565b80840191505092915050565b6000612f63603883613ad8565b91507f4572726f723a2074686572652068617665206265656e206e6f20646f6e61746960008301527f6f6e7320666f7220746869732062656e656669636961727900000000000000006020830152604082019050919050565b6000612fc9602083613ad8565b91507f4572726f723a2063616d706169676e20646561646c696e6520657870697265646000830152602082019050919050565b6000613009603e83613ad8565b91507f4572726f723a2063616e6e6f742061636365737320746869732066756e63746960008301527f6f6e616c6974792066726f6d207468652063757272656e7420737461746500006020830152604082019050919050565b600061306f604983613ad8565b91507f4572726f723a20546f74616c20706f766964656420776569732061726520646960008301527f66666572656e742066726f6d207468652070726f76696465642077656973207060208301527f6172746974696f6e7300000000000000000000000000000000000000000000006040830152606082019050919050565b60006130fb603183613ad8565b91507f4572726f723a206f6e6c792062656e656669636961726965732063616e20616360008301527f63657373207468652077697468647261770000000000000000000000000000006020830152604082019050919050565b6000613161602183613ad8565b91507f4572726f723a205769746864726177207472616e73616374696f6e206572726f60008301527f72000000000000000000000000000000000000000000000000000000000000006020830152604082019050919050565b60006131c7602683613ad8565b91507f4572726f723a204672617564207265666f756e64207472616e73616374696f6e60008301527f206572726f7200000000000000000000000000000000000000000000000000006020830152604082019050919050565b600061322d603983613ad8565b91507f4572726f723a205761697420756e74696c20616c6c2062656e6566696369617260008301527f69657320776974686472617720746865697220726577617264000000000000006020830152604082019050919050565b6000613293604283613ad8565b91507f4572726f723a2064657374696e61746f72732073697a6520697320646966666560008301527f72656e742066726f6d2074686520776569277320706172746974696f6e20736960208301527f7a650000000000000000000000000000000000000000000000000000000000006040830152606082019050919050565b600061331f604083613ad8565b91507f596f752068617665206e6f74206d61646520646f6e6174696f6e732f7265706f60008301527f7274206f7220796f75206861766520616c72656164792077697468647261776e6020830152604082019050919050565b6000613385602683613ad8565b91507f4572726f723a2066756e6374696f6e20726573657276656420746f206f72676160008301527f6e697a65727300000000000000000000000000000000000000000000000000006020830152604082019050919050565b60006133eb600083613acd565b9150600082019050919050565b6000613405602e83613ad8565b91507f4572726f723a20596f75206861766520616c7265616479207265706f7274656460008301527f20746869732063616d706169676e0000000000000000000000000000000000006020830152604082019050919050565b600061346b604983613ad8565b91507f4572726f723a205468652063616d706169676e206973206e6f7420737461727460008301527f6564206f7220796f75277265206e6f7420616e206f7267616e697a657220746f60208301527f20737461727420697400000000000000000000000000000000000000000000006040830152606082019050919050565b60006134f7603d83613ad8565b91507f4572726f723a206f6e65206f72206d6f7265206f66207468652070726f76696460008301527f65642062656e6566696369617269657320646f206e6f742065786973740000006020830152604082019050919050565b600061355d601583613ad8565b91507f4572726f723a2030207765692070726f766964656400000000000000000000006000830152602082019050919050565b600061359d603683613ad8565b91507f4572726f723a20596f75206e65656420746f20696e7665737420736f6d65206560008301527f7468657220746f207265706f72742061206672617564000000000000000000006020830152604082019050919050565b6135ff81613b57565b82525050565b61360e81613b57565b82525050565b60006136208286612f25565b915061362c8285612f25565b91506136388284612f25565b9150819050949350505050565b6000613650826133de565b9150819050919050565b600060208201905061366f6000830184612e03565b92915050565b600060208201905061368a6000830184612df4565b92915050565b60006040820190506136a56000830185612dd6565b6136b26020830184613605565b9392505050565b600060208201905081810360008301526136d38184612e12565b905092915050565b600060208201905081810360008301526136f58184612e70565b905092915050565b60006020820190506137126000830184612edd565b92915050565b600060208201905081810360008301526137328184612eec565b905092915050565b6000602082019050818103600083015261375381612f56565b9050919050565b6000602082019050818103600083015261377381612fbc565b9050919050565b6000602082019050818103600083015261379381612ffc565b9050919050565b600060208201905081810360008301526137b381613062565b9050919050565b600060208201905081810360008301526137d3816130ee565b9050919050565b600060208201905081810360008301526137f381613154565b9050919050565b60006020820190508181036000830152613813816131ba565b9050919050565b6000602082019050818103600083015261383381613220565b9050919050565b6000602082019050818103600083015261385381613286565b9050919050565b6000602082019050818103600083015261387381613312565b9050919050565b6000602082019050818103600083015261389381613378565b9050919050565b600060208201905081810360008301526138b3816133f8565b9050919050565b600060208201905081810360008301526138d38161345e565b9050919050565b600060208201905081810360008301526138f3816134ea565b9050919050565b6000602082019050818103600083015261391381613550565b9050919050565b6000602082019050818103600083015261393381613590565b9050919050565b600060208201905061394f6000830184613605565b92915050565b600060408201905061396a6000830185613605565b6139776020830184612ece565b9392505050565b60006040820190506139936000830185613605565b6139a06020830184613605565b9392505050565b6000604051905081810181811067ffffffffffffffff821117156139ca57600080fd5b8060405250919050565b600067ffffffffffffffff8211156139eb57600080fd5b602082029050602081019050919050565b600067ffffffffffffffff821115613a1357600080fd5b602082029050602081019050919050565b600067ffffffffffffffff821115613a3b57600080fd5b601f19601f8301169050602081019050919050565b6000819050602082019050919050565b6000819050602082019050919050565b600081519050919050565b600081519050919050565b600081519050919050565b6000602082019050919050565b6000602082019050919050565b600082825260208201905092915050565b600082825260208201905092915050565b600081905092915050565b600082825260208201905092915050565b600081905092915050565b6000613aff82613b37565b9050919050565b6000613b1182613b37565b9050919050565b60008115159050919050565b6000819050613b3282613bfc565b919050565b600073ffffffffffffffffffffffffffffffffffffffff82169050919050565b6000819050919050565b6000613b6c82613b85565b9050919050565b6000613b7e82613b24565b9050919050565b6000613b9082613b97565b9050919050565b6000613ba282613b37565b9050919050565b82818337600083830152505050565b60005b83811015613bd6578082015181840152602081019050613bbb565b83811115613be5576000848401525b50505050565b6000601f19601f8301169050919050565b60058110613c0657fe5b50565b613c1281613af4565b8114613c1d57600080fd5b50565b613c2981613b57565b8114613c3457600080fd5b5056fea365627a7a723158204e53806a7a4f9ed5572e63d1f2882acf4dc0a8af5001c070bca94ed62b37d90e6c6578706572696d656e74616cf564736f6c63430005100040a365627a7a723158209020b78dfdc969ead900d428ca23979840757e394b2c6b6ce6ceec55910f902a6c6578706572696d656e74616cf564736f6c63430005100040",
  "source": "pragma solidity >=0.4.21 <0.7.0;\r\npragma experimental ABIEncoderV2;\r\n\r\nimport \"./Campaign.sol\";\r\n\r\ncontract BitCollect{\r\n\r\n    address bitcollect_owner;\r\n\r\n    Campaign[] campaigns;\r\n    mapping(address => uint) campaign_index;\r\n    mapping(uint => uint) test;\r\n\r\n    uint fraudThreshold;\r\n\r\n    event campaignCreated(address cont);\r\n\r\n    constructor(uint threshold) public {\r\n        require(threshold>0, \"The fraud threshold should be greather than 0\");\r\n\r\n        bitcollect_owner = msg.sender;\r\n        fraudThreshold = threshold;\r\n    }\r\n\r\n    function createCampaign(address[] memory _organizers, address payable[] memory _beneficiaries, uint _end_date, string memory name,\r\n     string[] memory rewards_names, uint[] memory rewards_costs)\r\n    public payable{\r\n        require(_organizers.length>0, \"Error: Need at least 1 organizer\"); //RQ-PARAMS\r\n        require(_beneficiaries.length>0, \"Error: Need at least 1 beneficiarie\"); //RQ-PARAMS\r\n        require(_end_date>block.timestamp, \"Error: the provided campain end date il is earlier than the start date\");\r\n        require(rewards_names.length==rewards_costs.length, \"Error: rewards and rewards prices should have the same cardinality\");\r\n\r\n        Campaign new_campaign = new Campaign(_organizers, _beneficiaries, _end_date, name, rewards_names, rewards_costs, fraudThreshold);\r\n        campaigns.push(new_campaign);\r\n        campaign_index[address(new_campaign)] = campaigns.length-1;\r\n\r\n        emit campaignCreated(address(new_campaign));\r\n    }\r\n\r\n    function setThreshold(uint t) external{\r\n        require(msg.sender==bitcollect_owner, \"only the owner of this BitCollect instance can access this function\");\r\n        fraudThreshold = t;\r\n    }\r\n\r\n}",
  "sourcePath": "G:\\SSD Workspace\\Ethereum\\BitCollect\\contracts\\BitCollect.sol",
  "compiler": {
    "name": "solc",
    "version": "0.5.16+commit.9c3226ce.Emscripten.clang"
  },
  "schemaVersion": "3.2.0",
  "updatedAt": "2020-07-07T21:03:22.235Z",
  "networkType": "ethereum",
  "devdoc": {
    "methods": {}
  },
  "userdoc": {
    "methods": {}
  }
}