{
  "contractName": "BitCollect",
  "abi": [
    {
      "inputs": [
        {
          "internalType": "uint256",
          "name": "threshold",
          "type": "uint256"
        }
      ],
      "payable": false,
      "stateMutability": "nonpayable",
      "type": "constructor"
    },
    {
      "anonymous": false,
      "inputs": [
        {
          "indexed": false,
          "internalType": "address",
          "name": "cont",
          "type": "address"
        }
      ],
      "name": "campaignCreated",
      "type": "event"
    },
    {
      "constant": false,
      "inputs": [
        {
          "internalType": "address[]",
          "name": "_organizers",
          "type": "address[]"
        },
        {
          "internalType": "address payable[]",
          "name": "_beneficiaries",
          "type": "address[]"
        },
        {
          "internalType": "uint256",
          "name": "_end_date",
          "type": "uint256"
        },
        {
          "internalType": "uint256[]",
          "name": "rewards_costs",
          "type": "uint256[]"
        },
        {
          "internalType": "string",
          "name": "campaign_info_hashes",
          "type": "string"
        }
      ],
      "name": "createCampaign",
      "outputs": [],
      "payable": true,
      "stateMutability": "payable",
      "type": "function"
    },
    {
      "constant": false,
      "inputs": [
        {
          "internalType": "uint256",
          "name": "t",
          "type": "uint256"
        }
      ],
      "name": "setThreshold",
      "outputs": [],
      "payable": false,
      "stateMutability": "nonpayable",
      "type": "function"
    },
    {
      "constant": true,
      "inputs": [],
      "name": "getCampaigns",
      "outputs": [
        {
          "internalType": "address[]",
          "name": "",
          "type": "address[]"
        }
      ],
      "payable": false,
      "stateMutability": "view",
      "type": "function"
    }
  ],
  "bytecode": "0x608060405234801561001057600080fd5b50604051614ffb380380614ffb8339818101604052602081101561003357600080fd5b81019080805190602001909291905050506000811161009d576040517f08c379a000000000000000000000000000000000000000000000000000000000815260040180806020018281038252602d815260200180614fce602d913960400191505060405180910390fd5b336000806101000a81548173ffffffffffffffffffffffffffffffffffffffff021916908373ffffffffffffffffffffffffffffffffffffffff1602179055508060038190555050614eda806100f46000396000f3fe608060405260043610620000385760003560e01c8063960bfe04146200003d578063a6b03633146200007c578063a9fcd8e414620000ed575b600080fd5b3480156200004a57600080fd5b506200007a600480360360208110156200006357600080fd5b81019080803590602001909291905050506200037d565b005b3480156200008957600080fd5b50620000946200042e565b6040518080602001828103825283818151815260200191508051906020019060200280838360005b83811015620000d9578082015181840152602081019050620000bc565b505050509050019250505060405180910390f35b6200037b600480360360a08110156200010557600080fd5b81019080803590602001906401000000008111156200012357600080fd5b8201836020820111156200013657600080fd5b803590602001918460208302840111640100000000831117156200015957600080fd5b919080806020026020016040519081016040528093929190818152602001838360200280828437600081840152601f19601f82011690508083019250505050505050919291929080359060200190640100000000811115620001ba57600080fd5b820183602082011115620001cd57600080fd5b80359060200191846020830284011164010000000083111715620001f057600080fd5b919080806020026020016040519081016040528093929190818152602001838360200280828437600081840152601f19601f82011690508083019250505050505050919291929080359060200190929190803590602001906401000000008111156200025b57600080fd5b8201836020820111156200026e57600080fd5b803590602001918460208302840111640100000000831117156200029157600080fd5b919080806020026020016040519081016040528093929190818152602001838360200280828437600081840152601f19601f82011690508083019250505050505050919291929080359060200190640100000000811115620002f257600080fd5b8201836020820111156200030557600080fd5b803590602001918460018302840111640100000000831117156200032857600080fd5b91908080601f016020809104026020016040519081016040528093929190818152602001838380828437600081840152601f19601f820116905080830192505050505050509192919290505050620004be565b005b6000809054906101000a900473ffffffffffffffffffffffffffffffffffffffff1673ffffffffffffffffffffffffffffffffffffffff163373ffffffffffffffffffffffffffffffffffffffff161462000424576040517f08c379a000000000000000000000000000000000000000000000000000000000815260040180806020018281038252604381526020018062004e1d6043913960600191505060405180910390fd5b8060038190555050565b60606001805480602002602001604051908101604052809291908181526020018280548015620004b457602002820191906000526020600020905b8160009054906101000a900473ffffffffffffffffffffffffffffffffffffffff1673ffffffffffffffffffffffffffffffffffffffff168152602001906001019080831162000469575b5050505050905090565b600085511162000536576040517f08c379a00000000000000000000000000000000000000000000000000000000081526004018080602001828103825260208152602001807f4572726f723a204e656564206174206c656173742031206f7267616e697a657281525060200191505060405180910390fd5b600084511162000592576040517f08c379a000000000000000000000000000000000000000000000000000000000815260040180806020018281038252602381526020018062004dfa6023913960400191505060405180910390fd5b428311620005ec576040517f08c379a000000000000000000000000000000000000000000000000000000000815260040180806020018281038252604681526020018062004e606046913960600191505060405180910390fd5b6000858585856003548660405162000604906200089e565b808060200180602001878152602001806020018681526020018060200185810385528b818151815260200191508051906020019060200280838360005b838110156200065e57808201518184015260208101905062000641565b5050505090500185810384528a818151815260200191508051906020019060200280838360005b83811015620006a257808201518184015260208101905062000685565b50505050905001858103835288818151815260200191508051906020019060200280838360005b83811015620006e6578082015181840152602081019050620006c9565b50505050905001858103825286818151815260200191508051906020019080838360005b83811015620007275780820151818401526020810190506200070a565b50505050905090810190601f168015620007555780820380516001836020036101000a031916815260200191505b509a5050505050505050505050604051809103906000f0801580156200077f573d6000803e3d6000fd5b50905060018190806001815401808255809150509060018203906000526020600020016000909192909190916101000a81548173ffffffffffffffffffffffffffffffffffffffff021916908373ffffffffffffffffffffffffffffffffffffffff160217905550506001808054905003600260008373ffffffffffffffffffffffffffffffffffffffff1673ffffffffffffffffffffffffffffffffffffffff168152602001908152602001600020819055507f3b5c6dff367f8fe540e018ee8cb76957ce7d9fafe57f188fa343a6d06084475581604051808273ffffffffffffffffffffffffffffffffffffffff1673ffffffffffffffffffffffffffffffffffffffff16815260200191505060405180910390a1505050505050565b61454d80620008ad8339019056fe60806040523480156200001157600080fd5b506040516200454d3803806200454d833981810160405260c08110156200003757600080fd5b81019080805160405193929190846401000000008211156200005857600080fd5b838201915060208201858111156200006f57600080fd5b82518660208202830111640100000000821117156200008d57600080fd5b8083526020830192505050908051906020019060200280838360005b83811015620000c6578082015181840152602081019050620000a9565b5050505090500160405260200180516040519392919084640100000000821115620000f057600080fd5b838201915060208201858111156200010757600080fd5b82518660208202830111640100000000821117156200012557600080fd5b8083526020830192505050908051906020019060200280838360005b838110156200015e57808201518184015260208101905062000141565b5050505090500160405260200180519060200190929190805160405193929190846401000000008211156200019257600080fd5b83820191506020820185811115620001a957600080fd5b8251866020820283011164010000000082111715620001c757600080fd5b8083526020830192505050908051906020019060200280838360005b8381101562000200578082015181840152602081019050620001e3565b5050505090500160405260200180519060200190929190805160405193929190846401000000008211156200023457600080fd5b838201915060208201858111156200024b57600080fd5b82518660018202830111640100000000821117156200026957600080fd5b8083526020830192505050908051906020019080838360005b838110156200029f57808201518184015260208101905062000282565b50505050905090810190601f168015620002cd5780820380516001836020036101000a031916815260200191505b5060405250505060008090505b86518110156200051d576001878281518110620002f357fe5b602002602001015190806001815401808255809150509060018203906000526020600020016000909192909190916101000a81548173ffffffffffffffffffffffffffffffffffffffff021916908373ffffffffffffffffffffffffffffffffffffffff160217905550506000600260008984815181106200037157fe5b602002602001015173ffffffffffffffffffffffffffffffffffffffff1673ffffffffffffffffffffffffffffffffffffffff16815260200190815260200160002060006101000a81548160ff0219169083151502179055506004868281518110620003d957fe5b602002602001015190806001815401808255809150509060018203906000526020600020016000909192909190916101000a81548173ffffffffffffffffffffffffffffffffffffffff021916908373ffffffffffffffffffffffffffffffffffffffff160217905550506000600560008884815181106200045757fe5b602002602001015173ffffffffffffffffffffffffffffffffffffffff1673ffffffffffffffffffffffffffffffffffffffff16815260200190815260200160002060000181905550600160056000888481518110620004b357fe5b602002602001015173ffffffffffffffffffffffffffffffffffffffff1673ffffffffffffffffffffffffffffffffffffffff16815260200190815260200160002060010160006101000a81548160ff0219169083151502179055508080600101915050620002da565b5083600e8190555082600990805190602001906200053d929190620005f2565b5080600f90805190602001906200055692919062000644565b5060008060006101000a81548160ff021916908360048111156200057657fe5b021790555081600a819055506000600b8190555060006003819055507f66fe4817acfd8756899e5d70b8db5e2f51795f380411f9aa53f14f246cd7d2046000809054906101000a900460ff1660405180826004811115620005d357fe5b60ff16815260200191505060405180910390a1505050505050620006f3565b82805482825590600052602060002090810192821562000631579160200282015b828111156200063057825182559160200191906001019062000613565b5b509050620006409190620006cb565b5090565b828054600181600116156101000203166002900490600052602060002090601f016020900481019282601f106200068757805160ff1916838001178555620006b8565b82800160010185558215620006b8579182015b82811115620006b75782518255916020019190600101906200069a565b5b509050620006c79190620006cb565b5090565b620006f091905b80821115620006ec576000816000905550600101620006d2565b5090565b90565b613e4a80620007036000396000f3fe60806040526004361061019c5760003560e01c80639af6549a116100ec578063c3a4de361161008a578063dd9c331b11610064578063dd9c331b14610ab3578063e86ae70014610b1f578063efeb5e5814610c39578063f19f892d14610cb45761019c565b8063c3a4de36146107db578063d059de191461086b578063dd4c844114610a4e5761019c565b8063a4c8be1e116100c6578063a4c8be1e146106a4578063a4e00d6e1461071f578063c0d1850214610736578063c19d93fb146107a25761019c565b80639af6549a146106545780639c378d801461066b5780639ec25aa5146106755761019c565b80635859682b1161015957806371aac7f91161013357806371aac7f9146105535780637f1e573c1461056a57806383fa9ec6146105d657806395931ba2146106055761019c565b80635859682b1461048d5780635d3e9613146104b85780636cd9b608146105285761019c565b806304dd9686146101a15780631e67f7211461020d57806324881536146102795780632f14bae81461039c5780634abfa163146104085780634f42b0d814610483575b600080fd5b3480156101ad57600080fd5b506101b6610cdf565b6040518080602001828103825283818151815260200191508051906020019060200280838360005b838110156101f95780820151818401526020810190506101de565b505050509050019250505060405180910390f35b34801561021957600080fd5b50610222610ef3565b6040518080602001828103825283818151815260200191508051906020019060200280838360005b8381101561026557808201518184015260208101905061024a565b505050509050019250505060405180910390f35b61039a6004803603606081101561028f57600080fd5b81019080803590602001906401000000008111156102ac57600080fd5b8201836020820111156102be57600080fd5b803590602001918460208302840111640100000000831117156102e057600080fd5b90919293919293908035906020019064010000000081111561030157600080fd5b82018360208201111561031357600080fd5b8035906020019184602083028401116401000000008311171561033557600080fd5b90919293919293908035906020019064010000000081111561035657600080fd5b82018360208201111561036857600080fd5b8035906020019184600183028401116401000000008311171561038a57600080fd5b9091929391929390505050610f81565b005b3480156103a857600080fd5b506103b16115e2565b6040518080602001828103825283818151815260200191508051906020019060200280838360005b838110156103f45780820151818401526020810190506103d9565b505050509050019250505060405180910390f35b34801561041457600080fd5b506104416004803603602081101561042b57600080fd5b8101908080359060200190929190505050611670565b604051808273ffffffffffffffffffffffffffffffffffffffff1673ffffffffffffffffffffffffffffffffffffffff16815260200191505060405180910390f35b61048b6116ac565b005b34801561049957600080fd5b506104a2611c38565b6040518082815260200191505060405180910390f35b3480156104c457600080fd5b50610507600480360360208110156104db57600080fd5b81019080803573ffffffffffffffffffffffffffffffffffffffff169060200190929190505050611c45565b60405180838152602001821515151581526020019250505060405180910390f35b34801561053457600080fd5b5061053d611c76565b6040518082815260200191505060405180910390f35b34801561055f57600080fd5b50610568611c7c565b005b34801561057657600080fd5b5061057f611f36565b6040518080602001828103825283818151815260200191508051906020019060200280838360005b838110156105c25780820151818401526020810190506105a7565b505050509050019250505060405180910390f35b3480156105e257600080fd5b506105eb612110565b604051808215151515815260200191505060405180910390f35b34801561061157600080fd5b5061063e6004803603602081101561062857600080fd5b810190808035906020019092919050505061216a565b6040518082815260200191505060405180910390f35b34801561066057600080fd5b5061066961218b565b005b610673612517565b005b34801561068157600080fd5b5061068a6127c8565b604051808215151515815260200191505060405180910390f35b3480156106b057600080fd5b506106dd600480360360208110156106c757600080fd5b8101908080359060200190929190505050612926565b604051808273ffffffffffffffffffffffffffffffffffffffff1673ffffffffffffffffffffffffffffffffffffffff16815260200191505060405180910390f35b34801561072b57600080fd5b50610734612962565b005b34801561074257600080fd5b5061074b612bab565b6040518080602001828103825283818151815260200191508051906020019060200280838360005b8381101561078e578082015181840152602081019050610773565b505050509050019250505060405180910390f35b3480156107ae57600080fd5b506107b7612d85565b604051808260048111156107c757fe5b60ff16815260200191505060405180910390f35b3480156107e757600080fd5b506107f0612d97565b6040518080602001828103825283818151815260200191508051906020019080838360005b83811015610830578082015181840152602081019050610815565b50505050905090810190601f16801561085d5780820380516001836020036101000a031916815260200191505b509250505060405180910390f35b610a4c6004803603606081101561088157600080fd5b810190808035906020019064010000000081111561089e57600080fd5b8201836020820111156108b057600080fd5b803590602001918460208302840111640100000000831117156108d257600080fd5b919080806020026020016040519081016040528093929190818152602001838360200280828437600081840152601f19601f8201169050808301925050505050505091929192908035906020019064010000000081111561093257600080fd5b82018360208201111561094457600080fd5b8035906020019184602083028401116401000000008311171561096657600080fd5b919080806020026020016040519081016040528093929190818152602001838360200280828437600081840152601f19601f820116905080830192505050505050509192919290803590602001906401000000008111156109c657600080fd5b8201836020820111156109d857600080fd5b803590602001918460018302840111640100000000831117156109fa57600080fd5b91908080601f016020809104026020016040519081016040528093929190818152602001838380828437600081840152601f19601f820116905080830192505050505050509192919290505050612e35565b005b348015610a5a57600080fd5b50610a9d60048036036020811015610a7157600080fd5b81019080803573ffffffffffffffffffffffffffffffffffffffff16906020019092919050505061358c565b6040518082815260200191505060405180910390f35b348015610abf57600080fd5b50610ac86135d8565b6040518080602001828103825283818151815260200191508051906020019060200280838360005b83811015610b0b578082015181840152602081019050610af0565b505050509050019250505060405180910390f35b348015610b2b57600080fd5b50610be260048036036020811015610b4257600080fd5b8101908080359060200190640100000000811115610b5f57600080fd5b820183602082011115610b7157600080fd5b80359060200191846020830284011164010000000083111715610b9357600080fd5b919080806020026020016040519081016040528093929190818152602001838360200280828437600081840152601f19601f820116905080830192505050505050509192919290505050613630565b6040518080602001828103825283818151815260200191508051906020019060200280838360005b83811015610c25578082015181840152602081019050610c0a565b505050509050019250505060405180910390f35b348015610c4557600080fd5b50610c7260048036036020811015610c5c57600080fd5b8101908080359060200190929190505050613823565b604051808273ffffffffffffffffffffffffffffffffffffffff1673ffffffffffffffffffffffffffffffffffffffff16815260200191505060405180910390f35b348015610cc057600080fd5b50610cc961385f565b6040518082815260200191505060405180910390f35b606080600760003373ffffffffffffffffffffffffffffffffffffffff1673ffffffffffffffffffffffffffffffffffffffff168152602001908152602001600020805480602002602001604051908101604052809291908181526020016000905b82821015610e6357838290600052602060002090600302016040518060600160405290816000820154815260200160018201805480602002602001604051908101604052809291908181526020018280548015610df357602002820191906000526020600020905b8160009054906101000a900473ffffffffffffffffffffffffffffffffffffffff1673ffffffffffffffffffffffffffffffffffffffff1681526020019060010190808311610da9575b5050505050815260200160028201805480602002602001604051908101604052809291908181526020018280548015610e4b57602002820191906000526020600020905b815481526020019060010190808311610e37575b50505050508152505081526020019060010190610d41565b50505050905060608151604051908082528060200260200182016040528015610e9b5781602001602082028038833980820191505090505b50905060008090505b8151811015610eea57828181518110610eb957fe5b602002602001015160000151828281518110610ed157fe5b6020026020010181815250508080600101915050610ea4565b50809250505090565b60606001805480602002602001604051908101604052809291908181526020018280548015610f7757602002820191906000526020600020905b8160009054906101000a900473ffffffffffffffffffffffffffffffffffffffff1673ffffffffffffffffffffffffffffffffffffffff1681526020019060010190808311610f2d575b5050505050905090565b42600e548110610ff9576040517f08c379a00000000000000000000000000000000000000000000000000000000081526004018080602001828103825260208152602001807f4572726f723a2063616d706169676e20646561646c696e65206578706972656481525060200191505060405180910390fd5b33600080905060008090505b60018054905081108015611017575081155b15611099578273ffffffffffffffffffffffffffffffffffffffff166001828154811061104057fe5b9060005260206000200160009054906101000a900473ffffffffffffffffffffffffffffffffffffffff1673ffffffffffffffffffffffffffffffffffffffff16141561108c57600191505b8080600101915050611005565b50806110f0576040517f08c379a0000000000000000000000000000000000000000000000000000000008152600401808060200182810382526026815260200180613d066026913960400191505060405180910390fd5b888880806020026020016040519081016040528093929190818152602001838360200280828437600081840152601f19601f82011690508083019250505050505050600080905060008090505b6004805490508110801561114f575081155b156111f95760001515600560006004848154811061116957fe5b9060005260206000200160009054906101000a900473ffffffffffffffffffffffffffffffffffffffff1673ffffffffffffffffffffffffffffffffffffffff1673ffffffffffffffffffffffffffffffffffffffff16815260200190815260200160002060010160009054906101000a900460ff16151514156111ec57600191505b808060010191505061113d565b506000151581151514611257576040517f08c379a000000000000000000000000000000000000000000000000000000000815260040180806020018281038252603d815260200180613da3603d913960400191505060405180910390fd5b60008060009054906101000a900460ff16600481111561127357fe5b81600481111561127f57fe5b146112d5576040517f08c379a000000000000000000000000000000000000000000000000000000000815260040180806020018281038252603e815260200180613b4c603e913960400191505060405180910390fd5b6113a68c8c80806020026020016040519081016040528093929190818152602001838360200280828437600081840152601f19601f820116905080830192505050505050508b8b80806020026020016040519081016040528093929190818152602001838360200280828437600081840152601f19601f820116905080830192505050505050508a8a8080601f016020809104026020016040519081016040528093929190818152602001838380828437600081840152601f19601f82011690508083019250505050505050612e35565b60001515600260003373ffffffffffffffffffffffffffffffffffffffff1673ffffffffffffffffffffffffffffffffffffffff16815260200190815260200160002060009054906101000a900460ff1615151415611458576001600260003373ffffffffffffffffffffffffffffffffffffffff1673ffffffffffffffffffffffffffffffffffffffff16815260200190815260200160002060006101000a81548160ff0219169083151502179055505b600080905060008090505b6001805490508110156115165760011515600260006001848154811061148557fe5b9060005260206000200160009054906101000a900473ffffffffffffffffffffffffffffffffffffffff1673ffffffffffffffffffffffffffffffffffffffff1673ffffffffffffffffffffffffffffffffffffffff16815260200190815260200160002060009054906101000a900460ff16151514156115095781806001019250505b8080600101915050611463565b503460036000828254019250508190555060018054905081141561155c5760016000806101000a81548160ff0219169083600481111561155257fe5b0217905550611580565b60008060006101000a81548160ff0219169083600481111561157a57fe5b02179055505b7f66fe4817acfd8756899e5d70b8db5e2f51795f380411f9aa53f14f246cd7d2046000809054906101000a900460ff16604051808260048111156115c057fe5b60ff16815260200191505060405180910390a150505050505050505050505050565b6060600480548060200260200160405190810160405280929190818152602001828054801561166657602002820191906000526020600020905b8160009054906101000a900473ffffffffffffffffffffffffffffffffffffffff1673ffffffffffffffffffffffffffffffffffffffff168152602001906001019080831161161c575b5050505050905090565b6006818154811061167d57fe5b906000526020600020016000915054906101000a900473ffffffffffffffffffffffffffffffffffffffff1681565b60046000809054906101000a900460ff1660048111156116c857fe5b8160048111156116d457fe5b1461172a576040517f08c379a000000000000000000000000000000000000000000000000000000000815260040180806020018281038252603e815260200180613b4c603e913960400191505060405180910390fd5b600060011515600260003373ffffffffffffffffffffffffffffffffffffffff1673ffffffffffffffffffffffffffffffffffffffff16815260200190815260200160002060009054906101000a900460ff161515141561178e5760019050611793565b600090505b80600760003373ffffffffffffffffffffffffffffffffffffffff1673ffffffffffffffffffffffffffffffffffffffff16815260200190815260200160002080549050118061182257506000600d60003373ffffffffffffffffffffffffffffffffffffffff1673ffffffffffffffffffffffffffffffffffffffff16815260200190815260200160002054115b611877576040517f08c379a0000000000000000000000000000000000000000000000000000000008152600401808060200182810382526040815260200180613cc66040913960400191505060405180910390fd5b60008090506060600760003373ffffffffffffffffffffffffffffffffffffffff1673ffffffffffffffffffffffffffffffffffffffff168152602001908152602001600020805480602002602001604051908101604052809291908181526020016000905b828210156119ff5783829060005260206000209060030201604051806060016040529081600082015481526020016001820180548060200260200160405190810160405280929190818152602001828054801561198f57602002820191906000526020600020905b8160009054906101000a900473ffffffffffffffffffffffffffffffffffffffff1673ffffffffffffffffffffffffffffffffffffffff1681526020019060010190808311611945575b50505050508152602001600282018054806020026020016040519081016040528092919081815260200182805480156119e757602002820191906000526020600020905b8154815260200190600101908083116119d3575b505050505081525050815260200190600101906118dd565b5050505090505b8051831015611a3857808381518110611a1b57fe5b602002602001015160000151820191508280600101935050611a06565b600760003373ffffffffffffffffffffffffffffffffffffffff1673ffffffffffffffffffffffffffffffffffffffff1681526020019081526020016000206000611a839190613865565b60008090506000600d60003373ffffffffffffffffffffffffffffffffffffffff1673ffffffffffffffffffffffffffffffffffffffff168152602001908152602001600020541115611b2957600c8054905060035481611ae057fe5b0490506000600d60003373ffffffffffffffffffffffffffffffffffffffff1673ffffffffffffffffffffffffffffffffffffffff168152602001908152602001600020819055505b60003373ffffffffffffffffffffffffffffffffffffffff1682850160405180600001905060006040518083038185875af1925050503d8060008114611b8b576040519150601f19603f3d011682016040523d82523d6000602084013e611b90565b606091505b505090506001151581151514611bf1576040517f08c379a0000000000000000000000000000000000000000000000000000000008152600401808060200182810382526026815260200180613c256026913960400191505060405180910390fd5b7f9bb5f29b9278b7f706a7caa67770ad63d5af89b481bdc02309439d76ca0a19df8483604051808381526020018281526020019250505060405180910390a1505050505050565b6000600c80549050905090565b60056020528060005260406000206000915090508060000154908060010160009054906101000a900460ff16905082565b600e5481565b33600080905060008090505b60018054905081108015611c9a575081155b15611d1c578273ffffffffffffffffffffffffffffffffffffffff1660018281548110611cc357fe5b9060005260206000200160009054906101000a900473ffffffffffffffffffffffffffffffffffffffff1673ffffffffffffffffffffffffffffffffffffffff161415611d0f57600191505b8080600101915050611c88565b5080611d73576040517f08c379a0000000000000000000000000000000000000000000000000000000008152600401808060200182810382526026815260200180613d066026913960400191505060405180910390fd5b60016000809054906101000a900460ff166004811115611d8f57fe5b816004811115611d9b57fe5b14611df1576040517f08c379a000000000000000000000000000000000000000000000000000000000815260040180806020018281038252603e815260200180613b4c603e913960400191505060405180910390fd5b60026000806101000a81548160ff02191690836004811115611e0f57fe5b02179055506000600b541115611ede576000600480549050600b5481611e3157fe5b04905060008090505b600480549050811015611edb57816005600060048481548110611e5957fe5b9060005260206000200160009054906101000a900473ffffffffffffffffffffffffffffffffffffffff1673ffffffffffffffffffffffffffffffffffffffff1673ffffffffffffffffffffffffffffffffffffffff168152602001908152602001600020600001600082825401925050819055508080600101915050611e3a565b50505b7f66fe4817acfd8756899e5d70b8db5e2f51795f380411f9aa53f14f246cd7d2046000809054906101000a900460ff1660405180826004811115611f1e57fe5b60ff16815260200191505060405180910390a1505050565b606080600860003373ffffffffffffffffffffffffffffffffffffffff1673ffffffffffffffffffffffffffffffffffffffff168152602001908152602001600020805480602002602001604051908101604052809291908181526020016000905b8282101561208057838290600052602060002090600302016040518060600160405290816000820154815260200160018201548152602001600282018054600181600116156101000203166002900480601f0160208091040260200160405190810160405280929190818152602001828054600181600116156101000203166002900480156120685780601f1061203d57610100808354040283529160200191612068565b820191906000526020600020905b81548152906001019060200180831161204b57829003601f168201915b50505050508152505081526020019060010190611f98565b505050509050606081516040519080825280602002602001820160405280156120b85781602001602082028038833980820191505090505b50905060008090505b8251811015612107578281815181106120d657fe5b6020026020010151600001518282815181106120ee57fe5b60200260200101818152505080806001019150506120c1565b50809250505090565b600080600d60003373ffffffffffffffffffffffffffffffffffffffff1673ffffffffffffffffffffffffffffffffffffffff1681526020019081526020016000205411156121625760019050612167565b600090505b90565b6009818154811061217757fe5b906000526020600020016000915090505481565b3360011515600560008373ffffffffffffffffffffffffffffffffffffffff1673ffffffffffffffffffffffffffffffffffffffff16815260200190815260200160002060010160009054906101000a900460ff16151514612238576040517f08c379a0000000000000000000000000000000000000000000000000000000008152600401808060200182810382526031815260200180613bd36031913960400191505060405180910390fd5b60026000809054906101000a900460ff16600481111561225457fe5b81600481111561226057fe5b146122b6576040517f08c379a000000000000000000000000000000000000000000000000000000000815260040180806020018281038252603e815260200180613b4c603e913960400191505060405180910390fd5b6000600560003373ffffffffffffffffffffffffffffffffffffffff1673ffffffffffffffffffffffffffffffffffffffff1681526020019081526020016000206000015411612351576040517f08c379a0000000000000000000000000000000000000000000000000000000008152600401808060200182810382526038815260200180613b146038913960400191505060405180910390fd5b6000600560003373ffffffffffffffffffffffffffffffffffffffff1673ffffffffffffffffffffffffffffffffffffffff1681526020019081526020016000206000015490506000600560003373ffffffffffffffffffffffffffffffffffffffff1673ffffffffffffffffffffffffffffffffffffffff1681526020019081526020016000206000018190555060003373ffffffffffffffffffffffffffffffffffffffff168260405180600001905060006040518083038185875af1925050503d8060008114612440576040519150601f19603f3d011682016040523d82523d6000602084013e612445565b606091505b5050905060011515811515146124a6576040517f08c379a0000000000000000000000000000000000000000000000000000000008152600401808060200182810382526021815260200180613c046021913960400191505060405180910390fd5b7f93740124b37b8f64043ddd706a499c11b58d2642466169e4c310f6b55ead67b63383604051808373ffffffffffffffffffffffffffffffffffffffff1673ffffffffffffffffffffffffffffffffffffffff1681526020018281526020019250505060405180910390a150505050565b60016000809054906101000a900460ff16600481111561253357fe5b81600481111561253f57fe5b14612595576040517f08c379a000000000000000000000000000000000000000000000000000000000815260040180806020018281038252603e815260200180613b4c603e913960400191505060405180910390fd5b6000600d60003373ffffffffffffffffffffffffffffffffffffffff1673ffffffffffffffffffffffffffffffffffffffff168152602001908152602001600020541461262d576040517f08c379a000000000000000000000000000000000000000000000000000000000815260040180806020018281038252602e815260200180613d2c602e913960400191505060405180910390fd5b60003411612686576040517f08c379a0000000000000000000000000000000000000000000000000000000008152600401808060200182810382526036815260200180613de06036913960400191505060405180910390fd5b34600d60003373ffffffffffffffffffffffffffffffffffffffff1673ffffffffffffffffffffffffffffffffffffffff16815260200190815260200160002081905550600c3390806001815401808255809150509060018203906000526020600020016000909192909190916101000a81548173ffffffffffffffffffffffffffffffffffffffff021916908373ffffffffffffffffffffffffffffffffffffffff1602179055505034600b60008282540192505081905550600a54600c80549050106127725760046000806101000a81548160ff0219169083600481111561276c57fe5b02179055505b7ff0ffd3bfdde8a6f01970d2ce17ab4bdb3d8ea65ed7efca58c63c1c0cc7a8a1826000809054906101000a900460ff16604051808260048111156127b257fe5b60ff16815260200191505060405180910390a150565b600033600080905060008090505b600180549050811080156127e8575081155b1561286a578273ffffffffffffffffffffffffffffffffffffffff166001828154811061281157fe5b9060005260206000200160009054906101000a900473ffffffffffffffffffffffffffffffffffffffff1673ffffffffffffffffffffffffffffffffffffffff16141561285d57600191505b80806001019150506127d6565b50806128c1576040517f08c379a0000000000000000000000000000000000000000000000000000000008152600401808060200182810382526026815260200180613d066026913960400191505060405180910390fd5b600260003373ffffffffffffffffffffffffffffffffffffffff1673ffffffffffffffffffffffffffffffffffffffff16815260200190815260200160002060009054906101000a900460ff161561291c5760019250612921565b600092505b505090565b6001818154811061293357fe5b906000526020600020016000915054906101000a900473ffffffffffffffffffffffffffffffffffffffff1681565b33600080905060008090505b60018054905081108015612980575081155b15612a02578273ffffffffffffffffffffffffffffffffffffffff16600182815481106129a957fe5b9060005260206000200160009054906101000a900473ffffffffffffffffffffffffffffffffffffffff1673ffffffffffffffffffffffffffffffffffffffff1614156129f557600191505b808060010191505061296e565b5080612a59576040517f08c379a0000000000000000000000000000000000000000000000000000000008152600401808060200182810382526026815260200180613d066026913960400191505060405180910390fd5b60026000809054906101000a900460ff166004811115612a7557fe5b816004811115612a8157fe5b14612ad7576040517f08c379a000000000000000000000000000000000000000000000000000000000815260040180806020018281038252603e815260200180613b4c603e913960400191505060405180910390fd5b60004714612b30576040517f08c379a0000000000000000000000000000000000000000000000000000000008152600401808060200182810382526039815260200180613c4b6039913960400191505060405180910390fd5b60036000806101000a81548160ff02191690836004811115612b4e57fe5b02179055507f66fe4817acfd8756899e5d70b8db5e2f51795f380411f9aa53f14f246cd7d2046000809054906101000a900460ff1660405180826004811115612b9357fe5b60ff16815260200191505060405180910390a1505050565b606080600860003373ffffffffffffffffffffffffffffffffffffffff1673ffffffffffffffffffffffffffffffffffffffff168152602001908152602001600020805480602002602001604051908101604052809291908181526020016000905b82821015612cf557838290600052602060002090600302016040518060600160405290816000820154815260200160018201548152602001600282018054600181600116156101000203166002900480601f016020809104026020016040519081016040528092919081815260200182805460018160011615610100020316600290048015612cdd5780601f10612cb257610100808354040283529160200191612cdd565b820191906000526020600020905b815481529060010190602001808311612cc057829003601f168201915b50505050508152505081526020019060010190612c0d565b50505050905060608151604051908082528060200260200182016040528015612d2d5781602001602082028038833980820191505090505b50905060008090505b8151811015612d7c57828181518110612d4b57fe5b602002602001015160000151828281518110612d6357fe5b6020026020010181815250508080600101915050612d36565b50809250505090565b6000809054906101000a900460ff1681565b600f8054600181600116156101000203166002900480601f016020809104026020016040519081016040528092919081815260200182805460018160011615610100020316600290048015612e2d5780601f10612e0257610100808354040283529160200191612e2d565b820191906000526020600020905b815481529060010190602001808311612e1057829003601f168201915b505050505081565b42600e548110612ead576040517f08c379a00000000000000000000000000000000000000000000000000000000081526004018080602001828103825260208152602001807f4572726f723a2063616d706169676e20646561646c696e65206578706972656481525060200191505060405180910390fd5b83600080905060008090505b60048054905081108015612ecb575081155b15612f7557600015156005600060048481548110612ee557fe5b9060005260206000200160009054906101000a900473ffffffffffffffffffffffffffffffffffffffff1673ffffffffffffffffffffffffffffffffffffffff1673ffffffffffffffffffffffffffffffffffffffff16815260200190815260200160002060010160009054906101000a900460ff1615151415612f6857600191505b8080600101915050612eb9565b506000151581151514612fd3576040517f08c379a000000000000000000000000000000000000000000000000000000000815260040180806020018281038252603d815260200180613da3603d913960400191505060405180910390fd5b60016004811115612fe057fe5b6000809054906101000a900460ff166004811115612ffa57fe5b148061308657506000600481111561300e57fe5b6000809054906101000a900460ff16600481111561302857fe5b148015613085575060001515600260003373ffffffffffffffffffffffffffffffffffffffff1673ffffffffffffffffffffffffffffffffffffffff16815260200190815260200160002060009054906101000a900460ff161515145b5b6130db576040517f08c379a0000000000000000000000000000000000000000000000000000000008152600401808060200182810382526049815260200180613d5a6049913960600191505060405180910390fd5b60003411613151576040517f08c379a00000000000000000000000000000000000000000000000000000000081526004018080602001828103825260158152602001807f4572726f723a2030207765692070726f7669646564000000000000000000000081525060200191505060405180910390fd5b84518651146131ab576040517f08c379a0000000000000000000000000000000000000000000000000000000008152600401808060200182810382526042815260200180613c846042913960600191505060405180910390fd5b600080905060008090505b86518110156131e4578681815181106131cb57fe5b60200260200101518201915080806001019150506131b6565b5080341461323d576040517f08c379a0000000000000000000000000000000000000000000000000000000008152600401808060200182810382526049815260200180613b8a6049913960600191505060405180910390fd5b613245613889565b34816000018181525050878160200181905250868160400181905250600760003373ffffffffffffffffffffffffffffffffffffffff1673ffffffffffffffffffffffffffffffffffffffff16815260200190815260200160002081908060018154018082558091505090600182039060005260206000209060030201600090919290919091506000820151816000015560208201518160010190805190602001906132f29291906138aa565b50604082015181600201908051906020019061330f929190613934565b5050505060006009805490501180156133405750600960008154811061333157fe5b90600052602060002001543410155b156134c35761334d613981565b60008090505b6009805490508110801561337e57506009818154811061336f57fe5b90600052602060002001543410155b15613390578080600101915050613353565b600181038260000181815250506001600760003373ffffffffffffffffffffffffffffffffffffffff1673ffffffffffffffffffffffffffffffffffffffff1681526020019081526020016000208054905003826020018181525050878260400181905250600860003373ffffffffffffffffffffffffffffffffffffffff1673ffffffffffffffffffffffffffffffffffffffff1681526020019081526020016000208290806001815401808255809150509060018203906000526020600020906003020160009091929091909150600082015181600001556020820151816001015560408201518160020190805190602001906134909291906139a2565b505050507f744b881a25971efd286cf16da8b9c684ec04deeab58650ac9134f432baa30f1060405160405180910390a150505b60008090505b8851811015613555578781815181106134de57fe5b6020026020010151600560008b84815181106134f657fe5b602002602001015173ffffffffffffffffffffffffffffffffffffffff1673ffffffffffffffffffffffffffffffffffffffff1681526020019081526020016000206000016000828254019250508190555080806001019150506134c9565b507f69ee10f8865f0d317c7a1b74da8e2cbffcc7097a4077b37fb42fba449101f93560405160405180910390a15050505050505050565b6000600560008373ffffffffffffffffffffffffffffffffffffffff1673ffffffffffffffffffffffffffffffffffffffff168152602001908152602001600020600001549050919050565b6060600980548060200260200160405190810160405280929190818152602001828054801561362657602002820191906000526020600020905b815481526020019060010190808311613612575b5050505050905090565b606081600080905060008090505b60048054905081108015613650575081155b156136fa5760001515600560006004848154811061366a57fe5b9060005260206000200160009054906101000a900473ffffffffffffffffffffffffffffffffffffffff1673ffffffffffffffffffffffffffffffffffffffff1673ffffffffffffffffffffffffffffffffffffffff16815260200190815260200160002060010160009054906101000a900460ff16151514156136ed57600191505b808060010191505061363e565b506000151581151514613758576040517f08c379a000000000000000000000000000000000000000000000000000000000815260040180806020018281038252603d815260200180613da3603d913960400191505060405180910390fd5b6060845160405190808252806020026020018201604052801561378a5781602001602082028038833980820191505090505b50905060008090505b855181101561381757600560008783815181106137ac57fe5b602002602001015173ffffffffffffffffffffffffffffffffffffffff1673ffffffffffffffffffffffffffffffffffffffff168152602001908152602001600020600001548282815181106137fe57fe5b6020026020010181815250508080600101915050613793565b50809350505050919050565b6004818154811061383057fe5b906000526020600020016000915054906101000a900473ffffffffffffffffffffffffffffffffffffffff1681565b600a5481565b50805460008255600302906000526020600020908101906138869190613a22565b50565b60405180606001604052806000815260200160608152602001606081525090565b828054828255906000526020600020908101928215613923579160200282015b828111156139225782518260006101000a81548173ffffffffffffffffffffffffffffffffffffffff021916908373ffffffffffffffffffffffffffffffffffffffff160217905550916020019190600101906138ca565b5b5090506139309190613a69565b5090565b828054828255906000526020600020908101928215613970579160200282015b8281111561396f578251825591602001919060010190613954565b5b50905061397d9190613aac565b5090565b60405180606001604052806000815260200160008152602001606081525090565b828054600181600116156101000203166002900490600052602060002090601f016020900481019282601f106139e357805160ff1916838001178555613a11565b82800160010185558215613a11579182015b82811115613a105782518255916020019190600101906139f5565b5b509050613a1e9190613aac565b5090565b613a6691905b80821115613a6257600080820160009055600182016000613a499190613ad1565b600282016000613a599190613af2565b50600301613a28565b5090565b90565b613aa991905b80821115613aa557600081816101000a81549073ffffffffffffffffffffffffffffffffffffffff021916905550600101613a6f565b5090565b90565b613ace91905b80821115613aca576000816000905550600101613ab2565b5090565b90565b5080546000825590600052602060002090810190613aef9190613aac565b50565b5080546000825590600052602060002090810190613b109190613aac565b5056fe4572726f723a2074686572652068617665206265656e206e6f20646f6e6174696f6e7320666f7220746869732062656e65666963696172794572726f723a2063616e6e6f742061636365737320746869732066756e6374696f6e616c6974792066726f6d207468652063757272656e742073746174654572726f723a20546f74616c20706f766964656420776569732061726520646966666572656e742066726f6d207468652070726f7669646564207765697320706172746974696f6e734572726f723a206f6e6c792062656e656669636961726965732063616e20616363657373207468652077697468647261774572726f723a205769746864726177207472616e73616374696f6e206572726f724572726f723a204672617564207265666f756e64207472616e73616374696f6e206572726f724572726f723a205761697420756e74696c20616c6c2062656e65666963696172696573207769746864726177207468656972207265776172644572726f723a2064657374696e61746f72732073697a6520697320646966666572656e742066726f6d2074686520776569277320706172746974696f6e2073697a65596f752068617665206e6f74206d61646520646f6e6174696f6e732f7265706f7274206f7220796f75206861766520616c72656164792077697468647261776e4572726f723a2066756e6374696f6e20726573657276656420746f206f7267616e697a6572734572726f723a20596f75206861766520616c7265616479207265706f7274656420746869732063616d706169676e4572726f723a205468652063616d706169676e206973206e6f742073746172746564206f7220796f75277265206e6f7420616e206f7267616e697a657220746f2073746172742069744572726f723a206f6e65206f72206d6f7265206f66207468652070726f76696465642062656e6566696369617269657320646f206e6f742065786973744572726f723a20596f75206e65656420746f20696e7665737420736f6d6520657468657220746f207265706f72742061206672617564a265627a7a723158204d080eee6a5eb6f8bde661c01825d816db0d06740de80e46fbce3017bbf9ea5964736f6c634300051000324572726f723a204e656564206174206c6561737420312062656e6566696369617269656f6e6c7920746865206f776e6572206f66207468697320426974436f6c6c65637420696e7374616e63652063616e2061636365737320746869732066756e6374696f6e4572726f723a207468652070726f76696465642063616d7061696e20656e64206461746520696c206973206561726c696572207468616e207468652073746172742064617465a265627a7a72315820ed258ea457532bc8aba745d7eb2004a606c82561493ab55c0e31fc7a96a4f14564736f6c63430005100032546865206672617564207468726573686f6c642073686f756c64206265206772656174686572207468616e2030",
  "source": "pragma solidity >=0.4.21 <0.7.0;\r\n\r\nimport \"./Campaign.sol\";\r\n\r\ncontract BitCollect{\r\n\r\n    address bitcollect_owner;\r\n\r\n    address[] campaigns;\r\n    mapping(address => uint) campaign_index;\r\n\r\n    uint fraudThreshold;\r\n\r\n    event campaignCreated(address cont);\r\n\r\n    constructor(uint threshold) public {\r\n        require(threshold>0, \"The fraud threshold should be greather than 0\");\r\n\r\n        bitcollect_owner = msg.sender;\r\n        fraudThreshold = threshold;\r\n    }\r\n\r\n    function createCampaign(address[] memory _organizers, address payable[] memory _beneficiaries, uint _end_date,\r\n    uint[] memory rewards_costs, string memory campaign_info_hashes)\r\n    public payable{\r\n        require(_organizers.length>0, \"Error: Need at least 1 organizer\"); //RQ-PARAMS\r\n        require(_beneficiaries.length>0, \"Error: Need at least 1 beneficiarie\"); //RQ-PARAMS\r\n        require(_end_date>block.timestamp, \"Error: the provided campain end date il is earlier than the start date\");\r\n\r\n        Campaign new_campaign = new Campaign(_organizers, _beneficiaries, _end_date, rewards_costs, fraudThreshold, campaign_info_hashes);\r\n        campaigns.push(address(new_campaign));\r\n        campaign_index[address(new_campaign)] = campaigns.length-1;\r\n\r\n        emit campaignCreated(address(new_campaign));\r\n    }\r\n\r\n    function setThreshold(uint t) external{\r\n        require(msg.sender==bitcollect_owner, \"only the owner of this BitCollect instance can access this function\");\r\n        fraudThreshold = t;\r\n    }\r\n\r\n    function getCampaigns() external view returns(address[] memory){\r\n        return campaigns;\r\n    }\r\n\r\n}",
  "sourcePath": "G:\\SSD Workspace\\Ethereum\\BitCollect\\contracts\\BitCollect.sol",
  "compiler": {
    "name": "solc",
    "version": "0.5.16+commit.9c3226ce.Emscripten.clang"
  },
  "schemaVersion": "3.2.0",
  "updatedAt": "2020-07-14T20:01:50.216Z",
  "networkType": "ethereum",
  "devdoc": {
    "methods": {}
  },
  "userdoc": {
    "methods": {}
  }
}