{
  "contractName": "BitCollect",
  "abi": [
    {
      "inputs": [],
      "payable": false,
      "stateMutability": "nonpayable",
      "type": "constructor"
    },
    {
      "anonymous": false,
      "inputs": [
        {
          "indexed": false,
          "internalType": "address",
          "name": "cont",
          "type": "address"
        }
      ],
      "name": "campaignCreated",
      "type": "event"
    },
    {
      "constant": false,
      "inputs": [
        {
          "internalType": "address[]",
          "name": "_organizers",
          "type": "address[]"
        },
        {
          "internalType": "address payable[]",
          "name": "_beneficiaries",
          "type": "address[]"
        },
        {
          "internalType": "uint256",
          "name": "_end_date",
          "type": "uint256"
        },
        {
          "internalType": "string",
          "name": "name",
          "type": "string"
        },
        {
          "internalType": "string[]",
          "name": "rewards_names",
          "type": "string[]"
        },
        {
          "internalType": "uint256[]",
          "name": "rewards_costs",
          "type": "uint256[]"
        }
      ],
      "name": "createCampaign",
      "outputs": [],
      "payable": true,
      "stateMutability": "payable",
      "type": "function"
    }
  ],
  "bytecode": "0x608060405234801561001057600080fd5b50614c88806100206000396000f3fe608060405260043610620000205760003560e01c8063833c1a811462000025575b600080fd5b6200004360048036036200003d9190810190620005c9565b62000045565b005b60008651116200008c576040517f08c379a0000000000000000000000000000000000000000000000000000000008152600401620000839062000c8d565b60405180910390fd5b6000855111620000d3576040517f08c379a0000000000000000000000000000000000000000000000000000000008152600401620000ca9062000c6b565b60405180910390fd5b42841162000118576040517f08c379a00000000000000000000000000000000000000000000000000000000081526004016200010f9062000caf565b60405180910390fd5b80518251146200015f576040517f08c379a0000000000000000000000000000000000000000000000000000000008152600401620001569062000c49565b60405180910390fd5b600086868686868660405162000175906200029a565b620001869695949392919062000bb9565b604051809103906000f080158015620001a3573d6000803e3d6000fd5b50905060008190806001815401808255809150509060018203906000526020600020016000909192909190916101000a81548173ffffffffffffffffffffffffffffffffffffffff021916908373ffffffffffffffffffffffffffffffffffffffff16021790555050600160008054905003600160008373ffffffffffffffffffffffffffffffffffffffff1673ffffffffffffffffffffffffffffffffffffffff168152602001908152602001600020819055507f3b5c6dff367f8fe540e018ee8cb76957ce7d9fafe57f188fa343a6d0608447558160405162000289919062000b9c565b60405180910390a150505050505050565b613c36806200101083390190565b600081359050620002b98162000fc1565b92915050565b600081359050620002d08162000fdb565b92915050565b600082601f830112620002e857600080fd5b8135620002ff620002f98262000cff565b62000cd1565b915081818352602084019350602081019050838560208402820111156200032557600080fd5b60005b838110156200035957816200033e8882620002a8565b84526020840193506020830192505060018101905062000328565b5050505092915050565b600082601f8301126200037557600080fd5b81356200038c620003868262000d28565b62000cd1565b91508181835260208401935060208101905083856020840282011115620003b257600080fd5b60005b83811015620003e65781620003cb8882620002bf565b845260208401935060208301925050600181019050620003b5565b5050505092915050565b600082601f8301126200040257600080fd5b813562000419620004138262000d51565b62000cd1565b9150818183526020840193506020810190508360005b83811015620004635781358601620004488882620004fa565b8452602084019350602083019250506001810190506200042f565b5050505092915050565b600082601f8301126200047f57600080fd5b813562000496620004908262000d7a565b62000cd1565b91508181835260208401935060208101905083856020840282011115620004bc57600080fd5b60005b83811015620004f05781620004d58882620005b2565b845260208401935060208301925050600181019050620004bf565b5050505092915050565b600082601f8301126200050c57600080fd5b8135620005236200051d8262000da3565b62000cd1565b915080825260208301602083018583830111156200054057600080fd5b6200054d83828462000f6b565b50505092915050565b600082601f8301126200056857600080fd5b81356200057f620005798262000dd0565b62000cd1565b915080825260208301602083018583830111156200059c57600080fd5b620005a983828462000f6b565b50505092915050565b600081359050620005c38162000ff5565b92915050565b60008060008060008060c08789031215620005e357600080fd5b600087013567ffffffffffffffff811115620005fe57600080fd5b6200060c89828a01620002d6565b965050602087013567ffffffffffffffff8111156200062a57600080fd5b6200063889828a0162000363565b95505060406200064b89828a01620005b2565b945050606087013567ffffffffffffffff8111156200066957600080fd5b6200067789828a0162000556565b935050608087013567ffffffffffffffff8111156200069557600080fd5b620006a389828a01620003f0565b92505060a087013567ffffffffffffffff811115620006c157600080fd5b620006cf89828a016200046d565b9150509295509295509295565b6000620006ea838362000740565b60208301905092915050565b600062000704838362000751565b60208301905092915050565b60006200071e838362000973565b905092915050565b600062000734838362000b7a565b60208301905092915050565b6200074b8162000f2d565b82525050565b6200075c8162000f19565b82525050565b6200076d8162000f19565b82525050565b6000620007808262000e3d565b6200078c818562000eb3565b9350620007998362000dfd565b8060005b83811015620007d0578151620007b48882620006f6565b9750620007c18362000e7f565b9250506001810190506200079d565b5085935050505092915050565b6000620007ea8262000e48565b620007f6818562000ec4565b9350620008038362000e0d565b8060005b838110156200083a5781516200081e8882620006dc565b97506200082b8362000e8c565b92505060018101905062000807565b5085935050505092915050565b6000620008548262000e53565b62000860818562000ed5565b935083602082028501620008748562000e1d565b8060005b85811015620008b6578484038952815162000894858262000710565b9450620008a18362000e99565b925060208a0199505060018101905062000878565b50829750879550505050505092915050565b6000620008d58262000e5e565b620008e1818562000ee6565b9350620008ee8362000e2d565b8060005b838110156200092557815162000909888262000726565b9750620009168362000ea6565b925050600181019050620008f2565b5085935050505092915050565b60006200093f8262000e74565b6200094b818562000f08565b93506200095d81856020860162000f7a565b620009688162000fb0565b840191505092915050565b6000620009808262000e69565b6200098c818562000ef7565b93506200099e81856020860162000f7a565b620009a98162000fb0565b840191505092915050565b6000620009c360428362000f08565b91507f4572726f723a207265776172647320616e64207265776172647320707269636560008301527f732073686f756c642068617665207468652073616d652063617264696e616c6960208301527f74790000000000000000000000000000000000000000000000000000000000006040830152606082019050919050565b600062000a5160238362000f08565b91507f4572726f723a204e656564206174206c6561737420312062656e65666963696160008301527f72696500000000000000000000000000000000000000000000000000000000006020830152604082019050919050565b600062000ab960208362000f08565b91507f4572726f723a204e656564206174206c656173742031206f7267616e697a65726000830152602082019050919050565b600062000afb60468362000f08565b91507f4572726f723a207468652070726f76696465642063616d7061696e20656e642060008301527f6461746520696c206973206561726c696572207468616e20746865207374617260208301527f74206461746500000000000000000000000000000000000000000000000000006040830152606082019050919050565b62000b858162000f61565b82525050565b62000b968162000f61565b82525050565b600060208201905062000bb3600083018462000762565b92915050565b600060c082019050818103600083015262000bd5818962000773565b9050818103602083015262000beb8188620007dd565b905062000bfc604083018762000b8b565b818103606083015262000c10818662000932565b9050818103608083015262000c26818562000847565b905081810360a083015262000c3c8184620008c8565b9050979650505050505050565b6000602082019050818103600083015262000c6481620009b4565b9050919050565b6000602082019050818103600083015262000c868162000a42565b9050919050565b6000602082019050818103600083015262000ca88162000aaa565b9050919050565b6000602082019050818103600083015262000cca8162000aec565b9050919050565b6000604051905081810181811067ffffffffffffffff8211171562000cf557600080fd5b8060405250919050565b600067ffffffffffffffff82111562000d1757600080fd5b602082029050602081019050919050565b600067ffffffffffffffff82111562000d4057600080fd5b602082029050602081019050919050565b600067ffffffffffffffff82111562000d6957600080fd5b602082029050602081019050919050565b600067ffffffffffffffff82111562000d9257600080fd5b602082029050602081019050919050565b600067ffffffffffffffff82111562000dbb57600080fd5b601f19601f8301169050602081019050919050565b600067ffffffffffffffff82111562000de857600080fd5b601f19601f8301169050602081019050919050565b6000819050602082019050919050565b6000819050602082019050919050565b6000819050602082019050919050565b6000819050602082019050919050565b600081519050919050565b600081519050919050565b600081519050919050565b600081519050919050565b600081519050919050565b600081519050919050565b6000602082019050919050565b6000602082019050919050565b6000602082019050919050565b6000602082019050919050565b600082825260208201905092915050565b600082825260208201905092915050565b600082825260208201905092915050565b600082825260208201905092915050565b600082825260208201905092915050565b600082825260208201905092915050565b600062000f268262000f41565b9050919050565b600062000f3a8262000f41565b9050919050565b600073ffffffffffffffffffffffffffffffffffffffff82169050919050565b6000819050919050565b82818337600083830152505050565b60005b8381101562000f9a57808201518184015260208101905062000f7d565b8381111562000faa576000848401525b50505050565b6000601f19601f8301169050919050565b62000fcc8162000f19565b811462000fd857600080fd5b50565b62000fe68162000f2d565b811462000ff257600080fd5b50565b620010008162000f61565b81146200100c57600080fd5b5056fe60806040523480156200001157600080fd5b5060405162003c3638038062003c368339818101604052620000379190810190620008ff565b60008651905060008090505b81811015620001405760028882815181106200005b57fe5b602002602001015190806001815401808255809150509060018203906000526020600020016000909192909190916101000a81548173ffffffffffffffffffffffffffffffffffffffff021916908373ffffffffffffffffffffffffffffffffffffffff160217905550506000600360008a8481518110620000d957fe5b602002602001015173ffffffffffffffffffffffffffffffffffffffff1673ffffffffffffffffffffffffffffffffffffffff16815260200190815260200160002060006101000a81548160ff021916908315150217905550808060010191505062000043565b508551905060008090505b81811015620002a75760048782815181106200016357fe5b602002602001015190806001815401808255809150509060018203906000526020600020016000909192909190916101000a81548173ffffffffffffffffffffffffffffffffffffffff021916908373ffffffffffffffffffffffffffffffffffffffff16021790555050600060056000898481518110620001e157fe5b602002602001015173ffffffffffffffffffffffffffffffffffffffff1673ffffffffffffffffffffffffffffffffffffffff168152602001908152602001600020600001819055506001600560008984815181106200023d57fe5b602002602001015173ffffffffffffffffffffffffffffffffffffffff1673ffffffffffffffffffffffffffffffffffffffff16815260200190815260200160002060010160006101000a81548160ff02191690831515021790555080806001019150506200014b565b5084600b819055508360019080519060200190620002c792919062000372565b5060008060006101000a81548160ff02191690836003811115620002e757fe5b0217905550826009908051906020019062000304929190620003f9565b5081600a90805190602001906200031d92919062000460565b507f66fe4817acfd8756899e5d70b8db5e2f51795f380411f9aa53f14f246cd7d2046000809054906101000a900460ff166040516200035d919062000a23565b60405180910390a15050505050505062000c79565b828054600181600116156101000203166002900490600052602060002090601f016020900481019282601f10620003b557805160ff1916838001178555620003e6565b82800160010185558215620003e6579182015b82811115620003e5578251825591602001919060010190620003c8565b5b509050620003f59190620004b2565b5090565b8280548282559060005260206000209081019282156200044d579160200282015b828111156200044c5782518290805190602001906200043b929190620004da565b50916020019190600101906200041a565b5b5090506200045c919062000561565b5090565b8280548282559060005260206000209081019282156200049f579160200282015b828111156200049e57825182559160200191906001019062000481565b5b509050620004ae9190620004b2565b5090565b620004d791905b80821115620004d3576000816000905550600101620004b9565b5090565b90565b828054600181600116156101000203166002900490600052602060002090601f016020900481019282601f106200051d57805160ff19168380011785556200054e565b828001600101855582156200054e579182015b828111156200054d57825182559160200191906001019062000530565b5b5090506200055d9190620004b2565b5090565b6200058f91905b808211156200058b576000818162000581919062000592565b5060010162000568565b5090565b90565b50805460018160011615610100020316600290046000825580601f10620005ba5750620005db565b601f016020900490600052602060002090810190620005da9190620004b2565b5b50565b600081519050620005ef8162000c2b565b92915050565b600081519050620006068162000c45565b92915050565b600082601f8301126200061e57600080fd5b8151620006356200062f8262000a6e565b62000a40565b915081818352602084019350602081019050838560208402820111156200065b57600080fd5b60005b838110156200068f5781620006748882620005de565b8452602084019350602083019250506001810190506200065e565b5050505092915050565b600082601f830112620006ab57600080fd5b8151620006c2620006bc8262000a97565b62000a40565b91508181835260208401935060208101905083856020840282011115620006e857600080fd5b60005b838110156200071c5781620007018882620005f5565b845260208401935060208301925050600181019050620006eb565b5050505092915050565b600082601f8301126200073857600080fd5b81516200074f620007498262000ac0565b62000a40565b9150818183526020840193506020810190508360005b838110156200079957815186016200077e888262000830565b84526020840193506020830192505060018101905062000765565b5050505092915050565b600082601f830112620007b557600080fd5b8151620007cc620007c68262000ae9565b62000a40565b91508181835260208401935060208101905083856020840282011115620007f257600080fd5b60005b838110156200082657816200080b8882620008e8565b845260208401935060208301925050600181019050620007f5565b5050505092915050565b600082601f8301126200084257600080fd5b815162000859620008538262000b12565b62000a40565b915080825260208301602083018583830111156200087657600080fd5b6200088383828462000be7565b50505092915050565b600082601f8301126200089e57600080fd5b8151620008b5620008af8262000b3f565b62000a40565b91508082526020830160208301858383011115620008d257600080fd5b620008df83828462000be7565b50505092915050565b600081519050620008f98162000c5f565b92915050565b60008060008060008060c087890312156200091957600080fd5b600087015167ffffffffffffffff8111156200093457600080fd5b6200094289828a016200060c565b965050602087015167ffffffffffffffff8111156200096057600080fd5b6200096e89828a0162000699565b95505060406200098189828a01620008e8565b945050606087015167ffffffffffffffff8111156200099f57600080fd5b620009ad89828a016200088c565b935050608087015167ffffffffffffffff811115620009cb57600080fd5b620009d989828a0162000726565b92505060a087015167ffffffffffffffff811115620009f757600080fd5b62000a0589828a01620007a3565b9150509295509295509295565b62000a1d8162000bd3565b82525050565b600060208201905062000a3a600083018462000a12565b92915050565b6000604051905081810181811067ffffffffffffffff8211171562000a6457600080fd5b8060405250919050565b600067ffffffffffffffff82111562000a8657600080fd5b602082029050602081019050919050565b600067ffffffffffffffff82111562000aaf57600080fd5b602082029050602081019050919050565b600067ffffffffffffffff82111562000ad857600080fd5b602082029050602081019050919050565b600067ffffffffffffffff82111562000b0157600080fd5b602082029050602081019050919050565b600067ffffffffffffffff82111562000b2a57600080fd5b601f19601f8301169050602081019050919050565b600067ffffffffffffffff82111562000b5757600080fd5b601f19601f8301169050602081019050919050565b600062000b798262000ba9565b9050919050565b600062000b8d8262000ba9565b9050919050565b600081905062000ba48262000c1d565b919050565b600073ffffffffffffffffffffffffffffffffffffffff82169050919050565b6000819050919050565b600062000be08262000b94565b9050919050565b60005b8381101562000c0757808201518184015260208101905062000bea565b8381111562000c17576000848401525b50505050565b6004811062000c2857fe5b50565b62000c368162000b6c565b811462000c4257600080fd5b50565b62000c508162000b80565b811462000c5c57600080fd5b50565b62000c6a8162000bc9565b811462000c7657600080fd5b50565b612fad8062000c896000396000f3fe6080604052600436106100c25760003560e01c80639af6549a1161007f578063c19d93fb11610059578063c19d93fb14610224578063d059de191461024f578063e86ae7001461026b578063efeb5e58146102a8576100c2565b80639af6549a146101b9578063a4c8be1e146101d0578063a4e00d6e1461020d576100c2565b806324881536146100c75780635d3e9613146100e35780635f8d96de1461012157806371aac7f91461014c5780637f1e573c14610163578063913b722c1461018e575b600080fd5b6100e160048036036100dc9190810190612175565b6102e5565b005b3480156100ef57600080fd5b5061010a6004803603610105919081019061214c565b6108f8565b604051610118929190612cb1565b60405180910390f35b34801561012d57600080fd5b50610136610929565b6040516101439190612c96565b60405180910390f35b34801561015857600080fd5b50610161610933565b005b34801561016f57600080fd5b50610178610ae9565b6040516101859190612af4565b60405180910390f35b34801561019a57600080fd5b506101a3610d9b565b6040516101b09190612a95565b60405180910390f35b3480156101c557600080fd5b506101ce610e29565b005b3480156101dc57600080fd5b506101f760048036036101f291908101906122f1565b61112e565b6040516102049190612a36565b60405180910390f35b34801561021957600080fd5b5061022261116a565b005b34801561023057600080fd5b50610239611363565b6040516102469190612ad9565b60405180910390f35b6102696004803603610264919081019061225a565b611375565b005b34801561027757600080fd5b50610292600480360361028d9190810190612219565b611a6a565b60405161029f9190612ab7565b60405180910390f35b3480156102b457600080fd5b506102cf60048036036102ca91908101906122f1565b611c47565b6040516102dc9190612a51565b60405180910390f35b42600b54811061032a576040517f08c379a000000000000000000000000000000000000000000000000000000000815260040161032190612b36565b60405180910390fd5b33600080905060008090505b60028054905081108015610348575081155b156103ca578273ffffffffffffffffffffffffffffffffffffffff166002828154811061037157fe5b9060005260206000200160009054906101000a900473ffffffffffffffffffffffffffffffffffffffff1673ffffffffffffffffffffffffffffffffffffffff1614156103bd57600191505b8080600101915050610336565b508061040b576040517f08c379a000000000000000000000000000000000000000000000000000000000815260040161040290612c16565b60405180910390fd5b888880806020026020016040519081016040528093929190818152602001838360200280828437600081840152601f19601f82011690508083019250505050505050600080905060008090505b6004805490508110801561046a575081155b156105145760001515600560006004848154811061048457fe5b9060005260206000200160009054906101000a900473ffffffffffffffffffffffffffffffffffffffff1673ffffffffffffffffffffffffffffffffffffffff1673ffffffffffffffffffffffffffffffffffffffff16815260200190815260200160002060010160009054906101000a900460ff161515141561050757600191505b8080600101915050610458565b50600015158115151461055c576040517f08c379a000000000000000000000000000000000000000000000000000000000815260040161055390612c56565b60405180910390fd5b60008060009054906101000a900460ff16600381111561057857fe5b81600381111561058457fe5b146105c4576040517f08c379a00000000000000000000000000000000000000000000000000000000081526004016105bb90612b56565b60405180910390fd5b6106958c8c80806020026020016040519081016040528093929190818152602001838360200280828437600081840152601f19601f820116905080830192505050505050508b8b80806020026020016040519081016040528093929190818152602001838360200280828437600081840152601f19601f820116905080830192505050505050508a8a8080601f016020809104026020016040519081016040528093929190818152602001838380828437600081840152601f19601f82011690508083019250505050505050611375565b60001515600360003373ffffffffffffffffffffffffffffffffffffffff1673ffffffffffffffffffffffffffffffffffffffff16815260200190815260200160002060009054906101000a900460ff1615151415610747576001600360003373ffffffffffffffffffffffffffffffffffffffff1673ffffffffffffffffffffffffffffffffffffffff16815260200190815260200160002060006101000a81548160ff0219169083151502179055505b600080905060008090505b6002805490508110156108055760011515600360006002848154811061077457fe5b9060005260206000200160009054906101000a900473ffffffffffffffffffffffffffffffffffffffff1673ffffffffffffffffffffffffffffffffffffffff1673ffffffffffffffffffffffffffffffffffffffff16815260200190815260200160002060009054906101000a900460ff16151514156107f85781806001019250505b8080600101915050610752565b506002805490508114156108805760016000806101000a81548160ff0219169083600381111561083157fe5b02179055507f66fe4817acfd8756899e5d70b8db5e2f51795f380411f9aa53f14f246cd7d2046000809054906101000a900460ff166040516108739190612ad9565b60405180910390a16108e9565b60008060006101000a81548160ff0219169083600381111561089e57fe5b02179055507f66fe4817acfd8756899e5d70b8db5e2f51795f380411f9aa53f14f246cd7d2046000809054906101000a900460ff166040516108e09190612ad9565b60405180910390a15b50505050505050505050505050565b60056020528060005260406000206000915090508060000154908060010160009054906101000a900460ff16905082565b6000600b54905090565b33600080905060008090505b60028054905081108015610951575081155b156109d3578273ffffffffffffffffffffffffffffffffffffffff166002828154811061097a57fe5b9060005260206000200160009054906101000a900473ffffffffffffffffffffffffffffffffffffffff1673ffffffffffffffffffffffffffffffffffffffff1614156109c657600191505b808060010191505061093f565b5080610a14576040517f08c379a0000000000000000000000000000000000000000000000000000000008152600401610a0b90612c16565b60405180910390fd5b60016000809054906101000a900460ff166003811115610a3057fe5b816003811115610a3c57fe5b14610a7c576040517f08c379a0000000000000000000000000000000000000000000000000000000008152600401610a7390612b56565b60405180910390fd5b60026000806101000a81548160ff02191690836003811115610a9a57fe5b02179055507f66fe4817acfd8756899e5d70b8db5e2f51795f380411f9aa53f14f246cd7d2046000809054906101000a900460ff16604051610adc9190612ad9565b60405180910390a1505050565b60608060405180602001604052806000815250905060606040518060400160405280600181526020017f400000000000000000000000000000000000000000000000000000000000000081525090506060600860003373ffffffffffffffffffffffffffffffffffffffff1673ffffffffffffffffffffffffffffffffffffffff168152602001908152602001600020805480602002602001604051908101604052809291908181526020016000905b82821015610c8157838290600052602060002090600302016040518060600160405290816000820154815260200160018201548152602001600282018054600181600116156101000203166002900480601f016020809104026020016040519081016040528092919081815260200182805460018160011615610100020316600290048015610c695780601f10610c3e57610100808354040283529160200191610c69565b820191906000526020600020905b815481529060010190602001808311610c4c57829003601f168201915b50505050508152505081526020019060010190610b99565b50505050905060008090505b8151811015610d915760008090505b828281518110610ca857fe5b6020026020010151600001518111610d8357610d74858560098481548110610ccc57fe5b906000526020600020018054600181600116156101000203166002900480601f016020809104026020016040519081016040528092919081815260200182805460018160011615610100020316600290048015610d6a5780601f10610d3f57610100808354040283529160200191610d6a565b820191906000526020600020905b815481529060010190602001808311610d4d57829003601f168201915b5050505050611c83565b94508080600101915050610c9c565b508080600101915050610c8d565b5082935050505090565b60606004805480602002602001604051908101604052809291908181526020018280548015610e1f57602002820191906000526020600020905b8160009054906101000a900473ffffffffffffffffffffffffffffffffffffffff1673ffffffffffffffffffffffffffffffffffffffff1681526020019060010190808311610dd5575b5050505050905090565b3360011515600560008373ffffffffffffffffffffffffffffffffffffffff1673ffffffffffffffffffffffffffffffffffffffff16815260200190815260200160002060010160009054906101000a900460ff16151514610ec0576040517f08c379a0000000000000000000000000000000000000000000000000000000008152600401610eb790612b96565b60405180910390fd5b60026000809054906101000a900460ff166003811115610edc57fe5b816003811115610ee857fe5b14610f28576040517f08c379a0000000000000000000000000000000000000000000000000000000008152600401610f1f90612b56565b60405180910390fd5b6000600560003373ffffffffffffffffffffffffffffffffffffffff1673ffffffffffffffffffffffffffffffffffffffff1681526020019081526020016000206000015411610fad576040517f08c379a0000000000000000000000000000000000000000000000000000000008152600401610fa490612b16565b60405180910390fd5b6000600560003373ffffffffffffffffffffffffffffffffffffffff1673ffffffffffffffffffffffffffffffffffffffff1681526020019081526020016000206000015490506000600560003373ffffffffffffffffffffffffffffffffffffffff1673ffffffffffffffffffffffffffffffffffffffff1681526020019081526020016000206000018190555060003373ffffffffffffffffffffffffffffffffffffffff168260405161106290612a21565b60006040518083038185875af1925050503d806000811461109f576040519150601f19603f3d011682016040523d82523d6000602084013e6110a4565b606091505b5050905060011515811515146110ef576040517f08c379a00000000000000000000000000000000000000000000000000000000081526004016110e690612bb6565b60405180910390fd5b7f93740124b37b8f64043ddd706a499c11b58d2642466169e4c310f6b55ead67b63383604051611120929190612a6c565b60405180910390a150505050565b6002818154811061113b57fe5b906000526020600020016000915054906101000a900473ffffffffffffffffffffffffffffffffffffffff1681565b33600080905060008090505b60028054905081108015611188575081155b1561120a578273ffffffffffffffffffffffffffffffffffffffff16600282815481106111b157fe5b9060005260206000200160009054906101000a900473ffffffffffffffffffffffffffffffffffffffff1673ffffffffffffffffffffffffffffffffffffffff1614156111fd57600191505b8080600101915050611176565b508061124b576040517f08c379a000000000000000000000000000000000000000000000000000000000815260040161124290612c16565b60405180910390fd5b60026000809054906101000a900460ff16600381111561126757fe5b81600381111561127357fe5b146112b3576040517f08c379a00000000000000000000000000000000000000000000000000000000081526004016112aa90612b56565b60405180910390fd5b600047146112f6576040517f08c379a00000000000000000000000000000000000000000000000000000000081526004016112ed90612bd6565b60405180910390fd5b60036000806101000a81548160ff0219169083600381111561131457fe5b02179055507f66fe4817acfd8756899e5d70b8db5e2f51795f380411f9aa53f14f246cd7d2046000809054906101000a900460ff166040516113569190612ad9565b60405180910390a1505050565b6000809054906101000a900460ff1681565b42600b5481106113ba576040517f08c379a00000000000000000000000000000000000000000000000000000000081526004016113b190612b36565b60405180910390fd5b83600080905060008090505b600480549050811080156113d8575081155b15611482576000151560056000600484815481106113f257fe5b9060005260206000200160009054906101000a900473ffffffffffffffffffffffffffffffffffffffff1673ffffffffffffffffffffffffffffffffffffffff1673ffffffffffffffffffffffffffffffffffffffff16815260200190815260200160002060010160009054906101000a900460ff161515141561147557600191505b80806001019150506113c6565b5060001515811515146114ca576040517f08c379a00000000000000000000000000000000000000000000000000000000081526004016114c190612c56565b60405180910390fd5b600160038111156114d757fe5b6000809054906101000a900460ff1660038111156114f157fe5b148061157d57506000600381111561150557fe5b6000809054906101000a900460ff16600381111561151f57fe5b14801561157c575060001515600360003373ffffffffffffffffffffffffffffffffffffffff1673ffffffffffffffffffffffffffffffffffffffff16815260200190815260200160002060009054906101000a900460ff161515145b5b6115bc576040517f08c379a00000000000000000000000000000000000000000000000000000000081526004016115b390612c36565b60405180910390fd5b600034116115ff576040517f08c379a00000000000000000000000000000000000000000000000000000000081526004016115f690612c76565b60405180910390fd5b8451865114611643576040517f08c379a000000000000000000000000000000000000000000000000000000000815260040161163a90612bf6565b60405180910390fd5b600080905060008090505b865181101561167c5786818151811061166357fe5b602002602001015182019150808060010191505061164e565b508034146116bf576040517f08c379a00000000000000000000000000000000000000000000000000000000081526004016116b690612b76565b60405180910390fd5b6116c7611cb2565b34816000018181525050878160200181905250868160400181905250600760003373ffffffffffffffffffffffffffffffffffffffff1673ffffffffffffffffffffffffffffffffffffffff1681526020019081526020016000208190806001815401808255809150509060018203906000526020600020906007020160009091929091909150600082015181600001556020820151816001019080519060200190611774929190611ce9565b506040820151816002019080519060200190611791929190611d73565b50606082015181600301600082015181600001556020820151816001015560408201518160020190805190602001906117cb929190611dc0565b50505060808201518160060160006101000a81548160ff0219169083151502179055505050506000600a8054905011801561181e5750600a60008154811061180f57fe5b90600052602060002001543410155b156119a15761182b611e40565b60008090505b6009805490508110801561185c5750600a818154811061184d57fe5b90600052602060002001543410155b1561186e578080600101915050611831565b600181038260000181815250506001600760003373ffffffffffffffffffffffffffffffffffffffff1673ffffffffffffffffffffffffffffffffffffffff1681526020019081526020016000208054905003826020018181525050878260400181905250600860003373ffffffffffffffffffffffffffffffffffffffff1673ffffffffffffffffffffffffffffffffffffffff16815260200190815260200160002082908060018154018082558091505090600182039060005260206000209060030201600090919290919091506000820151816000015560208201518160010155604082015181600201908051906020019061196e929190611dc0565b505050507f744b881a25971efd286cf16da8b9c684ec04deeab58650ac9134f432baa30f1060405160405180910390a150505b60008090505b8851811015611a33578781815181106119bc57fe5b6020026020010151600560008b84815181106119d457fe5b602002602001015173ffffffffffffffffffffffffffffffffffffffff1673ffffffffffffffffffffffffffffffffffffffff1681526020019081526020016000206000016000828254019250508190555080806001019150506119a7565b507f69ee10f8865f0d317c7a1b74da8e2cbffcc7097a4077b37fb42fba449101f93560405160405180910390a15050505050505050565b606081600080905060008090505b60048054905081108015611a8a575081155b15611b3457600015156005600060048481548110611aa457fe5b9060005260206000200160009054906101000a900473ffffffffffffffffffffffffffffffffffffffff1673ffffffffffffffffffffffffffffffffffffffff1673ffffffffffffffffffffffffffffffffffffffff16815260200190815260200160002060010160009054906101000a900460ff1615151415611b2757600191505b8080600101915050611a78565b506000151581151514611b7c576040517f08c379a0000000000000000000000000000000000000000000000000000000008152600401611b7390612c56565b60405180910390fd5b60608451604051908082528060200260200182016040528015611bae5781602001602082028038833980820191505090505b50905060008090505b8551811015611c3b5760056000878381518110611bd057fe5b602002602001015173ffffffffffffffffffffffffffffffffffffffff1673ffffffffffffffffffffffffffffffffffffffff16815260200190815260200160002060000154828281518110611c2257fe5b6020026020010181815250508080600101915050611bb7565b50809350505050919050565b60048181548110611c5457fe5b906000526020600020016000915054906101000a900473ffffffffffffffffffffffffffffffffffffffff1681565b6060838383604051602001611c9a939291906129f0565b60405160208183030381529060405290509392505050565b6040518060a00160405280600081526020016060815260200160608152602001611cda611e61565b81526020016000151581525090565b828054828255906000526020600020908101928215611d62579160200282015b82811115611d615782518260006101000a81548173ffffffffffffffffffffffffffffffffffffffff021916908373ffffffffffffffffffffffffffffffffffffffff16021790555091602001919060010190611d09565b5b509050611d6f9190611e82565b5090565b828054828255906000526020600020908101928215611daf579160200282015b82811115611dae578251825591602001919060010190611d93565b5b509050611dbc9190611ec5565b5090565b828054600181600116156101000203166002900490600052602060002090601f016020900481019282601f10611e0157805160ff1916838001178555611e2f565b82800160010185558215611e2f579182015b82811115611e2e578251825591602001919060010190611e13565b5b509050611e3c9190611ec5565b5090565b60405180606001604052806000815260200160008152602001606081525090565b60405180606001604052806000815260200160008152602001606081525090565b611ec291905b80821115611ebe57600081816101000a81549073ffffffffffffffffffffffffffffffffffffffff021916905550600101611e88565b5090565b90565b611ee791905b80821115611ee3576000816000905550600101611ecb565b5090565b90565b600081359050611ef981612f3c565b92915050565b60008083601f840112611f1157600080fd5b8235905067ffffffffffffffff811115611f2a57600080fd5b602083019150836020820283011115611f4257600080fd5b9250929050565b600082601f830112611f5a57600080fd5b8135611f6d611f6882612d07565b612cda565b91508181835260208401935060208101905083856020840282011115611f9257600080fd5b60005b83811015611fc25781611fa88882611eea565b845260208401935060208301925050600181019050611f95565b5050505092915050565b60008083601f840112611fde57600080fd5b8235905067ffffffffffffffff811115611ff757600080fd5b60208301915083602082028301111561200f57600080fd5b9250929050565b600082601f83011261202757600080fd5b813561203a61203582612d2f565b612cda565b9150818183526020840193506020810190508385602084028201111561205f57600080fd5b60005b8381101561208f57816120758882612137565b845260208401935060208301925050600181019050612062565b5050505092915050565b60008083601f8401126120ab57600080fd5b8235905067ffffffffffffffff8111156120c457600080fd5b6020830191508360018202830111156120dc57600080fd5b9250929050565b600082601f8301126120f457600080fd5b813561210761210282612d57565b612cda565b9150808252602083016020830185838301111561212357600080fd5b61212e838284612edc565b50505092915050565b60008135905061214681612f53565b92915050565b60006020828403121561215e57600080fd5b600061216c84828501611eea565b91505092915050565b6000806000806000806060878903121561218e57600080fd5b600087013567ffffffffffffffff8111156121a857600080fd5b6121b489828a01611eff565b9650965050602087013567ffffffffffffffff8111156121d357600080fd5b6121df89828a01611fcc565b9450945050604087013567ffffffffffffffff8111156121fe57600080fd5b61220a89828a01612099565b92509250509295509295509295565b60006020828403121561222b57600080fd5b600082013567ffffffffffffffff81111561224557600080fd5b61225184828501611f49565b91505092915050565b60008060006060848603121561226f57600080fd5b600084013567ffffffffffffffff81111561228957600080fd5b61229586828701611f49565b935050602084013567ffffffffffffffff8111156122b257600080fd5b6122be86828701612016565b925050604084013567ffffffffffffffff8111156122db57600080fd5b6122e7868287016120e3565b9150509250925092565b60006020828403121561230357600080fd5b600061231184828501612137565b91505092915050565b60006123268383612359565b60208301905092915050565b600061233e83836129d2565b60208301905092915050565b61235381612e94565b82525050565b61236281612e39565b82525050565b61237181612e39565b82525050565b61238081612e27565b82525050565b600061239182612da3565b61239b8185612dde565b93506123a683612d83565b8060005b838110156123d75781516123be888261231a565b97506123c983612dc4565b9250506001810190506123aa565b5085935050505092915050565b60006123ef82612dae565b6123f98185612def565b935061240483612d93565b8060005b8381101561243557815161241c8882612332565b975061242783612dd1565b925050600181019050612408565b5085935050505092915050565b61244b81612e4b565b82525050565b61245a81612ea6565b82525050565b600061246b82612db9565b6124758185612e0b565b9350612485818560208601612eeb565b61248e81612f1e565b840191505092915050565b60006124a482612db9565b6124ae8185612e1c565b93506124be818560208601612eeb565b80840191505092915050565b60006124d7603883612e0b565b91507f4572726f723a2074686572652068617665206265656e206e6f20646f6e61746960008301527f6f6e7320666f7220746869732062656e656669636961727900000000000000006020830152604082019050919050565b600061253d602083612e0b565b91507f4572726f723a2063616d706169676e20646561646c696e6520657870697265646000830152602082019050919050565b600061257d603e83612e0b565b91507f4572726f723a2063616e6e6f742061636365737320746869732066756e63746960008301527f6f6e616c6974792066726f6d207468652063757272656e7420737461746500006020830152604082019050919050565b60006125e3604983612e0b565b91507f4572726f723a20546f74616c20706f766964656420776569732061726520646960008301527f66666572656e742066726f6d207468652070726f76696465642077656973207060208301527f6172746974696f6e7300000000000000000000000000000000000000000000006040830152606082019050919050565b600061266f603183612e0b565b91507f4572726f723a206f6e6c792062656e656669636961726965732063616e20616360008301527f63657373207468652077697468647261770000000000000000000000000000006020830152604082019050919050565b60006126d5602183612e0b565b91507f4572726f723a205769746864726177207472616e73616374696f6e206572726f60008301527f72000000000000000000000000000000000000000000000000000000000000006020830152604082019050919050565b600061273b603983612e0b565b91507f4572726f723a205761697420756e74696c20616c6c2062656e6566696369617260008301527f69657320776974686472617720746865697220726577617264000000000000006020830152604082019050919050565b60006127a1604283612e0b565b91507f4572726f723a2064657374696e61746f72732073697a6520697320646966666560008301527f72656e742066726f6d2074686520776569277320706172746974696f6e20736960208301527f7a650000000000000000000000000000000000000000000000000000000000006040830152606082019050919050565b600061282d602683612e0b565b91507f4572726f723a2066756e6374696f6e20726573657276656420746f206f72676160008301527f6e697a65727300000000000000000000000000000000000000000000000000006020830152604082019050919050565b6000612893600083612e00565b9150600082019050919050565b60006128ad604983612e0b565b91507f4572726f723a205468652063616d706169676e206973206e6f7420737461727460008301527f6564206f7220796f75277265206e6f7420616e206f7267616e697a657220746f60208301527f20737461727420697400000000000000000000000000000000000000000000006040830152606082019050919050565b6000612939603d83612e0b565b91507f4572726f723a206f6e65206f72206d6f7265206f66207468652070726f76696460008301527f65642062656e6566696369617269657320646f206e6f742065786973740000006020830152604082019050919050565b600061299f601583612e0b565b91507f4572726f723a2030207765692070726f766964656400000000000000000000006000830152602082019050919050565b6129db81612e8a565b82525050565b6129ea81612e8a565b82525050565b60006129fc8286612499565b9150612a088285612499565b9150612a148284612499565b9150819050949350505050565b6000612a2c82612886565b9150819050919050565b6000602082019050612a4b6000830184612377565b92915050565b6000602082019050612a666000830184612368565b92915050565b6000604082019050612a81600083018561234a565b612a8e60208301846129e1565b9392505050565b60006020820190508181036000830152612aaf8184612386565b905092915050565b60006020820190508181036000830152612ad181846123e4565b905092915050565b6000602082019050612aee6000830184612451565b92915050565b60006020820190508181036000830152612b0e8184612460565b905092915050565b60006020820190508181036000830152612b2f816124ca565b9050919050565b60006020820190508181036000830152612b4f81612530565b9050919050565b60006020820190508181036000830152612b6f81612570565b9050919050565b60006020820190508181036000830152612b8f816125d6565b9050919050565b60006020820190508181036000830152612baf81612662565b9050919050565b60006020820190508181036000830152612bcf816126c8565b9050919050565b60006020820190508181036000830152612bef8161272e565b9050919050565b60006020820190508181036000830152612c0f81612794565b9050919050565b60006020820190508181036000830152612c2f81612820565b9050919050565b60006020820190508181036000830152612c4f816128a0565b9050919050565b60006020820190508181036000830152612c6f8161292c565b9050919050565b60006020820190508181036000830152612c8f81612992565b9050919050565b6000602082019050612cab60008301846129e1565b92915050565b6000604082019050612cc660008301856129e1565b612cd36020830184612442565b9392505050565b6000604051905081810181811067ffffffffffffffff82111715612cfd57600080fd5b8060405250919050565b600067ffffffffffffffff821115612d1e57600080fd5b602082029050602081019050919050565b600067ffffffffffffffff821115612d4657600080fd5b602082029050602081019050919050565b600067ffffffffffffffff821115612d6e57600080fd5b601f19601f8301169050602081019050919050565b6000819050602082019050919050565b6000819050602082019050919050565b600081519050919050565b600081519050919050565b600081519050919050565b6000602082019050919050565b6000602082019050919050565b600082825260208201905092915050565b600082825260208201905092915050565b600081905092915050565b600082825260208201905092915050565b600081905092915050565b6000612e3282612e6a565b9050919050565b6000612e4482612e6a565b9050919050565b60008115159050919050565b6000819050612e6582612f2f565b919050565b600073ffffffffffffffffffffffffffffffffffffffff82169050919050565b6000819050919050565b6000612e9f82612eb8565b9050919050565b6000612eb182612e57565b9050919050565b6000612ec382612eca565b9050919050565b6000612ed582612e6a565b9050919050565b82818337600083830152505050565b60005b83811015612f09578082015181840152602081019050612eee565b83811115612f18576000848401525b50505050565b6000601f19601f8301169050919050565b60048110612f3957fe5b50565b612f4581612e27565b8114612f5057600080fd5b50565b612f5c81612e8a565b8114612f6757600080fd5b5056fea365627a7a72315820614be85c7e345cdb6f30796f463d5f714061be43fe5d1385d81f94f8bbf1f38a6c6578706572696d656e74616cf564736f6c63430005100040a365627a7a72315820e4218ad586b31402b8be507eeebba846ecf909e2c731683f3bf425e25b1b0b446c6578706572696d656e74616cf564736f6c63430005100040",
  "source": "pragma solidity >=0.4.21 <0.7.0;\r\npragma experimental ABIEncoderV2;\r\n\r\nimport \"./Campaign.sol\";\r\n\r\ncontract BitCollect{\r\n\r\n    Campaign[] campaigns;\r\n    mapping(address => uint) campaign_index;\r\n    mapping(uint => uint) test;\r\n\r\n    event campaignCreated(address cont);\r\n\r\n    constructor() public {}\r\n\r\n    function createCampaign(address[] memory _organizers, address payable[] memory _beneficiaries, uint _end_date, string memory name,\r\n     string[] memory rewards_names, uint[] memory rewards_costs)\r\n    public payable{\r\n        require(_organizers.length>0, \"Error: Need at least 1 organizer\"); //RQ-PARAMS\r\n        require(_beneficiaries.length>0, \"Error: Need at least 1 beneficiarie\"); //RQ-PARAMS\r\n        require(_end_date>block.timestamp, \"Error: the provided campain end date il is earlier than the start date\");\r\n        require(rewards_names.length==rewards_costs.length, \"Error: rewards and rewards prices should have the same cardinality\");\r\n\r\n        Campaign new_campaign = new Campaign(_organizers, _beneficiaries, _end_date, name, rewards_names, rewards_costs);\r\n        campaigns.push(new_campaign);\r\n        campaign_index[address(new_campaign)] = campaigns.length-1;\r\n\r\n        emit campaignCreated(address(new_campaign));\r\n    }\r\n\r\n}",
  "sourcePath": "G:\\SSD Workspace\\Ethereum\\BitCollect\\contracts\\BitCollect.sol",
  "compiler": {
    "name": "solc",
    "version": "0.5.16+commit.9c3226ce.Emscripten.clang"
  },
  "schemaVersion": "3.2.0",
  "updatedAt": "2020-07-04T21:58:01.301Z",
  "networkType": "ethereum",
  "devdoc": {
    "methods": {}
  },
  "userdoc": {
    "methods": {}
  }
}