{
  "contractName": "BitCollect",
  "abi": [
    {
      "inputs": [
        {
          "internalType": "uint256",
          "name": "fraud_threshold",
          "type": "uint256"
        },
        {
          "internalType": "uint256",
          "name": "_report_investment",
          "type": "uint256"
        }
      ],
      "payable": false,
      "stateMutability": "nonpayable",
      "type": "constructor"
    },
    {
      "anonymous": false,
      "inputs": [
        {
          "indexed": false,
          "internalType": "address",
          "name": "cont",
          "type": "address"
        }
      ],
      "name": "campaignCreated",
      "type": "event"
    },
    {
      "constant": false,
      "inputs": [
        {
          "internalType": "address[]",
          "name": "_organizers",
          "type": "address[]"
        },
        {
          "internalType": "address payable[]",
          "name": "_beneficiaries",
          "type": "address[]"
        },
        {
          "internalType": "uint256",
          "name": "_end_date",
          "type": "uint256"
        },
        {
          "internalType": "uint256[]",
          "name": "rewards_costs",
          "type": "uint256[]"
        },
        {
          "internalType": "string",
          "name": "campaign_info_hashes",
          "type": "string"
        }
      ],
      "name": "createCampaign",
      "outputs": [],
      "payable": true,
      "stateMutability": "payable",
      "type": "function"
    },
    {
      "constant": false,
      "inputs": [
        {
          "internalType": "uint256",
          "name": "t",
          "type": "uint256"
        }
      ],
      "name": "setFraudThreshold",
      "outputs": [],
      "payable": false,
      "stateMutability": "nonpayable",
      "type": "function"
    },
    {
      "constant": false,
      "inputs": [
        {
          "internalType": "uint256",
          "name": "t",
          "type": "uint256"
        }
      ],
      "name": "setFraudInvestment",
      "outputs": [],
      "payable": false,
      "stateMutability": "nonpayable",
      "type": "function"
    }
  ],
  "bytecode": "0x608060405234801561001057600080fd5b50604051614e6c380380614e6c8339818101604052604081101561003357600080fd5b810190808051906020019092919080519060200190929190505050600082116100a7576040517f08c379a000000000000000000000000000000000000000000000000000000000815260040180806020018281038252602d815260200180614e02602d913960400191505060405180910390fd5b60008111610100576040517f08c379a000000000000000000000000000000000000000000000000000000000815260040180806020018281038252603d815260200180614e2f603d913960400191505060405180910390fd5b336000806101000a81548173ffffffffffffffffffffffffffffffffffffffff021916908373ffffffffffffffffffffffffffffffffffffffff16021790555081600381905550806004819055505050614ca38061015f6000396000f3fe608060405260043610620000385760003560e01c8063a9fcd8e4146200003d578063ca22195b14620002cd578063e3be5e5d146200030c575b600080fd5b620002cb600480360360a08110156200005557600080fd5b81019080803590602001906401000000008111156200007357600080fd5b8201836020820111156200008657600080fd5b80359060200191846020830284011164010000000083111715620000a957600080fd5b919080806020026020016040519081016040528093929190818152602001838360200280828437600081840152601f19601f820116905080830192505050505050509192919290803590602001906401000000008111156200010a57600080fd5b8201836020820111156200011d57600080fd5b803590602001918460208302840111640100000000831117156200014057600080fd5b919080806020026020016040519081016040528093929190818152602001838360200280828437600081840152601f19601f8201169050808301925050505050505091929192908035906020019092919080359060200190640100000000811115620001ab57600080fd5b820183602082011115620001be57600080fd5b80359060200191846020830284011164010000000083111715620001e157600080fd5b919080806020026020016040519081016040528093929190818152602001838360200280828437600081840152601f19601f820116905080830192505050505050509192919290803590602001906401000000008111156200024257600080fd5b8201836020820111156200025557600080fd5b803590602001918460018302840111640100000000831117156200027857600080fd5b91908080601f016020809104026020016040519081016040528093929190818152602001838380828437600081840152601f19601f8201169050808301925050505050505091929192905050506200034b565b005b348015620002da57600080fd5b506200030a60048036036020811015620002f357600080fd5b810190808035906020019092919050505062000735565b005b3480156200031957600080fd5b5062000349600480360360208110156200033257600080fd5b810190808035906020019092919050505062000841565b005b6000855111620003c3576040517f08c379a00000000000000000000000000000000000000000000000000000000081526004018080602001828103825260208152602001807f4572726f723a204e656564206174206c656173742031206f7267616e697a657281525060200191505060405180910390fd5b60008451116200041f576040517f08c379a000000000000000000000000000000000000000000000000000000000815260040180806020018281038252602381526020018062004b596023913960400191505060405180910390fd5b42831162000479576040517f08c379a000000000000000000000000000000000000000000000000000000000815260040180806020018281038252604681526020018062004c296046913960600191505060405180910390fd5b6000858585856003548660045460405162000494906200094d565b808060200180602001888152602001806020018781526020018060200186815260200185810385528c818151815260200191508051906020019060200280838360005b83811015620004f4578082015181840152602081019050620004d7565b5050505090500185810384528b818151815260200191508051906020019060200280838360005b83811015620005385780820151818401526020810190506200051b565b50505050905001858103835289818151815260200191508051906020019060200280838360005b838110156200057c5780820151818401526020810190506200055f565b50505050905001858103825287818151815260200191508051906020019080838360005b83811015620005bd578082015181840152602081019050620005a0565b50505050905090810190601f168015620005eb5780820380516001836020036101000a031916815260200191505b509b505050505050505050505050604051809103906000f08015801562000616573d6000803e3d6000fd5b50905060018190806001815401808255809150509060018203906000526020600020016000909192909190916101000a81548173ffffffffffffffffffffffffffffffffffffffff021916908373ffffffffffffffffffffffffffffffffffffffff160217905550506001808054905003600260008373ffffffffffffffffffffffffffffffffffffffff1673ffffffffffffffffffffffffffffffffffffffff168152602001908152602001600020819055507f3b5c6dff367f8fe540e018ee8cb76957ce7d9fafe57f188fa343a6d06084475581604051808273ffffffffffffffffffffffffffffffffffffffff1673ffffffffffffffffffffffffffffffffffffffff16815260200191505060405180910390a1505050505050565b6000809054906101000a900473ffffffffffffffffffffffffffffffffffffffff1673ffffffffffffffffffffffffffffffffffffffff163373ffffffffffffffffffffffffffffffffffffffff1614620007dc576040517f08c379a000000000000000000000000000000000000000000000000000000000815260040180806020018281038252604381526020018062004b7c6043913960600191505060405180910390fd5b6000811162000837576040517f08c379a000000000000000000000000000000000000000000000000000000000815260040180806020018281038252603d81526020018062004bec603d913960400191505060405180910390fd5b8060048190555050565b6000809054906101000a900473ffffffffffffffffffffffffffffffffffffffff1673ffffffffffffffffffffffffffffffffffffffff163373ffffffffffffffffffffffffffffffffffffffff1614620008e8576040517f08c379a000000000000000000000000000000000000000000000000000000000815260040180806020018281038252604381526020018062004b7c6043913960600191505060405180910390fd5b6000811162000943576040517f08c379a000000000000000000000000000000000000000000000000000000000815260040180806020018281038252602d81526020018062004bbf602d913960400191505060405180910390fd5b8060038190555050565b6141fd806200095c8339019056fe60806040523480156200001157600080fd5b50604051620041fd380380620041fd833981810160405260e08110156200003757600080fd5b81019080805160405193929190846401000000008211156200005857600080fd5b838201915060208201858111156200006f57600080fd5b82518660208202830111640100000000821117156200008d57600080fd5b8083526020830192505050908051906020019060200280838360005b83811015620000c6578082015181840152602081019050620000a9565b5050505090500160405260200180516040519392919084640100000000821115620000f057600080fd5b838201915060208201858111156200010757600080fd5b82518660208202830111640100000000821117156200012557600080fd5b8083526020830192505050908051906020019060200280838360005b838110156200015e57808201518184015260208101905062000141565b5050505090500160405260200180519060200190929190805160405193929190846401000000008211156200019257600080fd5b83820191506020820185811115620001a957600080fd5b8251866020820283011164010000000082111715620001c757600080fd5b8083526020830192505050908051906020019060200280838360005b8381101562000200578082015181840152602081019050620001e3565b5050505090500160405260200180519060200190929190805160405193929190846401000000008211156200023457600080fd5b838201915060208201858111156200024b57600080fd5b82518660018202830111640100000000821117156200026957600080fd5b8083526020830192505050908051906020019080838360005b838110156200029f57808201518184015260208101905062000282565b50505050905090810190601f168015620002cd5780820380516001836020036101000a031916815260200191505b506040526020018051906020019092919050505060008090505b8751811015620003e55760018882815181106200030057fe5b602002602001015190806001815401808255809150509060018203906000526020600020016000909192909190916101000a81548173ffffffffffffffffffffffffffffffffffffffff021916908373ffffffffffffffffffffffffffffffffffffffff160217905550506000600260008a84815181106200037e57fe5b602002602001015173ffffffffffffffffffffffffffffffffffffffff1673ffffffffffffffffffffffffffffffffffffffff16815260200190815260200160002060006101000a81548160ff0219169083151502179055508080600101915050620002e7565b5060008090505b8651811015620005495760048782815181106200040557fe5b602002602001015190806001815401808255809150509060018203906000526020600020016000909192909190916101000a81548173ffffffffffffffffffffffffffffffffffffffff021916908373ffffffffffffffffffffffffffffffffffffffff160217905550506000600560008984815181106200048357fe5b602002602001015173ffffffffffffffffffffffffffffffffffffffff1673ffffffffffffffffffffffffffffffffffffffff16815260200190815260200160002060000181905550600160056000898481518110620004df57fe5b602002602001015173ffffffffffffffffffffffffffffffffffffffff1673ffffffffffffffffffffffffffffffffffffffff16815260200190815260200160002060010160006101000a81548160ff0219169083151502179055508080600101915050620003ec565b508460108190555083600a9080519060200190620005699291906200061e565b5081601190805190602001906200058292919062000670565b5060008060006101000a81548160ff02191690836004811115620005a257fe5b021790555082600b8190555080600c8190555060006003819055507f66fe4817acfd8756899e5d70b8db5e2f51795f380411f9aa53f14f246cd7d2046000809054906101000a900460ff1660405180826004811115620005fe57fe5b60ff16815260200191505060405180910390a1505050505050506200071f565b8280548282559060005260206000209081019282156200065d579160200282015b828111156200065c5782518255916020019190600101906200063f565b5b5090506200066c9190620006f7565b5090565b828054600181600116156101000203166002900490600052602060002090601f016020900481019282601f10620006b357805160ff1916838001178555620006e4565b82800160010185558215620006e4579182015b82811115620006e3578251825591602001919060010190620006c6565b5b509050620006f39190620006f7565b5090565b6200071c91905b8082111562000718576000816000905550600101620006fe565b5090565b90565b613ace806200072f6000396000f3fe60806040526004361061019c5760003560e01c806395931ba2116100ec578063c19d93fb1161008a578063dd4c844111610064578063dd4c844114610a91578063dd9c331b14610af6578063efeb5e5814610b62578063f19f892d14610bdd5761019c565b8063c19d93fb146107e5578063c3a4de361461081e578063d059de19146108ae5761019c565b80639ec25aa5116100c65780639ec25aa5146106b8578063a4c8be1e146106e7578063a4e00d6e14610762578063c0d18502146107795761019c565b806395931ba2146106485780639af6549a146106975780639c378d80146106ae5761019c565b80635a7e8e66116101595780636d67d432116101335780636d67d432146105535780636f9c584f1461057e5780637f1e573c146105ad57806383fa9ec6146106195761019c565b80635a7e8e661461048d5780635d3e9613146104b85780636cd9b608146105285761019c565b806304dd9686146101a15780631e67f7211461020d57806324881536146102795780632f14bae81461039c5780634abfa163146104085780634f42b0d814610483575b600080fd5b3480156101ad57600080fd5b506101b6610c08565b6040518080602001828103825283818151815260200191508051906020019060200280838360005b838110156101f95780820151818401526020810190506101de565b505050509050019250505060405180910390f35b34801561021957600080fd5b50610222610e1c565b6040518080602001828103825283818151815260200191508051906020019060200280838360005b8381101561026557808201518184015260208101905061024a565b505050509050019250505060405180910390f35b61039a6004803603606081101561028f57600080fd5b81019080803590602001906401000000008111156102ac57600080fd5b8201836020820111156102be57600080fd5b803590602001918460208302840111640100000000831117156102e057600080fd5b90919293919293908035906020019064010000000081111561030157600080fd5b82018360208201111561031357600080fd5b8035906020019184602083028401116401000000008311171561033557600080fd5b90919293919293908035906020019064010000000081111561035657600080fd5b82018360208201111561036857600080fd5b8035906020019184600183028401116401000000008311171561038a57600080fd5b9091929391929390505050610eaa565b005b3480156103a857600080fd5b506103b1611508565b6040518080602001828103825283818151815260200191508051906020019060200280838360005b838110156103f45780820151818401526020810190506103d9565b505050509050019250505060405180910390f35b34801561041457600080fd5b506104416004803603602081101561042b57600080fd5b8101908080359060200190929190505050611596565b604051808273ffffffffffffffffffffffffffffffffffffffff1673ffffffffffffffffffffffffffffffffffffffff16815260200191505060405180910390f35b61048b6115d2565b005b34801561049957600080fd5b506104a2611c0a565b6040518082815260200191505060405180910390f35b3480156104c457600080fd5b50610507600480360360208110156104db57600080fd5b81019080803573ffffffffffffffffffffffffffffffffffffffff169060200190929190505050611c10565b60405180838152602001821515151581526020019250505060405180910390f35b34801561053457600080fd5b5061053d611c41565b6040518082815260200191505060405180910390f35b34801561055f57600080fd5b50610568611c47565b6040518082815260200191505060405180910390f35b34801561058a57600080fd5b50610593611c4d565b604051808215151515815260200191505060405180910390f35b3480156105b957600080fd5b506105c2611d4d565b6040518080602001828103825283818151815260200191508051906020019060200280838360005b838110156106055780820151818401526020810190506105ea565b505050509050019250505060405180910390f35b34801561062557600080fd5b5061062e611f27565b604051808215151515815260200191505060405180910390f35b34801561065457600080fd5b506106816004803603602081101561066b57600080fd5b8101908080359060200190929190505050611f7b565b6040518082815260200191505060405180910390f35b3480156106a357600080fd5b506106ac611f9c565b005b6106b6612481565b005b3480156106c457600080fd5b506106cd6126f1565b604051808215151515815260200191505060405180910390f35b3480156106f357600080fd5b506107206004803603602081101561070a57600080fd5b810190808035906020019092919050505061284d565b604051808273ffffffffffffffffffffffffffffffffffffffff1673ffffffffffffffffffffffffffffffffffffffff16815260200191505060405180910390f35b34801561076e57600080fd5b50610777612889565b005b34801561078557600080fd5b5061078e612ad0565b6040518080602001828103825283818151815260200191508051906020019060200280838360005b838110156107d15780820151818401526020810190506107b6565b505050509050019250505060405180910390f35b3480156107f157600080fd5b506107fa612caa565b6040518082600481111561080a57fe5b60ff16815260200191505060405180910390f35b34801561082a57600080fd5b50610833612cbc565b6040518080602001828103825283818151815260200191508051906020019080838360005b83811015610873578082015181840152602081019050610858565b50505050905090810190601f1680156108a05780820380516001836020036101000a031916815260200191505b509250505060405180910390f35b610a8f600480360360608110156108c457600080fd5b81019080803590602001906401000000008111156108e157600080fd5b8201836020820111156108f357600080fd5b8035906020019184602083028401116401000000008311171561091557600080fd5b919080806020026020016040519081016040528093929190818152602001838360200280828437600081840152601f19601f8201169050808301925050505050505091929192908035906020019064010000000081111561097557600080fd5b82018360208201111561098757600080fd5b803590602001918460208302840111640100000000831117156109a957600080fd5b919080806020026020016040519081016040528093929190818152602001838360200280828437600081840152601f19601f82011690508083019250505050505050919291929080359060200190640100000000811115610a0957600080fd5b820183602082011115610a1b57600080fd5b80359060200191846001830284011164010000000083111715610a3d57600080fd5b91908080601f016020809104026020016040519081016040528093929190818152602001838380828437600081840152601f19601f820116905080830192505050505050509192919290505050612d5a565b005b348015610a9d57600080fd5b50610ae060048036036020811015610ab457600080fd5b81019080803573ffffffffffffffffffffffffffffffffffffffff1690602001909291905050506134b0565b6040518082815260200191505060405180910390f35b348015610b0257600080fd5b50610b0b6134fc565b6040518080602001828103825283818151815260200191508051906020019060200280838360005b83811015610b4e578082015181840152602081019050610b33565b505050509050019250505060405180910390f35b348015610b6e57600080fd5b50610b9b60048036036020811015610b8557600080fd5b8101908080359060200190929190505050613554565b604051808273ffffffffffffffffffffffffffffffffffffffff1673ffffffffffffffffffffffffffffffffffffffff16815260200191505060405180910390f35b348015610be957600080fd5b50610bf2613590565b6040518082815260200191505060405180910390f35b606080600860003373ffffffffffffffffffffffffffffffffffffffff1673ffffffffffffffffffffffffffffffffffffffff168152602001908152602001600020805480602002602001604051908101604052809291908181526020016000905b82821015610d8c57838290600052602060002090600302016040518060600160405290816000820154815260200160018201805480602002602001604051908101604052809291908181526020018280548015610d1c57602002820191906000526020600020905b8160009054906101000a900473ffffffffffffffffffffffffffffffffffffffff1673ffffffffffffffffffffffffffffffffffffffff1681526020019060010190808311610cd2575b5050505050815260200160028201805480602002602001604051908101604052809291908181526020018280548015610d7457602002820191906000526020600020905b815481526020019060010190808311610d60575b50505050508152505081526020019060010190610c6a565b50505050905060608151604051908082528060200260200182016040528015610dc45781602001602082028038833980820191505090505b50905060008090505b8151811015610e1357828181518110610de257fe5b602002602001015160000151828281518110610dfa57fe5b6020026020010181815250508080600101915050610dcd565b50809250505090565b60606001805480602002602001604051908101604052809291908181526020018280548015610ea057602002820191906000526020600020905b8160009054906101000a900473ffffffffffffffffffffffffffffffffffffffff1673ffffffffffffffffffffffffffffffffffffffff1681526020019060010190808311610e56575b5050505050905090565b601054421115610f22576040517f08c379a00000000000000000000000000000000000000000000000000000000081526004018080602001828103825260208152602001807f4572726f723a2063616d706169676e20646561646c696e65206578706972656481525060200191505060405180910390fd5b600080905060008090505b60018054905081108015610f3f575081155b15610fc1573373ffffffffffffffffffffffffffffffffffffffff1660018281548110610f6857fe5b9060005260206000200160009054906101000a900473ffffffffffffffffffffffffffffffffffffffff1673ffffffffffffffffffffffffffffffffffffffff161415610fb457600191505b8080600101915050610f2d565b5080611018576040517f08c379a000000000000000000000000000000000000000000000000000000000815260040180806020018281038252602681526020018061398a6026913960400191505060405180910390fd5b868680806020026020016040519081016040528093929190818152602001838360200280828437600081840152601f19601f82011690508083019250505050505050600080905060008090505b60048054905081108015611077575081155b156111215760001515600560006004848154811061109157fe5b9060005260206000200160009054906101000a900473ffffffffffffffffffffffffffffffffffffffff1673ffffffffffffffffffffffffffffffffffffffff1673ffffffffffffffffffffffffffffffffffffffff16815260200190815260200160002060010160009054906101000a900460ff161515141561111457600191505b8080600101915050611065565b50600015158115151461117f576040517f08c379a000000000000000000000000000000000000000000000000000000000815260040180806020018281038252603d815260200180613a27603d913960400191505060405180910390fd5b60008060009054906101000a900460ff16600481111561119b57fe5b8160048111156111a757fe5b146111fd576040517f08c379a000000000000000000000000000000000000000000000000000000000815260040180806020018281038252603e8152602001806137d0603e913960400191505060405180910390fd5b6112ce8a8a80806020026020016040519081016040528093929190818152602001838360200280828437600081840152601f19601f82011690508083019250505050505050898980806020026020016040519081016040528093929190818152602001838360200280828437600081840152601f19601f8201169050808301925050505050505088888080601f016020809104026020016040519081016040528093929190818152602001838380828437600081840152601f19601f82011690508083019250505050505050612d5a565b60001515600260003373ffffffffffffffffffffffffffffffffffffffff1673ffffffffffffffffffffffffffffffffffffffff16815260200190815260200160002060009054906101000a900460ff1615151415611380576001600260003373ffffffffffffffffffffffffffffffffffffffff1673ffffffffffffffffffffffffffffffffffffffff16815260200190815260200160002060006101000a81548160ff0219169083151502179055505b600080905060008090505b60018054905081101561143e576001151560026000600184815481106113ad57fe5b9060005260206000200160009054906101000a900473ffffffffffffffffffffffffffffffffffffffff1673ffffffffffffffffffffffffffffffffffffffff1673ffffffffffffffffffffffffffffffffffffffff16815260200190815260200160002060009054906101000a900460ff16151514156114315781806001019250505b808060010191505061138b565b50346003600082825401925050819055506001805490508114156114845760016000806101000a81548160ff0219169083600481111561147a57fe5b02179055506114a8565b60008060006101000a81548160ff021916908360048111156114a257fe5b02179055505b7f66fe4817acfd8756899e5d70b8db5e2f51795f380411f9aa53f14f246cd7d2046000809054906101000a900460ff16604051808260048111156114e857fe5b60ff16815260200191505060405180910390a15050505050505050505050565b6060600480548060200260200160405190810160405280929190818152602001828054801561158c57602002820191906000526020600020905b8160009054906101000a900473ffffffffffffffffffffffffffffffffffffffff1673ffffffffffffffffffffffffffffffffffffffff1681526020019060010190808311611542575b5050505050905090565b600781815481106115a357fe5b906000526020600020016000915054906101000a900473ffffffffffffffffffffffffffffffffffffffff1681565b60046000809054906101000a900460ff1660048111156115ee57fe5b8160048111156115fa57fe5b14611650576040517f08c379a000000000000000000000000000000000000000000000000000000000815260040180806020018281038252603e8152602001806137d0603e913960400191505060405180910390fd5b60001515600f60003373ffffffffffffffffffffffffffffffffffffffff1673ffffffffffffffffffffffffffffffffffffffff16815260200190815260200160002060009054906101000a900460ff16151514611716576040517f08c379a000000000000000000000000000000000000000000000000000000000815260040180806020018281038252601e8152602001807f596f75206861766520616c7265616479206265656e20726566756e646564000081525060200191505060405180910390fd5b600080905060011515600260003373ffffffffffffffffffffffffffffffffffffffff1673ffffffffffffffffffffffffffffffffffffffff16815260200190815260200160002060009054906101000a900460ff161515141561177957600190505b80600860003373ffffffffffffffffffffffffffffffffffffffff1673ffffffffffffffffffffffffffffffffffffffff1681526020019081526020016000208054905010158061181a575060011515600e60003373ffffffffffffffffffffffffffffffffffffffff1673ffffffffffffffffffffffffffffffffffffffff16815260200190815260200160002060009054906101000a900460ff161515145b61186f576040517f08c379a000000000000000000000000000000000000000000000000000000000815260040180806020018281038252604081526020018061394a6040913960400191505060405180910390fd5b60008090506060600860003373ffffffffffffffffffffffffffffffffffffffff1673ffffffffffffffffffffffffffffffffffffffff168152602001908152602001600020805480602002602001604051908101604052809291908181526020016000905b828210156119f75783829060005260206000209060030201604051806060016040529081600082015481526020016001820180548060200260200160405190810160405280929190818152602001828054801561198757602002820191906000526020600020905b8160009054906101000a900473ffffffffffffffffffffffffffffffffffffffff1673ffffffffffffffffffffffffffffffffffffffff168152602001906001019080831161193d575b50505050508152602001600282018054806020026020016040519081016040528092919081815260200182805480156119df57602002820191906000526020600020905b8154815260200190600101908083116119cb575b505050505081525050815260200190600101906118d5565b5050505090505b8051831015611a3057808381518110611a1357fe5b6020026020010151600001518201915082806001019350506119fe565b600080905060011515600e60003373ffffffffffffffffffffffffffffffffffffffff1673ffffffffffffffffffffffffffffffffffffffff16815260200190815260200160002060009054906101000a900460ff1615151415611aa357600c54600d5460035481611a9e57fe5b040190505b6001600f60003373ffffffffffffffffffffffffffffffffffffffff1673ffffffffffffffffffffffffffffffffffffffff16815260200190815260200160002060006101000a81548160ff02191690831515021790555060003373ffffffffffffffffffffffffffffffffffffffff1682850160405180600001905060006040518083038185875af1925050503d8060008114611b5d576040519150601f19603f3d011682016040523d82523d6000602084013e611b62565b606091505b505090506001151581151514611bc3576040517f08c379a00000000000000000000000000000000000000000000000000000000081526004018080602001828103825260268152602001806138a96026913960400191505060405180910390fd5b7f9bb5f29b9278b7f706a7caa67770ad63d5af89b481bdc02309439d76ca0a19df8483604051808381526020018281526020019250505060405180910390a1505050505050565b600c5481565b60056020528060005260406000206000915090508060000154908060010160009054906101000a900460ff16905082565b60105481565b600d5481565b600060011515600560003373ffffffffffffffffffffffffffffffffffffffff1673ffffffffffffffffffffffffffffffffffffffff16815260200190815260200160002060010160009054906101000a900460ff16151514611cfb576040517f08c379a00000000000000000000000000000000000000000000000000000000081526004018080602001828103825260318152602001806138576031913960400191505060405180910390fd5b600660003373ffffffffffffffffffffffffffffffffffffffff1673ffffffffffffffffffffffffffffffffffffffff16815260200190815260200160002060009054906101000a900460ff16905090565b606080600960003373ffffffffffffffffffffffffffffffffffffffff1673ffffffffffffffffffffffffffffffffffffffff168152602001908152602001600020805480602002602001604051908101604052809291908181526020016000905b82821015611e9757838290600052602060002090600302016040518060600160405290816000820154815260200160018201548152602001600282018054600181600116156101000203166002900480601f016020809104026020016040519081016040528092919081815260200182805460018160011615610100020316600290048015611e7f5780601f10611e5457610100808354040283529160200191611e7f565b820191906000526020600020905b815481529060010190602001808311611e6257829003601f168201915b50505050508152505081526020019060010190611daf565b50505050905060608151604051908082528060200260200182016040528015611ecf5781602001602082028038833980820191505090505b50905060008090505b8251811015611f1e57828181518110611eed57fe5b602002602001015160000151828281518110611f0557fe5b6020026020010181815250508080600101915050611ed8565b50809250505090565b6000600e60003373ffffffffffffffffffffffffffffffffffffffff1673ffffffffffffffffffffffffffffffffffffffff16815260200190815260200160002060009054906101000a900460ff16905090565b600a8181548110611f8857fe5b906000526020600020016000915090505481565b60011515600560003373ffffffffffffffffffffffffffffffffffffffff1673ffffffffffffffffffffffffffffffffffffffff16815260200190815260200160002060010160009054906101000a900460ff16151514612048576040517f08c379a00000000000000000000000000000000000000000000000000000000081526004018080602001828103825260318152602001806138576031913960400191505060405180910390fd5b6010544211801561207d57506001600481111561206157fe5b6000809054906101000a900460ff16600481111561207b57fe5b145b156120a65760026000806101000a81548160ff021916908360048111156120a057fe5b02179055505b600260048111156120b357fe5b6000809054906101000a900460ff1660048111156120cd57fe5b14612140576040517f08c379a000000000000000000000000000000000000000000000000000000000815260040180806020018281038252601f8152602001807f4572726f723a2063616d706169676e206e6f742079657420657870697265640081525060200191505060405180910390fd5b60001515600660003373ffffffffffffffffffffffffffffffffffffffff1673ffffffffffffffffffffffffffffffffffffffff16815260200190815260200160002060009054906101000a900460ff16151514612206576040517f08c379a00000000000000000000000000000000000000000000000000000000081526004018080602001828103825260188152602001807f4572726f723a20616c72656164792077697468647261776e000000000000000081525060200191505060405180910390fd5b6000600560003373ffffffffffffffffffffffffffffffffffffffff1673ffffffffffffffffffffffffffffffffffffffff16815260200190815260200160002060000154118061225957506000600d54115b6122ae576040517f08c379a00000000000000000000000000000000000000000000000000000000081526004018080602001828103825260388152602001806137986038913960400191505060405180910390fd5b6000600560003373ffffffffffffffffffffffffffffffffffffffff1673ffffffffffffffffffffffffffffffffffffffff16815260200190815260200160002060000154905060008090506000600d54111561231d57600480549050600c54600d54028161231957fe5b0490505b6001600660003373ffffffffffffffffffffffffffffffffffffffff1673ffffffffffffffffffffffffffffffffffffffff16815260200190815260200160002060006101000a81548160ff02191690831515021790555060003373ffffffffffffffffffffffffffffffffffffffff1682840160405180600001905060006040518083038185875af1925050503d80600081146123d7576040519150601f19603f3d011682016040523d82523d6000602084013e6123dc565b606091505b50509050600115158115151461243d576040517f08c379a00000000000000000000000000000000000000000000000000000000081526004018080602001828103825260218152602001806138886021913960400191505060405180910390fd5b7f30114f9a49b53f7fb4c7c9ee7723ca7a693418a4c5f1162e02f95a47348e03498383604051808381526020018281526020019250505060405180910390a1505050565b60016000809054906101000a900460ff16600481111561249d57fe5b8160048111156124a957fe5b146124ff576040517f08c379a000000000000000000000000000000000000000000000000000000000815260040180806020018281038252603e8152602001806137d0603e913960400191505060405180910390fd5b60001515600e60003373ffffffffffffffffffffffffffffffffffffffff1673ffffffffffffffffffffffffffffffffffffffff16815260200190815260200160002060009054906101000a900460ff161515146125a8576040517f08c379a000000000000000000000000000000000000000000000000000000000815260040180806020018281038252602e8152602001806139b0602e913960400191505060405180910390fd5b600c543414612602576040517f08c379a0000000000000000000000000000000000000000000000000000000008152600401808060200182810382526036815260200180613a646036913960400191505060405180910390fd5b6001600e60003373ffffffffffffffffffffffffffffffffffffffff1673ffffffffffffffffffffffffffffffffffffffff16815260200190815260200160002060006101000a81548160ff0219169083151502179055506001600d60008282540192505081905550600b54600d54141561269b5760046000806101000a81548160ff0219169083600481111561269557fe5b02179055505b7ff0ffd3bfdde8a6f01970d2ce17ab4bdb3d8ea65ed7efca58c63c1c0cc7a8a1826000809054906101000a900460ff16604051808260048111156126db57fe5b60ff16815260200191505060405180910390a150565b6000806000905060008090505b60018054905081108015612710575081155b15612792573373ffffffffffffffffffffffffffffffffffffffff166001828154811061273957fe5b9060005260206000200160009054906101000a900473ffffffffffffffffffffffffffffffffffffffff1673ffffffffffffffffffffffffffffffffffffffff16141561278557600191505b80806001019150506126fe565b50806127e9576040517f08c379a000000000000000000000000000000000000000000000000000000000815260040180806020018281038252602681526020018061398a6026913960400191505060405180910390fd5b600260003373ffffffffffffffffffffffffffffffffffffffff1673ffffffffffffffffffffffffffffffffffffffff16815260200190815260200160002060009054906101000a900460ff16156128445760019150612849565b600091505b5090565b6001818154811061285a57fe5b906000526020600020016000915054906101000a900473ffffffffffffffffffffffffffffffffffffffff1681565b600080905060008090505b600180549050811080156128a6575081155b15612928573373ffffffffffffffffffffffffffffffffffffffff16600182815481106128cf57fe5b9060005260206000200160009054906101000a900473ffffffffffffffffffffffffffffffffffffffff1673ffffffffffffffffffffffffffffffffffffffff16141561291b57600191505b8080600101915050612894565b508061297f576040517f08c379a000000000000000000000000000000000000000000000000000000000815260040180806020018281038252602681526020018061398a6026913960400191505060405180910390fd5b60026000809054906101000a900460ff16600481111561299b57fe5b8160048111156129a757fe5b146129fd576040517f08c379a000000000000000000000000000000000000000000000000000000000815260040180806020018281038252603e8152602001806137d0603e913960400191505060405180910390fd5b60004714612a56576040517f08c379a00000000000000000000000000000000000000000000000000000000081526004018080602001828103825260398152602001806138cf6039913960400191505060405180910390fd5b60036000806101000a81548160ff02191690836004811115612a7457fe5b02179055507f66fe4817acfd8756899e5d70b8db5e2f51795f380411f9aa53f14f246cd7d2046000809054906101000a900460ff1660405180826004811115612ab957fe5b60ff16815260200191505060405180910390a15050565b606080600960003373ffffffffffffffffffffffffffffffffffffffff1673ffffffffffffffffffffffffffffffffffffffff168152602001908152602001600020805480602002602001604051908101604052809291908181526020016000905b82821015612c1a57838290600052602060002090600302016040518060600160405290816000820154815260200160018201548152602001600282018054600181600116156101000203166002900480601f016020809104026020016040519081016040528092919081815260200182805460018160011615610100020316600290048015612c025780601f10612bd757610100808354040283529160200191612c02565b820191906000526020600020905b815481529060010190602001808311612be557829003601f168201915b50505050508152505081526020019060010190612b32565b50505050905060608151604051908082528060200260200182016040528015612c525781602001602082028038833980820191505090505b50905060008090505b8151811015612ca157828181518110612c7057fe5b602002602001015160000151828281518110612c8857fe5b6020026020010181815250508080600101915050612c5b565b50809250505090565b6000809054906101000a900460ff1681565b60118054600181600116156101000203166002900480601f016020809104026020016040519081016040528092919081815260200182805460018160011615610100020316600290048015612d525780601f10612d2757610100808354040283529160200191612d52565b820191906000526020600020905b815481529060010190602001808311612d3557829003601f168201915b505050505081565b601054421115612dd2576040517f08c379a00000000000000000000000000000000000000000000000000000000081526004018080602001828103825260208152602001807f4572726f723a2063616d706169676e20646561646c696e65206578706972656481525060200191505060405180910390fd5b82600080905060008090505b60048054905081108015612df0575081155b15612e9a57600015156005600060048481548110612e0a57fe5b9060005260206000200160009054906101000a900473ffffffffffffffffffffffffffffffffffffffff1673ffffffffffffffffffffffffffffffffffffffff1673ffffffffffffffffffffffffffffffffffffffff16815260200190815260200160002060010160009054906101000a900460ff1615151415612e8d57600191505b8080600101915050612dde565b506000151581151514612ef8576040517f08c379a000000000000000000000000000000000000000000000000000000000815260040180806020018281038252603d815260200180613a27603d913960400191505060405180910390fd5b60016004811115612f0557fe5b6000809054906101000a900460ff166004811115612f1f57fe5b1480612fab575060006004811115612f3357fe5b6000809054906101000a900460ff166004811115612f4d57fe5b148015612faa575060001515600260003373ffffffffffffffffffffffffffffffffffffffff1673ffffffffffffffffffffffffffffffffffffffff16815260200190815260200160002060009054906101000a900460ff161515145b5b613000576040517f08c379a00000000000000000000000000000000000000000000000000000000081526004018080602001828103825260498152602001806139de6049913960600191505060405180910390fd5b60003411613076576040517f08c379a00000000000000000000000000000000000000000000000000000000081526004018080602001828103825260158152602001807f4572726f723a2030207765692070726f7669646564000000000000000000000081525060200191505060405180910390fd5b83518551146130d0576040517f08c379a00000000000000000000000000000000000000000000000000000000081526004018080602001828103825260428152602001806139086042913960600191505060405180910390fd5b600080905060008090505b8551811015613109578581815181106130f057fe5b60200260200101518201915080806001019150506130db565b50803414613162576040517f08c379a000000000000000000000000000000000000000000000000000000000815260040180806020018281038252604981526020018061380e6049913960600191505060405180910390fd5b61316a613596565b34816000018181525050868160200181905250858160400181905250600860003373ffffffffffffffffffffffffffffffffffffffff1673ffffffffffffffffffffffffffffffffffffffff16815260200190815260200160002081908060018154018082558091505090600182039060005260206000209060030201600090919290919091506000820151816000015560208201518160010190805190602001906132179291906135b7565b506040820151816002019080519060200190613234929190613641565b505050506000600a805490501180156132655750600a60008154811061325657fe5b90600052602060002001543410155b156133e85761327261368e565b60008090505b600a80549050811080156132a35750600a818154811061329457fe5b90600052602060002001543410155b156132b5578080600101915050613278565b600181038260000181815250506001600860003373ffffffffffffffffffffffffffffffffffffffff1673ffffffffffffffffffffffffffffffffffffffff1681526020019081526020016000208054905003826020018181525050868260400181905250600960003373ffffffffffffffffffffffffffffffffffffffff1673ffffffffffffffffffffffffffffffffffffffff1681526020019081526020016000208290806001815401808255809150509060018203906000526020600020906003020160009091929091909150600082015181600001556020820151816001015560408201518160020190805190602001906133b59291906136af565b505050507f744b881a25971efd286cf16da8b9c684ec04deeab58650ac9134f432baa30f1060405160405180910390a150505b60008090505b875181101561347a5786818151811061340357fe5b6020026020010151600560008a848151811061341b57fe5b602002602001015173ffffffffffffffffffffffffffffffffffffffff1673ffffffffffffffffffffffffffffffffffffffff1681526020019081526020016000206000016000828254019250508190555080806001019150506133ee565b507f69ee10f8865f0d317c7a1b74da8e2cbffcc7097a4077b37fb42fba449101f93560405160405180910390a150505050505050565b6000600560008373ffffffffffffffffffffffffffffffffffffffff1673ffffffffffffffffffffffffffffffffffffffff168152602001908152602001600020600001549050919050565b6060600a80548060200260200160405190810160405280929190818152602001828054801561354a57602002820191906000526020600020905b815481526020019060010190808311613536575b5050505050905090565b6004818154811061356157fe5b906000526020600020016000915054906101000a900473ffffffffffffffffffffffffffffffffffffffff1681565b600b5481565b60405180606001604052806000815260200160608152602001606081525090565b828054828255906000526020600020908101928215613630579160200282015b8281111561362f5782518260006101000a81548173ffffffffffffffffffffffffffffffffffffffff021916908373ffffffffffffffffffffffffffffffffffffffff160217905550916020019190600101906135d7565b5b50905061363d919061372f565b5090565b82805482825590600052602060002090810192821561367d579160200282015b8281111561367c578251825591602001919060010190613661565b5b50905061368a9190613772565b5090565b60405180606001604052806000815260200160008152602001606081525090565b828054600181600116156101000203166002900490600052602060002090601f016020900481019282601f106136f057805160ff191683800117855561371e565b8280016001018555821561371e579182015b8281111561371d578251825591602001919060010190613702565b5b50905061372b9190613772565b5090565b61376f91905b8082111561376b57600081816101000a81549073ffffffffffffffffffffffffffffffffffffffff021916905550600101613735565b5090565b90565b61379491905b80821115613790576000816000905550600101613778565b5090565b9056fe4572726f723a2074686572652068617665206265656e206e6f20646f6e6174696f6e7320666f7220746869732062656e65666963696172794572726f723a2063616e6e6f742061636365737320746869732066756e6374696f6e616c6974792066726f6d207468652063757272656e742073746174654572726f723a20546f74616c20706f766964656420776569732061726520646966666572656e742066726f6d207468652070726f7669646564207765697320706172746974696f6e734572726f723a206f6e6c792062656e656669636961726965732063616e20616363657373207468652077697468647261774572726f723a205769746864726177207472616e73616374696f6e206572726f724572726f723a204672617564207265666f756e64207472616e73616374696f6e206572726f724572726f723a205761697420756e74696c20616c6c2062656e65666963696172696573207769746864726177207468656972207265776172644572726f723a2064657374696e61746f72732073697a6520697320646966666572656e742066726f6d2074686520776569277320706172746974696f6e2073697a65596f752068617665206e6f74206d61646520646f6e6174696f6e732f7265706f7274206f7220796f75206861766520616c72656164792077697468647261776e4572726f723a2066756e6374696f6e20726573657276656420746f206f7267616e697a6572734572726f723a20596f75206861766520616c7265616479207265706f7274656420746869732063616d706169676e4572726f723a205468652063616d706169676e206973206e6f742073746172746564206f7220796f75277265206e6f7420616e206f7267616e697a657220746f2073746172742069744572726f723a206f6e65206f72206d6f7265206f66207468652070726f76696465642062656e6566696369617269657320646f206e6f742065786973744572726f723a20596f75206e65656420746f20696e7665737420736f6d6520657468657220746f207265706f72742061206672617564a265627a7a72315820d0a4757c4618faeb159d9cd83c62f5137d8728b2558a87337b97a6c7bb19e27664736f6c634300051000324572726f723a204e656564206174206c6561737420312062656e6566696369617269654f6e6c7920746865206f776e6572206f66207468697320426974436f6c6c65637420696e7374616e63652063616e2061636365737320746869732066756e6374696f6e546865206672617564207468726573686f6c642073686f756c64206265206772656174686572207468616e203054686520726571756972656420657468657220666f72206672617564207265706f72742073686f756c64206265206772656174686572207468616e20304572726f723a207468652070726f76696465642063616d7061696e20656e64206461746520696c206973206561726c696572207468616e207468652073746172742064617465a265627a7a723158204f51b2b21a4edcad6f7a13e77d540e60df8a25375661dea346240e1ef593ca0264736f6c63430005100032546865206672617564207468726573686f6c642073686f756c64206265206772656174686572207468616e203054686520726571756972656420657468657220666f72206672617564207265706f72742073686f756c64206265206772656174686572207468616e2030",
  "source": "pragma solidity >=0.4.21 <0.7.0;\r\n\r\nimport \"./Campaign.sol\";\r\n\r\ncontract BitCollect{\r\n\r\n    address bitcollect_owner;\r\n\r\n    address[] campaigns;\r\n    mapping(address => uint) campaign_index;\r\n\r\n    uint fraudThreshold;\r\n    uint report_investment;\r\n\r\n    event campaignCreated(address cont);\r\n\r\n    modifier isOwner() {\r\n        require(msg.sender==bitcollect_owner, \"Only the owner of this BitCollect instance can access this function\");\r\n        _;\r\n    }\r\n\r\n    constructor(uint fraud_threshold, uint _report_investment) public {\r\n        require(fraud_threshold>0, \"The fraud threshold should be greather than 0\");\r\n        require(_report_investment>0, \"The required ether for fraud report should be greather than 0\");\r\n\r\n        bitcollect_owner = msg.sender;\r\n        fraudThreshold = fraud_threshold;\r\n        report_investment = _report_investment;\r\n    }\r\n\r\n    function createCampaign(address[] memory _organizers, address payable[] memory _beneficiaries, uint _end_date,\r\n    uint[] memory rewards_costs, string memory campaign_info_hashes)\r\n    public payable{\r\n        require(_organizers.length>0, \"Error: Need at least 1 organizer\"); //RQ-PARAMS\r\n        require(_beneficiaries.length>0, \"Error: Need at least 1 beneficiarie\"); //RQ-PARAMS\r\n        require(_end_date>block.timestamp, \"Error: the provided campain end date il is earlier than the start date\");\r\n\r\n        Campaign new_campaign = new Campaign(_organizers, _beneficiaries, _end_date, rewards_costs, fraudThreshold, campaign_info_hashes, report_investment);\r\n        campaigns.push(address(new_campaign));\r\n        campaign_index[address(new_campaign)] = campaigns.length-1;\r\n\r\n        emit campaignCreated(address(new_campaign));\r\n    }\r\n\r\n    function setFraudThreshold(uint t) isOwner() external{\r\n        require(t>0, \"The fraud threshold should be greather than 0\");\r\n        fraudThreshold = t;\r\n    }\r\n\r\n    function setFraudInvestment(uint t) isOwner() external{\r\n        require(t>0, \"The required ether for fraud report should be greather than 0\");\r\n        report_investment = t;\r\n    }\r\n\r\n\r\n}",
  "sourcePath": "G:\\SSD Workspace\\Ethereum\\BitCollect\\contracts\\BitCollect.sol",
  "compiler": {
    "name": "solc",
    "version": "0.5.16+commit.9c3226ce.Emscripten.clang"
  },
  "schemaVersion": "3.2.0",
  "updatedAt": "2020-07-15T22:13:32.203Z",
  "networkType": "ethereum",
  "devdoc": {
    "methods": {}
  },
  "userdoc": {
    "methods": {}
  }
}