{
  "contractName": "BitCollect",
  "abi": [
    {
      "inputs": [],
      "payable": false,
      "stateMutability": "nonpayable",
      "type": "constructor"
    },
    {
      "anonymous": false,
      "inputs": [
        {
          "indexed": false,
          "internalType": "address",
          "name": "cont",
          "type": "address"
        }
      ],
      "name": "campaignCreated",
      "type": "event"
    },
    {
      "constant": false,
      "inputs": [
        {
          "internalType": "address[]",
          "name": "_organizers",
          "type": "address[]"
        },
        {
          "internalType": "address payable[]",
          "name": "_beneficiaries",
          "type": "address[]"
        },
        {
          "internalType": "uint256",
          "name": "_end_date",
          "type": "uint256"
        },
        {
          "internalType": "string",
          "name": "name",
          "type": "string"
        }
      ],
      "name": "createCampaign",
      "outputs": [],
      "payable": true,
      "stateMutability": "payable",
      "type": "function"
    }
  ],
  "bytecode": "0x608060405234801561001057600080fd5b50612ea2806100206000396000f3fe60806040526004361061001e5760003560e01c806356e25dd314610023575b600080fd5b61020e6004803603608081101561003957600080fd5b810190808035906020019064010000000081111561005657600080fd5b82018360208201111561006857600080fd5b8035906020019184602083028401116401000000008311171561008a57600080fd5b919080806020026020016040519081016040528093929190818152602001838360200280828437600081840152601f19601f820116905080830192505050505050509192919290803590602001906401000000008111156100ea57600080fd5b8201836020820111156100fc57600080fd5b8035906020019184602083028401116401000000008311171561011e57600080fd5b919080806020026020016040519081016040528093929190818152602001838360200280828437600081840152601f19601f820116905080830192505050505050509192919290803590602001909291908035906020019064010000000081111561018857600080fd5b82018360208201111561019a57600080fd5b803590602001918460018302840111640100000000831117156101bc57600080fd5b91908080601f016020809104026020016040519081016040528093929190818152602001838380828437600081840152601f19601f820116905080830192505050505050509192919290505050610210565b005b6000845111610287576040517f08c379a00000000000000000000000000000000000000000000000000000000081526004018080602001828103825260208152602001807f4572726f723a204e656564206174206c656173742031206f7267616e697a657281525060200191505060405180910390fd5b60008351116102e1576040517f08c379a0000000000000000000000000000000000000000000000000000000008152600401808060200182810382526023815260200180612e056023913960400191505060405180910390fd5b428211610339576040517f08c379a0000000000000000000000000000000000000000000000000000000008152600401808060200182810382526046815260200180612e286046913960600191505060405180910390fd5b60008484848460405161034b9061058c565b80806020018060200185815260200180602001848103845288818151815260200191508051906020019060200280838360005b8381101561039957808201518184015260208101905061037e565b50505050905001848103835287818151815260200191508051906020019060200280838360005b838110156103db5780820151818401526020810190506103c0565b50505050905001848103825285818151815260200191508051906020019080838360005b8381101561041a5780820151818401526020810190506103ff565b50505050905090810190601f1680156104475780820380516001836020036101000a031916815260200191505b50975050505050505050604051809103906000f08015801561046d573d6000803e3d6000fd5b50905060008190806001815401808255809150509060018203906000526020600020016000909192909190916101000a81548173ffffffffffffffffffffffffffffffffffffffff021916908373ffffffffffffffffffffffffffffffffffffffff16021790555050600160008054905003600160008373ffffffffffffffffffffffffffffffffffffffff1673ffffffffffffffffffffffffffffffffffffffff168152602001908152602001600020819055507f3b5c6dff367f8fe540e018ee8cb76957ce7d9fafe57f188fa343a6d06084475581604051808273ffffffffffffffffffffffffffffffffffffffff1673ffffffffffffffffffffffffffffffffffffffff16815260200191505060405180910390a15050505050565b61286b8061059a8339019056fe60806040523480156200001157600080fd5b506040516200286b3803806200286b833981810160405260808110156200003757600080fd5b81019080805160405193929190846401000000008211156200005857600080fd5b838201915060208201858111156200006f57600080fd5b82518660208202830111640100000000821117156200008d57600080fd5b8083526020830192505050908051906020019060200280838360005b83811015620000c6578082015181840152602081019050620000a9565b5050505090500160405260200180516040519392919084640100000000821115620000f057600080fd5b838201915060208201858111156200010757600080fd5b82518660208202830111640100000000821117156200012557600080fd5b8083526020830192505050908051906020019060200280838360005b838110156200015e57808201518184015260208101905062000141565b5050505090500160405260200180519060200190929190805160405193929190846401000000008211156200019257600080fd5b83820191506020820185811115620001a957600080fd5b8251866001820283011164010000000082111715620001c757600080fd5b8083526020830192505050908051906020019080838360005b83811015620001fd578082015181840152602081019050620001e0565b50505050905090810190601f1680156200022b5780820380516001836020036101000a031916815260200191505b5060405250505060008451905060008090505b818110156200033b5760028682815181106200025657fe5b602002602001015190806001815401808255809150509060018203906000526020600020016000909192909190916101000a81548173ffffffffffffffffffffffffffffffffffffffff021916908373ffffffffffffffffffffffffffffffffffffffff16021790555050600060036000888481518110620002d457fe5b602002602001015173ffffffffffffffffffffffffffffffffffffffff1673ffffffffffffffffffffffffffffffffffffffff16815260200190815260200160002060006101000a81548160ff02191690831515021790555080806001019150506200023e565b508351905060008090505b81811015620004a25760048582815181106200035e57fe5b602002602001015190806001815401808255809150509060018203906000526020600020016000909192909190916101000a81548173ffffffffffffffffffffffffffffffffffffffff021916908373ffffffffffffffffffffffffffffffffffffffff16021790555050600060056000878481518110620003dc57fe5b602002602001015173ffffffffffffffffffffffffffffffffffffffff1673ffffffffffffffffffffffffffffffffffffffff168152602001908152602001600020600001819055506001600560008784815181106200043857fe5b602002602001015173ffffffffffffffffffffffffffffffffffffffff1673ffffffffffffffffffffffffffffffffffffffff16815260200190815260200160002060010160006101000a81548160ff021916908315150217905550808060010191505062000346565b50826008819055508160019080519060200190620004c292919062000546565b5060008060006101000a81548160ff02191690836003811115620004e257fe5b02179055507f66fe4817acfd8756899e5d70b8db5e2f51795f380411f9aa53f14f246cd7d2046000809054906101000a900460ff16604051808260038111156200052857fe5b60ff16815260200191505060405180910390a15050505050620005f5565b828054600181600116156101000203166002900490600052602060002090601f016020900481019282601f106200058957805160ff1916838001178555620005ba565b82800160010185558215620005ba579182015b82811115620005b95782518255916020019190600101906200059c565b5b509050620005c99190620005cd565b5090565b620005f291905b80821115620005ee576000816000905550600101620005d4565b5090565b90565b61226680620006056000396000f3fe6080604052600436106100a75760003560e01c80639af6549a116100645780639af6549a146103e4578063a4c8be1e146103fb578063a4e00d6e14610476578063c19d93fb1461048d578063e86ae700146104c6578063efeb5e58146105e0576100a7565b80635d3e9613146100ac5780635f8d96de1461011c57806371aac7f91461014757806379de6d211461015e578063913b722c146102aa5780639a18f30b14610316575b600080fd5b3480156100b857600080fd5b506100fb600480360360208110156100cf57600080fd5b81019080803573ffffffffffffffffffffffffffffffffffffffff16906020019092919050505061065b565b60405180838152602001821515151581526020019250505060405180910390f35b34801561012857600080fd5b5061013161068c565b6040518082815260200191505060405180910390f35b34801561015357600080fd5b5061015c610696565b005b6102a86004803603604081101561017457600080fd5b810190808035906020019064010000000081111561019157600080fd5b8201836020820111156101a357600080fd5b803590602001918460208302840111640100000000831117156101c557600080fd5b919080806020026020016040519081016040528093929190818152602001838360200280828437600081840152601f19601f8201169050808301925050505050505091929192908035906020019064010000000081111561022557600080fd5b82018360208201111561023757600080fd5b8035906020019184602083028401116401000000008311171561025957600080fd5b919080806020026020016040519081016040528093929190818152602001838360200280828437600081840152601f19601f820116905080830192505050505050509192919290505050610884565b005b3480156102b657600080fd5b506102bf610e4e565b6040518080602001828103825283818151815260200191508051906020019060200280838360005b838110156103025780820151818401526020810190506102e7565b505050509050019250505060405180910390f35b6103e26004803603604081101561032c57600080fd5b810190808035906020019064010000000081111561034957600080fd5b82018360208201111561035b57600080fd5b8035906020019184602083028401116401000000008311171561037d57600080fd5b90919293919293908035906020019064010000000081111561039e57600080fd5b8201836020820111156103b057600080fd5b803590602001918460208302840111640100000000831117156103d257600080fd5b9091929391929390505050610edc565b005b3480156103f057600080fd5b506103f9611539565b005b34801561040757600080fd5b506104346004803603602081101561041e57600080fd5b810190808035906020019092919050505061195f565b604051808273ffffffffffffffffffffffffffffffffffffffff1673ffffffffffffffffffffffffffffffffffffffff16815260200191505060405180910390f35b34801561048257600080fd5b5061048b61199b565b005b34801561049957600080fd5b506104a2611be2565b604051808260038111156104b257fe5b60ff16815260200191505060405180910390f35b3480156104d257600080fd5b50610589600480360360208110156104e957600080fd5b810190808035906020019064010000000081111561050657600080fd5b82018360208201111561051857600080fd5b8035906020019184602083028401116401000000008311171561053a57600080fd5b919080806020026020016040519081016040528093929190818152602001838360200280828437600081840152601f19601f820116905080830192505050505050509192919290505050611bf4565b6040518080602001828103825283818151815260200191508051906020019060200280838360005b838110156105cc5780820151818401526020810190506105b1565b505050509050019250505060405180910390f35b3480156105ec57600080fd5b506106196004803603602081101561060357600080fd5b8101908080359060200190929190505050611de7565b604051808273ffffffffffffffffffffffffffffffffffffffff1673ffffffffffffffffffffffffffffffffffffffff16815260200191505060405180910390f35b60056020528060005260406000206000915090508060000154908060010160009054906101000a900460ff16905082565b6000600854905090565b33600080905060008090505b600280549050811080156106b4575081155b15610736578273ffffffffffffffffffffffffffffffffffffffff16600282815481106106dd57fe5b9060005260206000200160009054906101000a900473ffffffffffffffffffffffffffffffffffffffff1673ffffffffffffffffffffffffffffffffffffffff16141561072957600191505b80806001019150506106a2565b508061078d576040517f08c379a00000000000000000000000000000000000000000000000000000000081526004018080602001828103825260268152602001806121506026913960400191505060405180910390fd5b6001600381111561079a57fe5b6000809054906101000a900460ff1660038111156107b457fe5b1461080a576040517f08c379a00000000000000000000000000000000000000000000000000000000081526004018080602001828103825260368152602001806121fc6036913960400191505060405180910390fd5b60026000806101000a81548160ff0219169083600381111561082857fe5b02179055507f66fe4817acfd8756899e5d70b8db5e2f51795f380411f9aa53f14f246cd7d2046000809054906101000a900460ff166040518082600381111561086d57fe5b60ff16815260200191505060405180910390a15050565b4260085481106108fc576040517f08c379a00000000000000000000000000000000000000000000000000000000081526004018080602001828103825260208152602001807f4572726f723a2063616d706169676e20646561646c696e65206578706972656481525060200191505060405180910390fd5b82600080905060008090505b6004805490508110801561091a575081155b156109c45760001515600560006004848154811061093457fe5b9060005260206000200160009054906101000a900473ffffffffffffffffffffffffffffffffffffffff1673ffffffffffffffffffffffffffffffffffffffff1673ffffffffffffffffffffffffffffffffffffffff16815260200190815260200160002060010160009054906101000a900460ff16151514156109b757600191505b8080600101915050610908565b506000151581151514610a22576040517f08c379a000000000000000000000000000000000000000000000000000000000815260040180806020018281038252603d8152602001806121bf603d913960400191505060405180910390fd5b60016003811115610a2f57fe5b6000809054906101000a900460ff166003811115610a4957fe5b1480610ad5575060006003811115610a5d57fe5b6000809054906101000a900460ff166003811115610a7757fe5b148015610ad4575060001515600360003373ffffffffffffffffffffffffffffffffffffffff1673ffffffffffffffffffffffffffffffffffffffff16815260200190815260200160002060009054906101000a900460ff161515145b5b610b2a576040517f08c379a00000000000000000000000000000000000000000000000000000000081526004018080602001828103825260498152602001806121766049913960600191505060405180910390fd5b60003411610ba0576040517f08c379a00000000000000000000000000000000000000000000000000000000081526004018080602001828103825260158152602001807f4572726f723a2030207765692070726f7669646564000000000000000000000081525060200191505060405180910390fd5b8351855114610bfa576040517f08c379a000000000000000000000000000000000000000000000000000000000815260040180806020018281038252604281526020018061210e6042913960600191505060405180910390fd5b600080905060008090505b8551811015610c3357858181518110610c1a57fe5b6020026020010151820191508080600101915050610c05565b50803414610c8c576040517f08c379a00000000000000000000000000000000000000000000000000000000081526004018080602001828103825260498152602001806120036049913960600191505060405180910390fd5b610c94611e23565b34816000018181525050868160200181905250858160400181905250600760003373ffffffffffffffffffffffffffffffffffffffff1673ffffffffffffffffffffffffffffffffffffffff1681526020019081526020016000208190806001815401808255809150509060018203906000526020600020906004020160009091929091909150600082015181600001556020820151816001019080519060200190610d41929190611e4d565b506040820151816002019080519060200190610d5e929190611ed7565b5060608201518160030160006101000a81548160ff0219169083151502179055505050506000915060008090505b8751811015610e1857868181518110610da157fe5b6020026020010151600560008a8481518110610db957fe5b602002602001015173ffffffffffffffffffffffffffffffffffffffff1673ffffffffffffffffffffffffffffffffffffffff168152602001908152602001600020600001600082825401925050819055508080600101915050610d8c565b507f69ee10f8865f0d317c7a1b74da8e2cbffcc7097a4077b37fb42fba449101f93560405160405180910390a150505050505050565b60606004805480602002602001604051908101604052809291908181526020018280548015610ed257602002820191906000526020600020905b8160009054906101000a900473ffffffffffffffffffffffffffffffffffffffff1673ffffffffffffffffffffffffffffffffffffffff1681526020019060010190808311610e88575b5050505050905090565b426008548110610f54576040517f08c379a00000000000000000000000000000000000000000000000000000000081526004018080602001828103825260208152602001807f4572726f723a2063616d706169676e20646561646c696e65206578706972656481525060200191505060405180910390fd5b33600080905060008090505b60028054905081108015610f72575081155b15610ff4578273ffffffffffffffffffffffffffffffffffffffff1660028281548110610f9b57fe5b9060005260206000200160009054906101000a900473ffffffffffffffffffffffffffffffffffffffff1673ffffffffffffffffffffffffffffffffffffffff161415610fe757600191505b8080600101915050610f60565b508061104b576040517f08c379a00000000000000000000000000000000000000000000000000000000081526004018080602001828103825260268152602001806121506026913960400191505060405180910390fd5b868680806020026020016040519081016040528093929190818152602001838360200280828437600081840152601f19601f82011690508083019250505050505050600080905060008090505b600480549050811080156110aa575081155b15611154576000151560056000600484815481106110c457fe5b9060005260206000200160009054906101000a900473ffffffffffffffffffffffffffffffffffffffff1673ffffffffffffffffffffffffffffffffffffffff1673ffffffffffffffffffffffffffffffffffffffff16815260200190815260200160002060010160009054906101000a900460ff161515141561114757600191505b8080600101915050611098565b5060001515811515146111b2576040517f08c379a000000000000000000000000000000000000000000000000000000000815260040180806020018281038252603d8152602001806121bf603d913960400191505060405180910390fd5b60008060009054906101000a900460ff1660038111156111ce57fe5b8160038111156111da57fe5b14611230576040517f08c379a000000000000000000000000000000000000000000000000000000000815260040180806020018281038252603e815260200180611fc5603e913960400191505060405180910390fd5b6112bc8a8a80806020026020016040519081016040528093929190818152602001838360200280828437600081840152601f19601f82011690508083019250505050505050898980806020026020016040519081016040528093929190818152602001838360200280828437600081840152601f19601f82011690508083019250505050505050610884565b60001515600360003373ffffffffffffffffffffffffffffffffffffffff1673ffffffffffffffffffffffffffffffffffffffff16815260200190815260200160002060009054906101000a900460ff161515141561136e576001600360003373ffffffffffffffffffffffffffffffffffffffff1673ffffffffffffffffffffffffffffffffffffffff16815260200190815260200160002060006101000a81548160ff0219169083151502179055505b600080905060008090505b60028054905081101561142c5760011515600360006002848154811061139b57fe5b9060005260206000200160009054906101000a900473ffffffffffffffffffffffffffffffffffffffff1673ffffffffffffffffffffffffffffffffffffffff1673ffffffffffffffffffffffffffffffffffffffff16815260200190815260200160002060009054906101000a900460ff161515141561141f5781806001019250505b8080600101915050611379565b506002805490508114156114b55760016000806101000a81548160ff0219169083600381111561145857fe5b02179055507f66fe4817acfd8756899e5d70b8db5e2f51795f380411f9aa53f14f246cd7d2046000809054906101000a900460ff166040518082600381111561149d57fe5b60ff16815260200191505060405180910390a161152c565b60008060006101000a81548160ff021916908360038111156114d357fe5b02179055507f66fe4817acfd8756899e5d70b8db5e2f51795f380411f9aa53f14f246cd7d2046000809054906101000a900460ff166040518082600381111561151857fe5b60ff16815260200191505060405180910390a15b5050505050505050505050565b3360011515600560008373ffffffffffffffffffffffffffffffffffffffff1673ffffffffffffffffffffffffffffffffffffffff16815260200190815260200160002060010160009054906101000a900460ff161515146115e6576040517f08c379a00000000000000000000000000000000000000000000000000000000081526004018080602001828103825260318152602001806120836031913960400191505060405180910390fd5b60026000809054906101000a900460ff16600381111561160257fe5b81600381111561160e57fe5b14611664576040517f08c379a000000000000000000000000000000000000000000000000000000000815260040180806020018281038252603e815260200180611fc5603e913960400191505060405180910390fd5b6002600381111561167157fe5b6000809054906101000a900460ff16600381111561168b57fe5b146116fe576040517f08c379a00000000000000000000000000000000000000000000000000000000081526004018080602001828103825260208152602001807f4572726f723a207468652063616d706169676e206973206e6f7420656e64656481525060200191505060405180910390fd5b6000600560003373ffffffffffffffffffffffffffffffffffffffff1673ffffffffffffffffffffffffffffffffffffffff1681526020019081526020016000206000015411611799576040517f08c379a0000000000000000000000000000000000000000000000000000000008152600401808060200182810382526038815260200180611f8d6038913960400191505060405180910390fd5b6000600560003373ffffffffffffffffffffffffffffffffffffffff1673ffffffffffffffffffffffffffffffffffffffff1681526020019081526020016000206000015490506000600560003373ffffffffffffffffffffffffffffffffffffffff1673ffffffffffffffffffffffffffffffffffffffff1681526020019081526020016000206000018190555060003373ffffffffffffffffffffffffffffffffffffffff168260405180600001905060006040518083038185875af1925050503d8060008114611888576040519150601f19603f3d011682016040523d82523d6000602084013e61188d565b606091505b5050905060011515811515146118ee576040517f08c379a00000000000000000000000000000000000000000000000000000000081526004018080602001828103825260218152602001806120b46021913960400191505060405180910390fd5b7f93740124b37b8f64043ddd706a499c11b58d2642466169e4c310f6b55ead67b63383604051808373ffffffffffffffffffffffffffffffffffffffff1673ffffffffffffffffffffffffffffffffffffffff1681526020018281526020019250505060405180910390a150505050565b6002818154811061196c57fe5b906000526020600020016000915054906101000a900473ffffffffffffffffffffffffffffffffffffffff1681565b33600080905060008090505b600280549050811080156119b9575081155b15611a3b578273ffffffffffffffffffffffffffffffffffffffff16600282815481106119e257fe5b9060005260206000200160009054906101000a900473ffffffffffffffffffffffffffffffffffffffff1673ffffffffffffffffffffffffffffffffffffffff161415611a2e57600191505b80806001019150506119a7565b5080611a92576040517f08c379a00000000000000000000000000000000000000000000000000000000081526004018080602001828103825260268152602001806121506026913960400191505060405180910390fd5b60026003811115611a9f57fe5b6000809054906101000a900460ff166003811115611ab957fe5b14611b0f576040517f08c379a000000000000000000000000000000000000000000000000000000000815260040180806020018281038252603781526020018061204c6037913960400191505060405180910390fd5b60004714611b68576040517f08c379a00000000000000000000000000000000000000000000000000000000081526004018080602001828103825260398152602001806120d56039913960400191505060405180910390fd5b60036000806101000a81548160ff02191690836003811115611b8657fe5b02179055507f66fe4817acfd8756899e5d70b8db5e2f51795f380411f9aa53f14f246cd7d2046000809054906101000a900460ff1660405180826003811115611bcb57fe5b60ff16815260200191505060405180910390a15050565b6000809054906101000a900460ff1681565b606081600080905060008090505b60048054905081108015611c14575081155b15611cbe57600015156005600060048481548110611c2e57fe5b9060005260206000200160009054906101000a900473ffffffffffffffffffffffffffffffffffffffff1673ffffffffffffffffffffffffffffffffffffffff1673ffffffffffffffffffffffffffffffffffffffff16815260200190815260200160002060010160009054906101000a900460ff1615151415611cb157600191505b8080600101915050611c02565b506000151581151514611d1c576040517f08c379a000000000000000000000000000000000000000000000000000000000815260040180806020018281038252603d8152602001806121bf603d913960400191505060405180910390fd5b60608451604051908082528060200260200182016040528015611d4e5781602001602082028038833980820191505090505b50905060008090505b8551811015611ddb5760056000878381518110611d7057fe5b602002602001015173ffffffffffffffffffffffffffffffffffffffff1673ffffffffffffffffffffffffffffffffffffffff16815260200190815260200160002060000154828281518110611dc257fe5b6020026020010181815250508080600101915050611d57565b50809350505050919050565b60048181548110611df457fe5b906000526020600020016000915054906101000a900473ffffffffffffffffffffffffffffffffffffffff1681565b60405180608001604052806000815260200160608152602001606081526020016000151581525090565b828054828255906000526020600020908101928215611ec6579160200282015b82811115611ec55782518260006101000a81548173ffffffffffffffffffffffffffffffffffffffff021916908373ffffffffffffffffffffffffffffffffffffffff16021790555091602001919060010190611e6d565b5b509050611ed39190611f24565b5090565b828054828255906000526020600020908101928215611f13579160200282015b82811115611f12578251825591602001919060010190611ef7565b5b509050611f209190611f67565b5090565b611f6491905b80821115611f6057600081816101000a81549073ffffffffffffffffffffffffffffffffffffffff021916905550600101611f2a565b5090565b90565b611f8991905b80821115611f85576000816000905550600101611f6d565b5090565b9056fe4572726f723a2074686572652068617665206265656e206e6f20646f6e6174696f6e7320666f7220746869732062656e65666963696172794572726f723a2063616e6e6f742061636365737320746869732066756e6374696f6e616c6974792066726f6d207468652063757272656e742073746174654572726f723a20546f74616c20706f766964656420776569732061726520646966666572656e742066726f6d207468652070726f7669646564207765697320706172746974696f6e734572726f723a205468652063616d706169676e20697320616c726561647920656e646564206f72206973206465616163746976617465644572726f723a206f6e6c792062656e656669636961726965732063616e20616363657373207468652077697468647261774572726f723a205769746864726177207472616e73616374696f6e206572726f724572726f723a205761697420756e74696c20616c6c2062656e65666963696172696573207769746864726177207468656972207265776172644572726f723a2064657374696e61746f72732073697a6520697320646966666572656e742066726f6d2074686520776569277320706172746974696f6e2073697a654572726f723a2066756e6374696f6e20726573657276656420746f206f7267616e697a6572734572726f723a205468652063616d706169676e206973206e6f742073746172746564206f7220796f75277265206e6f7420616e206f7267616e697a657220746f2073746172742069744572726f723a206f6e65206f72206d6f7265206f66207468652070726f76696465642062656e6566696369617269657320646f206e6f742065786973744572726f723a205468652063616d706169676e206973206e6f742072756e6e696e67206f7220697320616c726561647920656e646564a265627a7a723158205cbebecd59f09bca39ec2c683654d711714d0af3721cbc7907f8894a1a6b5a7464736f6c634300051000324572726f723a204e656564206174206c6561737420312062656e6566696369617269654572726f723a207468652070726f76696465642063616d7061696e20656e64206461746520696c206973206561726c696572207468616e207468652073746172742064617465a265627a7a72315820bd3f6a2825e30fac2e77f35e48a8ece491b72f351e6b01e909d83d4e9eb98dd064736f6c63430005100032",
  "source": "pragma solidity >=0.4.21 <0.7.0;\r\n\r\nimport \"./Campaign.sol\";\r\n\r\ncontract BitCollect{\r\n\r\n    Campaign[] campaigns;\r\n    mapping(address => uint) campaign_index;\r\n    mapping(uint => uint) test;\r\n\r\n    event campaignCreated(address cont);\r\n\r\n    constructor() public {}\r\n\r\n    function createCampaign(address[] memory _organizers, address payable[] memory _beneficiaries, uint _end_date, string memory name)\r\n    public payable{\r\n        require(_organizers.length>0, \"Error: Need at least 1 organizer\"); //RQ-PARAMS\r\n        require(_beneficiaries.length>0, \"Error: Need at least 1 beneficiarie\"); //RQ-PARAMS\r\n        require(_end_date>block.timestamp, \"Error: the provided campain end date il is earlier than the start date\");\r\n\r\n        Campaign new_campaign = new Campaign(_organizers, _beneficiaries, _end_date, name);\r\n        campaigns.push(new_campaign);\r\n        campaign_index[address(new_campaign)] = campaigns.length-1;\r\n\r\n        emit campaignCreated(address(new_campaign));\r\n    }\r\n\r\n}",
  "sourcePath": "G:\\SSD Workspace\\Ethereum\\BitCollect\\contracts\\BitCollect.sol",
  "compiler": {
    "name": "solc",
    "version": "0.5.16+commit.9c3226ce.Emscripten.clang"
  },
  "schemaVersion": "3.2.0",
  "updatedAt": "2020-07-01T17:20:05.396Z",
  "networkType": "ethereum",
  "devdoc": {
    "methods": {}
  },
  "userdoc": {
    "methods": {}
  }
}