{
  "contractName": "Campaign",
  "abi": [
    {
      "inputs": [
        {
          "internalType": "address[]",
          "name": "_organizers",
          "type": "address[]"
        },
        {
          "internalType": "address payable[]",
          "name": "_beneficiaries",
          "type": "address[]"
        },
        {
          "internalType": "uint256",
          "name": "_end_date",
          "type": "uint256"
        },
        {
          "internalType": "uint256[]",
          "name": "_rewards_costs",
          "type": "uint256[]"
        },
        {
          "internalType": "uint256",
          "name": "_fraudThreshold",
          "type": "uint256"
        },
        {
          "internalType": "string",
          "name": "_campaign_info_hashes",
          "type": "string"
        },
        {
          "internalType": "uint256",
          "name": "_report_investment",
          "type": "uint256"
        }
      ],
      "stateMutability": "nonpayable",
      "type": "constructor"
    },
    {
      "anonymous": false,
      "inputs": [
        {
          "indexed": false,
          "internalType": "enum Campaign.State",
          "name": "s",
          "type": "uint8"
        }
      ],
      "name": "campainStatus",
      "type": "event"
    },
    {
      "anonymous": false,
      "inputs": [],
      "name": "donationRewardUnlocked",
      "type": "event"
    },
    {
      "anonymous": false,
      "inputs": [],
      "name": "donationSuccess",
      "type": "event"
    },
    {
      "anonymous": false,
      "inputs": [
        {
          "indexed": false,
          "internalType": "enum Campaign.State",
          "name": "s",
          "type": "uint8"
        }
      ],
      "name": "fraudReported",
      "type": "event"
    },
    {
      "anonymous": false,
      "inputs": [
        {
          "indexed": false,
          "internalType": "uint256",
          "name": "amount",
          "type": "uint256"
        },
        {
          "indexed": false,
          "internalType": "uint256",
          "name": "plus",
          "type": "uint256"
        }
      ],
      "name": "refoundEmitted",
      "type": "event"
    },
    {
      "anonymous": false,
      "inputs": [
        {
          "indexed": false,
          "internalType": "uint256",
          "name": "amount",
          "type": "uint256"
        },
        {
          "indexed": false,
          "internalType": "uint256",
          "name": "plus",
          "type": "uint256"
        }
      ],
      "name": "withdrawSuccess",
      "type": "event"
    },
    {
      "inputs": [
        {
          "internalType": "uint256",
          "name": "",
          "type": "uint256"
        }
      ],
      "name": "beneficiaries",
      "outputs": [
        {
          "internalType": "address payable",
          "name": "",
          "type": "address"
        }
      ],
      "stateMutability": "view",
      "type": "function"
    },
    {
      "inputs": [
        {
          "internalType": "address",
          "name": "",
          "type": "address"
        }
      ],
      "name": "beneficiaries_map",
      "outputs": [
        {
          "internalType": "uint256",
          "name": "amount",
          "type": "uint256"
        },
        {
          "internalType": "bool",
          "name": "flag",
          "type": "bool"
        }
      ],
      "stateMutability": "view",
      "type": "function"
    },
    {
      "inputs": [],
      "name": "campaign_end_timestamp",
      "outputs": [
        {
          "internalType": "uint256",
          "name": "",
          "type": "uint256"
        }
      ],
      "stateMutability": "view",
      "type": "function"
    },
    {
      "inputs": [
        {
          "internalType": "uint256",
          "name": "",
          "type": "uint256"
        }
      ],
      "name": "donors",
      "outputs": [
        {
          "internalType": "address",
          "name": "",
          "type": "address"
        }
      ],
      "stateMutability": "view",
      "type": "function"
    },
    {
      "inputs": [],
      "name": "info_hashes",
      "outputs": [
        {
          "internalType": "string",
          "name": "",
          "type": "string"
        }
      ],
      "stateMutability": "view",
      "type": "function"
    },
    {
      "inputs": [
        {
          "internalType": "uint256",
          "name": "",
          "type": "uint256"
        }
      ],
      "name": "organizers",
      "outputs": [
        {
          "internalType": "address",
          "name": "",
          "type": "address"
        }
      ],
      "stateMutability": "view",
      "type": "function"
    },
    {
      "inputs": [],
      "name": "report_investment",
      "outputs": [
        {
          "internalType": "uint256",
          "name": "",
          "type": "uint256"
        }
      ],
      "stateMutability": "view",
      "type": "function"
    },
    {
      "inputs": [],
      "name": "reports_number",
      "outputs": [
        {
          "internalType": "uint256",
          "name": "",
          "type": "uint256"
        }
      ],
      "stateMutability": "view",
      "type": "function"
    },
    {
      "inputs": [
        {
          "internalType": "uint256",
          "name": "",
          "type": "uint256"
        }
      ],
      "name": "rewards_prices",
      "outputs": [
        {
          "internalType": "uint256",
          "name": "",
          "type": "uint256"
        }
      ],
      "stateMutability": "view",
      "type": "function"
    },
    {
      "inputs": [],
      "name": "state",
      "outputs": [
        {
          "internalType": "enum Campaign.State",
          "name": "",
          "type": "uint8"
        }
      ],
      "stateMutability": "view",
      "type": "function"
    },
    {
      "inputs": [],
      "name": "thresholdFraud",
      "outputs": [
        {
          "internalType": "uint256",
          "name": "",
          "type": "uint256"
        }
      ],
      "stateMutability": "view",
      "type": "function"
    },
    {
      "inputs": [],
      "name": "total_withdrawn",
      "outputs": [
        {
          "internalType": "uint256",
          "name": "",
          "type": "uint256"
        }
      ],
      "stateMutability": "view",
      "type": "function"
    },
    {
      "inputs": [
        {
          "internalType": "address[]",
          "name": "to",
          "type": "address[]"
        },
        {
          "internalType": "uint256[]",
          "name": "wei_partition",
          "type": "uint256[]"
        }
      ],
      "name": "startCampaign",
      "outputs": [],
      "stateMutability": "payable",
      "type": "function"
    },
    {
      "inputs": [
        {
          "internalType": "address[]",
          "name": "to",
          "type": "address[]"
        },
        {
          "internalType": "uint256[]",
          "name": "wei_partition",
          "type": "uint256[]"
        }
      ],
      "name": "makeDonation",
      "outputs": [],
      "stateMutability": "payable",
      "type": "function"
    },
    {
      "inputs": [],
      "name": "beneficiaryWithdraw",
      "outputs": [],
      "stateMutability": "nonpayable",
      "type": "function"
    },
    {
      "inputs": [],
      "name": "deactivateCampaign",
      "outputs": [],
      "stateMutability": "nonpayable",
      "type": "function"
    },
    {
      "inputs": [],
      "name": "reportFraud",
      "outputs": [],
      "stateMutability": "payable",
      "type": "function"
    },
    {
      "inputs": [],
      "name": "fraudWithdraw",
      "outputs": [],
      "stateMutability": "payable",
      "type": "function"
    },
    {
      "inputs": [],
      "name": "getAllBeneficiaries",
      "outputs": [
        {
          "internalType": "address payable[]",
          "name": "",
          "type": "address[]"
        }
      ],
      "stateMutability": "view",
      "type": "function"
    },
    {
      "inputs": [],
      "name": "getAllOrganizers",
      "outputs": [
        {
          "internalType": "address[]",
          "name": "",
          "type": "address[]"
        }
      ],
      "stateMutability": "view",
      "type": "function"
    },
    {
      "inputs": [],
      "name": "organizerHaveDonated",
      "outputs": [
        {
          "internalType": "bool",
          "name": "",
          "type": "bool"
        }
      ],
      "stateMutability": "view",
      "type": "function"
    },
    {
      "inputs": [],
      "name": "getAllRewardsPrices",
      "outputs": [
        {
          "internalType": "uint256[]",
          "name": "",
          "type": "uint256[]"
        }
      ],
      "stateMutability": "view",
      "type": "function"
    },
    {
      "inputs": [
        {
          "internalType": "address",
          "name": "b",
          "type": "address"
        }
      ],
      "name": "getBeneficiaryReward",
      "outputs": [
        {
          "internalType": "uint256",
          "name": "",
          "type": "uint256"
        }
      ],
      "stateMutability": "view",
      "type": "function"
    },
    {
      "inputs": [],
      "name": "beneficiaryHaveWithdrawn",
      "outputs": [
        {
          "internalType": "bool",
          "name": "",
          "type": "bool"
        }
      ],
      "stateMutability": "view",
      "type": "function"
    },
    {
      "inputs": [],
      "name": "userHaveReported",
      "outputs": [
        {
          "internalType": "bool",
          "name": "",
          "type": "bool"
        }
      ],
      "stateMutability": "view",
      "type": "function"
    },
    {
      "inputs": [],
      "name": "userHaveBeenRefunded",
      "outputs": [
        {
          "internalType": "bool",
          "name": "",
          "type": "bool"
        }
      ],
      "stateMutability": "view",
      "type": "function"
    },
    {
      "inputs": [],
      "name": "getDonationReward",
      "outputs": [
        {
          "internalType": "uint256[]",
          "name": "",
          "type": "uint256[]"
        }
      ],
      "stateMutability": "view",
      "type": "function"
    },
    {
      "inputs": [],
      "name": "getUserDonation",
      "outputs": [
        {
          "internalType": "uint256[]",
          "name": "",
          "type": "uint256[]"
        }
      ],
      "stateMutability": "view",
      "type": "function"
    },
    {
      "inputs": [],
      "name": "getUserRewards",
      "outputs": [
        {
          "internalType": "uint256[]",
          "name": "",
          "type": "uint256[]"
        }
      ],
      "stateMutability": "view",
      "type": "function"
    }
  ],
  "bytecode": "0x60806040523480156200001157600080fd5b506040516200422d3803806200422d833981810160405260e08110156200003757600080fd5b81019080805160405193929190846401000000008211156200005857600080fd5b838201915060208201858111156200006f57600080fd5b82518660208202830111640100000000821117156200008d57600080fd5b8083526020830192505050908051906020019060200280838360005b83811015620000c6578082015181840152602081019050620000a9565b5050505090500160405260200180516040519392919084640100000000821115620000f057600080fd5b838201915060208201858111156200010757600080fd5b82518660208202830111640100000000821117156200012557600080fd5b8083526020830192505050908051906020019060200280838360005b838110156200015e57808201518184015260208101905062000141565b5050505090500160405260200180519060200190929190805160405193929190846401000000008211156200019257600080fd5b83820191506020820185811115620001a957600080fd5b8251866020820283011164010000000082111715620001c757600080fd5b8083526020830192505050908051906020019060200280838360005b8381101562000200578082015181840152602081019050620001e3565b5050505090500160405260200180519060200190929190805160405193929190846401000000008211156200023457600080fd5b838201915060208201858111156200024b57600080fd5b82518660018202830111640100000000821117156200026957600080fd5b8083526020830192505050908051906020019080838360005b838110156200029f57808201518184015260208101905062000282565b50505050905090810190601f168015620002cd5780820380516001836020036101000a031916815260200191505b5060405260200180519060200190929190505050600087511162000359576040517f08c379a00000000000000000000000000000000000000000000000000000000081526004018080602001828103825260208152602001807f4572726f723a204e656564206174206c656173742031206f7267616e697a657281525060200191505060405180910390fd5b6000865111620003b5576040517f08c379a0000000000000000000000000000000000000000000000000000000008152600401808060200182810382526022815260200180620041c46022913960400191505060405180910390fd5b4285116200040f576040517f08c379a0000000000000000000000000000000000000000000000000000000008152600401808060200182810382526047815260200180620041e66047913960600191505060405180910390fd5b60008090505b8751811015620005105760018882815181106200042e57fe5b60200260200101519080600181540180825580915050600190039060005260206000200160009091909190916101000a81548173ffffffffffffffffffffffffffffffffffffffff021916908373ffffffffffffffffffffffffffffffffffffffff1602179055506000600260008a8481518110620004a957fe5b602002602001015173ffffffffffffffffffffffffffffffffffffffff1673ffffffffffffffffffffffffffffffffffffffff16815260200190815260200160002060006101000a81548160ff021916908315150217905550808060010191505062000415565b5060008090505b8651811015620006715760048782815181106200053057fe5b60200260200101519080600181540180825580915050600190039060005260206000200160009091909190916101000a81548173ffffffffffffffffffffffffffffffffffffffff021916908373ffffffffffffffffffffffffffffffffffffffff160217905550600060056000898481518110620005ab57fe5b602002602001015173ffffffffffffffffffffffffffffffffffffffff1673ffffffffffffffffffffffffffffffffffffffff168152602001908152602001600020600001819055506001600560008984815181106200060757fe5b602002602001015173ffffffffffffffffffffffffffffffffffffffff1673ffffffffffffffffffffffffffffffffffffffff16815260200190815260200160002060010160006101000a81548160ff021916908315150217905550808060010191505062000517565b508460118190555083600b90805190602001906200069192919062000746565b508160129080519060200190620006aa92919062000798565b5060008060006101000a81548160ff02191690836004811115620006ca57fe5b021790555082600c8190555080600d8190555060006003819055507f66fe4817acfd8756899e5d70b8db5e2f51795f380411f9aa53f14f246cd7d2046000809054906101000a900460ff16604051808260048111156200072657fe5b60ff16815260200191505060405180910390a15050505050505062000847565b82805482825590600052602060002090810192821562000785579160200282015b828111156200078457825182559160200191906001019062000767565b5b5090506200079491906200081f565b5090565b828054600181600116156101000203166002900490600052602060002090601f016020900481019282601f10620007db57805160ff19168380011785556200080c565b828001600101855582156200080c579182015b828111156200080b578251825591602001919060010190620007ee565b5b5090506200081b91906200081f565b5090565b6200084491905b808211156200084057600081600090555060010162000826565b5090565b90565b61396d80620008576000396000f3fe6080604052600436106101c25760003560e01c806383fa9ec6116100f7578063a4e00d6e11610095578063dd4c844111610064578063dd4c844114610a25578063dd9c331b14610a8a578063efeb5e5814610af6578063f19f892d14610b71576101c2565b8063a4e00d6e146108d9578063c0d18502146108f0578063c19d93fb1461095c578063c3a4de3614610995576101c2565b80639af6549a116100d15780639af6549a1461080e5780639c378d80146108255780639ec25aa51461082f578063a4c8be1e1461085e576101c2565b806383fa9ec6146106c257806395931ba2146106f15780639a18f30b14610740576101c2565b80635a7e8e66116101645780636d67d4321161013e5780636d67d432146104b05780636f9c584f146104db57806379de6d211461050a5780637f1e573c14610656576101c2565b80635a7e8e66146103ea5780635d3e9613146104155780636cd9b60814610485576101c2565b806343bfdd5d116101a057806343bfdd5d1461030b5780634abfa163146103365780634f42b0d8146103b157806359bf3d97146103bb576101c2565b806304dd9686146101c75780631e67f721146102335780632f14bae81461029f575b600080fd5b3480156101d357600080fd5b506101dc610b9c565b6040518080602001828103825283818151815260200191508051906020019060200280838360005b8381101561021f578082015181840152602081019050610204565b505050509050019250505060405180910390f35b34801561023f57600080fd5b50610248610db0565b6040518080602001828103825283818151815260200191508051906020019060200280838360005b8381101561028b578082015181840152602081019050610270565b505050509050019250505060405180910390f35b3480156102ab57600080fd5b506102b4610e3e565b6040518080602001828103825283818151815260200191508051906020019060200280838360005b838110156102f75780820151818401526020810190506102dc565b505050509050019250505060405180910390f35b34801561031757600080fd5b50610320610ecc565b6040518082815260200191505060405180910390f35b34801561034257600080fd5b5061036f6004803603602081101561035957600080fd5b8101908080359060200190929190505050610ed2565b604051808273ffffffffffffffffffffffffffffffffffffffff1673ffffffffffffffffffffffffffffffffffffffff16815260200191505060405180910390f35b6103b9610f0e565b005b3480156103c757600080fd5b506103d0611551565b604051808215151515815260200191505060405180910390f35b3480156103f657600080fd5b506103ff6115a5565b6040518082815260200191505060405180910390f35b34801561042157600080fd5b506104646004803603602081101561043857600080fd5b81019080803573ffffffffffffffffffffffffffffffffffffffff1690602001909291905050506115ab565b60405180838152602001821515151581526020019250505060405180910390f35b34801561049157600080fd5b5061049a6115dc565b6040518082815260200191505060405180910390f35b3480156104bc57600080fd5b506104c56115e2565b6040518082815260200191505060405180910390f35b3480156104e757600080fd5b506104f06115e8565b604051808215151515815260200191505060405180910390f35b6106546004803603604081101561052057600080fd5b810190808035906020019064010000000081111561053d57600080fd5b82018360208201111561054f57600080fd5b8035906020019184602083028401116401000000008311171561057157600080fd5b919080806020026020016040519081016040528093929190818152602001838360200280828437600081840152601f19601f820116905080830192505050505050509192919290803590602001906401000000008111156105d157600080fd5b8201836020820111156105e357600080fd5b8035906020019184602083028401116401000000008311171561060557600080fd5b919080806020026020016040519081016040528093929190818152602001838360200280828437600081840152601f19601f8201169050808301925050505050505091929192905050506116e8565b005b34801561066257600080fd5b5061066b611dd5565b6040518080602001828103825283818151815260200191508051906020019060200280838360005b838110156106ae578082015181840152602081019050610693565b505050509050019250505060405180910390f35b3480156106ce57600080fd5b506106d7611f0d565b604051808215151515815260200191505060405180910390f35b3480156106fd57600080fd5b5061072a6004803603602081101561071457600080fd5b8101908080359060200190929190505050611f61565b6040518082815260200191505060405180910390f35b61080c6004803603604081101561075657600080fd5b810190808035906020019064010000000081111561077357600080fd5b82018360208201111561078557600080fd5b803590602001918460208302840111640100000000831117156107a757600080fd5b9091929391929390803590602001906401000000008111156107c857600080fd5b8201836020820111156107da57600080fd5b803590602001918460208302840111640100000000831117156107fc57600080fd5b9091929391929390505050611f82565b005b34801561081a57600080fd5b50610823612559565b005b61082d6129c3565b005b34801561083b57600080fd5b50610844612c33565b604051808215151515815260200191505060405180910390f35b34801561086a57600080fd5b506108976004803603602081101561088157600080fd5b8101908080359060200190929190505050612ce4565b604051808273ffffffffffffffffffffffffffffffffffffffff1673ffffffffffffffffffffffffffffffffffffffff16815260200191505060405180910390f35b3480156108e557600080fd5b506108ee612d20565b005b3480156108fc57600080fd5b50610905612ecd565b6040518080602001828103825283818151815260200191508051906020019060200280838360005b8381101561094857808201518184015260208101905061092d565b505050509050019250505060405180910390f35b34801561096857600080fd5b50610971613005565b6040518082600481111561098157fe5b60ff16815260200191505060405180910390f35b3480156109a157600080fd5b506109aa613017565b6040518080602001828103825283818151815260200191508051906020019080838360005b838110156109ea5780820151818401526020810190506109cf565b50505050905090810190601f168015610a175780820380516001836020036101000a031916815260200191505b509250505060405180910390f35b348015610a3157600080fd5b50610a7460048036036020811015610a4857600080fd5b81019080803573ffffffffffffffffffffffffffffffffffffffff1690602001909291905050506130b5565b6040518082815260200191505060405180910390f35b348015610a9657600080fd5b50610a9f613101565b6040518080602001828103825283818151815260200191508051906020019060200280838360005b83811015610ae2578082015181840152602081019050610ac7565b505050509050019250505060405180910390f35b348015610b0257600080fd5b50610b2f60048036036020811015610b1957600080fd5b8101908080359060200190929190505050613159565b604051808273ffffffffffffffffffffffffffffffffffffffff1673ffffffffffffffffffffffffffffffffffffffff16815260200191505060405180910390f35b348015610b7d57600080fd5b50610b86613195565b6040518082815260200191505060405180910390f35b606080600960003373ffffffffffffffffffffffffffffffffffffffff1673ffffffffffffffffffffffffffffffffffffffff168152602001908152602001600020805480602002602001604051908101604052809291908181526020016000905b82821015610d2057838290600052602060002090600302016040518060600160405290816000820154815260200160018201805480602002602001604051908101604052809291908181526020018280548015610cb057602002820191906000526020600020905b8160009054906101000a900473ffffffffffffffffffffffffffffffffffffffff1673ffffffffffffffffffffffffffffffffffffffff1681526020019060010190808311610c66575b5050505050815260200160028201805480602002602001604051908101604052809291908181526020018280548015610d0857602002820191906000526020600020905b815481526020019060010190808311610cf4575b50505050508152505081526020019060010190610bfe565b50505050905060608151604051908082528060200260200182016040528015610d585781602001602082028038833980820191505090505b50905060008090505b8151811015610da757828181518110610d7657fe5b602002602001015160000151828281518110610d8e57fe5b6020026020010181815250508080600101915050610d61565b50809250505090565b60606001805480602002602001604051908101604052809291908181526020018280548015610e3457602002820191906000526020600020905b8160009054906101000a900473ffffffffffffffffffffffffffffffffffffffff1673ffffffffffffffffffffffffffffffffffffffff1681526020019060010190808311610dea575b5050505050905090565b60606004805480602002602001604051908101604052809291908181526020018280548015610ec257602002820191906000526020600020905b8160009054906101000a900473ffffffffffffffffffffffffffffffffffffffff1673ffffffffffffffffffffffffffffffffffffffff1681526020019060010190808311610e78575b5050505050905090565b60075481565b60088181548110610edf57fe5b906000526020600020016000915054906101000a900473ffffffffffffffffffffffffffffffffffffffff1681565b60046000809054906101000a900460ff166004811115610f2a57fe5b816004811115610f3657fe5b14610f8c576040517f08c379a000000000000000000000000000000000000000000000000000000000815260040180806020018281038252603e8152602001806135d3603e913960400191505060405180910390fd5b60001515601060003373ffffffffffffffffffffffffffffffffffffffff1673ffffffffffffffffffffffffffffffffffffffff16815260200190815260200160002060009054906101000a900460ff16151514611035576040517f08c379a000000000000000000000000000000000000000000000000000000000815260040180806020018281038252602581526020018061379e6025913960400191505060405180910390fd5b600080905060011515600260003373ffffffffffffffffffffffffffffffffffffffff1673ffffffffffffffffffffffffffffffffffffffff16815260200190815260200160002060009054906101000a900460ff161515141561109857600190505b80600960003373ffffffffffffffffffffffffffffffffffffffff1673ffffffffffffffffffffffffffffffffffffffff168152602001908152602001600020805490501180611138575060011515600f60003373ffffffffffffffffffffffffffffffffffffffff1673ffffffffffffffffffffffffffffffffffffffff16815260200190815260200160002060009054906101000a900460ff161515145b61118d576040517f08c379a00000000000000000000000000000000000000000000000000000000081526004018080602001828103825260408152602001806137386040913960400191505060405180910390fd5b60008090506060600960003373ffffffffffffffffffffffffffffffffffffffff1673ffffffffffffffffffffffffffffffffffffffff168152602001908152602001600020805480602002602001604051908101604052809291908181526020016000905b82821015611315578382906000526020600020906003020160405180606001604052908160008201548152602001600182018054806020026020016040519081016040528092919081815260200182805480156112a557602002820191906000526020600020905b8160009054906101000a900473ffffffffffffffffffffffffffffffffffffffff1673ffffffffffffffffffffffffffffffffffffffff168152602001906001019080831161125b575b50505050508152602001600282018054806020026020016040519081016040528092919081815260200182805480156112fd57602002820191906000526020600020905b8154815260200190600101908083116112e9575b505050505081525050815260200190600101906111f3565b5050505090505b805183101561135e5761134f81848151811061133457fe5b6020026020010151600001518361319b90919063ffffffff16565b9150828060010193505061131c565b600080905060011515600f60003373ffffffffffffffffffffffffffffffffffffffff1673ffffffffffffffffffffffffffffffffffffffff16815260200190815260200160002060009054906101000a900460ff16151514156113ea576113e7600d546113d9600e5460035461322390919063ffffffff16565b61319b90919063ffffffff16565b90505b6001601060003373ffffffffffffffffffffffffffffffffffffffff1673ffffffffffffffffffffffffffffffffffffffff16815260200190815260200160002060006101000a81548160ff02191690831515021790555060003373ffffffffffffffffffffffffffffffffffffffff1682850160405180600001905060006040518083038185875af1925050503d80600081146114a4576040519150601f19603f3d011682016040523d82523d6000602084013e6114a9565b606091505b50509050600115158115151461150a576040517f08c379a00000000000000000000000000000000000000000000000000000000081526004018080602001828103825260258152602001806136116025913960400191505060405180910390fd5b7f9bb5f29b9278b7f706a7caa67770ad63d5af89b481bdc02309439d76ca0a19df8483604051808381526020018281526020019250505060405180910390a1505050505050565b6000601060003373ffffffffffffffffffffffffffffffffffffffff1673ffffffffffffffffffffffffffffffffffffffff16815260200190815260200160002060009054906101000a900460ff16905090565b600d5481565b60056020528060005260406000206000915090508060000154908060010160009054906101000a900460ff16905082565b60115481565b600e5481565b600060011515600560003373ffffffffffffffffffffffffffffffffffffffff1673ffffffffffffffffffffffffffffffffffffffff16815260200190815260200160002060010160009054906101000a900460ff16151514611696576040517f08c379a00000000000000000000000000000000000000000000000000000000081526004018080602001828103825260328152602001806136ac6032913960400191505060405180910390fd5b600660003373ffffffffffffffffffffffffffffffffffffffff1673ffffffffffffffffffffffffffffffffffffffff16815260200190815260200160002060009054906101000a900460ff16905090565b601154421115611760576040517f08c379a00000000000000000000000000000000000000000000000000000000081526004018080602001828103825260208152602001807f4572726f723a2063616d706169676e20646561646c696e65206578706972656481525060200191505060405180910390fd5b81600080905060008090505b6004805490508110801561177e575081155b156118285760001515600560006004848154811061179857fe5b9060005260206000200160009054906101000a900473ffffffffffffffffffffffffffffffffffffffff1673ffffffffffffffffffffffffffffffffffffffff1673ffffffffffffffffffffffffffffffffffffffff16815260200190815260200160002060010160009054906101000a900460ff161515141561181b57600191505b808060010191505061176c565b506000151581151514611886576040517f08c379a000000000000000000000000000000000000000000000000000000000815260040180806020018281038252603d81526020018061383a603d913960400191505060405180910390fd5b6001600481111561189357fe5b6000809054906101000a900460ff1660048111156118ad57fe5b14806118ed5750600060048111156118c157fe5b6000809054906101000a900460ff1660048111156118db57fe5b1480156118ec57506118eb61326d565b5b5b611942576040517f08c379a00000000000000000000000000000000000000000000000000000000081526004018080602001828103825260498152602001806137f16049913960600191505060405180910390fd5b600034116119b8576040517f08c379a00000000000000000000000000000000000000000000000000000000081526004018080602001828103825260158152602001807f4572726f723a2030207765692070726f7669646564000000000000000000000081525060200191505060405180910390fd5b8251845114611a12576040517f08c379a000000000000000000000000000000000000000000000000000000000815260040180806020018281038252604c815260200180613877604c913960600191505060405180910390fd5b600080905060008090505b8451811015611a5b57611a4c858281518110611a3557fe5b60200260200101518361319b90919063ffffffff16565b91508080600101915050611a1d565b50803414611ab4576040517f08c379a00000000000000000000000000000000000000000000000000000000081526004018080602001828103825260558152602001806136366055913960600191505060405180910390fd5b611abc613458565b34816000018181525050858160200181905250848160400181905250600960003373ffffffffffffffffffffffffffffffffffffffff1673ffffffffffffffffffffffffffffffffffffffff168152602001908152602001600020819080600181540180825580915050600190039060005260206000209060030201600090919091909150600082015181600001556020820151816001019080519060200190611b67929190613479565b506040820151816002019080519060200190611b84929190613503565b5050506000600b80549050118015611bb45750600b600081548110611ba557fe5b90600052602060002001543410155b15611d0e57611bc1613550565b60008090505b600b8054905081108015611bf25750600b8181548110611be357fe5b90600052602060002001543410155b15611c04578080600101915050611bc7565b600181038260000181815250506001600960003373ffffffffffffffffffffffffffffffffffffffff1673ffffffffffffffffffffffffffffffffffffffff1681526020019081526020016000208054905003826020018181525050600a60003373ffffffffffffffffffffffffffffffffffffffff1673ffffffffffffffffffffffffffffffffffffffff168152602001908152602001600020829080600181540180825580915050600190039060005260206000209060020201600090919091909150600082015181600001556020820151816001015550507f744b881a25971efd286cf16da8b9c684ec04deeab58650ac9134f432baa30f1060405160405180910390a150505b60008090505b8651811015611da057858181518110611d2957fe5b602002602001015160056000898481518110611d4157fe5b602002602001015173ffffffffffffffffffffffffffffffffffffffff1673ffffffffffffffffffffffffffffffffffffffff168152602001908152602001600020600001600082825401925050819055508080600101915050611d14565b507f69ee10f8865f0d317c7a1b74da8e2cbffcc7097a4077b37fb42fba449101f93560405160405180910390a1505050505050565b606080600a60003373ffffffffffffffffffffffffffffffffffffffff1673ffffffffffffffffffffffffffffffffffffffff168152602001908152602001600020805480602002602001604051908101604052809291908181526020016000905b82821015611e7d57838290600052602060002090600202016040518060400160405290816000820154815260200160018201548152505081526020019060010190611e37565b50505050905060608151604051908082528060200260200182016040528015611eb55781602001602082028038833980820191505090505b50905060008090505b8251811015611f0457828181518110611ed357fe5b602002602001015160000151828281518110611eeb57fe5b6020026020010181815250508080600101915050611ebe565b50809250505090565b6000600f60003373ffffffffffffffffffffffffffffffffffffffff1673ffffffffffffffffffffffffffffffffffffffff16815260200190815260200160002060009054906101000a900460ff16905090565b600b8181548110611f6e57fe5b906000526020600020016000915090505481565b601154421115611ffa576040517f08c379a00000000000000000000000000000000000000000000000000000000081526004018080602001828103825260208152602001807f4572726f723a2063616d706169676e20646561646c696e65206578706972656481525060200191505060405180910390fd5b61200261326d565b612057576040517f08c379a00000000000000000000000000000000000000000000000000000000081526004018080602001828103825260268152602001806137786026913960400191505060405180910390fd5b838380806020026020016040519081016040528093929190818152602001838360200280828437600081840152601f19601f82011690508083019250505050505050600080905060008090505b600480549050811080156120b6575081155b15612160576000151560056000600484815481106120d057fe5b9060005260206000200160009054906101000a900473ffffffffffffffffffffffffffffffffffffffff1673ffffffffffffffffffffffffffffffffffffffff1673ffffffffffffffffffffffffffffffffffffffff16815260200190815260200160002060010160009054906101000a900460ff161515141561215357600191505b80806001019150506120a4565b5060001515811515146121be576040517f08c379a000000000000000000000000000000000000000000000000000000000815260040180806020018281038252603d81526020018061383a603d913960400191505060405180910390fd5b60008060009054906101000a900460ff1660048111156121da57fe5b8160048111156121e657fe5b1461223c576040517f08c379a000000000000000000000000000000000000000000000000000000000815260040180806020018281038252603e8152602001806135d3603e913960400191505060405180910390fd5b60001515600260003373ffffffffffffffffffffffffffffffffffffffff1673ffffffffffffffffffffffffffffffffffffffff16815260200190815260200160002060009054906101000a900460ff161515146122e5576040517f08c379a000000000000000000000000000000000000000000000000000000000815260040180806020018281038252603f8152602001806138c3603f913960400191505060405180910390fd5b612371878780806020026020016040519081016040528093929190818152602001838360200280828437600081840152601f19601f82011690508083019250505050505050868680806020026020016040519081016040528093929190818152602001838360200280828437600081840152601f19601f820116905080830192505050505050506116e8565b6001600260003373ffffffffffffffffffffffffffffffffffffffff1673ffffffffffffffffffffffffffffffffffffffff16815260200190815260200160002060006101000a81548160ff021916908315150217905550600080905060008090505b600180549050811015612487576001151560026000600184815481106123f657fe5b9060005260206000200160009054906101000a900473ffffffffffffffffffffffffffffffffffffffff1673ffffffffffffffffffffffffffffffffffffffff1673ffffffffffffffffffffffffffffffffffffffff16815260200190815260200160002060009054906101000a900460ff161515141561247a5781806001019250505b80806001019150506123d4565b5061249d3460035461319b90919063ffffffff16565b6003819055506001805490508114156124d85760016000806101000a81548160ff021916908360048111156124ce57fe5b02179055506124fc565b60008060006101000a81548160ff021916908360048111156124f657fe5b02179055505b7f66fe4817acfd8756899e5d70b8db5e2f51795f380411f9aa53f14f246cd7d2046000809054906101000a900460ff166040518082600481111561253c57fe5b60ff16815260200191505060405180910390a15050505050505050565b60011515600560003373ffffffffffffffffffffffffffffffffffffffff1673ffffffffffffffffffffffffffffffffffffffff16815260200190815260200160002060010160009054906101000a900460ff16151514612605576040517f08c379a00000000000000000000000000000000000000000000000000000000081526004018080602001828103825260328152602001806136ac6032913960400191505060405180910390fd5b6011544211801561263a57506001600481111561261e57fe5b6000809054906101000a900460ff16600481111561263857fe5b145b156126635760026000806101000a81548160ff0219169083600481111561265d57fe5b02179055505b6002600481111561267057fe5b6000809054906101000a900460ff16600481111561268a57fe5b146126fd576040517f08c379a000000000000000000000000000000000000000000000000000000000815260040180806020018281038252601f8152602001807f4572726f723a2063616d706169676e206e6f742079657420657870697265640081525060200191505060405180910390fd5b60001515600660003373ffffffffffffffffffffffffffffffffffffffff1673ffffffffffffffffffffffffffffffffffffffff16815260200190815260200160002060009054906101000a900460ff161515146127a6576040517f08c379a000000000000000000000000000000000000000000000000000000000815260040180806020018281038252602581526020018061379e6025913960400191505060405180910390fd5b6000600560003373ffffffffffffffffffffffffffffffffffffffff1673ffffffffffffffffffffffffffffffffffffffff16815260200190815260200160002060000154905060008090506000600e54111561282e5761282b60048054905061281d600d54600e5461330c90919063ffffffff16565b61322390919063ffffffff16565b90505b6001600660003373ffffffffffffffffffffffffffffffffffffffff1673ffffffffffffffffffffffffffffffffffffffff16815260200190815260200160002060006101000a81548160ff021916908315150217905550600160076000828254019250508190555060006128ac828461319b90919063ffffffff16565b9050600081111561297f5760003373ffffffffffffffffffffffffffffffffffffffff168260405180600001905060006040518083038185875af1925050503d8060008114612917576040519150601f19603f3d011682016040523d82523d6000602084013e61291c565b606091505b50509050600115158115151461297d576040517f08c379a000000000000000000000000000000000000000000000000000000000815260040180806020018281038252602181526020018061368b6021913960400191505060405180910390fd5b505b7f30114f9a49b53f7fb4c7c9ee7723ca7a693418a4c5f1162e02f95a47348e03498383604051808381526020018281526020019250505060405180910390a1505050565b60016000809054906101000a900460ff1660048111156129df57fe5b8160048111156129eb57fe5b14612a41576040517f08c379a000000000000000000000000000000000000000000000000000000000815260040180806020018281038252603e8152602001806135d3603e913960400191505060405180910390fd5b60001515600f60003373ffffffffffffffffffffffffffffffffffffffff1673ffffffffffffffffffffffffffffffffffffffff16815260200190815260200160002060009054906101000a900460ff16151514612aea576040517f08c379a000000000000000000000000000000000000000000000000000000000815260040180806020018281038252602e8152602001806137c3602e913960400191505060405180910390fd5b600d543414612b44576040517f08c379a00000000000000000000000000000000000000000000000000000000081526004018080602001828103825260368152602001806139026036913960400191505060405180910390fd5b6001600f60003373ffffffffffffffffffffffffffffffffffffffff1673ffffffffffffffffffffffffffffffffffffffff16815260200190815260200160002060006101000a81548160ff0219169083151502179055506001600e60008282540192505081905550600c54600e541415612bdd5760046000806101000a81548160ff02191690836004811115612bd757fe5b02179055505b7ff0ffd3bfdde8a6f01970d2ce17ab4bdb3d8ea65ed7efca58c63c1c0cc7a8a1826000809054906101000a900460ff1660405180826004811115612c1d57fe5b60ff16815260200191505060405180910390a150565b6000612c3d61326d565b612c92576040517f08c379a00000000000000000000000000000000000000000000000000000000081526004018080602001828103825260268152602001806137786026913960400191505060405180910390fd5b600260003373ffffffffffffffffffffffffffffffffffffffff1673ffffffffffffffffffffffffffffffffffffffff16815260200190815260200160002060009054906101000a900460ff16905090565b60018181548110612cf157fe5b906000526020600020016000915054906101000a900473ffffffffffffffffffffffffffffffffffffffff1681565b612d2861326d565b612d7d576040517f08c379a00000000000000000000000000000000000000000000000000000000081526004018080602001828103825260268152602001806137786026913960400191505060405180910390fd5b60026000809054906101000a900460ff166004811115612d9957fe5b816004811115612da557fe5b14612dfb576040517f08c379a000000000000000000000000000000000000000000000000000000000815260040180806020018281038252603e8152602001806135d3603e913960400191505060405180910390fd5b60004714612e54576040517f08c379a00000000000000000000000000000000000000000000000000000000081526004018080602001828103825260398152602001806136de6039913960400191505060405180910390fd5b60036000806101000a81548160ff02191690836004811115612e7257fe5b02179055507f66fe4817acfd8756899e5d70b8db5e2f51795f380411f9aa53f14f246cd7d2046000809054906101000a900460ff1660405180826004811115612eb757fe5b60ff16815260200191505060405180910390a150565b606080600a60003373ffffffffffffffffffffffffffffffffffffffff1673ffffffffffffffffffffffffffffffffffffffff168152602001908152602001600020805480602002602001604051908101604052809291908181526020016000905b82821015612f7557838290600052602060002090600202016040518060400160405290816000820154815260200160018201548152505081526020019060010190612f2f565b50505050905060608151604051908082528060200260200182016040528015612fad5781602001602082028038833980820191505090505b50905060008090505b8151811015612ffc57828181518110612fcb57fe5b602002602001015160000151828281518110612fe357fe5b6020026020010181815250508080600101915050612fb6565b50809250505090565b6000809054906101000a900460ff1681565b60128054600181600116156101000203166002900480601f0160208091040260200160405190810160405280929190818152602001828054600181600116156101000203166002900480156130ad5780601f10613082576101008083540402835291602001916130ad565b820191906000526020600020905b81548152906001019060200180831161309057829003601f168201915b505050505081565b6000600560008373ffffffffffffffffffffffffffffffffffffffff1673ffffffffffffffffffffffffffffffffffffffff168152602001908152602001600020600001549050919050565b6060600b80548060200260200160405190810160405280929190818152602001828054801561314f57602002820191906000526020600020905b81548152602001906001019080831161313b575b5050505050905090565b6004818154811061316657fe5b906000526020600020016000915054906101000a900473ffffffffffffffffffffffffffffffffffffffff1681565b600c5481565b600080828401905083811015613219576040517f08c379a000000000000000000000000000000000000000000000000000000000815260040180806020018281038252601b8152602001807f536166654d6174683a206164646974696f6e206f766572666c6f77000000000081525060200191505060405180910390fd5b8091505092915050565b600061326583836040518060400160405280601a81526020017f536166654d6174683a206469766973696f6e206279207a65726f000000000000815250613392565b905092915050565b6000806000905060008090505b600180549050811015613304573373ffffffffffffffffffffffffffffffffffffffff16600182815481106132ab57fe5b9060005260206000200160009054906101000a900473ffffffffffffffffffffffffffffffffffffffff1673ffffffffffffffffffffffffffffffffffffffff1614156132f757600191505b808060010191505061327a565b508091505090565b60008083141561331f576000905061338c565b600082840290508284828161333057fe5b0414613387576040517f08c379a00000000000000000000000000000000000000000000000000000000081526004018080602001828103825260218152602001806137176021913960400191505060405180910390fd5b809150505b92915050565b6000808311829061343e576040517f08c379a00000000000000000000000000000000000000000000000000000000081526004018080602001828103825283818151815260200191508051906020019080838360005b838110156134035780820151818401526020810190506133e8565b50505050905090810190601f1680156134305780820380516001836020036101000a031916815260200191505b509250505060405180910390fd5b50600083858161344a57fe5b049050809150509392505050565b60405180606001604052806000815260200160608152602001606081525090565b8280548282559060005260206000209081019282156134f2579160200282015b828111156134f15782518260006101000a81548173ffffffffffffffffffffffffffffffffffffffff021916908373ffffffffffffffffffffffffffffffffffffffff16021790555091602001919060010190613499565b5b5090506134ff919061356a565b5090565b82805482825590600052602060002090810192821561353f579160200282015b8281111561353e578251825591602001919060010190613523565b5b50905061354c91906135ad565b5090565b604051806040016040528060008152602001600081525090565b6135aa91905b808211156135a657600081816101000a81549073ffffffffffffffffffffffffffffffffffffffff021916905550600101613570565b5090565b90565b6135cf91905b808211156135cb5760008160009055506001016135b3565b5090565b9056fe4572726f723a2063616e6e6f742061636365737320746869732066756e6374696f6e616c6974792066726f6d207468652063757272656e742073746174654572726f723a20467261756420726566756e64207472616e73616374696f6e206572726f724572726f723a20546f74616c2070726f766964656420776569732061726520646966666572656e742066726f6d207468652073756d206f66207468652070726f7669646564207765697320706172746974696f6e734572726f723a205769746864726177207472616e73616374696f6e206572726f724572726f723a206f6e6c792062656e656669636961726965732063616e2061636365737320746869732066756e6374696f6e4572726f723a205761697420756e74696c20616c6c2062656e6566696369617269657320776974686472617720746865697220726577617264536166654d6174683a206d756c7469706c69636174696f6e206f766572666c6f77596f752068617665206e6f74206d61646520646f6e6174696f6e732f7265706f7274206f7220796f75206861766520616c72656164792077697468647261776e4572726f723a2066756e6374696f6e20726573657276656420746f206f7267616e697a6572734572726f723a20596f75206861766520616c7265616479206265656e20726566756e6465644572726f723a20596f75206861766520616c7265616479207265706f7274656420746869732063616d706169676e4572726f723a205468652063616d706169676e206973206e6f742073746172746564206f7220796f75277265206e6f7420616e206f7267616e697a657220746f2073746172742069744572726f723a206f6e65206f72206d6f7265206f66207468652070726f76696465642062656e6566696369617269657320646f206e6f742065786973744572726f723a206e756d626572206f662062656e6566696369617269657320697320646966666572656e742066726f6d20746865206e756d626572206f662077656920706172746974696f6e596f75206861766520616c7265616479206d61646520616e20696e697469616c20646f6e6174696f6e20746f207374617274207468652063616d706169676e4572726f723a20596f75206e65656420746f20696e7665737420736f6d6520657468657220746f207265706f72742061206672617564a264697066735822122086966d6b0ccef19caabaa701cca5bf9b931603a9c1242f66f858df4f72f7ccf264736f6c634300060000334572726f723a204e656564206174206c6561737420312062656e65666963696172794572726f723a207468652070726f76696465642063616d706169676e20656e64206461746520696c206973206561726c696572207468616e207468652073746172742064617465",
  "source": "pragma solidity >=0.6.0 <0.7.0;\r\n\r\nimport \"./Library.sol\";\r\nimport \"@openzeppelin/contracts/math/SafeMath.sol\";\r\n\r\ncontract Campaign{\r\n\r\n    using Library for Library.Reward;\r\n    using Library for Library.Donation;\r\n    using Library for Library.DonationReward;\r\n    using Library for Library.FraudReporter;\r\n\r\n    using SafeMath for uint256;\r\n\r\n    enum State {PENDING, RUNNING, EXPIRED, DEACTIVATED, BLOCKED}\r\n    State public state;\r\n\r\n    address[] public organizers;\r\n    mapping(address => bool) private organizers_donation;\r\n    uint initial_donation_amount;\r\n\r\n    address payable[] public beneficiaries;\r\n    mapping(address => Library.Reward) public beneficiaries_map;\r\n    mapping(address => bool) beneficiary_withdrawn;\r\n    uint public total_withdrawn;\r\n\r\n    address[] public donors;\r\n    mapping(address => Library.Donation[]) private donations;\r\n    mapping(address => Library.DonationReward[]) private donations_rewards;\r\n\r\n    uint[] public rewards_prices;\r\n\r\n    uint public thresholdFraud;\r\n    uint public report_investment;\r\n    uint public reports_number;\r\n    mapping(address => bool) fraud_reporters;\r\n    mapping(address => bool) user_refunded;\r\n\r\n    uint public campaign_end_timestamp;\r\n    string public info_hashes;\r\n\r\n    event campainStatus(State s);\r\n    event donationSuccess();\r\n    event donationRewardUnlocked();\r\n    event withdrawSuccess(uint amount, uint plus);\r\n    event refoundEmitted(uint amount, uint plus);\r\n    event fraudReported(State s);\r\n\r\n    modifier isOrganizer() {\r\n        require(senderOrganizer(), \"Error: function reserved to organizers\");\r\n        _;\r\n    }\r\n\r\n    modifier isBeneficiary(){\r\n        require(beneficiaries_map[msg.sender].flag==true, \"Error: only beneficiaries can access this function\");\r\n        _;\r\n    }\r\n\r\n    modifier requireState(State s){\r\n        require(s==state, \"Error: cannot access this functionality from the current state\");\r\n        _;\r\n    }\r\n\r\n    modifier beneficiariesExist(address[] memory b) {\r\n        bool error = false;\r\n        for(uint i = 0; i<beneficiaries.length && !error; i++){\r\n            if(beneficiaries_map[beneficiaries[i]].flag == false)\r\n                error = true;\r\n        }\r\n\r\n        require(error==false, \"Error: one or more of the provided beneficiaries do not exist\");\r\n        _;\r\n    }\r\n\r\n    modifier campaignNotEnded() {\r\n        require(block.timestamp <= campaign_end_timestamp, \"Error: campaign deadline expired\");\r\n        _;\r\n    }\r\n\r\n    modifier campaignExpired(){\r\n        if(block.timestamp > campaign_end_timestamp && state==State.RUNNING)\r\n             state = State.EXPIRED;\r\n        \r\n        require(state == State.EXPIRED, \"Error: campaign not yet expired\");\r\n        _;\r\n    }\r\n\r\n    function senderOrganizer() private view returns(bool){\r\n        bool is_organizer = false; //become true if the sender is an organizer\r\n        for(uint i = 0; i<organizers.length; i++){\r\n            if(organizers[i]==msg.sender)\r\n                is_organizer = true;\r\n        }\r\n        return is_organizer;\r\n    }\r\n\r\n    constructor(address[] memory _organizers, address payable[] memory _beneficiaries, uint _end_date,\r\n    uint[] memory _rewards_costs, uint _fraudThreshold, string memory _campaign_info_hashes, uint _report_investment) public {\r\n\r\n        require(_organizers.length>0, \"Error: Need at least 1 organizer\"); //RQ-PARAMS\r\n        require(_beneficiaries.length>0, \"Error: Need at least 1 beneficiary\"); //RQ-PARAMS\r\n        require(_end_date>block.timestamp, \"Error: the provided campaign end date il is earlier than the start date\");\r\n\r\n        for(uint i = 0; i < _organizers.length; i++) {\r\n            organizers.push(_organizers[i]);\r\n            organizers_donation[_organizers[i]] = false;\r\n        }\r\n\r\n        for(uint i = 0; i < _beneficiaries.length; i++){\r\n            beneficiaries.push(_beneficiaries[i]);\r\n            beneficiaries_map[_beneficiaries[i]].amount = 0;\r\n            beneficiaries_map[_beneficiaries[i]].flag = true;\r\n        }\r\n\r\n        campaign_end_timestamp = _end_date;\r\n        rewards_prices = _rewards_costs;\r\n        info_hashes = _campaign_info_hashes;\r\n\r\n        state = State.PENDING;\r\n\r\n        thresholdFraud = _fraudThreshold;\r\n        report_investment = _report_investment;\r\n        initial_donation_amount = 0;\r\n\r\n        emit campainStatus(state);\r\n    }\r\n\r\n    function startCampaign(address[] calldata to, uint[] calldata wei_partition)\r\n     campaignNotEnded() external payable isOrganizer() beneficiariesExist(to) requireState(State.PENDING){//RQ-PARAMS\r\n\r\n        require(organizers_donation[msg.sender]==false, \"You have already made an initial donation to start the campaign\");\r\n\r\n        makeDonation(to, wei_partition); //The donors initial donations are managed as a simple donations\r\n        organizers_donation[msg.sender] = true;\r\n\r\n        uint organizers_donors = 0;\r\n        for(uint i = 0; i<organizers.length; i++){\r\n            if(organizers_donation[organizers[i]] == true)\r\n                organizers_donors++;\r\n        }\r\n\r\n        initial_donation_amount = initial_donation_amount.add(msg.value);\r\n\r\n        if(organizers_donors==organizers.length)\r\n            state = State.RUNNING;\r\n        else\r\n            state = State.PENDING;\r\n\r\n        emit campainStatus(state);\r\n    }\r\n\r\n\r\n    function makeDonation(address[] memory to, uint[] memory wei_partition)public payable\r\n     campaignNotEnded() beneficiariesExist(to){\r\n         \r\n        require(state==State.RUNNING || (state==State.PENDING && senderOrganizer()),\"Error: The campaign is not started or you're not an organizer to start it\");\r\n        require(msg.value>0, \"Error: 0 wei provided\");\r\n        require(to.length==wei_partition.length, \"Error: number of beneficiaries is different from the number of wei partition\");\r\n        \r\n        uint total_donation = 0;\r\n        for(uint i = 0; i<wei_partition.length; i++){\r\n            total_donation = total_donation.add(wei_partition[i]);\r\n        }\r\n        require(msg.value==total_donation,\"Error: Total provided weis are different from the sum of the provided weis partitions\");\r\n        \r\n\r\n        Library.Donation memory d;\r\n\r\n        d.amount = msg.value;\r\n        d.donation_beneficiaries = to;\r\n        d.danation_partitions = wei_partition;\r\n        donations[msg.sender].push(d);\r\n\r\n        //Check for rewards\r\n        if(rewards_prices.length>0 && msg.value>=rewards_prices[0]){\r\n            Library.DonationReward memory reward;\r\n            uint i = 0;\r\n            while(i<rewards_prices.length && msg.value>=rewards_prices[i])\r\n                i++;\r\n\r\n            reward.max_reward_index = i - 1;\r\n            reward.donation_index = donations[msg.sender].length - 1;\r\n\r\n            donations_rewards[msg.sender].push(reward);\r\n\r\n            emit donationRewardUnlocked();\r\n        }\r\n\r\n        for(uint i = 0; i<to.length; i++)\r\n            beneficiaries_map[to[i]].amount += wei_partition[i];\r\n\r\n        emit donationSuccess();\r\n    }\r\n\r\n\r\n    function beneficiaryWithdraw() external isBeneficiary() campaignExpired(){\r\n        require(beneficiary_withdrawn[msg.sender]==false, \"Error: You have already been refunded\");//Avoid reentrancy\r\n\r\n        uint amount = beneficiaries_map[msg.sender].amount;\r\n\r\n        //Subdivide ether from reporters(if exist) to all beneficiaries\r\n        uint plus = 0;\r\n        if (reports_number > 0)\r\n            plus = reports_number.mul(report_investment).div(beneficiaries.length);\r\n\r\n        beneficiary_withdrawn[msg.sender] = true; //consider beneficiary withdrawn before send ether to avoid reentrancy\r\n        total_withdrawn += 1;\r\n\r\n        uint total = amount.add(plus);\r\n        if(total > 0){\r\n            (bool success, ) = msg.sender.call.value(total)(\"\");\r\n            require(success==true, \"Error: Withdraw transaction error\");\r\n        }\r\n        \r\n        emit withdrawSuccess(amount, plus);\r\n\r\n    }\r\n\r\n\r\n    function deactivateCampaign() external isOrganizer() requireState(State.EXPIRED){\r\n        require(address(this).balance==0, \"Error: Wait until all beneficiaries withdraw their reward\");\r\n        state = State.DEACTIVATED;\r\n\r\n        emit campainStatus(state);\r\n    }\r\n\r\n\r\n    function reportFraud() external payable requireState(State.RUNNING){\r\n        require(fraud_reporters[msg.sender]==false, \"Error: You have already reported this campaign\");\r\n        require(msg.value==report_investment, \"Error: You need to invest some ether to report a fraud\");\r\n\r\n        fraud_reporters[msg.sender] = true;\r\n\r\n        reports_number += 1;\r\n        if(reports_number == thresholdFraud)\r\n            state = State.BLOCKED;\r\n\r\n        emit fraudReported(state);\r\n    }\r\n\r\n\r\n    function fraudWithdraw() external payable requireState(State.BLOCKED){\r\n        require(user_refunded[msg.sender]==false, \"Error: You have already been refunded\");\r\n\r\n        uint index = 0;\r\n        if (organizers_donation[msg.sender]==true) //If organizer do not consider the firt donation sice it is the inital. This donation will be subdivided to all the reporters\r\n            index = 1;\r\n\r\n        require(donations[msg.sender].length>index || fraud_reporters[msg.sender]==true,\r\n        \"You have not made donations/report or you have already withdrawn\");\r\n\r\n        uint amount = 0;\r\n        Library.Donation[] memory user_donation = donations[msg.sender];\r\n        while(index < user_donation.length){\r\n            amount = amount.add(user_donation[index].amount);\r\n            index++;\r\n        }\r\n\r\n        uint plus = 0;\r\n        if(fraud_reporters[msg.sender]==true)//If the sender is a reporter, he will have an extra amount from the organizers initial donations\r\n            plus = initial_donation_amount.div(reports_number).add(report_investment);\r\n\r\n\r\n        user_refunded[msg.sender] = true; //to avoid reentrancy\r\n        (bool success, ) = msg.sender.call.value(amount+plus)(\"\");\r\n        require(success==true, \"Error: Fraud refund transaction error\");\r\n\r\n        emit refoundEmitted(amount, plus);\r\n\r\n    }\r\n\r\n\r\n    //Dapp get information\r\n    function getAllBeneficiaries() public view returns(address payable[] memory){return beneficiaries;}\r\n\r\n    function getAllOrganizers() public view returns(address[] memory){return organizers;}\r\n\r\n    function organizerHaveDonated()public view isOrganizer() returns(bool) {return organizers_donation[msg.sender];}\r\n\r\n    function getAllRewardsPrices() public view returns(uint[] memory){return rewards_prices;}\r\n\r\n    function getBeneficiaryReward(address b)public view returns(uint){return beneficiaries_map[b].amount;}\r\n\r\n    function beneficiaryHaveWithdrawn()public view isBeneficiary() returns(bool){return beneficiary_withdrawn[msg.sender];}\r\n\r\n    function userHaveReported()public view returns(bool){return fraud_reporters[msg.sender];}\r\n\r\n    function userHaveBeenRefunded()public view returns(bool){return user_refunded[msg.sender];}\r\n\r\n    function getDonationReward() external view returns(uint[] memory){\r\n        Library.DonationReward[] memory user_donations_rewards = donations_rewards[msg.sender];\r\n        uint[] memory rewards = new uint[](user_donations_rewards.length);\r\n\r\n        for(uint i = 0; i<user_donations_rewards.length; i++)\r\n            rewards[i] = user_donations_rewards[i].max_reward_index;\r\n\r\n        return rewards;\r\n    }\r\n\r\n    function getUserDonation()public view returns(uint[] memory){\r\n        Library.Donation[] memory user_donations = donations[msg.sender];\r\n        uint[] memory donations_amounts = new uint[](user_donations.length);\r\n\r\n        for(uint i = 0; i<donations_amounts.length; i++)\r\n            donations_amounts[i] = user_donations[i].amount;\r\n        \r\n        return donations_amounts;\r\n    }\r\n\r\n    function getUserRewards()public view returns(uint[] memory){\r\n        Library.DonationReward[] memory user_rewards = donations_rewards[msg.sender];\r\n        uint[] memory rewards = new uint[](user_rewards.length);\r\n\r\n        for(uint i = 0; i<rewards.length; i++)\r\n            rewards[i] = user_rewards[i].max_reward_index;\r\n            \r\n        return rewards;\r\n    }\r\n\r\n\r\n}",
  "sourcePath": "G:\\SSD Workspace\\Ethereum\\BitCollect\\contracts\\Campaign.sol",
  "compiler": {
    "name": "solc",
    "version": "0.6.0+commit.26b70077.Emscripten.clang"
  },
  "schemaVersion": "3.2.0",
  "updatedAt": "2020-07-21T21:44:19.510Z",
  "devdoc": {
    "methods": {}
  },
  "userdoc": {
    "methods": {}
  }
}