{
  "contractName": "Campaign",
  "abi": [
    {
      "inputs": [
        {
          "internalType": "address[]",
          "name": "_organizers",
          "type": "address[]"
        },
        {
          "internalType": "address payable[]",
          "name": "_beneficiaries",
          "type": "address[]"
        },
        {
          "internalType": "uint256",
          "name": "_end_date",
          "type": "uint256"
        },
        {
          "internalType": "uint256[]",
          "name": "rewards_costs",
          "type": "uint256[]"
        },
        {
          "internalType": "uint256",
          "name": "fraudThreshold",
          "type": "uint256"
        },
        {
          "internalType": "string",
          "name": "campaign_info_hashes",
          "type": "string"
        }
      ],
      "payable": false,
      "stateMutability": "nonpayable",
      "type": "constructor"
    },
    {
      "anonymous": false,
      "inputs": [
        {
          "indexed": false,
          "internalType": "enum Campaign.State",
          "name": "s",
          "type": "uint8"
        }
      ],
      "name": "campainStatus",
      "type": "event"
    },
    {
      "anonymous": false,
      "inputs": [],
      "name": "donationRewardUnlocked",
      "type": "event"
    },
    {
      "anonymous": false,
      "inputs": [],
      "name": "donationSuccess",
      "type": "event"
    },
    {
      "anonymous": false,
      "inputs": [
        {
          "indexed": false,
          "internalType": "enum Campaign.State",
          "name": "s",
          "type": "uint8"
        }
      ],
      "name": "fraudReported",
      "type": "event"
    },
    {
      "anonymous": false,
      "inputs": [
        {
          "indexed": false,
          "internalType": "uint256",
          "name": "amount",
          "type": "uint256"
        },
        {
          "indexed": false,
          "internalType": "uint256",
          "name": "plus",
          "type": "uint256"
        }
      ],
      "name": "refoundEmitted",
      "type": "event"
    },
    {
      "anonymous": false,
      "inputs": [
        {
          "indexed": false,
          "internalType": "address",
          "name": "beneficiary",
          "type": "address"
        },
        {
          "indexed": false,
          "internalType": "uint256",
          "name": "amount",
          "type": "uint256"
        }
      ],
      "name": "withdrawSuccess",
      "type": "event"
    },
    {
      "constant": true,
      "inputs": [
        {
          "internalType": "uint256",
          "name": "",
          "type": "uint256"
        }
      ],
      "name": "beneficiaries",
      "outputs": [
        {
          "internalType": "address payable",
          "name": "",
          "type": "address"
        }
      ],
      "payable": false,
      "stateMutability": "view",
      "type": "function"
    },
    {
      "constant": true,
      "inputs": [
        {
          "internalType": "address",
          "name": "",
          "type": "address"
        }
      ],
      "name": "beneficiaries_map",
      "outputs": [
        {
          "internalType": "uint256",
          "name": "amount",
          "type": "uint256"
        },
        {
          "internalType": "bool",
          "name": "flag",
          "type": "bool"
        }
      ],
      "payable": false,
      "stateMutability": "view",
      "type": "function"
    },
    {
      "constant": true,
      "inputs": [],
      "name": "campaign_end_timestamp",
      "outputs": [
        {
          "internalType": "uint256",
          "name": "",
          "type": "uint256"
        }
      ],
      "payable": false,
      "stateMutability": "view",
      "type": "function"
    },
    {
      "constant": true,
      "inputs": [
        {
          "internalType": "uint256",
          "name": "",
          "type": "uint256"
        }
      ],
      "name": "donors",
      "outputs": [
        {
          "internalType": "address",
          "name": "",
          "type": "address"
        }
      ],
      "payable": false,
      "stateMutability": "view",
      "type": "function"
    },
    {
      "constant": true,
      "inputs": [],
      "name": "info_hashes",
      "outputs": [
        {
          "internalType": "string",
          "name": "",
          "type": "string"
        }
      ],
      "payable": false,
      "stateMutability": "view",
      "type": "function"
    },
    {
      "constant": true,
      "inputs": [
        {
          "internalType": "uint256",
          "name": "",
          "type": "uint256"
        }
      ],
      "name": "organizers",
      "outputs": [
        {
          "internalType": "address",
          "name": "",
          "type": "address"
        }
      ],
      "payable": false,
      "stateMutability": "view",
      "type": "function"
    },
    {
      "constant": true,
      "inputs": [
        {
          "internalType": "uint256",
          "name": "",
          "type": "uint256"
        }
      ],
      "name": "rewards_prices",
      "outputs": [
        {
          "internalType": "uint256",
          "name": "",
          "type": "uint256"
        }
      ],
      "payable": false,
      "stateMutability": "view",
      "type": "function"
    },
    {
      "constant": true,
      "inputs": [],
      "name": "state",
      "outputs": [
        {
          "internalType": "enum Campaign.State",
          "name": "",
          "type": "uint8"
        }
      ],
      "payable": false,
      "stateMutability": "view",
      "type": "function"
    },
    {
      "constant": true,
      "inputs": [],
      "name": "thresholdFraud",
      "outputs": [
        {
          "internalType": "uint256",
          "name": "",
          "type": "uint256"
        }
      ],
      "payable": false,
      "stateMutability": "view",
      "type": "function"
    },
    {
      "constant": false,
      "inputs": [
        {
          "internalType": "address[]",
          "name": "to",
          "type": "address[]"
        },
        {
          "internalType": "uint256[]",
          "name": "wei_partition",
          "type": "uint256[]"
        },
        {
          "internalType": "string",
          "name": "contact_email",
          "type": "string"
        }
      ],
      "name": "startCampaign",
      "outputs": [],
      "payable": true,
      "stateMutability": "payable",
      "type": "function"
    },
    {
      "constant": false,
      "inputs": [
        {
          "internalType": "address[]",
          "name": "to",
          "type": "address[]"
        },
        {
          "internalType": "uint256[]",
          "name": "wei_partition",
          "type": "uint256[]"
        },
        {
          "internalType": "string",
          "name": "contact_email",
          "type": "string"
        }
      ],
      "name": "makeDonation",
      "outputs": [],
      "payable": true,
      "stateMutability": "payable",
      "type": "function"
    },
    {
      "constant": false,
      "inputs": [],
      "name": "beneficiaryWithdraw",
      "outputs": [],
      "payable": false,
      "stateMutability": "nonpayable",
      "type": "function"
    },
    {
      "constant": false,
      "inputs": [],
      "name": "deactivateCampaign",
      "outputs": [],
      "payable": false,
      "stateMutability": "nonpayable",
      "type": "function"
    },
    {
      "constant": true,
      "inputs": [
        {
          "internalType": "address[]",
          "name": "_ben",
          "type": "address[]"
        }
      ],
      "name": "getBeneficiariesRewards",
      "outputs": [
        {
          "internalType": "uint256[]",
          "name": "",
          "type": "uint256[]"
        }
      ],
      "payable": false,
      "stateMutability": "view",
      "type": "function"
    },
    {
      "constant": true,
      "inputs": [],
      "name": "getDonationReward",
      "outputs": [
        {
          "internalType": "uint256[]",
          "name": "",
          "type": "uint256[]"
        }
      ],
      "payable": false,
      "stateMutability": "view",
      "type": "function"
    },
    {
      "constant": false,
      "inputs": [],
      "name": "reportFraud",
      "outputs": [],
      "payable": true,
      "stateMutability": "payable",
      "type": "function"
    },
    {
      "constant": false,
      "inputs": [],
      "name": "fraudWithdraw",
      "outputs": [],
      "payable": true,
      "stateMutability": "payable",
      "type": "function"
    },
    {
      "constant": true,
      "inputs": [],
      "name": "getAllBeneficiaries",
      "outputs": [
        {
          "internalType": "address payable[]",
          "name": "",
          "type": "address[]"
        }
      ],
      "payable": false,
      "stateMutability": "view",
      "type": "function"
    },
    {
      "constant": true,
      "inputs": [],
      "name": "getAllOrganizers",
      "outputs": [
        {
          "internalType": "address[]",
          "name": "",
          "type": "address[]"
        }
      ],
      "payable": false,
      "stateMutability": "view",
      "type": "function"
    },
    {
      "constant": true,
      "inputs": [],
      "name": "getAllRewardsPrices",
      "outputs": [
        {
          "internalType": "uint256[]",
          "name": "",
          "type": "uint256[]"
        }
      ],
      "payable": false,
      "stateMutability": "view",
      "type": "function"
    },
    {
      "constant": true,
      "inputs": [],
      "name": "getReportsNumber",
      "outputs": [
        {
          "internalType": "uint256",
          "name": "",
          "type": "uint256"
        }
      ],
      "payable": false,
      "stateMutability": "view",
      "type": "function"
    },
    {
      "constant": true,
      "inputs": [
        {
          "internalType": "address",
          "name": "b",
          "type": "address"
        }
      ],
      "name": "getBeneficiaryReward",
      "outputs": [
        {
          "internalType": "uint256",
          "name": "",
          "type": "uint256"
        }
      ],
      "payable": false,
      "stateMutability": "view",
      "type": "function"
    },
    {
      "constant": true,
      "inputs": [],
      "name": "getUserDonation",
      "outputs": [
        {
          "internalType": "uint256[]",
          "name": "",
          "type": "uint256[]"
        }
      ],
      "payable": false,
      "stateMutability": "view",
      "type": "function"
    },
    {
      "constant": true,
      "inputs": [],
      "name": "getUserRewards",
      "outputs": [
        {
          "internalType": "uint256[]",
          "name": "",
          "type": "uint256[]"
        }
      ],
      "payable": false,
      "stateMutability": "view",
      "type": "function"
    },
    {
      "constant": true,
      "inputs": [],
      "name": "userHaveReported",
      "outputs": [
        {
          "internalType": "bool",
          "name": "",
          "type": "bool"
        }
      ],
      "payable": false,
      "stateMutability": "view",
      "type": "function"
    },
    {
      "constant": true,
      "inputs": [],
      "name": "organizerHaveDonated",
      "outputs": [
        {
          "internalType": "bool",
          "name": "",
          "type": "bool"
        }
      ],
      "payable": false,
      "stateMutability": "view",
      "type": "function"
    }
  ],
  "bytecode": "0x60806040523480156200001157600080fd5b506040516200437238038062004372833981810160405260c08110156200003757600080fd5b81019080805160405193929190846401000000008211156200005857600080fd5b838201915060208201858111156200006f57600080fd5b82518660208202830111640100000000821117156200008d57600080fd5b8083526020830192505050908051906020019060200280838360005b83811015620000c6578082015181840152602081019050620000a9565b5050505090500160405260200180516040519392919084640100000000821115620000f057600080fd5b838201915060208201858111156200010757600080fd5b82518660208202830111640100000000821117156200012557600080fd5b8083526020830192505050908051906020019060200280838360005b838110156200015e57808201518184015260208101905062000141565b5050505090500160405260200180519060200190929190805160405193929190846401000000008211156200019257600080fd5b83820191506020820185811115620001a957600080fd5b8251866020820283011164010000000082111715620001c757600080fd5b8083526020830192505050908051906020019060200280838360005b8381101562000200578082015181840152602081019050620001e3565b5050505090500160405260200180519060200190929190805160405193929190846401000000008211156200023457600080fd5b838201915060208201858111156200024b57600080fd5b82518660018202830111640100000000821117156200026957600080fd5b8083526020830192505050908051906020019080838360005b838110156200029f57808201518184015260208101905062000282565b50505050905090810190601f168015620002cd5780820380516001836020036101000a031916815260200191505b5060405250505060008090505b86518110156200051d576001878281518110620002f357fe5b602002602001015190806001815401808255809150509060018203906000526020600020016000909192909190916101000a81548173ffffffffffffffffffffffffffffffffffffffff021916908373ffffffffffffffffffffffffffffffffffffffff160217905550506000600260008984815181106200037157fe5b602002602001015173ffffffffffffffffffffffffffffffffffffffff1673ffffffffffffffffffffffffffffffffffffffff16815260200190815260200160002060006101000a81548160ff0219169083151502179055506004868281518110620003d957fe5b602002602001015190806001815401808255809150509060018203906000526020600020016000909192909190916101000a81548173ffffffffffffffffffffffffffffffffffffffff021916908373ffffffffffffffffffffffffffffffffffffffff160217905550506000600560008884815181106200045757fe5b602002602001015173ffffffffffffffffffffffffffffffffffffffff1673ffffffffffffffffffffffffffffffffffffffff16815260200190815260200160002060000181905550600160056000888481518110620004b357fe5b602002602001015173ffffffffffffffffffffffffffffffffffffffff1673ffffffffffffffffffffffffffffffffffffffff16815260200190815260200160002060010160006101000a81548160ff0219169083151502179055508080600101915050620002da565b5083600e8190555082600990805190602001906200053d929190620005f2565b5080600f90805190602001906200055692919062000644565b5060008060006101000a81548160ff021916908360048111156200057657fe5b021790555081600a819055506000600b8190555060006003819055507f66fe4817acfd8756899e5d70b8db5e2f51795f380411f9aa53f14f246cd7d2046000809054906101000a900460ff1660405180826004811115620005d357fe5b60ff16815260200191505060405180910390a1505050505050620006f3565b82805482825590600052602060002090810192821562000631579160200282015b828111156200063057825182559160200191906001019062000613565b5b509050620006409190620006cb565b5090565b828054600181600116156101000203166002900490600052602060002090601f016020900481019282601f106200068757805160ff1916838001178555620006b8565b82800160010185558215620006b8579182015b82811115620006b75782518255916020019190600101906200069a565b5b509050620006c79190620006cb565b5090565b620006f091905b80821115620006ec576000816000905550600101620006d2565b5090565b90565b613c6f80620007036000396000f3fe6080604052600436106101815760003560e01c80639c378d80116100d1578063c3a4de361161008a578063dd9c331b11610064578063dd9c331b14610a81578063e86ae70014610aed578063efeb5e5814610c07578063f19f892d14610c8257610181565b8063c3a4de36146107a9578063d059de1914610839578063dd4c844114610a1c57610181565b80639c378d80146106395780639ec25aa514610643578063a4c8be1e14610672578063a4e00d6e146106ed578063c0d1850214610704578063c19d93fb1461077057610181565b80635859682b1161013e5780637f1e573c116101185780637f1e573c1461053857806383fa9ec6146105a457806395931ba2146105d35780639af6549a1461062257610181565b80635859682b146104725780635d3e96131461049d5780636cd9b6081461050d57610181565b806304dd9686146101865780631e67f721146101f2578063248815361461025e5780632f14bae8146103815780634abfa163146103ed5780634f42b0d814610468575b600080fd5b34801561019257600080fd5b5061019b610cad565b6040518080602001828103825283818151815260200191508051906020019060200280838360005b838110156101de5780820151818401526020810190506101c3565b505050509050019250505060405180910390f35b3480156101fe57600080fd5b50610207610ec1565b6040518080602001828103825283818151815260200191508051906020019060200280838360005b8381101561024a57808201518184015260208101905061022f565b505050509050019250505060405180910390f35b61037f6004803603606081101561027457600080fd5b810190808035906020019064010000000081111561029157600080fd5b8201836020820111156102a357600080fd5b803590602001918460208302840111640100000000831117156102c557600080fd5b9091929391929390803590602001906401000000008111156102e657600080fd5b8201836020820111156102f857600080fd5b8035906020019184602083028401116401000000008311171561031a57600080fd5b90919293919293908035906020019064010000000081111561033b57600080fd5b82018360208201111561034d57600080fd5b8035906020019184600183028401116401000000008311171561036f57600080fd5b9091929391929390505050610f4f565b005b34801561038d57600080fd5b506103966115af565b6040518080602001828103825283818151815260200191508051906020019060200280838360005b838110156103d95780820151818401526020810190506103be565b505050509050019250505060405180910390f35b3480156103f957600080fd5b506104266004803603602081101561041057600080fd5b810190808035906020019092919050505061163d565b604051808273ffffffffffffffffffffffffffffffffffffffff1673ffffffffffffffffffffffffffffffffffffffff16815260200191505060405180910390f35b610470611679565b005b34801561047e57600080fd5b50610487611c05565b6040518082815260200191505060405180910390f35b3480156104a957600080fd5b506104ec600480360360208110156104c057600080fd5b81019080803573ffffffffffffffffffffffffffffffffffffffff169060200190929190505050611c12565b60405180838152602001821515151581526020019250505060405180910390f35b34801561051957600080fd5b50610522611c43565b6040518082815260200191505060405180910390f35b34801561054457600080fd5b5061054d611c49565b6040518080602001828103825283818151815260200191508051906020019060200280838360005b83811015610590578082015181840152602081019050610575565b505050509050019250505060405180910390f35b3480156105b057600080fd5b506105b9611e23565b604051808215151515815260200191505060405180910390f35b3480156105df57600080fd5b5061060c600480360360208110156105f657600080fd5b8101908080359060200190929190505050611e7d565b6040518082815260200191505060405180910390f35b34801561062e57600080fd5b50610637611e9e565b005b61064161233d565b005b34801561064f57600080fd5b506106586125ee565b604051808215151515815260200191505060405180910390f35b34801561067e57600080fd5b506106ab6004803603602081101561069557600080fd5b810190808035906020019092919050505061274c565b604051808273ffffffffffffffffffffffffffffffffffffffff1673ffffffffffffffffffffffffffffffffffffffff16815260200191505060405180910390f35b3480156106f957600080fd5b50610702612788565b005b34801561071057600080fd5b506107196129d1565b6040518080602001828103825283818151815260200191508051906020019060200280838360005b8381101561075c578082015181840152602081019050610741565b505050509050019250505060405180910390f35b34801561077c57600080fd5b50610785612bab565b6040518082600481111561079557fe5b60ff16815260200191505060405180910390f35b3480156107b557600080fd5b506107be612bbd565b6040518080602001828103825283818151815260200191508051906020019080838360005b838110156107fe5780820151818401526020810190506107e3565b50505050905090810190601f16801561082b5780820380516001836020036101000a031916815260200191505b509250505060405180910390f35b610a1a6004803603606081101561084f57600080fd5b810190808035906020019064010000000081111561086c57600080fd5b82018360208201111561087e57600080fd5b803590602001918460208302840111640100000000831117156108a057600080fd5b919080806020026020016040519081016040528093929190818152602001838360200280828437600081840152601f19601f8201169050808301925050505050505091929192908035906020019064010000000081111561090057600080fd5b82018360208201111561091257600080fd5b8035906020019184602083028401116401000000008311171561093457600080fd5b919080806020026020016040519081016040528093929190818152602001838360200280828437600081840152601f19601f8201169050808301925050505050505091929192908035906020019064010000000081111561099457600080fd5b8201836020820111156109a657600080fd5b803590602001918460018302840111640100000000831117156109c857600080fd5b91908080601f016020809104026020016040519081016040528093929190818152602001838380828437600081840152601f19601f820116905080830192505050505050509192919290505050612c5b565b005b348015610a2857600080fd5b50610a6b60048036036020811015610a3f57600080fd5b81019080803573ffffffffffffffffffffffffffffffffffffffff1690602001909291905050506133b1565b6040518082815260200191505060405180910390f35b348015610a8d57600080fd5b50610a966133fd565b6040518080602001828103825283818151815260200191508051906020019060200280838360005b83811015610ad9578082015181840152602081019050610abe565b505050509050019250505060405180910390f35b348015610af957600080fd5b50610bb060048036036020811015610b1057600080fd5b8101908080359060200190640100000000811115610b2d57600080fd5b820183602082011115610b3f57600080fd5b80359060200191846020830284011164010000000083111715610b6157600080fd5b919080806020026020016040519081016040528093929190818152602001838360200280828437600081840152601f19601f820116905080830192505050505050509192919290505050613455565b6040518080602001828103825283818151815260200191508051906020019060200280838360005b83811015610bf3578082015181840152602081019050610bd8565b505050509050019250505060405180910390f35b348015610c1357600080fd5b50610c4060048036036020811015610c2a57600080fd5b8101908080359060200190929190505050613648565b604051808273ffffffffffffffffffffffffffffffffffffffff1673ffffffffffffffffffffffffffffffffffffffff16815260200191505060405180910390f35b348015610c8e57600080fd5b50610c97613684565b6040518082815260200191505060405180910390f35b606080600760003373ffffffffffffffffffffffffffffffffffffffff1673ffffffffffffffffffffffffffffffffffffffff168152602001908152602001600020805480602002602001604051908101604052809291908181526020016000905b82821015610e3157838290600052602060002090600302016040518060600160405290816000820154815260200160018201805480602002602001604051908101604052809291908181526020018280548015610dc157602002820191906000526020600020905b8160009054906101000a900473ffffffffffffffffffffffffffffffffffffffff1673ffffffffffffffffffffffffffffffffffffffff1681526020019060010190808311610d77575b5050505050815260200160028201805480602002602001604051908101604052809291908181526020018280548015610e1957602002820191906000526020600020905b815481526020019060010190808311610e05575b50505050508152505081526020019060010190610d0f565b50505050905060608151604051908082528060200260200182016040528015610e695781602001602082028038833980820191505090505b50905060008090505b8151811015610eb857828181518110610e8757fe5b602002602001015160000151828281518110610e9f57fe5b6020026020010181815250508080600101915050610e72565b50809250505090565b60606001805480602002602001604051908101604052809291908181526020018280548015610f4557602002820191906000526020600020905b8160009054906101000a900473ffffffffffffffffffffffffffffffffffffffff1673ffffffffffffffffffffffffffffffffffffffff1681526020019060010190808311610efb575b5050505050905090565b600e54421115610fc7576040517f08c379a00000000000000000000000000000000000000000000000000000000081526004018080602001828103825260208152602001807f4572726f723a2063616d706169676e20646561646c696e65206578706972656481525060200191505060405180910390fd5b33600080905060008090505b60018054905081108015610fe5575081155b15611067578273ffffffffffffffffffffffffffffffffffffffff166001828154811061100e57fe5b9060005260206000200160009054906101000a900473ffffffffffffffffffffffffffffffffffffffff1673ffffffffffffffffffffffffffffffffffffffff16141561105a57600191505b8080600101915050610fd3565b50806110be576040517f08c379a0000000000000000000000000000000000000000000000000000000008152600401808060200182810382526026815260200180613b2b6026913960400191505060405180910390fd5b878780806020026020016040519081016040528093929190818152602001838360200280828437600081840152601f19601f82011690508083019250505050505050600080905060008090505b6004805490508110801561111d575081155b156111c75760001515600560006004848154811061113757fe5b9060005260206000200160009054906101000a900473ffffffffffffffffffffffffffffffffffffffff1673ffffffffffffffffffffffffffffffffffffffff1673ffffffffffffffffffffffffffffffffffffffff16815260200190815260200160002060010160009054906101000a900460ff16151514156111ba57600191505b808060010191505061110b565b506000151581151514611225576040517f08c379a000000000000000000000000000000000000000000000000000000000815260040180806020018281038252603d815260200180613bc8603d913960400191505060405180910390fd5b60008060009054906101000a900460ff16600481111561124157fe5b81600481111561124d57fe5b146112a3576040517f08c379a000000000000000000000000000000000000000000000000000000000815260040180806020018281038252603e815260200180613971603e913960400191505060405180910390fd5b6113748b8b80806020026020016040519081016040528093929190818152602001838360200280828437600081840152601f19601f820116905080830192505050505050508a8a80806020026020016040519081016040528093929190818152602001838360200280828437600081840152601f19601f8201169050808301925050505050505089898080601f016020809104026020016040519081016040528093929190818152602001838380828437600081840152601f19601f82011690508083019250505050505050612c5b565b60001515600260003373ffffffffffffffffffffffffffffffffffffffff1673ffffffffffffffffffffffffffffffffffffffff16815260200190815260200160002060009054906101000a900460ff1615151415611426576001600260003373ffffffffffffffffffffffffffffffffffffffff1673ffffffffffffffffffffffffffffffffffffffff16815260200190815260200160002060006101000a81548160ff0219169083151502179055505b600080905060008090505b6001805490508110156114e45760011515600260006001848154811061145357fe5b9060005260206000200160009054906101000a900473ffffffffffffffffffffffffffffffffffffffff1673ffffffffffffffffffffffffffffffffffffffff1673ffffffffffffffffffffffffffffffffffffffff16815260200190815260200160002060009054906101000a900460ff16151514156114d75781806001019250505b8080600101915050611431565b503460036000828254019250508190555060018054905081141561152a5760016000806101000a81548160ff0219169083600481111561152057fe5b021790555061154e565b60008060006101000a81548160ff0219169083600481111561154857fe5b02179055505b7f66fe4817acfd8756899e5d70b8db5e2f51795f380411f9aa53f14f246cd7d2046000809054906101000a900460ff166040518082600481111561158e57fe5b60ff16815260200191505060405180910390a1505050505050505050505050565b6060600480548060200260200160405190810160405280929190818152602001828054801561163357602002820191906000526020600020905b8160009054906101000a900473ffffffffffffffffffffffffffffffffffffffff1673ffffffffffffffffffffffffffffffffffffffff16815260200190600101908083116115e9575b5050505050905090565b6006818154811061164a57fe5b906000526020600020016000915054906101000a900473ffffffffffffffffffffffffffffffffffffffff1681565b60046000809054906101000a900460ff16600481111561169557fe5b8160048111156116a157fe5b146116f7576040517f08c379a000000000000000000000000000000000000000000000000000000000815260040180806020018281038252603e815260200180613971603e913960400191505060405180910390fd5b600060011515600260003373ffffffffffffffffffffffffffffffffffffffff1673ffffffffffffffffffffffffffffffffffffffff16815260200190815260200160002060009054906101000a900460ff161515141561175b5760019050611760565b600090505b80600760003373ffffffffffffffffffffffffffffffffffffffff1673ffffffffffffffffffffffffffffffffffffffff1681526020019081526020016000208054905011806117ef57506000600d60003373ffffffffffffffffffffffffffffffffffffffff1673ffffffffffffffffffffffffffffffffffffffff16815260200190815260200160002054115b611844576040517f08c379a0000000000000000000000000000000000000000000000000000000008152600401808060200182810382526040815260200180613aeb6040913960400191505060405180910390fd5b60008090506060600760003373ffffffffffffffffffffffffffffffffffffffff1673ffffffffffffffffffffffffffffffffffffffff168152602001908152602001600020805480602002602001604051908101604052809291908181526020016000905b828210156119cc5783829060005260206000209060030201604051806060016040529081600082015481526020016001820180548060200260200160405190810160405280929190818152602001828054801561195c57602002820191906000526020600020905b8160009054906101000a900473ffffffffffffffffffffffffffffffffffffffff1673ffffffffffffffffffffffffffffffffffffffff1681526020019060010190808311611912575b50505050508152602001600282018054806020026020016040519081016040528092919081815260200182805480156119b457602002820191906000526020600020905b8154815260200190600101908083116119a0575b505050505081525050815260200190600101906118aa565b5050505090505b8051831015611a05578083815181106119e857fe5b6020026020010151600001518201915082806001019350506119d3565b600760003373ffffffffffffffffffffffffffffffffffffffff1673ffffffffffffffffffffffffffffffffffffffff1681526020019081526020016000206000611a50919061368a565b60008090506000600d60003373ffffffffffffffffffffffffffffffffffffffff1673ffffffffffffffffffffffffffffffffffffffff168152602001908152602001600020541115611af657600c8054905060035481611aad57fe5b0490506000600d60003373ffffffffffffffffffffffffffffffffffffffff1673ffffffffffffffffffffffffffffffffffffffff168152602001908152602001600020819055505b60003373ffffffffffffffffffffffffffffffffffffffff1682850160405180600001905060006040518083038185875af1925050503d8060008114611b58576040519150601f19603f3d011682016040523d82523d6000602084013e611b5d565b606091505b505090506001151581151514611bbe576040517f08c379a0000000000000000000000000000000000000000000000000000000008152600401808060200182810382526026815260200180613a4a6026913960400191505060405180910390fd5b7f9bb5f29b9278b7f706a7caa67770ad63d5af89b481bdc02309439d76ca0a19df8483604051808381526020018281526020019250505060405180910390a1505050505050565b6000600c80549050905090565b60056020528060005260406000206000915090508060000154908060010160009054906101000a900460ff16905082565b600e5481565b606080600860003373ffffffffffffffffffffffffffffffffffffffff1673ffffffffffffffffffffffffffffffffffffffff168152602001908152602001600020805480602002602001604051908101604052809291908181526020016000905b82821015611d9357838290600052602060002090600302016040518060600160405290816000820154815260200160018201548152602001600282018054600181600116156101000203166002900480601f016020809104026020016040519081016040528092919081815260200182805460018160011615610100020316600290048015611d7b5780601f10611d5057610100808354040283529160200191611d7b565b820191906000526020600020905b815481529060010190602001808311611d5e57829003601f168201915b50505050508152505081526020019060010190611cab565b50505050905060608151604051908082528060200260200182016040528015611dcb5781602001602082028038833980820191505090505b50905060008090505b8251811015611e1a57828181518110611de957fe5b602002602001015160000151828281518110611e0157fe5b6020026020010181815250508080600101915050611dd4565b50809250505090565b600080600d60003373ffffffffffffffffffffffffffffffffffffffff1673ffffffffffffffffffffffffffffffffffffffff168152602001908152602001600020541115611e755760019050611e7a565b600090505b90565b60098181548110611e8a57fe5b906000526020600020016000915090505481565b3360011515600560008373ffffffffffffffffffffffffffffffffffffffff1673ffffffffffffffffffffffffffffffffffffffff16815260200190815260200160002060010160009054906101000a900460ff16151514611f4b576040517f08c379a00000000000000000000000000000000000000000000000000000000081526004018080602001828103825260318152602001806139f86031913960400191505060405180910390fd5b600e544211156120435760026000806101000a81548160ff02191690836004811115611f7357fe5b02179055506000600b541115612042576000600480549050600b5481611f9557fe5b04905060008090505b60048054905081101561203f57816005600060048481548110611fbd57fe5b9060005260206000200160009054906101000a900473ffffffffffffffffffffffffffffffffffffffff1673ffffffffffffffffffffffffffffffffffffffff1673ffffffffffffffffffffffffffffffffffffffff168152602001908152602001600020600001600082825401925050819055508080600101915050611f9e565b50505b5b6002600481111561205057fe5b6000809054906101000a900460ff16600481111561206a57fe5b146120dd576040517f08c379a000000000000000000000000000000000000000000000000000000000815260040180806020018281038252601f8152602001807f4572726f723a2063616d706169676e206e6f742079657420657870697265640081525060200191505060405180910390fd5b6000600560003373ffffffffffffffffffffffffffffffffffffffff1673ffffffffffffffffffffffffffffffffffffffff1681526020019081526020016000206000015411612178576040517f08c379a00000000000000000000000000000000000000000000000000000000081526004018080602001828103825260388152602001806139396038913960400191505060405180910390fd5b6000600560003373ffffffffffffffffffffffffffffffffffffffff1673ffffffffffffffffffffffffffffffffffffffff1681526020019081526020016000206000015490506000600560003373ffffffffffffffffffffffffffffffffffffffff1673ffffffffffffffffffffffffffffffffffffffff1681526020019081526020016000206000018190555060003373ffffffffffffffffffffffffffffffffffffffff168260405180600001905060006040518083038185875af1925050503d8060008114612267576040519150601f19603f3d011682016040523d82523d6000602084013e61226c565b606091505b5050905060011515811515146122cd576040517f08c379a0000000000000000000000000000000000000000000000000000000008152600401808060200182810382526021815260200180613a296021913960400191505060405180910390fd5b7f93740124b37b8f64043ddd706a499c11b58d2642466169e4c310f6b55ead67b63383604051808373ffffffffffffffffffffffffffffffffffffffff1673ffffffffffffffffffffffffffffffffffffffff1681526020018281526020019250505060405180910390a1505050565b60016000809054906101000a900460ff16600481111561235957fe5b81600481111561236557fe5b146123bb576040517f08c379a000000000000000000000000000000000000000000000000000000000815260040180806020018281038252603e815260200180613971603e913960400191505060405180910390fd5b6000600d60003373ffffffffffffffffffffffffffffffffffffffff1673ffffffffffffffffffffffffffffffffffffffff1681526020019081526020016000205414612453576040517f08c379a000000000000000000000000000000000000000000000000000000000815260040180806020018281038252602e815260200180613b51602e913960400191505060405180910390fd5b600034116124ac576040517f08c379a0000000000000000000000000000000000000000000000000000000008152600401808060200182810382526036815260200180613c056036913960400191505060405180910390fd5b34600d60003373ffffffffffffffffffffffffffffffffffffffff1673ffffffffffffffffffffffffffffffffffffffff16815260200190815260200160002081905550600c3390806001815401808255809150509060018203906000526020600020016000909192909190916101000a81548173ffffffffffffffffffffffffffffffffffffffff021916908373ffffffffffffffffffffffffffffffffffffffff1602179055505034600b60008282540192505081905550600a54600c80549050106125985760046000806101000a81548160ff0219169083600481111561259257fe5b02179055505b7ff0ffd3bfdde8a6f01970d2ce17ab4bdb3d8ea65ed7efca58c63c1c0cc7a8a1826000809054906101000a900460ff16604051808260048111156125d857fe5b60ff16815260200191505060405180910390a150565b600033600080905060008090505b6001805490508110801561260e575081155b15612690578273ffffffffffffffffffffffffffffffffffffffff166001828154811061263757fe5b9060005260206000200160009054906101000a900473ffffffffffffffffffffffffffffffffffffffff1673ffffffffffffffffffffffffffffffffffffffff16141561268357600191505b80806001019150506125fc565b50806126e7576040517f08c379a0000000000000000000000000000000000000000000000000000000008152600401808060200182810382526026815260200180613b2b6026913960400191505060405180910390fd5b600260003373ffffffffffffffffffffffffffffffffffffffff1673ffffffffffffffffffffffffffffffffffffffff16815260200190815260200160002060009054906101000a900460ff16156127425760019250612747565b600092505b505090565b6001818154811061275957fe5b906000526020600020016000915054906101000a900473ffffffffffffffffffffffffffffffffffffffff1681565b33600080905060008090505b600180549050811080156127a6575081155b15612828578273ffffffffffffffffffffffffffffffffffffffff16600182815481106127cf57fe5b9060005260206000200160009054906101000a900473ffffffffffffffffffffffffffffffffffffffff1673ffffffffffffffffffffffffffffffffffffffff16141561281b57600191505b8080600101915050612794565b508061287f576040517f08c379a0000000000000000000000000000000000000000000000000000000008152600401808060200182810382526026815260200180613b2b6026913960400191505060405180910390fd5b60026000809054906101000a900460ff16600481111561289b57fe5b8160048111156128a757fe5b146128fd576040517f08c379a000000000000000000000000000000000000000000000000000000000815260040180806020018281038252603e815260200180613971603e913960400191505060405180910390fd5b60004714612956576040517f08c379a0000000000000000000000000000000000000000000000000000000008152600401808060200182810382526039815260200180613a706039913960400191505060405180910390fd5b60036000806101000a81548160ff0219169083600481111561297457fe5b02179055507f66fe4817acfd8756899e5d70b8db5e2f51795f380411f9aa53f14f246cd7d2046000809054906101000a900460ff16604051808260048111156129b957fe5b60ff16815260200191505060405180910390a1505050565b606080600860003373ffffffffffffffffffffffffffffffffffffffff1673ffffffffffffffffffffffffffffffffffffffff168152602001908152602001600020805480602002602001604051908101604052809291908181526020016000905b82821015612b1b57838290600052602060002090600302016040518060600160405290816000820154815260200160018201548152602001600282018054600181600116156101000203166002900480601f016020809104026020016040519081016040528092919081815260200182805460018160011615610100020316600290048015612b035780601f10612ad857610100808354040283529160200191612b03565b820191906000526020600020905b815481529060010190602001808311612ae657829003601f168201915b50505050508152505081526020019060010190612a33565b50505050905060608151604051908082528060200260200182016040528015612b535781602001602082028038833980820191505090505b50905060008090505b8151811015612ba257828181518110612b7157fe5b602002602001015160000151828281518110612b8957fe5b6020026020010181815250508080600101915050612b5c565b50809250505090565b6000809054906101000a900460ff1681565b600f8054600181600116156101000203166002900480601f016020809104026020016040519081016040528092919081815260200182805460018160011615610100020316600290048015612c535780601f10612c2857610100808354040283529160200191612c53565b820191906000526020600020905b815481529060010190602001808311612c3657829003601f168201915b505050505081565b600e54421115612cd3576040517f08c379a00000000000000000000000000000000000000000000000000000000081526004018080602001828103825260208152602001807f4572726f723a2063616d706169676e20646561646c696e65206578706972656481525060200191505060405180910390fd5b82600080905060008090505b60048054905081108015612cf1575081155b15612d9b57600015156005600060048481548110612d0b57fe5b9060005260206000200160009054906101000a900473ffffffffffffffffffffffffffffffffffffffff1673ffffffffffffffffffffffffffffffffffffffff1673ffffffffffffffffffffffffffffffffffffffff16815260200190815260200160002060010160009054906101000a900460ff1615151415612d8e57600191505b8080600101915050612cdf565b506000151581151514612df9576040517f08c379a000000000000000000000000000000000000000000000000000000000815260040180806020018281038252603d815260200180613bc8603d913960400191505060405180910390fd5b60016004811115612e0657fe5b6000809054906101000a900460ff166004811115612e2057fe5b1480612eac575060006004811115612e3457fe5b6000809054906101000a900460ff166004811115612e4e57fe5b148015612eab575060001515600260003373ffffffffffffffffffffffffffffffffffffffff1673ffffffffffffffffffffffffffffffffffffffff16815260200190815260200160002060009054906101000a900460ff161515145b5b612f01576040517f08c379a0000000000000000000000000000000000000000000000000000000008152600401808060200182810382526049815260200180613b7f6049913960600191505060405180910390fd5b60003411612f77576040517f08c379a00000000000000000000000000000000000000000000000000000000081526004018080602001828103825260158152602001807f4572726f723a2030207765692070726f7669646564000000000000000000000081525060200191505060405180910390fd5b8351855114612fd1576040517f08c379a0000000000000000000000000000000000000000000000000000000008152600401808060200182810382526042815260200180613aa96042913960600191505060405180910390fd5b600080905060008090505b855181101561300a57858181518110612ff157fe5b6020026020010151820191508080600101915050612fdc565b50803414613063576040517f08c379a00000000000000000000000000000000000000000000000000000000081526004018080602001828103825260498152602001806139af6049913960600191505060405180910390fd5b61306b6136ae565b34816000018181525050868160200181905250858160400181905250600760003373ffffffffffffffffffffffffffffffffffffffff1673ffffffffffffffffffffffffffffffffffffffff16815260200190815260200160002081908060018154018082558091505090600182039060005260206000209060030201600090919290919091506000820151816000015560208201518160010190805190602001906131189291906136cf565b506040820151816002019080519060200190613135929190613759565b5050505060006009805490501180156131665750600960008154811061315757fe5b90600052602060002001543410155b156132e9576131736137a6565b60008090505b600980549050811080156131a457506009818154811061319557fe5b90600052602060002001543410155b156131b6578080600101915050613179565b600181038260000181815250506001600760003373ffffffffffffffffffffffffffffffffffffffff1673ffffffffffffffffffffffffffffffffffffffff1681526020019081526020016000208054905003826020018181525050868260400181905250600860003373ffffffffffffffffffffffffffffffffffffffff1673ffffffffffffffffffffffffffffffffffffffff1681526020019081526020016000208290806001815401808255809150509060018203906000526020600020906003020160009091929091909150600082015181600001556020820151816001015560408201518160020190805190602001906132b69291906137c7565b505050507f744b881a25971efd286cf16da8b9c684ec04deeab58650ac9134f432baa30f1060405160405180910390a150505b60008090505b875181101561337b5786818151811061330457fe5b6020026020010151600560008a848151811061331c57fe5b602002602001015173ffffffffffffffffffffffffffffffffffffffff1673ffffffffffffffffffffffffffffffffffffffff1681526020019081526020016000206000016000828254019250508190555080806001019150506132ef565b507f69ee10f8865f0d317c7a1b74da8e2cbffcc7097a4077b37fb42fba449101f93560405160405180910390a150505050505050565b6000600560008373ffffffffffffffffffffffffffffffffffffffff1673ffffffffffffffffffffffffffffffffffffffff168152602001908152602001600020600001549050919050565b6060600980548060200260200160405190810160405280929190818152602001828054801561344b57602002820191906000526020600020905b815481526020019060010190808311613437575b5050505050905090565b606081600080905060008090505b60048054905081108015613475575081155b1561351f5760001515600560006004848154811061348f57fe5b9060005260206000200160009054906101000a900473ffffffffffffffffffffffffffffffffffffffff1673ffffffffffffffffffffffffffffffffffffffff1673ffffffffffffffffffffffffffffffffffffffff16815260200190815260200160002060010160009054906101000a900460ff161515141561351257600191505b8080600101915050613463565b50600015158115151461357d576040517f08c379a000000000000000000000000000000000000000000000000000000000815260040180806020018281038252603d815260200180613bc8603d913960400191505060405180910390fd5b606084516040519080825280602002602001820160405280156135af5781602001602082028038833980820191505090505b50905060008090505b855181101561363c57600560008783815181106135d157fe5b602002602001015173ffffffffffffffffffffffffffffffffffffffff1673ffffffffffffffffffffffffffffffffffffffff1681526020019081526020016000206000015482828151811061362357fe5b60200260200101818152505080806001019150506135b8565b50809350505050919050565b6004818154811061365557fe5b906000526020600020016000915054906101000a900473ffffffffffffffffffffffffffffffffffffffff1681565b600a5481565b50805460008255600302906000526020600020908101906136ab9190613847565b50565b60405180606001604052806000815260200160608152602001606081525090565b828054828255906000526020600020908101928215613748579160200282015b828111156137475782518260006101000a81548173ffffffffffffffffffffffffffffffffffffffff021916908373ffffffffffffffffffffffffffffffffffffffff160217905550916020019190600101906136ef565b5b509050613755919061388e565b5090565b828054828255906000526020600020908101928215613795579160200282015b82811115613794578251825591602001919060010190613779565b5b5090506137a291906138d1565b5090565b60405180606001604052806000815260200160008152602001606081525090565b828054600181600116156101000203166002900490600052602060002090601f016020900481019282601f1061380857805160ff1916838001178555613836565b82800160010185558215613836579182015b8281111561383557825182559160200191906001019061381a565b5b50905061384391906138d1565b5090565b61388b91905b808211156138875760008082016000905560018201600061386e91906138f6565b60028201600061387e9190613917565b5060030161384d565b5090565b90565b6138ce91905b808211156138ca57600081816101000a81549073ffffffffffffffffffffffffffffffffffffffff021916905550600101613894565b5090565b90565b6138f391905b808211156138ef5760008160009055506001016138d7565b5090565b90565b508054600082559060005260206000209081019061391491906138d1565b50565b508054600082559060005260206000209081019061393591906138d1565b5056fe4572726f723a2074686572652068617665206265656e206e6f20646f6e6174696f6e7320666f7220746869732062656e65666963696172794572726f723a2063616e6e6f742061636365737320746869732066756e6374696f6e616c6974792066726f6d207468652063757272656e742073746174654572726f723a20546f74616c20706f766964656420776569732061726520646966666572656e742066726f6d207468652070726f7669646564207765697320706172746974696f6e734572726f723a206f6e6c792062656e656669636961726965732063616e20616363657373207468652077697468647261774572726f723a205769746864726177207472616e73616374696f6e206572726f724572726f723a204672617564207265666f756e64207472616e73616374696f6e206572726f724572726f723a205761697420756e74696c20616c6c2062656e65666963696172696573207769746864726177207468656972207265776172644572726f723a2064657374696e61746f72732073697a6520697320646966666572656e742066726f6d2074686520776569277320706172746974696f6e2073697a65596f752068617665206e6f74206d61646520646f6e6174696f6e732f7265706f7274206f7220796f75206861766520616c72656164792077697468647261776e4572726f723a2066756e6374696f6e20726573657276656420746f206f7267616e697a6572734572726f723a20596f75206861766520616c7265616479207265706f7274656420746869732063616d706169676e4572726f723a205468652063616d706169676e206973206e6f742073746172746564206f7220796f75277265206e6f7420616e206f7267616e697a657220746f2073746172742069744572726f723a206f6e65206f72206d6f7265206f66207468652070726f76696465642062656e6566696369617269657320646f206e6f742065786973744572726f723a20596f75206e65656420746f20696e7665737420736f6d6520657468657220746f207265706f72742061206672617564a265627a7a7231582068da1775698de7da22be647ae59daa53d8d7fe72e1243d93bac27cf89e49db5664736f6c63430005100032",
  "source": "pragma solidity >=0.4.21 <0.7.0;\r\n\r\nimport \"./Library.sol\";\r\n\r\ncontract Campaign{\r\n\r\n    using Library for Library.Reward;\r\n    using Library for Library.Donation;\r\n    using Library for Library.DonationReward;\r\n    using Library for Library.FraudReporter;\r\n\r\n\r\n    enum State {PENDING, RUNNING, EXPIRED, DEACTIVATED, BLOCKED}\r\n    State public state;\r\n\r\n    address[] public organizers;\r\n    mapping(address => bool) private organizers_donation;\r\n    uint initial_donation_amount;\r\n\r\n    address payable[] public beneficiaries;\r\n    mapping(address => Library.Reward) public beneficiaries_map;\r\n\r\n    address[] public donors;\r\n    mapping(address => Library.Donation[]) private donations;\r\n    mapping(address => Library.DonationReward[]) private donations_rewards;\r\n\r\n    uint[] public rewards_prices;\r\n\r\n    uint public thresholdFraud;\r\n    uint fraud_report_amount;\r\n    address[] fraud_reporters;\r\n    mapping(address => uint) reports_investments;\r\n\r\n    uint public campaign_end_timestamp;\r\n    string public info_hashes;\r\n\r\n    event campainStatus(State s);\r\n    event donationSuccess();\r\n    event donationRewardUnlocked();\r\n    event withdrawSuccess(address beneficiary, uint amount);\r\n    event refoundEmitted(uint amount, uint plus);\r\n    event fraudReported(State s);\r\n\r\n    modifier isOrganizer(address expected) {\r\n        bool is_organizer = false;\r\n        for(uint i = 0; i<organizers.length && !is_organizer; i++){\r\n            if(organizers[i] == expected)\r\n                is_organizer = true;\r\n        }\r\n\r\n        require(is_organizer, \"Error: function reserved to organizers\");\r\n        _;\r\n    }\r\n\r\n    modifier isBeneficiary(address b){\r\n        require(beneficiaries_map[b].flag==true, \"Error: only beneficiaries can access the withdraw\");\r\n        _;\r\n    }\r\n\r\n    modifier requireState(State s){\r\n        require(s==state, \"Error: cannot access this functionality from the current state\");\r\n        _;\r\n    }\r\n\r\n    modifier beneficiariesExist(address[] memory b) {\r\n        bool error = false;\r\n        for(uint i = 0; i<beneficiaries.length && !error; i++){\r\n            if(beneficiaries_map[beneficiaries[i]].flag == false)\r\n                error = true;\r\n        }\r\n\r\n        require(error==false, \"Error: one or more of the provided beneficiaries do not exist\");\r\n        _;\r\n    }\r\n\r\n    modifier campaignNotEnded() {\r\n        require(block.timestamp <= campaign_end_timestamp, \"Error: campaign deadline expired\");\r\n        _;\r\n    }\r\n\r\n    modifier campaignExpired(){\r\n        if(block.timestamp > campaign_end_timestamp){\r\n             state = State.EXPIRED;\r\n            //Subdivide ether from reporter to all beneficiaries\r\n            if (fraud_report_amount > 0){\r\n                uint plus = uint(fraud_report_amount/beneficiaries.length);\r\n                for(uint i = 0; i<beneficiaries.length; i++)\r\n                    beneficiaries_map[beneficiaries[i]].amount += plus;\r\n            }\r\n        }\r\n        \r\n        require(state == State.EXPIRED, \"Error: campaign not yet expired\");\r\n        _;\r\n    }\r\n\r\n    constructor(address[] memory _organizers, address payable[] memory _beneficiaries, uint _end_date,\r\n    uint[] memory rewards_costs, uint fraudThreshold, string memory campaign_info_hashes) public {\r\n\r\n        for(uint i = 0; i < _organizers.length; i++) {\r\n            organizers.push(_organizers[i]);\r\n            organizers_donation[_organizers[i]] = false;\r\n\r\n            beneficiaries.push(_beneficiaries[i]);\r\n            beneficiaries_map[_beneficiaries[i]].amount = 0;\r\n            beneficiaries_map[_beneficiaries[i]].flag = true;\r\n        }\r\n\r\n        campaign_end_timestamp = _end_date;\r\n        rewards_prices = rewards_costs;\r\n        info_hashes = campaign_info_hashes;\r\n\r\n        state = State.PENDING;\r\n\r\n        thresholdFraud = fraudThreshold;\r\n        fraud_report_amount = 0;\r\n        initial_donation_amount = 0;\r\n\r\n        emit campainStatus(state);\r\n    }\r\n\r\n    function startCampaign(address[] calldata to, uint[] calldata wei_partition, string calldata contact_email)\r\n     campaignNotEnded() external payable isOrganizer(msg.sender) beneficiariesExist(to) requireState(State.PENDING){//RQ-PARAMS\r\n        \r\n        makeDonation(to, wei_partition, contact_email);\r\n\r\n        if(organizers_donation[msg.sender] == false)\r\n            organizers_donation[msg.sender] = true;\r\n\r\n        uint organizers_donors = 0;\r\n        for(uint i = 0; i<organizers.length; i++){\r\n            if(organizers_donation[organizers[i]] == true)\r\n                organizers_donors++;\r\n        }\r\n\r\n        initial_donation_amount += msg.value;\r\n\r\n        if(organizers_donors==organizers.length)\r\n            state = State.RUNNING;\r\n        else\r\n            state = State.PENDING;\r\n\r\n        emit campainStatus(state);\r\n    }\r\n\r\n\r\n    function makeDonation(address[] memory to, uint[] memory wei_partition, string memory contact_email)public payable\r\n     campaignNotEnded() beneficiariesExist(to){\r\n         \r\n        require(state==State.RUNNING || (state==State.PENDING && organizers_donation[msg.sender]==false),\r\n                \"Error: The campaign is not started or you're not an organizer to start it\");\r\n        require(msg.value>0, \"Error: 0 wei provided\");\r\n        require(to.length==wei_partition.length, \"Error: destinators size is different from the wei's partition size\");\r\n        \r\n        uint total_donation = 0;\r\n        for(uint i = 0; i<wei_partition.length; i++){\r\n            total_donation += wei_partition[i];\r\n        }\r\n        require(msg.value==total_donation,\"Error: Total povided weis are different from the provided weis partitions\");\r\n        \r\n\r\n        Library.Donation memory d;\r\n\r\n        d.amount = msg.value;\r\n        d.donation_beneficiaries = to;\r\n        d.danation_partitions = wei_partition;\r\n        donations[msg.sender].push(d);\r\n\r\n        //Check for rewards\r\n        if(rewards_prices.length>0 && msg.value>=rewards_prices[0]){\r\n            Library.DonationReward memory reward;\r\n            uint i = 0;\r\n            while(i<rewards_prices.length && msg.value>=rewards_prices[i])\r\n                i++;\r\n\r\n            reward.max_reward_index = i - 1;\r\n            reward.donation_index = donations[msg.sender].length - 1;\r\n            reward.email_contact = contact_email;\r\n\r\n            donations_rewards[msg.sender].push(reward);\r\n\r\n            emit donationRewardUnlocked();\r\n        }\r\n\r\n        for(uint i = 0; i<to.length; i++)\r\n            beneficiaries_map[to[i]].amount += wei_partition[i];\r\n\r\n        emit donationSuccess();\r\n    }\r\n\r\n\r\n    function beneficiaryWithdraw() external isBeneficiary(msg.sender) campaignExpired(){\r\n        require(beneficiaries_map[msg.sender].amount > 0, \"Error: there have been no donations for this beneficiary\");\r\n\r\n        uint amount = beneficiaries_map[msg.sender].amount;\r\n        beneficiaries_map[msg.sender].amount = 0;\r\n        (bool success, ) = msg.sender.call.value(amount)(\"\");\r\n\r\n        require(success==true, \"Error: Withdraw transaction error\");\r\n\r\n        emit withdrawSuccess(msg.sender,amount);\r\n\r\n    }\r\n\r\n\r\n    function deactivateCampaign() public isOrganizer(msg.sender) requireState(State.EXPIRED){\r\n        require(address(this).balance==0, \"Error: Wait until all beneficiaries withdraw their reward\");\r\n        state = State.DEACTIVATED;\r\n\r\n        emit campainStatus(state);\r\n    }\r\n\r\n    function getBeneficiariesRewards(address[] memory _ben) public view beneficiariesExist(_ben) returns(uint[] memory){\r\n        uint[] memory rewards = new uint[](_ben.length);\r\n        for(uint i = 0; i<_ben.length; i++)\r\n            rewards[i] = beneficiaries_map[_ben[i]].amount;\r\n\r\n        return rewards;\r\n    }\r\n\r\n\r\n    function getDonationReward() external view returns(uint[] memory){\r\n        Library.DonationReward[] memory user_donations_rewards = donations_rewards[msg.sender];\r\n        uint[] memory rewards = new uint[](user_donations_rewards.length);\r\n\r\n        for(uint i = 0; i<user_donations_rewards.length; i++)\r\n            rewards[i] = user_donations_rewards[i].max_reward_index;\r\n\r\n        return rewards;\r\n    }\r\n\r\n    function reportFraud() external payable requireState(State.RUNNING){\r\n        require(reports_investments[msg.sender]==0, \"Error: You have already reported this campaign\");\r\n        require(msg.value>0, \"Error: You need to invest some ether to report a fraud\");\r\n\r\n        reports_investments[msg.sender] = msg.value;\r\n        fraud_reporters.push(msg.sender);\r\n\r\n        fraud_report_amount += msg.value;\r\n\r\n        if(fraud_reporters.length >= thresholdFraud)\r\n            state = State.BLOCKED;\r\n\r\n        emit fraudReported(state);\r\n    }\r\n\r\n\r\n    function fraudWithdraw() external payable requireState(State.BLOCKED){\r\n        uint index;\r\n        if (organizers_donation[msg.sender]==true) //If organizer do not consider the firt donation sice it is the inital\r\n            index = 1;\r\n        else\r\n            index = 0;\r\n\r\n        require(donations[msg.sender].length>index || reports_investments[msg.sender]>0,\r\n        \"You have not made donations/report or you have already withdrawn\");\r\n\r\n        uint amount = 0;\r\n        Library.Donation[] memory user_donation = donations[msg.sender];\r\n        while(index < user_donation.length){\r\n            amount += user_donation[index].amount;\r\n            index++;\r\n        }\r\n\r\n        delete donations[msg.sender]; //remove all donation before refounding to avoid reentrancy\r\n\r\n        uint plus = 0;\r\n        if(reports_investments[msg.sender]>0){//If the sender is a reporter\r\n            plus = uint(initial_donation_amount/fraud_reporters.length);\r\n            reports_investments[msg.sender] = 0;  //remove reporter investment to avoid reentrancy\r\n        }\r\n\r\n        (bool success, ) = msg.sender.call.value(amount+plus)(\"\");\r\n        require(success==true, \"Error: Fraud refound transaction error\");\r\n\r\n        emit refoundEmitted(amount, plus);\r\n\r\n    }\r\n\r\n\r\n    //Dapp get information\r\n    function getAllBeneficiaries() public view returns(address payable[] memory){return beneficiaries;}\r\n\r\n    function getAllOrganizers() public view returns(address[] memory){return organizers;}\r\n\r\n    function getAllRewardsPrices() public view returns(uint[] memory){return rewards_prices;}\r\n\r\n    function getReportsNumber() public view returns(uint){return fraud_reporters.length;}\r\n\r\n    function getBeneficiaryReward(address b)public view returns(uint){return beneficiaries_map[b].amount;}\r\n\r\n    function getUserDonation()public view returns(uint[] memory){\r\n        Library.Donation[] memory user_donations = donations[msg.sender];\r\n        uint[] memory donations_amounts = new uint[](user_donations.length);\r\n\r\n        for(uint i = 0; i<donations_amounts.length; i++)\r\n            donations_amounts[i] = user_donations[i].amount;\r\n        \r\n        return donations_amounts;\r\n    }\r\n\r\n    function getUserRewards()public view returns(uint[] memory){\r\n        Library.DonationReward[] memory user_rewards = donations_rewards[msg.sender];\r\n        uint[] memory rewards = new uint[](user_rewards.length);\r\n\r\n        for(uint i = 0; i<rewards.length; i++)\r\n            rewards[i] = user_rewards[i].max_reward_index;\r\n            \r\n        return rewards;\r\n    }\r\n\r\n    function userHaveReported()public view returns(bool){\r\n        if(reports_investments[msg.sender]>0)\r\n            return true;\r\n        else\r\n            return false;\r\n    }\r\n\r\n    function organizerHaveDonated()public view isOrganizer(msg.sender) returns(bool) {\r\n        if(organizers_donation[msg.sender])\r\n            return true;\r\n        else\r\n            return false;\r\n    }\r\n\r\n\r\n}",
  "sourcePath": "G:\\SSD Workspace\\Ethereum\\BitCollect\\contracts\\Campaign.sol",
  "compiler": {
    "name": "solc",
    "version": "0.5.16+commit.9c3226ce.Emscripten.clang"
  },
  "schemaVersion": "3.2.0",
  "updatedAt": "2020-07-15T08:33:48.323Z",
  "devdoc": {
    "methods": {}
  },
  "userdoc": {
    "methods": {}
  }
}