{
  "contractName": "Campaign",
  "abi": [
    {
      "inputs": [
        {
          "internalType": "address[]",
          "name": "_organizers",
          "type": "address[]"
        },
        {
          "internalType": "address payable[]",
          "name": "_beneficiaries",
          "type": "address[]"
        },
        {
          "internalType": "uint256",
          "name": "_end_date",
          "type": "uint256"
        },
        {
          "internalType": "string",
          "name": "name",
          "type": "string"
        }
      ],
      "payable": false,
      "stateMutability": "nonpayable",
      "type": "constructor"
    },
    {
      "anonymous": false,
      "inputs": [
        {
          "indexed": false,
          "internalType": "enum Campaign.State",
          "name": "s",
          "type": "uint8"
        }
      ],
      "name": "campainStatus",
      "type": "event"
    },
    {
      "anonymous": false,
      "inputs": [],
      "name": "donationSuccess",
      "type": "event"
    },
    {
      "constant": true,
      "inputs": [
        {
          "internalType": "uint256",
          "name": "",
          "type": "uint256"
        }
      ],
      "name": "beneficiaries",
      "outputs": [
        {
          "internalType": "address payable",
          "name": "",
          "type": "address"
        }
      ],
      "payable": false,
      "stateMutability": "view",
      "type": "function"
    },
    {
      "constant": true,
      "inputs": [
        {
          "internalType": "address",
          "name": "",
          "type": "address"
        }
      ],
      "name": "beneficiaries_map",
      "outputs": [
        {
          "internalType": "uint256",
          "name": "amount",
          "type": "uint256"
        },
        {
          "internalType": "bool",
          "name": "flag",
          "type": "bool"
        }
      ],
      "payable": false,
      "stateMutability": "view",
      "type": "function"
    },
    {
      "constant": true,
      "inputs": [
        {
          "internalType": "uint256",
          "name": "",
          "type": "uint256"
        }
      ],
      "name": "organizers",
      "outputs": [
        {
          "internalType": "address",
          "name": "",
          "type": "address"
        }
      ],
      "payable": false,
      "stateMutability": "view",
      "type": "function"
    },
    {
      "constant": true,
      "inputs": [],
      "name": "state",
      "outputs": [
        {
          "internalType": "enum Campaign.State",
          "name": "",
          "type": "uint8"
        }
      ],
      "payable": false,
      "stateMutability": "view",
      "type": "function"
    },
    {
      "constant": false,
      "inputs": [
        {
          "internalType": "address[]",
          "name": "to",
          "type": "address[]"
        },
        {
          "internalType": "uint256[]",
          "name": "wei_partition",
          "type": "uint256[]"
        }
      ],
      "name": "startCampaign",
      "outputs": [],
      "payable": true,
      "stateMutability": "payable",
      "type": "function"
    },
    {
      "constant": false,
      "inputs": [
        {
          "internalType": "address[]",
          "name": "to",
          "type": "address[]"
        },
        {
          "internalType": "uint256[]",
          "name": "wei_partition",
          "type": "uint256[]"
        }
      ],
      "name": "makeDonation",
      "outputs": [],
      "payable": true,
      "stateMutability": "payable",
      "type": "function"
    },
    {
      "constant": false,
      "inputs": [],
      "name": "endCampaign",
      "outputs": [],
      "payable": false,
      "stateMutability": "nonpayable",
      "type": "function"
    },
    {
      "constant": true,
      "inputs": [],
      "name": "getBeneficiaries",
      "outputs": [
        {
          "internalType": "address payable[]",
          "name": "",
          "type": "address[]"
        }
      ],
      "payable": false,
      "stateMutability": "view",
      "type": "function"
    },
    {
      "constant": true,
      "inputs": [
        {
          "internalType": "address[]",
          "name": "_ben",
          "type": "address[]"
        }
      ],
      "name": "getBeneficiariesRewards",
      "outputs": [
        {
          "internalType": "uint256[]",
          "name": "",
          "type": "uint256[]"
        }
      ],
      "payable": false,
      "stateMutability": "view",
      "type": "function"
    }
  ],
  "bytecode": "0x60806040523480156200001157600080fd5b506040516200200f3803806200200f833981810160405260808110156200003757600080fd5b81019080805160405193929190846401000000008211156200005857600080fd5b838201915060208201858111156200006f57600080fd5b82518660208202830111640100000000821117156200008d57600080fd5b8083526020830192505050908051906020019060200280838360005b83811015620000c6578082015181840152602081019050620000a9565b5050505090500160405260200180516040519392919084640100000000821115620000f057600080fd5b838201915060208201858111156200010757600080fd5b82518660208202830111640100000000821117156200012557600080fd5b8083526020830192505050908051906020019060200280838360005b838110156200015e57808201518184015260208101905062000141565b5050505090500160405260200180519060200190929190805160405193929190846401000000008211156200019257600080fd5b83820191506020820185811115620001a957600080fd5b8251866001820283011164010000000082111715620001c757600080fd5b8083526020830192505050908051906020019080838360005b83811015620001fd578082015181840152602081019050620001e0565b50505050905090810190601f1680156200022b5780820380516001836020036101000a031916815260200191505b5060405250505060008451905060008090505b818110156200033b5760028682815181106200025657fe5b602002602001015190806001815401808255809150509060018203906000526020600020016000909192909190916101000a81548173ffffffffffffffffffffffffffffffffffffffff021916908373ffffffffffffffffffffffffffffffffffffffff16021790555050600060036000888481518110620002d457fe5b602002602001015173ffffffffffffffffffffffffffffffffffffffff1673ffffffffffffffffffffffffffffffffffffffff16815260200190815260200160002060006101000a81548160ff02191690831515021790555080806001019150506200023e565b508351905060008090505b81811015620004a25760048582815181106200035e57fe5b602002602001015190806001815401808255809150509060018203906000526020600020016000909192909190916101000a81548173ffffffffffffffffffffffffffffffffffffffff021916908373ffffffffffffffffffffffffffffffffffffffff16021790555050600060056000878481518110620003dc57fe5b602002602001015173ffffffffffffffffffffffffffffffffffffffff1673ffffffffffffffffffffffffffffffffffffffff168152602001908152602001600020600001819055506001600560008784815181106200043857fe5b602002602001015173ffffffffffffffffffffffffffffffffffffffff1673ffffffffffffffffffffffffffffffffffffffff16815260200190815260200160002060010160006101000a81548160ff021916908315150217905550808060010191505062000346565b50826008819055508160019080519060200190620004c292919062000546565b5060008060006101000a81548160ff02191690836002811115620004e257fe5b02179055507f66fe4817acfd8756899e5d70b8db5e2f51795f380411f9aa53f14f246cd7d2046000809054906101000a900460ff16604051808260028111156200052857fe5b60ff16815260200191505060405180910390a15050505050620005f5565b828054600181600116156101000203166002900490600052602060002090601f016020900481019282601f106200058957805160ff1916838001178555620005ba565b82800160010185558215620005ba579182015b82811115620005b95782518255916020019190600101906200059c565b5b509050620005c99190620005cd565b5090565b620005f291905b80821115620005ee576000816000905550600101620005d4565b5090565b90565b611a0a80620006056000396000f3fe6080604052600436106100865760003560e01c80639a18f30b116100595780639a18f30b146102ca578063a4c8be1e14610398578063c19d93fb14610413578063e86ae7001461044c578063efeb5e581461056657610086565b80635d3e96131461008b57806371aac7f9146100fb57806379de6d2114610112578063913b722c1461025e575b600080fd5b34801561009757600080fd5b506100da600480360360208110156100ae57600080fd5b81019080803573ffffffffffffffffffffffffffffffffffffffff1690602001909291905050506105e1565b60405180838152602001821515151581526020019250505060405180910390f35b34801561010757600080fd5b50610110610612565b005b61025c6004803603604081101561012857600080fd5b810190808035906020019064010000000081111561014557600080fd5b82018360208201111561015757600080fd5b8035906020019184602083028401116401000000008311171561017957600080fd5b919080806020026020016040519081016040528093929190818152602001838360200280828437600081840152601f19601f820116905080830192505050505050509192919290803590602001906401000000008111156101d957600080fd5b8201836020820111156101eb57600080fd5b8035906020019184602083028401116401000000008311171561020d57600080fd5b919080806020026020016040519081016040528093929190818152602001838360200280828437600081840152601f19601f820116905080830192505050505050509192919290505050610800565b005b34801561026a57600080fd5b50610273610dca565b6040518080602001828103825283818151815260200191508051906020019060200280838360005b838110156102b657808201518184015260208101905061029b565b505050509050019250505060405180910390f35b610396600480360360408110156102e057600080fd5b81019080803590602001906401000000008111156102fd57600080fd5b82018360208201111561030f57600080fd5b8035906020019184602083028401116401000000008311171561033157600080fd5b90919293919293908035906020019064010000000081111561035257600080fd5b82018360208201111561036457600080fd5b8035906020019184602083028401116401000000008311171561038657600080fd5b9091929391929390505050610e58565b005b3480156103a457600080fd5b506103d1600480360360208110156103bb57600080fd5b81019080803590602001909291905050506114b3565b604051808273ffffffffffffffffffffffffffffffffffffffff1673ffffffffffffffffffffffffffffffffffffffff16815260200191505060405180910390f35b34801561041f57600080fd5b506104286114ef565b6040518082600281111561043857fe5b60ff16815260200191505060405180910390f35b34801561045857600080fd5b5061050f6004803603602081101561046f57600080fd5b810190808035906020019064010000000081111561048c57600080fd5b82018360208201111561049e57600080fd5b803590602001918460208302840111640100000000831117156104c057600080fd5b919080806020026020016040519081016040528093929190818152602001838360200280828437600081840152601f19601f820116905080830192505050505050509192919290505050611501565b6040518080602001828103825283818151815260200191508051906020019060200280838360005b83811015610552578082015181840152602081019050610537565b505050509050019250505060405180910390f35b34801561057257600080fd5b5061059f6004803603602081101561058957600080fd5b81019080803590602001909291905050506116a0565b604051808273ffffffffffffffffffffffffffffffffffffffff1673ffffffffffffffffffffffffffffffffffffffff16815260200191505060405180910390f35b60056020528060005260406000206000915090508060000154908060010160009054906101000a900460ff16905082565b33600080905060008090505b60028054905081108015610630575081155b156106b2578273ffffffffffffffffffffffffffffffffffffffff166002828154811061065957fe5b9060005260206000200160009054906101000a900473ffffffffffffffffffffffffffffffffffffffff1673ffffffffffffffffffffffffffffffffffffffff1614156106a557600191505b808060010191505061061e565b5080610709576040517f08c379a000000000000000000000000000000000000000000000000000000000815260040180806020018281038252602c81526020018061196d602c913960400191505060405180910390fd5b60028081111561071557fe5b6000809054906101000a900460ff16600281111561072f57fe5b1415610786576040517f08c379a00000000000000000000000000000000000000000000000000000000081526004018080602001828103825260218152602001806119036021913960400191505060405180910390fd5b60026000806101000a81548160ff021916908360028111156107a457fe5b02179055507f66fe4817acfd8756899e5d70b8db5e2f51795f380411f9aa53f14f246cd7d2046000809054906101000a900460ff16604051808260028111156107e957fe5b60ff16815260200191505060405180910390a15050565b426008548110610878576040517f08c379a00000000000000000000000000000000000000000000000000000000081526004018080602001828103825260178152602001807f4572726f723a2063616d706169676e206578706972656400000000000000000081525060200191505060405180910390fd5b82600080905060008090505b60048054905081108015610896575081155b15610940576000151560056000600484815481106108b057fe5b9060005260206000200160009054906101000a900473ffffffffffffffffffffffffffffffffffffffff1673ffffffffffffffffffffffffffffffffffffffff1673ffffffffffffffffffffffffffffffffffffffff16815260200190815260200160002060010160009054906101000a900460ff161515141561093357600191505b8080600101915050610884565b50600015158115151461099e576040517f08c379a000000000000000000000000000000000000000000000000000000000815260040180806020018281038252603d815260200180611999603d913960400191505060405180910390fd5b600160028111156109ab57fe5b6000809054906101000a900460ff1660028111156109c557fe5b1480610a515750600060028111156109d957fe5b6000809054906101000a900460ff1660028111156109f357fe5b148015610a50575060001515600360003373ffffffffffffffffffffffffffffffffffffffff1673ffffffffffffffffffffffffffffffffffffffff16815260200190815260200160002060009054906101000a900460ff161515145b5b610aa6576040517f08c379a00000000000000000000000000000000000000000000000000000000081526004018080602001828103825260498152602001806119246049913960600191505060405180910390fd5b60003411610b1c576040517f08c379a00000000000000000000000000000000000000000000000000000000081526004018080602001828103825260158152602001807f4572726f723a2030207765692070726f7669646564000000000000000000000081525060200191505060405180910390fd5b8351855114610b76576040517f08c379a000000000000000000000000000000000000000000000000000000000815260040180806020018281038252604281526020018061188f6042913960600191505060405180910390fd5b600080905060008090505b8551811015610baf57858181518110610b9657fe5b6020026020010151820191508080600101915050610b81565b50803414610c08576040517f08c379a00000000000000000000000000000000000000000000000000000000081526004018080602001828103825260498152602001806118466049913960600191505060405180910390fd5b610c106116dc565b34816000018181525050868160200181905250858160400181905250600760003373ffffffffffffffffffffffffffffffffffffffff1673ffffffffffffffffffffffffffffffffffffffff1681526020019081526020016000208190806001815401808255809150509060018203906000526020600020906004020160009091929091909150600082015181600001556020820151816001019080519060200190610cbd929190611706565b506040820151816002019080519060200190610cda929190611790565b5060608201518160030160006101000a81548160ff0219169083151502179055505050506000915060008090505b8751811015610d9457868181518110610d1d57fe5b6020026020010151600560008a8481518110610d3557fe5b602002602001015173ffffffffffffffffffffffffffffffffffffffff1673ffffffffffffffffffffffffffffffffffffffff168152602001908152602001600020600001600082825401925050819055508080600101915050610d08565b507f69ee10f8865f0d317c7a1b74da8e2cbffcc7097a4077b37fb42fba449101f93560405160405180910390a150505050505050565b60606004805480602002602001604051908101604052809291908181526020018280548015610e4e57602002820191906000526020600020905b8160009054906101000a900473ffffffffffffffffffffffffffffffffffffffff1673ffffffffffffffffffffffffffffffffffffffff1681526020019060010190808311610e04575b5050505050905090565b426008548110610ed0576040517f08c379a00000000000000000000000000000000000000000000000000000000081526004018080602001828103825260178152602001807f4572726f723a2063616d706169676e206578706972656400000000000000000081525060200191505060405180910390fd5b33600080905060008090505b60028054905081108015610eee575081155b15610f70578273ffffffffffffffffffffffffffffffffffffffff1660028281548110610f1757fe5b9060005260206000200160009054906101000a900473ffffffffffffffffffffffffffffffffffffffff1673ffffffffffffffffffffffffffffffffffffffff161415610f6357600191505b8080600101915050610edc565b5080610fc7576040517f08c379a000000000000000000000000000000000000000000000000000000000815260040180806020018281038252602c81526020018061196d602c913960400191505060405180910390fd5b868680806020026020016040519081016040528093929190818152602001838360200280828437600081840152601f19601f82011690508083019250505050505050600080905060008090505b60048054905081108015611026575081155b156110d05760001515600560006004848154811061104057fe5b9060005260206000200160009054906101000a900473ffffffffffffffffffffffffffffffffffffffff1673ffffffffffffffffffffffffffffffffffffffff1673ffffffffffffffffffffffffffffffffffffffff16815260200190815260200160002060010160009054906101000a900460ff16151514156110c357600191505b8080600101915050611014565b50600015158115151461112e576040517f08c379a000000000000000000000000000000000000000000000000000000000815260040180806020018281038252603d815260200180611999603d913960400191505060405180910390fd5b6000600281111561113b57fe5b6000809054906101000a900460ff16600281111561115557fe5b146111ab576040517f08c379a00000000000000000000000000000000000000000000000000000000081526004018080602001828103825260328152602001806118d16032913960400191505060405180910390fd5b611237898980806020026020016040519081016040528093929190818152602001838360200280828437600081840152601f19601f82011690508083019250505050505050888880806020026020016040519081016040528093929190818152602001838360200280828437600081840152601f19601f82011690508083019250505050505050610800565b60001515600360003373ffffffffffffffffffffffffffffffffffffffff1673ffffffffffffffffffffffffffffffffffffffff16815260200190815260200160002060009054906101000a900460ff16151514156112e9576001600360003373ffffffffffffffffffffffffffffffffffffffff1673ffffffffffffffffffffffffffffffffffffffff16815260200190815260200160002060006101000a81548160ff0219169083151502179055505b600080905060008090505b6002805490508110156113a75760011515600360006002848154811061131657fe5b9060005260206000200160009054906101000a900473ffffffffffffffffffffffffffffffffffffffff1673ffffffffffffffffffffffffffffffffffffffff1673ffffffffffffffffffffffffffffffffffffffff16815260200190815260200160002060009054906101000a900460ff161515141561139a5781806001019250505b80806001019150506112f4565b506002805490508114156114305760016000806101000a81548160ff021916908360028111156113d357fe5b02179055507f66fe4817acfd8756899e5d70b8db5e2f51795f380411f9aa53f14f246cd7d2046000809054906101000a900460ff166040518082600281111561141857fe5b60ff16815260200191505060405180910390a16114a7565b60008060006101000a81548160ff0219169083600281111561144e57fe5b02179055507f66fe4817acfd8756899e5d70b8db5e2f51795f380411f9aa53f14f246cd7d2046000809054906101000a900460ff166040518082600281111561149357fe5b60ff16815260200191505060405180910390a15b50505050505050505050565b600281815481106114c057fe5b906000526020600020016000915054906101000a900473ffffffffffffffffffffffffffffffffffffffff1681565b6000809054906101000a900460ff1681565b606081600080905060008090505b60048054905081108015611521575081155b156115cb5760001515600560006004848154811061153b57fe5b9060005260206000200160009054906101000a900473ffffffffffffffffffffffffffffffffffffffff1673ffffffffffffffffffffffffffffffffffffffff1673ffffffffffffffffffffffffffffffffffffffff16815260200190815260200160002060010160009054906101000a900460ff16151514156115be57600191505b808060010191505061150f565b506000151581151514611629576040517f08c379a000000000000000000000000000000000000000000000000000000000815260040180806020018281038252603d815260200180611999603d913960400191505060405180910390fd5b6060845160405190808252806020026020018201604052801561165b5781602001602082028038833980820191505090505b50905060008090505b855181101561169457600382828151811061167b57fe5b6020026020010181815250508080600101915050611664565b50809350505050919050565b600481815481106116ad57fe5b906000526020600020016000915054906101000a900473ffffffffffffffffffffffffffffffffffffffff1681565b60405180608001604052806000815260200160608152602001606081526020016000151581525090565b82805482825590600052602060002090810192821561177f579160200282015b8281111561177e5782518260006101000a81548173ffffffffffffffffffffffffffffffffffffffff021916908373ffffffffffffffffffffffffffffffffffffffff16021790555091602001919060010190611726565b5b50905061178c91906117dd565b5090565b8280548282559060005260206000209081019282156117cc579160200282015b828111156117cb5782518255916020019190600101906117b0565b5b5090506117d99190611820565b5090565b61181d91905b8082111561181957600081816101000a81549073ffffffffffffffffffffffffffffffffffffffff0219169055506001016117e3565b5090565b90565b61184291905b8082111561183e576000816000905550600101611826565b5090565b9056fe4572726f723a20546f74616c20706f766964656420776569732061726520646966666572656e742066726f6d207468652070726f7669646564207765697320706172746974696f6e734572726f723a2064657374696e61746f72732073697a6520697320646966666572656e742066726f6d2074686520776569277320706172746974696f6e2073697a654572726f723a205468652063616d706169676e20697320616c72656164792073746172746564206f7220697320656e6465644572726f723a205468652063616d706169676e20616c726561647920656e6465644572726f723a205468652063616d706169676e206973206e6f742073746172746564206f7220796f75277265206e6f7420616e206f7267616e697a657220746f2073746172742069744572726f723a206f6e6c79206f7267616e697a6572732063616e207374617274207468652063616d7061696e4572726f723a206f6e65206f72206d6f7265206f66207468652070726f76696465642062656e6566696369617269657320646f206e6f74206578697374a265627a7a7231582025e5db45c0df2ba3e09d9a0db8f415eaa63e54b139de15e4516431f7389787ce64736f6c63430005100032",
  "source": "pragma solidity >=0.4.21 <0.7.0;\r\n\r\nimport \"./Library.sol\";\r\n\r\ncontract Campaign{\r\n\r\n    using Library for Library.Reward;\r\n    using Library for Library.Donation;\r\n\r\n    enum State {PENDING, RUNNING, ENDED}\r\n    State public state;\r\n\r\n    string campaign_name;\r\n\r\n    address[] public organizers;\r\n    mapping(address => bool) private organizers_donation;\r\n\r\n    address payable[] public beneficiaries;\r\n    mapping(address => Library.Reward) public beneficiaries_map;\r\n\r\n    address[] donors;\r\n    mapping(address => Library.Donation[]) private donations;\r\n\r\n    uint campaign_end_timestamp;\r\n\r\n    event campainStatus(State s);\r\n    event donationSuccess();\r\n\r\n    modifier isOrganizer(address expected) {\r\n        bool is_organizer = false;\r\n        for(uint i = 0; i<organizers.length && !is_organizer; i++){\r\n            if(organizers[i] == expected)\r\n                is_organizer = true;\r\n        }\r\n\r\n        require(is_organizer, \"Error: only organizers can start the campain\");\r\n        _;\r\n    }\r\n\r\n    modifier beneficiariesExist(address[] memory b) {\r\n        bool error = false;\r\n        for(uint i = 0; i<beneficiaries.length && !error; i++){\r\n            if(beneficiaries_map[beneficiaries[i]].flag == false)\r\n                error = true;\r\n        }\r\n\r\n        require(error==false, \"Error: one or more of the provided beneficiaries do not exist\");\r\n        _;\r\n    }\r\n\r\n    modifier campaignNotEnded(uint current_timestamp) {\r\n        require(current_timestamp < campaign_end_timestamp, \"Error: campaign expired\");\r\n        _;\r\n    }\r\n\r\n    constructor(address[] memory _organizers, address payable[] memory _beneficiaries, uint _end_date, string memory name) public {\r\n        uint l = _organizers.length;\r\n        for(uint i = 0; i < l; i++) {\r\n            organizers.push(_organizers[i]);\r\n            organizers_donation[_organizers[i]] = false;\r\n        }\r\n\r\n        l = _beneficiaries.length;\r\n        for(uint i = 0; i < l; i++) {\r\n            beneficiaries.push(_beneficiaries[i]);\r\n            beneficiaries_map[_beneficiaries[i]].amount = 0;\r\n            beneficiaries_map[_beneficiaries[i]].flag = true;\r\n        }\r\n\r\n        campaign_end_timestamp = _end_date;\r\n\r\n        campaign_name = name;\r\n        state = State.PENDING;\r\n        emit campainStatus(state);\r\n    }\r\n\r\n    function startCampaign(address[] calldata to, uint[] calldata wei_partition) campaignNotEnded(block.timestamp) external payable\r\n                                         isOrganizer(msg.sender) beneficiariesExist(to){//RQ-PARAMS\r\n        require(state==State.PENDING, \"Error: The campaign is already started or is ended\");\r\n\r\n        makeDonation(to, wei_partition);\r\n\r\n        if(organizers_donation[msg.sender] == false)\r\n            organizers_donation[msg.sender] = true;\r\n\r\n        uint organizers_donors = 0;\r\n        for(uint i = 0; i<organizers.length; i++){\r\n            if(organizers_donation[organizers[i]] == true)\r\n                organizers_donors++;\r\n        }\r\n\r\n        if(organizers_donors==organizers.length){\r\n            state = State.RUNNING;\r\n            emit campainStatus(state);\r\n        }\r\n        else{\r\n            state = State.PENDING;\r\n            emit campainStatus(state);\r\n        }\r\n    }\r\n\r\n\r\n    function makeDonation(address[] memory to, uint[] memory wei_partition)public payable campaignNotEnded(block.timestamp)\r\n                        beneficiariesExist(to){\r\n        require(state==State.RUNNING || (state==State.PENDING && organizers_donation[msg.sender]==false),\r\n                \"Error: The campaign is not started or you're not an organizer to start it\");\r\n        require(msg.value>0, \"Error: 0 wei provided\");\r\n        require(to.length==wei_partition.length, \"Error: destinators size is different from the wei's partition size\");\r\n        \r\n        uint total_donation = 0;\r\n        for(uint i = 0; i<wei_partition.length; i++){\r\n            total_donation += wei_partition[i];\r\n        }\r\n        require(msg.value==total_donation,\"Error: Total povided weis are different from the provided weis partitions\");\r\n        \r\n        Library.Donation memory d;\r\n        d.amount = msg.value;\r\n        d.donation_beneficiaries = to;\r\n        d.danation_partitions = wei_partition;\r\n        donations[msg.sender].push(d);\r\n\r\n        total_donation = 0;\r\n        for(uint i = 0; i<to.length; i++)\r\n            beneficiaries_map[to[i]].amount += wei_partition[i];\r\n\r\n        emit donationSuccess();\r\n    }\r\n\r\n\r\n\r\n    function endCampaign() public isOrganizer(msg.sender) {\r\n        require(state!=State.ENDED, \"Error: The campaign already ended\");\r\n        state = State.ENDED;\r\n        \r\n        emit campainStatus(state);\r\n    }\r\n\r\n\r\n    function getBeneficiaries() public view returns(address payable[] memory){\r\n        return beneficiaries;\r\n    }\r\n\r\n    function getBeneficiariesRewards(address[] memory _ben) public view beneficiariesExist(_ben) returns(uint[] memory){\r\n        uint[] memory rewards = new uint[](_ben.length);\r\n        for(uint i = 0; i<_ben.length; i++){\r\n            rewards[i] = 3;\r\n            //rewards[i] = beneficiaries_map[_ben[i]].amount;\r\n        }\r\n\r\n        return rewards;\r\n    }\r\n\r\n\r\n}",
  "sourcePath": "G:\\SSD Workspace\\Ethereum\\BitCollect\\contracts\\Campaign.sol",
  "compiler": {
    "name": "solc",
    "version": "0.5.16+commit.9c3226ce.Emscripten.clang"
  },
  "schemaVersion": "3.2.0",
  "updatedAt": "2020-06-30T10:02:42.370Z",
  "devdoc": {
    "methods": {}
  },
  "userdoc": {
    "methods": {}
  }
}