{
  "contractName": "Campaign",
  "abi": [
    {
      "inputs": [
        {
          "internalType": "address[]",
          "name": "_organizers",
          "type": "address[]"
        },
        {
          "internalType": "address payable[]",
          "name": "_beneficiaries",
          "type": "address[]"
        },
        {
          "internalType": "uint256",
          "name": "_end_date",
          "type": "uint256"
        },
        {
          "internalType": "uint256[]",
          "name": "rewards_costs",
          "type": "uint256[]"
        },
        {
          "internalType": "uint256",
          "name": "fraudThreshold",
          "type": "uint256"
        },
        {
          "internalType": "string",
          "name": "campaign_info_hashes",
          "type": "string"
        },
        {
          "internalType": "uint256",
          "name": "_report_investment",
          "type": "uint256"
        }
      ],
      "payable": false,
      "stateMutability": "nonpayable",
      "type": "constructor"
    },
    {
      "anonymous": false,
      "inputs": [
        {
          "indexed": false,
          "internalType": "enum Campaign.State",
          "name": "s",
          "type": "uint8"
        }
      ],
      "name": "campainStatus",
      "type": "event"
    },
    {
      "anonymous": false,
      "inputs": [],
      "name": "donationRewardUnlocked",
      "type": "event"
    },
    {
      "anonymous": false,
      "inputs": [],
      "name": "donationSuccess",
      "type": "event"
    },
    {
      "anonymous": false,
      "inputs": [
        {
          "indexed": false,
          "internalType": "enum Campaign.State",
          "name": "s",
          "type": "uint8"
        }
      ],
      "name": "fraudReported",
      "type": "event"
    },
    {
      "anonymous": false,
      "inputs": [
        {
          "indexed": false,
          "internalType": "uint256",
          "name": "amount",
          "type": "uint256"
        },
        {
          "indexed": false,
          "internalType": "uint256",
          "name": "plus",
          "type": "uint256"
        }
      ],
      "name": "refoundEmitted",
      "type": "event"
    },
    {
      "anonymous": false,
      "inputs": [
        {
          "indexed": false,
          "internalType": "uint256",
          "name": "amount",
          "type": "uint256"
        },
        {
          "indexed": false,
          "internalType": "uint256",
          "name": "plus",
          "type": "uint256"
        }
      ],
      "name": "withdrawSuccess",
      "type": "event"
    },
    {
      "constant": true,
      "inputs": [
        {
          "internalType": "uint256",
          "name": "",
          "type": "uint256"
        }
      ],
      "name": "beneficiaries",
      "outputs": [
        {
          "internalType": "address payable",
          "name": "",
          "type": "address"
        }
      ],
      "payable": false,
      "stateMutability": "view",
      "type": "function"
    },
    {
      "constant": true,
      "inputs": [
        {
          "internalType": "address",
          "name": "",
          "type": "address"
        }
      ],
      "name": "beneficiaries_map",
      "outputs": [
        {
          "internalType": "uint256",
          "name": "amount",
          "type": "uint256"
        },
        {
          "internalType": "bool",
          "name": "flag",
          "type": "bool"
        }
      ],
      "payable": false,
      "stateMutability": "view",
      "type": "function"
    },
    {
      "constant": true,
      "inputs": [],
      "name": "campaign_end_timestamp",
      "outputs": [
        {
          "internalType": "uint256",
          "name": "",
          "type": "uint256"
        }
      ],
      "payable": false,
      "stateMutability": "view",
      "type": "function"
    },
    {
      "constant": true,
      "inputs": [
        {
          "internalType": "uint256",
          "name": "",
          "type": "uint256"
        }
      ],
      "name": "donors",
      "outputs": [
        {
          "internalType": "address",
          "name": "",
          "type": "address"
        }
      ],
      "payable": false,
      "stateMutability": "view",
      "type": "function"
    },
    {
      "constant": true,
      "inputs": [],
      "name": "info_hashes",
      "outputs": [
        {
          "internalType": "string",
          "name": "",
          "type": "string"
        }
      ],
      "payable": false,
      "stateMutability": "view",
      "type": "function"
    },
    {
      "constant": true,
      "inputs": [
        {
          "internalType": "uint256",
          "name": "",
          "type": "uint256"
        }
      ],
      "name": "organizers",
      "outputs": [
        {
          "internalType": "address",
          "name": "",
          "type": "address"
        }
      ],
      "payable": false,
      "stateMutability": "view",
      "type": "function"
    },
    {
      "constant": true,
      "inputs": [],
      "name": "report_investment",
      "outputs": [
        {
          "internalType": "uint256",
          "name": "",
          "type": "uint256"
        }
      ],
      "payable": false,
      "stateMutability": "view",
      "type": "function"
    },
    {
      "constant": true,
      "inputs": [],
      "name": "reports_number",
      "outputs": [
        {
          "internalType": "uint256",
          "name": "",
          "type": "uint256"
        }
      ],
      "payable": false,
      "stateMutability": "view",
      "type": "function"
    },
    {
      "constant": true,
      "inputs": [
        {
          "internalType": "uint256",
          "name": "",
          "type": "uint256"
        }
      ],
      "name": "rewards_prices",
      "outputs": [
        {
          "internalType": "uint256",
          "name": "",
          "type": "uint256"
        }
      ],
      "payable": false,
      "stateMutability": "view",
      "type": "function"
    },
    {
      "constant": true,
      "inputs": [],
      "name": "state",
      "outputs": [
        {
          "internalType": "enum Campaign.State",
          "name": "",
          "type": "uint8"
        }
      ],
      "payable": false,
      "stateMutability": "view",
      "type": "function"
    },
    {
      "constant": true,
      "inputs": [],
      "name": "thresholdFraud",
      "outputs": [
        {
          "internalType": "uint256",
          "name": "",
          "type": "uint256"
        }
      ],
      "payable": false,
      "stateMutability": "view",
      "type": "function"
    },
    {
      "constant": true,
      "inputs": [],
      "name": "total_withdrawn",
      "outputs": [
        {
          "internalType": "uint256",
          "name": "",
          "type": "uint256"
        }
      ],
      "payable": false,
      "stateMutability": "view",
      "type": "function"
    },
    {
      "constant": false,
      "inputs": [
        {
          "internalType": "address[]",
          "name": "to",
          "type": "address[]"
        },
        {
          "internalType": "uint256[]",
          "name": "wei_partition",
          "type": "uint256[]"
        },
        {
          "internalType": "string",
          "name": "contact_email",
          "type": "string"
        }
      ],
      "name": "startCampaign",
      "outputs": [],
      "payable": true,
      "stateMutability": "payable",
      "type": "function"
    },
    {
      "constant": false,
      "inputs": [
        {
          "internalType": "address[]",
          "name": "to",
          "type": "address[]"
        },
        {
          "internalType": "uint256[]",
          "name": "wei_partition",
          "type": "uint256[]"
        },
        {
          "internalType": "string",
          "name": "contact_email",
          "type": "string"
        }
      ],
      "name": "makeDonation",
      "outputs": [],
      "payable": true,
      "stateMutability": "payable",
      "type": "function"
    },
    {
      "constant": false,
      "inputs": [],
      "name": "beneficiaryWithdraw",
      "outputs": [],
      "payable": false,
      "stateMutability": "nonpayable",
      "type": "function"
    },
    {
      "constant": false,
      "inputs": [],
      "name": "deactivateCampaign",
      "outputs": [],
      "payable": false,
      "stateMutability": "nonpayable",
      "type": "function"
    },
    {
      "constant": true,
      "inputs": [],
      "name": "getDonationReward",
      "outputs": [
        {
          "internalType": "uint256[]",
          "name": "",
          "type": "uint256[]"
        }
      ],
      "payable": false,
      "stateMutability": "view",
      "type": "function"
    },
    {
      "constant": false,
      "inputs": [],
      "name": "reportFraud",
      "outputs": [],
      "payable": true,
      "stateMutability": "payable",
      "type": "function"
    },
    {
      "constant": false,
      "inputs": [],
      "name": "fraudWithdraw",
      "outputs": [],
      "payable": true,
      "stateMutability": "payable",
      "type": "function"
    },
    {
      "constant": true,
      "inputs": [],
      "name": "getAllBeneficiaries",
      "outputs": [
        {
          "internalType": "address payable[]",
          "name": "",
          "type": "address[]"
        }
      ],
      "payable": false,
      "stateMutability": "view",
      "type": "function"
    },
    {
      "constant": true,
      "inputs": [],
      "name": "getAllOrganizers",
      "outputs": [
        {
          "internalType": "address[]",
          "name": "",
          "type": "address[]"
        }
      ],
      "payable": false,
      "stateMutability": "view",
      "type": "function"
    },
    {
      "constant": true,
      "inputs": [],
      "name": "organizerHaveDonated",
      "outputs": [
        {
          "internalType": "bool",
          "name": "",
          "type": "bool"
        }
      ],
      "payable": false,
      "stateMutability": "view",
      "type": "function"
    },
    {
      "constant": true,
      "inputs": [],
      "name": "getAllRewardsPrices",
      "outputs": [
        {
          "internalType": "uint256[]",
          "name": "",
          "type": "uint256[]"
        }
      ],
      "payable": false,
      "stateMutability": "view",
      "type": "function"
    },
    {
      "constant": true,
      "inputs": [
        {
          "internalType": "address",
          "name": "b",
          "type": "address"
        }
      ],
      "name": "getBeneficiaryReward",
      "outputs": [
        {
          "internalType": "uint256",
          "name": "",
          "type": "uint256"
        }
      ],
      "payable": false,
      "stateMutability": "view",
      "type": "function"
    },
    {
      "constant": true,
      "inputs": [],
      "name": "beneficiaryHaveWithdrawn",
      "outputs": [
        {
          "internalType": "bool",
          "name": "",
          "type": "bool"
        }
      ],
      "payable": false,
      "stateMutability": "view",
      "type": "function"
    },
    {
      "constant": true,
      "inputs": [],
      "name": "userHaveReported",
      "outputs": [
        {
          "internalType": "bool",
          "name": "",
          "type": "bool"
        }
      ],
      "payable": false,
      "stateMutability": "view",
      "type": "function"
    },
    {
      "constant": true,
      "inputs": [],
      "name": "userHaveBeenRefunded",
      "outputs": [
        {
          "internalType": "bool",
          "name": "",
          "type": "bool"
        }
      ],
      "payable": false,
      "stateMutability": "view",
      "type": "function"
    },
    {
      "constant": true,
      "inputs": [],
      "name": "getUserDonation",
      "outputs": [
        {
          "internalType": "uint256[]",
          "name": "",
          "type": "uint256[]"
        }
      ],
      "payable": false,
      "stateMutability": "view",
      "type": "function"
    },
    {
      "constant": true,
      "inputs": [],
      "name": "getUserRewards",
      "outputs": [
        {
          "internalType": "uint256[]",
          "name": "",
          "type": "uint256[]"
        }
      ],
      "payable": false,
      "stateMutability": "view",
      "type": "function"
    }
  ],
  "bytecode": "0x60806040523480156200001157600080fd5b506040516200420738038062004207833981810160405260e08110156200003757600080fd5b81019080805160405193929190846401000000008211156200005857600080fd5b838201915060208201858111156200006f57600080fd5b82518660208202830111640100000000821117156200008d57600080fd5b8083526020830192505050908051906020019060200280838360005b83811015620000c6578082015181840152602081019050620000a9565b5050505090500160405260200180516040519392919084640100000000821115620000f057600080fd5b838201915060208201858111156200010757600080fd5b82518660208202830111640100000000821117156200012557600080fd5b8083526020830192505050908051906020019060200280838360005b838110156200015e57808201518184015260208101905062000141565b5050505090500160405260200180519060200190929190805160405193929190846401000000008211156200019257600080fd5b83820191506020820185811115620001a957600080fd5b8251866020820283011164010000000082111715620001c757600080fd5b8083526020830192505050908051906020019060200280838360005b8381101562000200578082015181840152602081019050620001e3565b5050505090500160405260200180519060200190929190805160405193929190846401000000008211156200023457600080fd5b838201915060208201858111156200024b57600080fd5b82518660018202830111640100000000821117156200026957600080fd5b8083526020830192505050908051906020019080838360005b838110156200029f57808201518184015260208101905062000282565b50505050905090810190601f168015620002cd5780820380516001836020036101000a031916815260200191505b506040526020018051906020019092919050505060008090505b8751811015620003e55760018882815181106200030057fe5b602002602001015190806001815401808255809150509060018203906000526020600020016000909192909190916101000a81548173ffffffffffffffffffffffffffffffffffffffff021916908373ffffffffffffffffffffffffffffffffffffffff160217905550506000600260008a84815181106200037e57fe5b602002602001015173ffffffffffffffffffffffffffffffffffffffff1673ffffffffffffffffffffffffffffffffffffffff16815260200190815260200160002060006101000a81548160ff0219169083151502179055508080600101915050620002e7565b5060008090505b8651811015620005495760048782815181106200040557fe5b602002602001015190806001815401808255809150509060018203906000526020600020016000909192909190916101000a81548173ffffffffffffffffffffffffffffffffffffffff021916908373ffffffffffffffffffffffffffffffffffffffff160217905550506000600560008984815181106200048357fe5b602002602001015173ffffffffffffffffffffffffffffffffffffffff1673ffffffffffffffffffffffffffffffffffffffff16815260200190815260200160002060000181905550600160056000898481518110620004df57fe5b602002602001015173ffffffffffffffffffffffffffffffffffffffff1673ffffffffffffffffffffffffffffffffffffffff16815260200190815260200160002060010160006101000a81548160ff0219169083151502179055508080600101915050620003ec565b508460118190555083600b9080519060200190620005699291906200061e565b5081601290805190602001906200058292919062000670565b5060008060006101000a81548160ff02191690836004811115620005a257fe5b021790555082600c8190555080600d8190555060006003819055507f66fe4817acfd8756899e5d70b8db5e2f51795f380411f9aa53f14f246cd7d2046000809054906101000a900460ff1660405180826004811115620005fe57fe5b60ff16815260200191505060405180910390a1505050505050506200071f565b8280548282559060005260206000209081019282156200065d579160200282015b828111156200065c5782518255916020019190600101906200063f565b5b5090506200066c9190620006f7565b5090565b828054600181600116156101000203166002900490600052602060002090601f016020900481019282601f10620006b357805160ff1916838001178555620006e4565b82800160010185558215620006e4579182015b82811115620006e3578251825591602001919060010190620006c6565b5b509050620006f39190620006f7565b5090565b6200071c91905b8082111562000718576000816000905550600101620006fe565b5090565b90565b613ad8806200072f6000396000f3fe6080604052600436106101c25760003560e01c806383fa9ec6116100f7578063c0d1850211610095578063dd4c844111610064578063dd4c844114610b11578063dd9c331b14610b76578063efeb5e5814610be2578063f19f892d14610c5d576101c2565b8063c0d18502146107f9578063c19d93fb14610865578063c3a4de361461089e578063d059de191461092e576101c2565b80639c378d80116100d15780639c378d801461072e5780639ec25aa514610738578063a4c8be1e14610767578063a4e00d6e146107e2576101c2565b806383fa9ec61461069957806395931ba2146106c85780639af6549a14610717576101c2565b806359bf3d97116101645780636cd9b6081161013e5780636cd9b608146105a85780636d67d432146105d35780636f9c584f146105fe5780637f1e573c1461062d576101c2565b806359bf3d97146104de5780635a7e8e661461050d5780635d3e961314610538576101c2565b80632f14bae8116101a05780632f14bae8146103c257806343bfdd5d1461042e5780634abfa163146104595780634f42b0d8146104d4576101c2565b806304dd9686146101c75780631e67f72114610233578063248815361461029f575b600080fd5b3480156101d357600080fd5b506101dc610c88565b6040518080602001828103825283818151815260200191508051906020019060200280838360005b8381101561021f578082015181840152602081019050610204565b505050509050019250505060405180910390f35b34801561023f57600080fd5b50610248610e9c565b6040518080602001828103825283818151815260200191508051906020019060200280838360005b8381101561028b578082015181840152602081019050610270565b505050509050019250505060405180910390f35b6103c0600480360360608110156102b557600080fd5b81019080803590602001906401000000008111156102d257600080fd5b8201836020820111156102e457600080fd5b8035906020019184602083028401116401000000008311171561030657600080fd5b90919293919293908035906020019064010000000081111561032757600080fd5b82018360208201111561033957600080fd5b8035906020019184602083028401116401000000008311171561035b57600080fd5b90919293919293908035906020019064010000000081111561037c57600080fd5b82018360208201111561038e57600080fd5b803590602001918460018302840111640100000000831117156103b057600080fd5b9091929391929390505050610f2a565b005b3480156103ce57600080fd5b506103d7611588565b6040518080602001828103825283818151815260200191508051906020019060200280838360005b8381101561041a5780820151818401526020810190506103ff565b505050509050019250505060405180910390f35b34801561043a57600080fd5b50610443611616565b6040518082815260200191505060405180910390f35b34801561046557600080fd5b506104926004803603602081101561047c57600080fd5b810190808035906020019092919050505061161c565b604051808273ffffffffffffffffffffffffffffffffffffffff1673ffffffffffffffffffffffffffffffffffffffff16815260200191505060405180910390f35b6104dc611658565b005b3480156104ea57600080fd5b506104f3611c90565b604051808215151515815260200191505060405180910390f35b34801561051957600080fd5b50610522611ce4565b6040518082815260200191505060405180910390f35b34801561054457600080fd5b506105876004803603602081101561055b57600080fd5b81019080803573ffffffffffffffffffffffffffffffffffffffff169060200190929190505050611cea565b60405180838152602001821515151581526020019250505060405180910390f35b3480156105b457600080fd5b506105bd611d1b565b6040518082815260200191505060405180910390f35b3480156105df57600080fd5b506105e8611d21565b6040518082815260200191505060405180910390f35b34801561060a57600080fd5b50610613611d27565b604051808215151515815260200191505060405180910390f35b34801561063957600080fd5b50610642611e27565b6040518080602001828103825283818151815260200191508051906020019060200280838360005b8381101561068557808201518184015260208101905061066a565b505050509050019250505060405180910390f35b3480156106a557600080fd5b506106ae612001565b604051808215151515815260200191505060405180910390f35b3480156106d457600080fd5b50610701600480360360208110156106eb57600080fd5b8101908080359060200190929190505050612055565b6040518082815260200191505060405180910390f35b34801561072357600080fd5b5061072c612076565b005b6107366124d4565b005b34801561074457600080fd5b5061074d612744565b604051808215151515815260200191505060405180910390f35b34801561077357600080fd5b506107a06004803603602081101561078a57600080fd5b810190808035906020019092919050505061288f565b604051808273ffffffffffffffffffffffffffffffffffffffff1673ffffffffffffffffffffffffffffffffffffffff16815260200191505060405180910390f35b3480156107ee57600080fd5b506107f76128cb565b005b34801561080557600080fd5b5061080e612b12565b6040518080602001828103825283818151815260200191508051906020019060200280838360005b83811015610851578082015181840152602081019050610836565b505050509050019250505060405180910390f35b34801561087157600080fd5b5061087a612cec565b6040518082600481111561088a57fe5b60ff16815260200191505060405180910390f35b3480156108aa57600080fd5b506108b3612cfe565b6040518080602001828103825283818151815260200191508051906020019080838360005b838110156108f35780820151818401526020810190506108d8565b50505050905090810190601f1680156109205780820380516001836020036101000a031916815260200191505b509250505060405180910390f35b610b0f6004803603606081101561094457600080fd5b810190808035906020019064010000000081111561096157600080fd5b82018360208201111561097357600080fd5b8035906020019184602083028401116401000000008311171561099557600080fd5b919080806020026020016040519081016040528093929190818152602001838360200280828437600081840152601f19601f820116905080830192505050505050509192919290803590602001906401000000008111156109f557600080fd5b820183602082011115610a0757600080fd5b80359060200191846020830284011164010000000083111715610a2957600080fd5b919080806020026020016040519081016040528093929190818152602001838360200280828437600081840152601f19601f82011690508083019250505050505050919291929080359060200190640100000000811115610a8957600080fd5b820183602082011115610a9b57600080fd5b80359060200191846001830284011164010000000083111715610abd57600080fd5b91908080601f016020809104026020016040519081016040528093929190818152602001838380828437600081840152601f19601f820116905080830192505050505050509192919290505050612d9c565b005b348015610b1d57600080fd5b50610b6060048036036020811015610b3457600080fd5b81019080803573ffffffffffffffffffffffffffffffffffffffff1690602001909291905050506134f2565b6040518082815260200191505060405180910390f35b348015610b8257600080fd5b50610b8b61353e565b6040518080602001828103825283818151815260200191508051906020019060200280838360005b83811015610bce578082015181840152602081019050610bb3565b505050509050019250505060405180910390f35b348015610bee57600080fd5b50610c1b60048036036020811015610c0557600080fd5b8101908080359060200190929190505050613596565b604051808273ffffffffffffffffffffffffffffffffffffffff1673ffffffffffffffffffffffffffffffffffffffff16815260200191505060405180910390f35b348015610c6957600080fd5b50610c726135d2565b6040518082815260200191505060405180910390f35b606080600960003373ffffffffffffffffffffffffffffffffffffffff1673ffffffffffffffffffffffffffffffffffffffff168152602001908152602001600020805480602002602001604051908101604052809291908181526020016000905b82821015610e0c57838290600052602060002090600302016040518060600160405290816000820154815260200160018201805480602002602001604051908101604052809291908181526020018280548015610d9c57602002820191906000526020600020905b8160009054906101000a900473ffffffffffffffffffffffffffffffffffffffff1673ffffffffffffffffffffffffffffffffffffffff1681526020019060010190808311610d52575b5050505050815260200160028201805480602002602001604051908101604052809291908181526020018280548015610df457602002820191906000526020600020905b815481526020019060010190808311610de0575b50505050508152505081526020019060010190610cea565b50505050905060608151604051908082528060200260200182016040528015610e445781602001602082028038833980820191505090505b50905060008090505b8151811015610e9357828181518110610e6257fe5b602002602001015160000151828281518110610e7a57fe5b6020026020010181815250508080600101915050610e4d565b50809250505090565b60606001805480602002602001604051908101604052809291908181526020018280548015610f2057602002820191906000526020600020905b8160009054906101000a900473ffffffffffffffffffffffffffffffffffffffff1673ffffffffffffffffffffffffffffffffffffffff1681526020019060010190808311610ed6575b5050505050905090565b601154421115610fa2576040517f08c379a00000000000000000000000000000000000000000000000000000000081526004018080602001828103825260208152602001807f4572726f723a2063616d706169676e20646561646c696e65206578706972656481525060200191505060405180910390fd5b600080905060008090505b60018054905081108015610fbf575081155b15611041573373ffffffffffffffffffffffffffffffffffffffff1660018281548110610fe857fe5b9060005260206000200160009054906101000a900473ffffffffffffffffffffffffffffffffffffffff1673ffffffffffffffffffffffffffffffffffffffff16141561103457600191505b8080600101915050610fad565b5080611098576040517f08c379a00000000000000000000000000000000000000000000000000000000081526004018080602001828103825260268152602001806139946026913960400191505060405180910390fd5b868680806020026020016040519081016040528093929190818152602001838360200280828437600081840152601f19601f82011690508083019250505050505050600080905060008090505b600480549050811080156110f7575081155b156111a15760001515600560006004848154811061111157fe5b9060005260206000200160009054906101000a900473ffffffffffffffffffffffffffffffffffffffff1673ffffffffffffffffffffffffffffffffffffffff1673ffffffffffffffffffffffffffffffffffffffff16815260200190815260200160002060010160009054906101000a900460ff161515141561119457600191505b80806001019150506110e5565b5060001515811515146111ff576040517f08c379a000000000000000000000000000000000000000000000000000000000815260040180806020018281038252603d815260200180613a31603d913960400191505060405180910390fd5b60008060009054906101000a900460ff16600481111561121b57fe5b81600481111561122757fe5b1461127d576040517f08c379a000000000000000000000000000000000000000000000000000000000815260040180806020018281038252603e8152602001806137da603e913960400191505060405180910390fd5b61134e8a8a80806020026020016040519081016040528093929190818152602001838360200280828437600081840152601f19601f82011690508083019250505050505050898980806020026020016040519081016040528093929190818152602001838360200280828437600081840152601f19601f8201169050808301925050505050505088888080601f016020809104026020016040519081016040528093929190818152602001838380828437600081840152601f19601f82011690508083019250505050505050612d9c565b60001515600260003373ffffffffffffffffffffffffffffffffffffffff1673ffffffffffffffffffffffffffffffffffffffff16815260200190815260200160002060009054906101000a900460ff1615151415611400576001600260003373ffffffffffffffffffffffffffffffffffffffff1673ffffffffffffffffffffffffffffffffffffffff16815260200190815260200160002060006101000a81548160ff0219169083151502179055505b600080905060008090505b6001805490508110156114be5760011515600260006001848154811061142d57fe5b9060005260206000200160009054906101000a900473ffffffffffffffffffffffffffffffffffffffff1673ffffffffffffffffffffffffffffffffffffffff1673ffffffffffffffffffffffffffffffffffffffff16815260200190815260200160002060009054906101000a900460ff16151514156114b15781806001019250505b808060010191505061140b565b50346003600082825401925050819055506001805490508114156115045760016000806101000a81548160ff021916908360048111156114fa57fe5b0217905550611528565b60008060006101000a81548160ff0219169083600481111561152257fe5b02179055505b7f66fe4817acfd8756899e5d70b8db5e2f51795f380411f9aa53f14f246cd7d2046000809054906101000a900460ff166040518082600481111561156857fe5b60ff16815260200191505060405180910390a15050505050505050505050565b6060600480548060200260200160405190810160405280929190818152602001828054801561160c57602002820191906000526020600020905b8160009054906101000a900473ffffffffffffffffffffffffffffffffffffffff1673ffffffffffffffffffffffffffffffffffffffff16815260200190600101908083116115c2575b5050505050905090565b60075481565b6008818154811061162957fe5b906000526020600020016000915054906101000a900473ffffffffffffffffffffffffffffffffffffffff1681565b60046000809054906101000a900460ff16600481111561167457fe5b81600481111561168057fe5b146116d6576040517f08c379a000000000000000000000000000000000000000000000000000000000815260040180806020018281038252603e8152602001806137da603e913960400191505060405180910390fd5b60001515601060003373ffffffffffffffffffffffffffffffffffffffff1673ffffffffffffffffffffffffffffffffffffffff16815260200190815260200160002060009054906101000a900460ff1615151461179c576040517f08c379a000000000000000000000000000000000000000000000000000000000815260040180806020018281038252601e8152602001807f596f75206861766520616c7265616479206265656e20726566756e646564000081525060200191505060405180910390fd5b600080905060011515600260003373ffffffffffffffffffffffffffffffffffffffff1673ffffffffffffffffffffffffffffffffffffffff16815260200190815260200160002060009054906101000a900460ff16151514156117ff57600190505b80600960003373ffffffffffffffffffffffffffffffffffffffff1673ffffffffffffffffffffffffffffffffffffffff168152602001908152602001600020805490501015806118a0575060011515600f60003373ffffffffffffffffffffffffffffffffffffffff1673ffffffffffffffffffffffffffffffffffffffff16815260200190815260200160002060009054906101000a900460ff161515145b6118f5576040517f08c379a00000000000000000000000000000000000000000000000000000000081526004018080602001828103825260408152602001806139546040913960400191505060405180910390fd5b60008090506060600960003373ffffffffffffffffffffffffffffffffffffffff1673ffffffffffffffffffffffffffffffffffffffff168152602001908152602001600020805480602002602001604051908101604052809291908181526020016000905b82821015611a7d57838290600052602060002090600302016040518060600160405290816000820154815260200160018201805480602002602001604051908101604052809291908181526020018280548015611a0d57602002820191906000526020600020905b8160009054906101000a900473ffffffffffffffffffffffffffffffffffffffff1673ffffffffffffffffffffffffffffffffffffffff16815260200190600101908083116119c3575b5050505050815260200160028201805480602002602001604051908101604052809291908181526020018280548015611a6557602002820191906000526020600020905b815481526020019060010190808311611a51575b5050505050815250508152602001906001019061195b565b5050505090505b8051831015611ab657808381518110611a9957fe5b602002602001015160000151820191508280600101935050611a84565b600080905060011515600f60003373ffffffffffffffffffffffffffffffffffffffff1673ffffffffffffffffffffffffffffffffffffffff16815260200190815260200160002060009054906101000a900460ff1615151415611b2957600d54600e5460035481611b2457fe5b040190505b6001601060003373ffffffffffffffffffffffffffffffffffffffff1673ffffffffffffffffffffffffffffffffffffffff16815260200190815260200160002060006101000a81548160ff02191690831515021790555060003373ffffffffffffffffffffffffffffffffffffffff1682850160405180600001905060006040518083038185875af1925050503d8060008114611be3576040519150601f19603f3d011682016040523d82523d6000602084013e611be8565b606091505b505090506001151581151514611c49576040517f08c379a00000000000000000000000000000000000000000000000000000000081526004018080602001828103825260268152602001806138b36026913960400191505060405180910390fd5b7f9bb5f29b9278b7f706a7caa67770ad63d5af89b481bdc02309439d76ca0a19df8483604051808381526020018281526020019250505060405180910390a1505050505050565b6000601060003373ffffffffffffffffffffffffffffffffffffffff1673ffffffffffffffffffffffffffffffffffffffff16815260200190815260200160002060009054906101000a900460ff16905090565b600d5481565b60056020528060005260406000206000915090508060000154908060010160009054906101000a900460ff16905082565b60115481565b600e5481565b600060011515600560003373ffffffffffffffffffffffffffffffffffffffff1673ffffffffffffffffffffffffffffffffffffffff16815260200190815260200160002060010160009054906101000a900460ff16151514611dd5576040517f08c379a00000000000000000000000000000000000000000000000000000000081526004018080602001828103825260318152602001806138616031913960400191505060405180910390fd5b600660003373ffffffffffffffffffffffffffffffffffffffff1673ffffffffffffffffffffffffffffffffffffffff16815260200190815260200160002060009054906101000a900460ff16905090565b606080600a60003373ffffffffffffffffffffffffffffffffffffffff1673ffffffffffffffffffffffffffffffffffffffff168152602001908152602001600020805480602002602001604051908101604052809291908181526020016000905b82821015611f7157838290600052602060002090600302016040518060600160405290816000820154815260200160018201548152602001600282018054600181600116156101000203166002900480601f016020809104026020016040519081016040528092919081815260200182805460018160011615610100020316600290048015611f595780601f10611f2e57610100808354040283529160200191611f59565b820191906000526020600020905b815481529060010190602001808311611f3c57829003601f168201915b50505050508152505081526020019060010190611e89565b50505050905060608151604051908082528060200260200182016040528015611fa95781602001602082028038833980820191505090505b50905060008090505b8251811015611ff857828181518110611fc757fe5b602002602001015160000151828281518110611fdf57fe5b6020026020010181815250508080600101915050611fb2565b50809250505090565b6000600f60003373ffffffffffffffffffffffffffffffffffffffff1673ffffffffffffffffffffffffffffffffffffffff16815260200190815260200160002060009054906101000a900460ff16905090565b600b818154811061206257fe5b906000526020600020016000915090505481565b60011515600560003373ffffffffffffffffffffffffffffffffffffffff1673ffffffffffffffffffffffffffffffffffffffff16815260200190815260200160002060010160009054906101000a900460ff16151514612122576040517f08c379a00000000000000000000000000000000000000000000000000000000081526004018080602001828103825260318152602001806138616031913960400191505060405180910390fd5b6011544211801561215757506001600481111561213b57fe5b6000809054906101000a900460ff16600481111561215557fe5b145b156121805760026000806101000a81548160ff0219169083600481111561217a57fe5b02179055505b6002600481111561218d57fe5b6000809054906101000a900460ff1660048111156121a757fe5b1461221a576040517f08c379a000000000000000000000000000000000000000000000000000000000815260040180806020018281038252601f8152602001807f4572726f723a2063616d706169676e206e6f742079657420657870697265640081525060200191505060405180910390fd5b60001515600660003373ffffffffffffffffffffffffffffffffffffffff1673ffffffffffffffffffffffffffffffffffffffff16815260200190815260200160002060009054906101000a900460ff161515146122e0576040517f08c379a00000000000000000000000000000000000000000000000000000000081526004018080602001828103825260188152602001807f4572726f723a20616c72656164792077697468647261776e000000000000000081525060200191505060405180910390fd5b6000600560003373ffffffffffffffffffffffffffffffffffffffff1673ffffffffffffffffffffffffffffffffffffffff16815260200190815260200160002060000154905060008090506000600e54111561234f57600480549050600d54600e54028161234b57fe5b0490505b6001600660003373ffffffffffffffffffffffffffffffffffffffff1673ffffffffffffffffffffffffffffffffffffffff16815260200190815260200160002060006101000a81548160ff02191690831515021790555060016007600082825401925050819055506000818301905060008111156124905760003373ffffffffffffffffffffffffffffffffffffffff168260405180600001905060006040518083038185875af1925050503d8060008114612428576040519150601f19603f3d011682016040523d82523d6000602084013e61242d565b606091505b50509050600115158115151461248e576040517f08c379a00000000000000000000000000000000000000000000000000000000081526004018080602001828103825260218152602001806138926021913960400191505060405180910390fd5b505b7f30114f9a49b53f7fb4c7c9ee7723ca7a693418a4c5f1162e02f95a47348e03498383604051808381526020018281526020019250505060405180910390a1505050565b60016000809054906101000a900460ff1660048111156124f057fe5b8160048111156124fc57fe5b14612552576040517f08c379a000000000000000000000000000000000000000000000000000000000815260040180806020018281038252603e8152602001806137da603e913960400191505060405180910390fd5b60001515600f60003373ffffffffffffffffffffffffffffffffffffffff1673ffffffffffffffffffffffffffffffffffffffff16815260200190815260200160002060009054906101000a900460ff161515146125fb576040517f08c379a000000000000000000000000000000000000000000000000000000000815260040180806020018281038252602e8152602001806139ba602e913960400191505060405180910390fd5b600d543414612655576040517f08c379a0000000000000000000000000000000000000000000000000000000008152600401808060200182810382526036815260200180613a6e6036913960400191505060405180910390fd5b6001600f60003373ffffffffffffffffffffffffffffffffffffffff1673ffffffffffffffffffffffffffffffffffffffff16815260200190815260200160002060006101000a81548160ff0219169083151502179055506001600e60008282540192505081905550600c54600e5414156126ee5760046000806101000a81548160ff021916908360048111156126e857fe5b02179055505b7ff0ffd3bfdde8a6f01970d2ce17ab4bdb3d8ea65ed7efca58c63c1c0cc7a8a1826000809054906101000a900460ff166040518082600481111561272e57fe5b60ff16815260200191505060405180910390a150565b6000806000905060008090505b60018054905081108015612763575081155b156127e5573373ffffffffffffffffffffffffffffffffffffffff166001828154811061278c57fe5b9060005260206000200160009054906101000a900473ffffffffffffffffffffffffffffffffffffffff1673ffffffffffffffffffffffffffffffffffffffff1614156127d857600191505b8080600101915050612751565b508061283c576040517f08c379a00000000000000000000000000000000000000000000000000000000081526004018080602001828103825260268152602001806139946026913960400191505060405180910390fd5b600260003373ffffffffffffffffffffffffffffffffffffffff1673ffffffffffffffffffffffffffffffffffffffff16815260200190815260200160002060009054906101000a900460ff1691505090565b6001818154811061289c57fe5b906000526020600020016000915054906101000a900473ffffffffffffffffffffffffffffffffffffffff1681565b600080905060008090505b600180549050811080156128e8575081155b1561296a573373ffffffffffffffffffffffffffffffffffffffff166001828154811061291157fe5b9060005260206000200160009054906101000a900473ffffffffffffffffffffffffffffffffffffffff1673ffffffffffffffffffffffffffffffffffffffff16141561295d57600191505b80806001019150506128d6565b50806129c1576040517f08c379a00000000000000000000000000000000000000000000000000000000081526004018080602001828103825260268152602001806139946026913960400191505060405180910390fd5b60026000809054906101000a900460ff1660048111156129dd57fe5b8160048111156129e957fe5b14612a3f576040517f08c379a000000000000000000000000000000000000000000000000000000000815260040180806020018281038252603e8152602001806137da603e913960400191505060405180910390fd5b60004714612a98576040517f08c379a00000000000000000000000000000000000000000000000000000000081526004018080602001828103825260398152602001806138d96039913960400191505060405180910390fd5b60036000806101000a81548160ff02191690836004811115612ab657fe5b02179055507f66fe4817acfd8756899e5d70b8db5e2f51795f380411f9aa53f14f246cd7d2046000809054906101000a900460ff1660405180826004811115612afb57fe5b60ff16815260200191505060405180910390a15050565b606080600a60003373ffffffffffffffffffffffffffffffffffffffff1673ffffffffffffffffffffffffffffffffffffffff168152602001908152602001600020805480602002602001604051908101604052809291908181526020016000905b82821015612c5c57838290600052602060002090600302016040518060600160405290816000820154815260200160018201548152602001600282018054600181600116156101000203166002900480601f016020809104026020016040519081016040528092919081815260200182805460018160011615610100020316600290048015612c445780601f10612c1957610100808354040283529160200191612c44565b820191906000526020600020905b815481529060010190602001808311612c2757829003601f168201915b50505050508152505081526020019060010190612b74565b50505050905060608151604051908082528060200260200182016040528015612c945781602001602082028038833980820191505090505b50905060008090505b8151811015612ce357828181518110612cb257fe5b602002602001015160000151828281518110612cca57fe5b6020026020010181815250508080600101915050612c9d565b50809250505090565b6000809054906101000a900460ff1681565b60128054600181600116156101000203166002900480601f016020809104026020016040519081016040528092919081815260200182805460018160011615610100020316600290048015612d945780601f10612d6957610100808354040283529160200191612d94565b820191906000526020600020905b815481529060010190602001808311612d7757829003601f168201915b505050505081565b601154421115612e14576040517f08c379a00000000000000000000000000000000000000000000000000000000081526004018080602001828103825260208152602001807f4572726f723a2063616d706169676e20646561646c696e65206578706972656481525060200191505060405180910390fd5b82600080905060008090505b60048054905081108015612e32575081155b15612edc57600015156005600060048481548110612e4c57fe5b9060005260206000200160009054906101000a900473ffffffffffffffffffffffffffffffffffffffff1673ffffffffffffffffffffffffffffffffffffffff1673ffffffffffffffffffffffffffffffffffffffff16815260200190815260200160002060010160009054906101000a900460ff1615151415612ecf57600191505b8080600101915050612e20565b506000151581151514612f3a576040517f08c379a000000000000000000000000000000000000000000000000000000000815260040180806020018281038252603d815260200180613a31603d913960400191505060405180910390fd5b60016004811115612f4757fe5b6000809054906101000a900460ff166004811115612f6157fe5b1480612fed575060006004811115612f7557fe5b6000809054906101000a900460ff166004811115612f8f57fe5b148015612fec575060001515600260003373ffffffffffffffffffffffffffffffffffffffff1673ffffffffffffffffffffffffffffffffffffffff16815260200190815260200160002060009054906101000a900460ff161515145b5b613042576040517f08c379a00000000000000000000000000000000000000000000000000000000081526004018080602001828103825260498152602001806139e86049913960600191505060405180910390fd5b600034116130b8576040517f08c379a00000000000000000000000000000000000000000000000000000000081526004018080602001828103825260158152602001807f4572726f723a2030207765692070726f7669646564000000000000000000000081525060200191505060405180910390fd5b8351855114613112576040517f08c379a00000000000000000000000000000000000000000000000000000000081526004018080602001828103825260428152602001806139126042913960600191505060405180910390fd5b600080905060008090505b855181101561314b5785818151811061313257fe5b602002602001015182019150808060010191505061311d565b508034146131a4576040517f08c379a00000000000000000000000000000000000000000000000000000000081526004018080602001828103825260498152602001806138186049913960600191505060405180910390fd5b6131ac6135d8565b34816000018181525050868160200181905250858160400181905250600960003373ffffffffffffffffffffffffffffffffffffffff1673ffffffffffffffffffffffffffffffffffffffff16815260200190815260200160002081908060018154018082558091505090600182039060005260206000209060030201600090919290919091506000820151816000015560208201518160010190805190602001906132599291906135f9565b506040820151816002019080519060200190613276929190613683565b505050506000600b805490501180156132a75750600b60008154811061329857fe5b90600052602060002001543410155b1561342a576132b46136d0565b60008090505b600b80549050811080156132e55750600b81815481106132d657fe5b90600052602060002001543410155b156132f75780806001019150506132ba565b600181038260000181815250506001600960003373ffffffffffffffffffffffffffffffffffffffff1673ffffffffffffffffffffffffffffffffffffffff1681526020019081526020016000208054905003826020018181525050868260400181905250600a60003373ffffffffffffffffffffffffffffffffffffffff1673ffffffffffffffffffffffffffffffffffffffff1681526020019081526020016000208290806001815401808255809150509060018203906000526020600020906003020160009091929091909150600082015181600001556020820151816001015560408201518160020190805190602001906133f79291906136f1565b505050507f744b881a25971efd286cf16da8b9c684ec04deeab58650ac9134f432baa30f1060405160405180910390a150505b60008090505b87518110156134bc5786818151811061344557fe5b6020026020010151600560008a848151811061345d57fe5b602002602001015173ffffffffffffffffffffffffffffffffffffffff1673ffffffffffffffffffffffffffffffffffffffff168152602001908152602001600020600001600082825401925050819055508080600101915050613430565b507f69ee10f8865f0d317c7a1b74da8e2cbffcc7097a4077b37fb42fba449101f93560405160405180910390a150505050505050565b6000600560008373ffffffffffffffffffffffffffffffffffffffff1673ffffffffffffffffffffffffffffffffffffffff168152602001908152602001600020600001549050919050565b6060600b80548060200260200160405190810160405280929190818152602001828054801561358c57602002820191906000526020600020905b815481526020019060010190808311613578575b5050505050905090565b600481815481106135a357fe5b906000526020600020016000915054906101000a900473ffffffffffffffffffffffffffffffffffffffff1681565b600c5481565b60405180606001604052806000815260200160608152602001606081525090565b828054828255906000526020600020908101928215613672579160200282015b828111156136715782518260006101000a81548173ffffffffffffffffffffffffffffffffffffffff021916908373ffffffffffffffffffffffffffffffffffffffff16021790555091602001919060010190613619565b5b50905061367f9190613771565b5090565b8280548282559060005260206000209081019282156136bf579160200282015b828111156136be5782518255916020019190600101906136a3565b5b5090506136cc91906137b4565b5090565b60405180606001604052806000815260200160008152602001606081525090565b828054600181600116156101000203166002900490600052602060002090601f016020900481019282601f1061373257805160ff1916838001178555613760565b82800160010185558215613760579182015b8281111561375f578251825591602001919060010190613744565b5b50905061376d91906137b4565b5090565b6137b191905b808211156137ad57600081816101000a81549073ffffffffffffffffffffffffffffffffffffffff021916905550600101613777565b5090565b90565b6137d691905b808211156137d25760008160009055506001016137ba565b5090565b9056fe4572726f723a2063616e6e6f742061636365737320746869732066756e6374696f6e616c6974792066726f6d207468652063757272656e742073746174654572726f723a20546f74616c20706f766964656420776569732061726520646966666572656e742066726f6d207468652070726f7669646564207765697320706172746974696f6e734572726f723a206f6e6c792062656e656669636961726965732063616e20616363657373207468652077697468647261774572726f723a205769746864726177207472616e73616374696f6e206572726f724572726f723a204672617564207265666f756e64207472616e73616374696f6e206572726f724572726f723a205761697420756e74696c20616c6c2062656e65666963696172696573207769746864726177207468656972207265776172644572726f723a2064657374696e61746f72732073697a6520697320646966666572656e742066726f6d2074686520776569277320706172746974696f6e2073697a65596f752068617665206e6f74206d61646520646f6e6174696f6e732f7265706f7274206f7220796f75206861766520616c72656164792077697468647261776e4572726f723a2066756e6374696f6e20726573657276656420746f206f7267616e697a6572734572726f723a20596f75206861766520616c7265616479207265706f7274656420746869732063616d706169676e4572726f723a205468652063616d706169676e206973206e6f742073746172746564206f7220796f75277265206e6f7420616e206f7267616e697a657220746f2073746172742069744572726f723a206f6e65206f72206d6f7265206f66207468652070726f76696465642062656e6566696369617269657320646f206e6f742065786973744572726f723a20596f75206e65656420746f20696e7665737420736f6d6520657468657220746f207265706f72742061206672617564a265627a7a72315820fabff050d5bdb81a9a50cee90d143e92f36d82188fd2078931dba5b77ad9c2c964736f6c63430005100032",
  "source": "pragma solidity >=0.4.21 <0.7.0;\r\n\r\nimport \"./Library.sol\";\r\n\r\ncontract Campaign{\r\n\r\n    using Library for Library.Reward;\r\n    using Library for Library.Donation;\r\n    using Library for Library.DonationReward;\r\n    using Library for Library.FraudReporter;\r\n\r\n\r\n    enum State {PENDING, RUNNING, EXPIRED, DEACTIVATED, BLOCKED}\r\n    State public state;\r\n\r\n    address[] public organizers;\r\n    mapping(address => bool) private organizers_donation;\r\n    uint initial_donation_amount;\r\n\r\n    address payable[] public beneficiaries;\r\n    mapping(address => Library.Reward) public beneficiaries_map;\r\n    mapping(address => bool) beneficiary_withdrawn;\r\n    uint public total_withdrawn;\r\n\r\n    address[] public donors;\r\n    mapping(address => Library.Donation[]) private donations;\r\n    mapping(address => Library.DonationReward[]) private donations_rewards;\r\n\r\n    uint[] public rewards_prices;\r\n\r\n    uint public thresholdFraud;\r\n    uint public report_investment;\r\n    uint public reports_number;\r\n    mapping(address => bool) fraud_reporters;\r\n    mapping(address => bool) user_refunded;\r\n\r\n    uint public campaign_end_timestamp;\r\n    string public info_hashes;\r\n\r\n    event campainStatus(State s);\r\n    event donationSuccess();\r\n    event donationRewardUnlocked();\r\n    event withdrawSuccess(uint amount, uint plus);\r\n    event refoundEmitted(uint amount, uint plus);\r\n    event fraudReported(State s);\r\n\r\n    modifier isOrganizer() {\r\n        bool is_organizer = false;\r\n        for(uint i = 0; i<organizers.length && !is_organizer; i++){\r\n            if(organizers[i] == msg.sender)\r\n                is_organizer = true;\r\n        }\r\n\r\n        require(is_organizer, \"Error: function reserved to organizers\");\r\n        _;\r\n    }\r\n\r\n    modifier isBeneficiary(){\r\n        require(beneficiaries_map[msg.sender].flag==true, \"Error: only beneficiaries can access the withdraw\");\r\n        _;\r\n    }\r\n\r\n    modifier requireState(State s){\r\n        require(s==state, \"Error: cannot access this functionality from the current state\");\r\n        _;\r\n    }\r\n\r\n    modifier beneficiariesExist(address[] memory b) {\r\n        bool error = false;\r\n        for(uint i = 0; i<beneficiaries.length && !error; i++){\r\n            if(beneficiaries_map[beneficiaries[i]].flag == false)\r\n                error = true;\r\n        }\r\n\r\n        require(error==false, \"Error: one or more of the provided beneficiaries do not exist\");\r\n        _;\r\n    }\r\n\r\n    modifier campaignNotEnded() {\r\n        require(block.timestamp <= campaign_end_timestamp, \"Error: campaign deadline expired\");\r\n        _;\r\n    }\r\n\r\n    modifier campaignExpired(){\r\n        if(block.timestamp > campaign_end_timestamp && state==State.RUNNING)\r\n             state = State.EXPIRED;\r\n        \r\n        require(state == State.EXPIRED, \"Error: campaign not yet expired\");\r\n        _;\r\n    }\r\n\r\n    constructor(address[] memory _organizers, address payable[] memory _beneficiaries, uint _end_date,\r\n    uint[] memory rewards_costs, uint fraudThreshold, string memory campaign_info_hashes, uint _report_investment) public {\r\n\r\n        for(uint i = 0; i < _organizers.length; i++) {\r\n            organizers.push(_organizers[i]);\r\n            organizers_donation[_organizers[i]] = false;\r\n        }\r\n\r\n        for(uint i = 0; i < _beneficiaries.length; i++){\r\n            beneficiaries.push(_beneficiaries[i]);\r\n            beneficiaries_map[_beneficiaries[i]].amount = 0;\r\n            beneficiaries_map[_beneficiaries[i]].flag = true;\r\n        }\r\n\r\n        campaign_end_timestamp = _end_date;\r\n        rewards_prices = rewards_costs;\r\n        info_hashes = campaign_info_hashes;\r\n\r\n        state = State.PENDING;\r\n\r\n        thresholdFraud = fraudThreshold;\r\n        report_investment = _report_investment;\r\n        initial_donation_amount = 0;\r\n\r\n        emit campainStatus(state);\r\n    }\r\n\r\n    function startCampaign(address[] calldata to, uint[] calldata wei_partition, string calldata contact_email)\r\n     campaignNotEnded() external payable isOrganizer() beneficiariesExist(to) requireState(State.PENDING){//RQ-PARAMS\r\n        \r\n        makeDonation(to, wei_partition, contact_email);\r\n\r\n        if(organizers_donation[msg.sender] == false)\r\n            organizers_donation[msg.sender] = true;\r\n\r\n        uint organizers_donors = 0;\r\n        for(uint i = 0; i<organizers.length; i++){\r\n            if(organizers_donation[organizers[i]] == true)\r\n                organizers_donors++;\r\n        }\r\n\r\n        initial_donation_amount += msg.value;\r\n\r\n        if(organizers_donors==organizers.length)\r\n            state = State.RUNNING;\r\n        else\r\n            state = State.PENDING;\r\n\r\n        emit campainStatus(state);\r\n    }\r\n\r\n\r\n    function makeDonation(address[] memory to, uint[] memory wei_partition, string memory contact_email)public payable\r\n     campaignNotEnded() beneficiariesExist(to){\r\n         \r\n        require(state==State.RUNNING || (state==State.PENDING && organizers_donation[msg.sender]==false),\r\n                \"Error: The campaign is not started or you're not an organizer to start it\");\r\n        require(msg.value>0, \"Error: 0 wei provided\");\r\n        require(to.length==wei_partition.length, \"Error: destinators size is different from the wei's partition size\");\r\n        \r\n        uint total_donation = 0;\r\n        for(uint i = 0; i<wei_partition.length; i++){\r\n            total_donation += wei_partition[i];\r\n        }\r\n        require(msg.value==total_donation,\"Error: Total povided weis are different from the provided weis partitions\");\r\n        \r\n\r\n        Library.Donation memory d;\r\n\r\n        d.amount = msg.value;\r\n        d.donation_beneficiaries = to;\r\n        d.danation_partitions = wei_partition;\r\n        donations[msg.sender].push(d);\r\n\r\n        //Check for rewards\r\n        if(rewards_prices.length>0 && msg.value>=rewards_prices[0]){\r\n            Library.DonationReward memory reward;\r\n            uint i = 0;\r\n            while(i<rewards_prices.length && msg.value>=rewards_prices[i])\r\n                i++;\r\n\r\n            reward.max_reward_index = i - 1;\r\n            reward.donation_index = donations[msg.sender].length - 1;\r\n            reward.email_contact = contact_email;\r\n\r\n            donations_rewards[msg.sender].push(reward);\r\n\r\n            emit donationRewardUnlocked();\r\n        }\r\n\r\n        for(uint i = 0; i<to.length; i++)\r\n            beneficiaries_map[to[i]].amount += wei_partition[i];\r\n\r\n        emit donationSuccess();\r\n    }\r\n\r\n\r\n    function beneficiaryWithdraw() external isBeneficiary() campaignExpired(){\r\n        require(beneficiary_withdrawn[msg.sender]==false, \"Error: already withdrawn\");//Avoid reentrancy\r\n\r\n        uint amount = beneficiaries_map[msg.sender].amount;\r\n\r\n        //Subdivide ether from reporters(if exist) to all beneficiaries\r\n        uint plus = 0;\r\n        if (reports_number > 0)\r\n            plus = uint((reports_number*report_investment)/beneficiaries.length);\r\n\r\n        beneficiary_withdrawn[msg.sender] = true; //consider beneficiary withdrawn before send ether to avoid reentrancy\r\n        total_withdrawn += 1;\r\n\r\n        uint total = amount+plus;\r\n        if(total > 0){\r\n            (bool success, ) = msg.sender.call.value(total)(\"\");\r\n            require(success==true, \"Error: Withdraw transaction error\");\r\n        }\r\n        \r\n        emit withdrawSuccess(amount, plus);\r\n\r\n    }\r\n\r\n\r\n    function deactivateCampaign() public isOrganizer() requireState(State.EXPIRED){\r\n        require(address(this).balance==0, \"Error: Wait until all beneficiaries withdraw their reward\");\r\n        state = State.DEACTIVATED;\r\n\r\n        emit campainStatus(state);\r\n    }\r\n\r\n\r\n    function getDonationReward() external view returns(uint[] memory){\r\n        Library.DonationReward[] memory user_donations_rewards = donations_rewards[msg.sender];\r\n        uint[] memory rewards = new uint[](user_donations_rewards.length);\r\n\r\n        for(uint i = 0; i<user_donations_rewards.length; i++)\r\n            rewards[i] = user_donations_rewards[i].max_reward_index;\r\n\r\n        return rewards;\r\n    }\r\n\r\n    function reportFraud() external payable requireState(State.RUNNING){\r\n        require(fraud_reporters[msg.sender]==false, \"Error: You have already reported this campaign\");\r\n        require(msg.value==report_investment, \"Error: You need to invest some ether to report a fraud\");\r\n\r\n        fraud_reporters[msg.sender] = true;\r\n\r\n        reports_number += 1;\r\n        if(reports_number == thresholdFraud)\r\n            state = State.BLOCKED;\r\n\r\n        emit fraudReported(state);\r\n    }\r\n\r\n\r\n    function fraudWithdraw() external payable requireState(State.BLOCKED){\r\n        require(user_refunded[msg.sender]==false, \"You have already been refunded\");\r\n\r\n        uint index = 0;\r\n        if (organizers_donation[msg.sender]==true) //If organizer do not consider the firt donation sice it is the inital\r\n            index = 1;\r\n\r\n        require(donations[msg.sender].length>=index || fraud_reporters[msg.sender]==true,\r\n        \"You have not made donations/report or you have already withdrawn\");\r\n\r\n        uint amount = 0;\r\n        Library.Donation[] memory user_donation = donations[msg.sender];\r\n        while(index < user_donation.length){\r\n            amount += user_donation[index].amount;\r\n            index++;\r\n        }\r\n\r\n        uint plus = 0;\r\n        if(fraud_reporters[msg.sender]==true)//If the sender is a reporter\r\n            plus = uint(initial_donation_amount / reports_number) + report_investment;\r\n\r\n\r\n        user_refunded[msg.sender] = true; //to avoid reentrancy\r\n        (bool success, ) = msg.sender.call.value(amount+plus)(\"\");\r\n        require(success==true, \"Error: Fraud refound transaction error\");\r\n\r\n        emit refoundEmitted(amount, plus);\r\n\r\n    }\r\n\r\n\r\n    //Dapp get information\r\n    function getAllBeneficiaries() public view returns(address payable[] memory){return beneficiaries;}\r\n\r\n    function getAllOrganizers() public view returns(address[] memory){return organizers;}\r\n\r\n    function organizerHaveDonated()public view isOrganizer() returns(bool) {return organizers_donation[msg.sender];}\r\n\r\n    function getAllRewardsPrices() public view returns(uint[] memory){return rewards_prices;}\r\n\r\n    function getBeneficiaryReward(address b)public view returns(uint){return beneficiaries_map[b].amount;}\r\n\r\n    function beneficiaryHaveWithdrawn()public view isBeneficiary() returns(bool){return beneficiary_withdrawn[msg.sender];}\r\n\r\n    function userHaveReported()public view returns(bool){return fraud_reporters[msg.sender];}\r\n\r\n    function userHaveBeenRefunded()public view returns(bool){return user_refunded[msg.sender];}\r\n\r\n    function getUserDonation()public view returns(uint[] memory){\r\n        Library.Donation[] memory user_donations = donations[msg.sender];\r\n        uint[] memory donations_amounts = new uint[](user_donations.length);\r\n\r\n        for(uint i = 0; i<donations_amounts.length; i++)\r\n            donations_amounts[i] = user_donations[i].amount;\r\n        \r\n        return donations_amounts;\r\n    }\r\n\r\n    function getUserRewards()public view returns(uint[] memory){\r\n        Library.DonationReward[] memory user_rewards = donations_rewards[msg.sender];\r\n        uint[] memory rewards = new uint[](user_rewards.length);\r\n\r\n        for(uint i = 0; i<rewards.length; i++)\r\n            rewards[i] = user_rewards[i].max_reward_index;\r\n            \r\n        return rewards;\r\n    }\r\n\r\n\r\n}",
  "sourcePath": "G:\\SSD Workspace\\Ethereum\\BitCollect\\contracts\\Campaign.sol",
  "compiler": {
    "name": "solc",
    "version": "0.5.16+commit.9c3226ce.Emscripten.clang"
  },
  "schemaVersion": "3.2.0",
  "updatedAt": "2020-07-17T07:35:30.703Z",
  "devdoc": {
    "methods": {}
  },
  "userdoc": {
    "methods": {}
  }
}