{
  "contractName": "Campaign",
  "abi": [
    {
      "inputs": [
        {
          "internalType": "address[]",
          "name": "_organizers",
          "type": "address[]"
        },
        {
          "internalType": "address payable[]",
          "name": "_beneficiaries",
          "type": "address[]"
        },
        {
          "internalType": "string",
          "name": "_beneficiaries_names",
          "type": "string"
        },
        {
          "internalType": "uint256",
          "name": "_end_date",
          "type": "uint256"
        },
        {
          "internalType": "string",
          "name": "name",
          "type": "string"
        },
        {
          "internalType": "string",
          "name": "_description",
          "type": "string"
        },
        {
          "internalType": "string[]",
          "name": "rewards_names",
          "type": "string[]"
        },
        {
          "internalType": "uint256[]",
          "name": "rewards_costs",
          "type": "uint256[]"
        },
        {
          "internalType": "uint256",
          "name": "fraudThreshold",
          "type": "uint256"
        },
        {
          "internalType": "string",
          "name": "imgage_url",
          "type": "string"
        },
        {
          "internalType": "string",
          "name": "image_hash",
          "type": "string"
        }
      ],
      "payable": false,
      "stateMutability": "nonpayable",
      "type": "constructor"
    },
    {
      "anonymous": false,
      "inputs": [
        {
          "indexed": false,
          "internalType": "enum Campaign.State",
          "name": "s",
          "type": "uint8"
        }
      ],
      "name": "campainStatus",
      "type": "event"
    },
    {
      "anonymous": false,
      "inputs": [],
      "name": "donationRewardUnlocked",
      "type": "event"
    },
    {
      "anonymous": false,
      "inputs": [],
      "name": "donationSuccess",
      "type": "event"
    },
    {
      "anonymous": false,
      "inputs": [
        {
          "indexed": false,
          "internalType": "enum Campaign.State",
          "name": "s",
          "type": "uint8"
        }
      ],
      "name": "fraudReported",
      "type": "event"
    },
    {
      "anonymous": false,
      "inputs": [
        {
          "indexed": false,
          "internalType": "uint256",
          "name": "amount",
          "type": "uint256"
        },
        {
          "indexed": false,
          "internalType": "uint256",
          "name": "plus",
          "type": "uint256"
        }
      ],
      "name": "refoundEmitted",
      "type": "event"
    },
    {
      "anonymous": false,
      "inputs": [
        {
          "indexed": false,
          "internalType": "address",
          "name": "beneficiary",
          "type": "address"
        },
        {
          "indexed": false,
          "internalType": "uint256",
          "name": "amount",
          "type": "uint256"
        }
      ],
      "name": "withdrawSuccess",
      "type": "event"
    },
    {
      "constant": true,
      "inputs": [
        {
          "internalType": "uint256",
          "name": "",
          "type": "uint256"
        }
      ],
      "name": "beneficiaries",
      "outputs": [
        {
          "internalType": "address payable",
          "name": "",
          "type": "address"
        }
      ],
      "payable": false,
      "stateMutability": "view",
      "type": "function"
    },
    {
      "constant": true,
      "inputs": [
        {
          "internalType": "address",
          "name": "",
          "type": "address"
        }
      ],
      "name": "beneficiaries_map",
      "outputs": [
        {
          "internalType": "uint256",
          "name": "amount",
          "type": "uint256"
        },
        {
          "internalType": "bool",
          "name": "flag",
          "type": "bool"
        }
      ],
      "payable": false,
      "stateMutability": "view",
      "type": "function"
    },
    {
      "constant": true,
      "inputs": [
        {
          "internalType": "uint256",
          "name": "",
          "type": "uint256"
        }
      ],
      "name": "organizers",
      "outputs": [
        {
          "internalType": "address",
          "name": "",
          "type": "address"
        }
      ],
      "payable": false,
      "stateMutability": "view",
      "type": "function"
    },
    {
      "constant": true,
      "inputs": [],
      "name": "state",
      "outputs": [
        {
          "internalType": "enum Campaign.State",
          "name": "",
          "type": "uint8"
        }
      ],
      "payable": false,
      "stateMutability": "view",
      "type": "function"
    },
    {
      "constant": false,
      "inputs": [
        {
          "internalType": "address[]",
          "name": "to",
          "type": "address[]"
        },
        {
          "internalType": "uint256[]",
          "name": "wei_partition",
          "type": "uint256[]"
        },
        {
          "internalType": "string",
          "name": "contact_email",
          "type": "string"
        }
      ],
      "name": "startCampaign",
      "outputs": [],
      "payable": true,
      "stateMutability": "payable",
      "type": "function"
    },
    {
      "constant": false,
      "inputs": [
        {
          "internalType": "address[]",
          "name": "to",
          "type": "address[]"
        },
        {
          "internalType": "uint256[]",
          "name": "wei_partition",
          "type": "uint256[]"
        },
        {
          "internalType": "string",
          "name": "contact_email",
          "type": "string"
        }
      ],
      "name": "makeDonation",
      "outputs": [],
      "payable": true,
      "stateMutability": "payable",
      "type": "function"
    },
    {
      "constant": false,
      "inputs": [],
      "name": "beneficiaryWithdraw",
      "outputs": [],
      "payable": false,
      "stateMutability": "nonpayable",
      "type": "function"
    },
    {
      "constant": false,
      "inputs": [],
      "name": "endCampaign",
      "outputs": [],
      "payable": false,
      "stateMutability": "nonpayable",
      "type": "function"
    },
    {
      "constant": false,
      "inputs": [],
      "name": "deactivateCampaign",
      "outputs": [],
      "payable": false,
      "stateMutability": "nonpayable",
      "type": "function"
    },
    {
      "constant": true,
      "inputs": [],
      "name": "getBeneficiaries",
      "outputs": [
        {
          "internalType": "address payable[]",
          "name": "",
          "type": "address[]"
        }
      ],
      "payable": false,
      "stateMutability": "view",
      "type": "function"
    },
    {
      "constant": true,
      "inputs": [],
      "name": "getDeadline",
      "outputs": [
        {
          "internalType": "uint256",
          "name": "",
          "type": "uint256"
        }
      ],
      "payable": false,
      "stateMutability": "view",
      "type": "function"
    },
    {
      "constant": true,
      "inputs": [
        {
          "internalType": "address[]",
          "name": "_ben",
          "type": "address[]"
        }
      ],
      "name": "getBeneficiariesRewards",
      "outputs": [
        {
          "internalType": "uint256[]",
          "name": "",
          "type": "uint256[]"
        }
      ],
      "payable": false,
      "stateMutability": "view",
      "type": "function"
    },
    {
      "constant": true,
      "inputs": [],
      "name": "getDonationReward",
      "outputs": [
        {
          "internalType": "string",
          "name": "",
          "type": "string"
        }
      ],
      "payable": false,
      "stateMutability": "view",
      "type": "function"
    },
    {
      "constant": false,
      "inputs": [],
      "name": "reportFraud",
      "outputs": [],
      "payable": true,
      "stateMutability": "payable",
      "type": "function"
    },
    {
      "constant": false,
      "inputs": [],
      "name": "fraudWithdraw",
      "outputs": [],
      "payable": true,
      "stateMutability": "payable",
      "type": "function"
    }
  ],
  "bytecode": "0x60806040523480156200001157600080fd5b5060405162004a5838038062004a5883398181016040526200003791908101906200097f565b60008b51905060008090505b81811015620001405760058d82815181106200005b57fe5b602002602001015190806001815401808255809150509060018203906000526020600020016000909192909190916101000a81548173ffffffffffffffffffffffffffffffffffffffff021916908373ffffffffffffffffffffffffffffffffffffffff160217905550506000600660008f8481518110620000d957fe5b602002602001015173ffffffffffffffffffffffffffffffffffffffff1673ffffffffffffffffffffffffffffffffffffffff16815260200190815260200160002060006101000a81548160ff021916908315150217905550808060010191505062000043565b508a51905060008090505b81811015620002a75760098c82815181106200016357fe5b602002602001015190806001815401808255809150509060018203906000526020600020016000909192909190916101000a81548173ffffffffffffffffffffffffffffffffffffffff021916908373ffffffffffffffffffffffffffffffffffffffff160217905550506000600a60008e8481518110620001e157fe5b602002602001015173ffffffffffffffffffffffffffffffffffffffff1673ffffffffffffffffffffffffffffffffffffffff168152602001908152602001600020600001819055506001600a60008e84815181106200023d57fe5b602002602001015173ffffffffffffffffffffffffffffffffffffffff1673ffffffffffffffffffffffffffffffffffffffff16815260200190815260200160002060010160006101000a81548160ff02191690831515021790555080806001019150506200014b565b508960089080519060200190620002c0929190620003f2565b50886014819055508760019080519060200190620002e0929190620003f2565b508660029080519060200190620002f9929190620003f2565b5060008060006101000a81548160ff021916908360048111156200031957fe5b021790555085600e90805190602001906200033692919062000479565b5084600f90805190602001906200034f929190620004e0565b50836010819055506000601181905550600060078190555082600390805190602001906200037f929190620003f2565b50816004908051906020019062000398929190620003f2565b507f66fe4817acfd8756899e5d70b8db5e2f51795f380411f9aa53f14f246cd7d2046000809054906101000a900460ff16604051620003d8919062000b78565b60405180910390a150505050505050505050505062000dce565b828054600181600116156101000203166002900490600052602060002090601f016020900481019282601f106200043557805160ff191683800117855562000466565b8280016001018555821562000466579182015b828111156200046557825182559160200191906001019062000448565b5b50905062000475919062000532565b5090565b828054828255906000526020600020908101928215620004cd579160200282015b82811115620004cc578251829080519060200190620004bb9291906200055a565b50916020019190600101906200049a565b5b509050620004dc9190620005e1565b5090565b8280548282559060005260206000209081019282156200051f579160200282015b828111156200051e57825182559160200191906001019062000501565b5b5090506200052e919062000532565b5090565b6200055791905b808211156200055357600081600090555060010162000539565b5090565b90565b828054600181600116156101000203166002900490600052602060002090601f016020900481019282601f106200059d57805160ff1916838001178555620005ce565b82800160010185558215620005ce579182015b82811115620005cd578251825591602001919060010190620005b0565b5b509050620005dd919062000532565b5090565b6200060f91905b808211156200060b576000818162000601919062000612565b50600101620005e8565b5090565b90565b50805460018160011615610100020316600290046000825580601f106200063a57506200065b565b601f0160209004906000526020600020908101906200065a919062000532565b5b50565b6000815190506200066f8162000d80565b92915050565b600081519050620006868162000d9a565b92915050565b600082601f8301126200069e57600080fd5b8151620006b5620006af8262000bc3565b62000b95565b91508181835260208401935060208101905083856020840282011115620006db57600080fd5b60005b838110156200070f5781620006f488826200065e565b845260208401935060208301925050600181019050620006de565b5050505092915050565b600082601f8301126200072b57600080fd5b8151620007426200073c8262000bec565b62000b95565b915081818352602084019350602081019050838560208402820111156200076857600080fd5b60005b838110156200079c578162000781888262000675565b8452602084019350602083019250506001810190506200076b565b5050505092915050565b600082601f830112620007b857600080fd5b8151620007cf620007c98262000c15565b62000b95565b9150818183526020840193506020810190508360005b83811015620008195781518601620007fe8882620008b0565b845260208401935060208301925050600181019050620007e5565b5050505092915050565b600082601f8301126200083557600080fd5b81516200084c620008468262000c3e565b62000b95565b915081818352602084019350602081019050838560208402820111156200087257600080fd5b60005b83811015620008a657816200088b888262000968565b84526020840193506020830192505060018101905062000875565b5050505092915050565b600082601f830112620008c257600080fd5b8151620008d9620008d38262000c67565b62000b95565b91508082526020830160208301858383011115620008f657600080fd5b6200090383828462000d3c565b50505092915050565b600082601f8301126200091e57600080fd5b8151620009356200092f8262000c94565b62000b95565b915080825260208301602083018583830111156200095257600080fd5b6200095f83828462000d3c565b50505092915050565b600081519050620009798162000db4565b92915050565b60008060008060008060008060008060006101608c8e031215620009a257600080fd5b60008c015167ffffffffffffffff811115620009bd57600080fd5b620009cb8e828f016200068c565b9b505060208c015167ffffffffffffffff811115620009e957600080fd5b620009f78e828f0162000719565b9a505060408c015167ffffffffffffffff81111562000a1557600080fd5b62000a238e828f016200090c565b995050606062000a368e828f0162000968565b98505060808c015167ffffffffffffffff81111562000a5457600080fd5b62000a628e828f016200090c565b97505060a08c015167ffffffffffffffff81111562000a8057600080fd5b62000a8e8e828f016200090c565b96505060c08c015167ffffffffffffffff81111562000aac57600080fd5b62000aba8e828f01620007a6565b95505060e08c015167ffffffffffffffff81111562000ad857600080fd5b62000ae68e828f0162000823565b94505061010062000afa8e828f0162000968565b9350506101208c015167ffffffffffffffff81111562000b1957600080fd5b62000b278e828f016200090c565b9250506101408c015167ffffffffffffffff81111562000b4657600080fd5b62000b548e828f016200090c565b9150509295989b509295989b9093969950565b62000b728162000d28565b82525050565b600060208201905062000b8f600083018462000b67565b92915050565b6000604051905081810181811067ffffffffffffffff8211171562000bb957600080fd5b8060405250919050565b600067ffffffffffffffff82111562000bdb57600080fd5b602082029050602081019050919050565b600067ffffffffffffffff82111562000c0457600080fd5b602082029050602081019050919050565b600067ffffffffffffffff82111562000c2d57600080fd5b602082029050602081019050919050565b600067ffffffffffffffff82111562000c5657600080fd5b602082029050602081019050919050565b600067ffffffffffffffff82111562000c7f57600080fd5b601f19601f8301169050602081019050919050565b600067ffffffffffffffff82111562000cac57600080fd5b601f19601f8301169050602081019050919050565b600062000cce8262000cfe565b9050919050565b600062000ce28262000cfe565b9050919050565b600081905062000cf98262000d72565b919050565b600073ffffffffffffffffffffffffffffffffffffffff82169050919050565b6000819050919050565b600062000d358262000ce9565b9050919050565b60005b8381101562000d5c57808201518184015260208101905062000d3f565b8381111562000d6c576000848401525b50505050565b6005811062000d7d57fe5b50565b62000d8b8162000cc1565b811462000d9757600080fd5b50565b62000da58162000cd5565b811462000db157600080fd5b50565b62000dbf8162000d1e565b811462000dcb57600080fd5b50565b613c7a8062000dde6000396000f3fe6080604052600436106100e85760003560e01c80639af6549a1161008a578063c19d93fb11610059578063c19d93fb1461025e578063d059de1914610289578063e86ae700146102a5578063efeb5e58146102e2576100e8565b80639af6549a146101e95780639c378d8014610200578063a4c8be1e1461020a578063a4e00d6e14610247576100e8565b80635f8d96de116100c65780635f8d96de1461015157806371aac7f91461017c5780637f1e573c14610193578063913b722c146101be576100e8565b806324881536146100ed5780634f42b0d8146101095780635d3e961314610113575b600080fd5b61010760048036036101029190810190612c01565b61031f565b005b6101116108fd565b005b34801561011f57600080fd5b5061013a60048036036101359190810190612bd8565b610f29565b604051610148929190613955565b60405180910390f35b34801561015d57600080fd5b50610166610f5a565b604051610173919061393a565b60405180910390f35b34801561018857600080fd5b50610191610f64565b005b34801561019f57600080fd5b506101a86111e4565b6040516101b59190613718565b60405180910390f35b3480156101ca57600080fd5b506101d3611496565b6040516101e091906136b9565b60405180910390f35b3480156101f557600080fd5b506101fe611524565b005b610208611829565b005b34801561021657600080fd5b50610231600480360361022c9190810190612d7d565b611a8a565b60405161023e919061365a565b60405180910390f35b34801561025357600080fd5b5061025c611ac6565b005b34801561026a57600080fd5b50610273611cbf565b60405161028091906136fd565b60405180910390f35b6102a3600480360361029e9190810190612ce6565b611cd1565b005b3480156102b157600080fd5b506102cc60048036036102c79190810190612ca5565b6123c6565b6040516102d991906136db565b60405180910390f35b3480156102ee57600080fd5b5061030960048036036103049190810190612d7d565b6125a3565b6040516103169190613675565b60405180910390f35b426014548110610364576040517f08c379a000000000000000000000000000000000000000000000000000000000815260040161035b9061375a565b60405180910390fd5b33600080905060008090505b60058054905081108015610382575081155b15610404578273ffffffffffffffffffffffffffffffffffffffff16600582815481106103ab57fe5b9060005260206000200160009054906101000a900473ffffffffffffffffffffffffffffffffffffffff1673ffffffffffffffffffffffffffffffffffffffff1614156103f757600191505b8080600101915050610370565b5080610445576040517f08c379a000000000000000000000000000000000000000000000000000000000815260040161043c9061387a565b60405180910390fd5b888880806020026020016040519081016040528093929190818152602001838360200280828437600081840152601f19601f82011690508083019250505050505050600080905060008090505b600980549050811080156104a4575081155b1561054e5760001515600a6000600984815481106104be57fe5b9060005260206000200160009054906101000a900473ffffffffffffffffffffffffffffffffffffffff1673ffffffffffffffffffffffffffffffffffffffff1673ffffffffffffffffffffffffffffffffffffffff16815260200190815260200160002060010160009054906101000a900460ff161515141561054157600191505b8080600101915050610492565b506000151581151514610596576040517f08c379a000000000000000000000000000000000000000000000000000000000815260040161058d906138da565b60405180910390fd5b60008060009054906101000a900460ff1660048111156105b257fe5b8160048111156105be57fe5b146105fe576040517f08c379a00000000000000000000000000000000000000000000000000000000081526004016105f59061377a565b60405180910390fd5b6106cf8c8c80806020026020016040519081016040528093929190818152602001838360200280828437600081840152601f19601f820116905080830192505050505050508b8b80806020026020016040519081016040528093929190818152602001838360200280828437600081840152601f19601f820116905080830192505050505050508a8a8080601f016020809104026020016040519081016040528093929190818152602001838380828437600081840152601f19601f82011690508083019250505050505050611cd1565b60001515600660003373ffffffffffffffffffffffffffffffffffffffff1673ffffffffffffffffffffffffffffffffffffffff16815260200190815260200160002060009054906101000a900460ff1615151415610781576001600660003373ffffffffffffffffffffffffffffffffffffffff1673ffffffffffffffffffffffffffffffffffffffff16815260200190815260200160002060006101000a81548160ff0219169083151502179055505b600080905060008090505b60058054905081101561083f576001151560066000600584815481106107ae57fe5b9060005260206000200160009054906101000a900473ffffffffffffffffffffffffffffffffffffffff1673ffffffffffffffffffffffffffffffffffffffff1673ffffffffffffffffffffffffffffffffffffffff16815260200190815260200160002060009054906101000a900460ff16151514156108325781806001019250505b808060010191505061078c565b50346007600082825401925050819055506005805490508114156108855760016000806101000a81548160ff0219169083600481111561087b57fe5b02179055506108a9565b60008060006101000a81548160ff021916908360048111156108a357fe5b02179055505b7f66fe4817acfd8756899e5d70b8db5e2f51795f380411f9aa53f14f246cd7d2046000809054906101000a900460ff166040516108e691906136fd565b60405180910390a150505050505050505050505050565b60046000809054906101000a900460ff16600481111561091957fe5b81600481111561092557fe5b14610965576040517f08c379a000000000000000000000000000000000000000000000000000000000815260040161095c9061377a565b60405180910390fd5b600060011515600660003373ffffffffffffffffffffffffffffffffffffffff1673ffffffffffffffffffffffffffffffffffffffff16815260200190815260200160002060009054906101000a900460ff16151514156109c957600190506109ce565b600090505b80600c60003373ffffffffffffffffffffffffffffffffffffffff1673ffffffffffffffffffffffffffffffffffffffff168152602001908152602001600020805490501180610a5d57506000601360003373ffffffffffffffffffffffffffffffffffffffff1673ffffffffffffffffffffffffffffffffffffffff16815260200190815260200160002054115b610a9c576040517f08c379a0000000000000000000000000000000000000000000000000000000008152600401610a939061385a565b60405180910390fd5b60008090506060600c60003373ffffffffffffffffffffffffffffffffffffffff1673ffffffffffffffffffffffffffffffffffffffff168152602001908152602001600020805480602002602001604051908101604052809291908181526020016000905b82821015610d0957838290600052602060002090600702016040518060a00160405290816000820154815260200160018201805480602002602001604051908101604052809291908181526020018280548015610bb457602002820191906000526020600020905b8160009054906101000a900473ffffffffffffffffffffffffffffffffffffffff1673ffffffffffffffffffffffffffffffffffffffff1681526020019060010190808311610b6a575b5050505050815260200160028201805480602002602001604051908101604052809291908181526020018280548015610c0c57602002820191906000526020600020905b815481526020019060010190808311610bf8575b50505050508152602001600382016040518060600160405290816000820154815260200160018201548152602001600282018054600181600116156101000203166002900480601f016020809104026020016040519081016040528092919081815260200182805460018160011615610100020316600290048015610cd25780601f10610ca757610100808354040283529160200191610cd2565b820191906000526020600020905b815481529060010190602001808311610cb557829003601f168201915b50505050508152505081526020016006820160009054906101000a900460ff16151515158152505081526020019060010190610b02565b5050505090505b8051831015610d4257808381518110610d2557fe5b602002602001015160000151820191508280600101935050610d10565b600c60003373ffffffffffffffffffffffffffffffffffffffff1673ffffffffffffffffffffffffffffffffffffffff1681526020019081526020016000206000610d8d919061260e565b60008090506000601360003373ffffffffffffffffffffffffffffffffffffffff1673ffffffffffffffffffffffffffffffffffffffff168152602001908152602001600020541115610e335760128054905060075481610dea57fe5b0490506000601360003373ffffffffffffffffffffffffffffffffffffffff1673ffffffffffffffffffffffffffffffffffffffff168152602001908152602001600020819055505b60003373ffffffffffffffffffffffffffffffffffffffff16828501604051610e5b90613645565b60006040518083038185875af1925050503d8060008114610e98576040519150601f19603f3d011682016040523d82523d6000602084013e610e9d565b606091505b505090506001151581151514610ee8576040517f08c379a0000000000000000000000000000000000000000000000000000000008152600401610edf906137fa565b60405180910390fd5b7f9bb5f29b9278b7f706a7caa67770ad63d5af89b481bdc02309439d76ca0a19df8483604051610f1992919061397e565b60405180910390a1505050505050565b600a6020528060005260406000206000915090508060000154908060010160009054906101000a900460ff16905082565b6000601454905090565b33600080905060008090505b60058054905081108015610f82575081155b15611004578273ffffffffffffffffffffffffffffffffffffffff1660058281548110610fab57fe5b9060005260206000200160009054906101000a900473ffffffffffffffffffffffffffffffffffffffff1673ffffffffffffffffffffffffffffffffffffffff161415610ff757600191505b8080600101915050610f70565b5080611045576040517f08c379a000000000000000000000000000000000000000000000000000000000815260040161103c9061387a565b60405180910390fd5b60016000809054906101000a900460ff16600481111561106157fe5b81600481111561106d57fe5b146110ad576040517f08c379a00000000000000000000000000000000000000000000000000000000081526004016110a49061377a565b60405180910390fd5b60026000806101000a81548160ff021916908360048111156110cb57fe5b02179055506000601154111561119a576000600980549050601154816110ed57fe5b04905060008090505b6009805490508110156111975781600a60006009848154811061111557fe5b9060005260206000200160009054906101000a900473ffffffffffffffffffffffffffffffffffffffff1673ffffffffffffffffffffffffffffffffffffffff1673ffffffffffffffffffffffffffffffffffffffff1681526020019081526020016000206000016000828254019250508190555080806001019150506110f6565b50505b7f66fe4817acfd8756899e5d70b8db5e2f51795f380411f9aa53f14f246cd7d2046000809054906101000a900460ff166040516111d791906136fd565b60405180910390a1505050565b60608060405180602001604052806000815250905060606040518060400160405280600181526020017f400000000000000000000000000000000000000000000000000000000000000081525090506060600d60003373ffffffffffffffffffffffffffffffffffffffff1673ffffffffffffffffffffffffffffffffffffffff168152602001908152602001600020805480602002602001604051908101604052809291908181526020016000905b8282101561137c57838290600052602060002090600302016040518060600160405290816000820154815260200160018201548152602001600282018054600181600116156101000203166002900480601f0160208091040260200160405190810160405280929190818152602001828054600181600116156101000203166002900480156113645780601f1061133957610100808354040283529160200191611364565b820191906000526020600020905b81548152906001019060200180831161134757829003601f168201915b50505050508152505081526020019060010190611294565b50505050905060008090505b815181101561148c5760008090505b8282815181106113a357fe5b602002602001015160000151811161147e5761146f8585600e84815481106113c757fe5b906000526020600020018054600181600116156101000203166002900480601f0160208091040260200160405190810160405280929190818152602001828054600181600116156101000203166002900480156114655780601f1061143a57610100808354040283529160200191611465565b820191906000526020600020905b81548152906001019060200180831161144857829003601f168201915b50505050506125df565b94508080600101915050611397565b508080600101915050611388565b5082935050505090565b6060600980548060200260200160405190810160405280929190818152602001828054801561151a57602002820191906000526020600020905b8160009054906101000a900473ffffffffffffffffffffffffffffffffffffffff1673ffffffffffffffffffffffffffffffffffffffff16815260200190600101908083116114d0575b5050505050905090565b3360011515600a60008373ffffffffffffffffffffffffffffffffffffffff1673ffffffffffffffffffffffffffffffffffffffff16815260200190815260200160002060010160009054906101000a900460ff161515146115bb576040517f08c379a00000000000000000000000000000000000000000000000000000000081526004016115b2906137ba565b60405180910390fd5b60026000809054906101000a900460ff1660048111156115d757fe5b8160048111156115e357fe5b14611623576040517f08c379a000000000000000000000000000000000000000000000000000000000815260040161161a9061377a565b60405180910390fd5b6000600a60003373ffffffffffffffffffffffffffffffffffffffff1673ffffffffffffffffffffffffffffffffffffffff16815260200190815260200160002060000154116116a8576040517f08c379a000000000000000000000000000000000000000000000000000000000815260040161169f9061373a565b60405180910390fd5b6000600a60003373ffffffffffffffffffffffffffffffffffffffff1673ffffffffffffffffffffffffffffffffffffffff1681526020019081526020016000206000015490506000600a60003373ffffffffffffffffffffffffffffffffffffffff1673ffffffffffffffffffffffffffffffffffffffff1681526020019081526020016000206000018190555060003373ffffffffffffffffffffffffffffffffffffffff168260405161175d90613645565b60006040518083038185875af1925050503d806000811461179a576040519150601f19603f3d011682016040523d82523d6000602084013e61179f565b606091505b5050905060011515811515146117ea576040517f08c379a00000000000000000000000000000000000000000000000000000000081526004016117e1906137da565b60405180910390fd5b7f93740124b37b8f64043ddd706a499c11b58d2642466169e4c310f6b55ead67b6338360405161181b929190613690565b60405180910390a150505050565b60016000809054906101000a900460ff16600481111561184557fe5b81600481111561185157fe5b14611891576040517f08c379a00000000000000000000000000000000000000000000000000000000081526004016118889061377a565b60405180910390fd5b6000601360003373ffffffffffffffffffffffffffffffffffffffff1673ffffffffffffffffffffffffffffffffffffffff1681526020019081526020016000205414611913576040517f08c379a000000000000000000000000000000000000000000000000000000000815260040161190a9061389a565b60405180910390fd5b60003411611956576040517f08c379a000000000000000000000000000000000000000000000000000000000815260040161194d9061391a565b60405180910390fd5b34601360003373ffffffffffffffffffffffffffffffffffffffff1673ffffffffffffffffffffffffffffffffffffffff1681526020019081526020016000208190555060123390806001815401808255809150509060018203906000526020600020016000909192909190916101000a81548173ffffffffffffffffffffffffffffffffffffffff021916908373ffffffffffffffffffffffffffffffffffffffff160217905550503460116000828254019250508190555060105460128054905010611a425760046000806101000a81548160ff02191690836004811115611a3c57fe5b02179055505b7ff0ffd3bfdde8a6f01970d2ce17ab4bdb3d8ea65ed7efca58c63c1c0cc7a8a1826000809054906101000a900460ff16604051611a7f91906136fd565b60405180910390a150565b60058181548110611a9757fe5b906000526020600020016000915054906101000a900473ffffffffffffffffffffffffffffffffffffffff1681565b33600080905060008090505b60058054905081108015611ae4575081155b15611b66578273ffffffffffffffffffffffffffffffffffffffff1660058281548110611b0d57fe5b9060005260206000200160009054906101000a900473ffffffffffffffffffffffffffffffffffffffff1673ffffffffffffffffffffffffffffffffffffffff161415611b5957600191505b8080600101915050611ad2565b5080611ba7576040517f08c379a0000000000000000000000000000000000000000000000000000000008152600401611b9e9061387a565b60405180910390fd5b60026000809054906101000a900460ff166004811115611bc357fe5b816004811115611bcf57fe5b14611c0f576040517f08c379a0000000000000000000000000000000000000000000000000000000008152600401611c069061377a565b60405180910390fd5b60004714611c52576040517f08c379a0000000000000000000000000000000000000000000000000000000008152600401611c499061381a565b60405180910390fd5b60036000806101000a81548160ff02191690836004811115611c7057fe5b02179055507f66fe4817acfd8756899e5d70b8db5e2f51795f380411f9aa53f14f246cd7d2046000809054906101000a900460ff16604051611cb291906136fd565b60405180910390a1505050565b6000809054906101000a900460ff1681565b426014548110611d16576040517f08c379a0000000000000000000000000000000000000000000000000000000008152600401611d0d9061375a565b60405180910390fd5b83600080905060008090505b60098054905081108015611d34575081155b15611dde5760001515600a600060098481548110611d4e57fe5b9060005260206000200160009054906101000a900473ffffffffffffffffffffffffffffffffffffffff1673ffffffffffffffffffffffffffffffffffffffff1673ffffffffffffffffffffffffffffffffffffffff16815260200190815260200160002060010160009054906101000a900460ff1615151415611dd157600191505b8080600101915050611d22565b506000151581151514611e26576040517f08c379a0000000000000000000000000000000000000000000000000000000008152600401611e1d906138da565b60405180910390fd5b60016004811115611e3357fe5b6000809054906101000a900460ff166004811115611e4d57fe5b1480611ed9575060006004811115611e6157fe5b6000809054906101000a900460ff166004811115611e7b57fe5b148015611ed8575060001515600660003373ffffffffffffffffffffffffffffffffffffffff1673ffffffffffffffffffffffffffffffffffffffff16815260200190815260200160002060009054906101000a900460ff161515145b5b611f18576040517f08c379a0000000000000000000000000000000000000000000000000000000008152600401611f0f906138ba565b60405180910390fd5b60003411611f5b576040517f08c379a0000000000000000000000000000000000000000000000000000000008152600401611f52906138fa565b60405180910390fd5b8451865114611f9f576040517f08c379a0000000000000000000000000000000000000000000000000000000008152600401611f969061383a565b60405180910390fd5b600080905060008090505b8651811015611fd857868181518110611fbf57fe5b6020026020010151820191508080600101915050611faa565b5080341461201b576040517f08c379a00000000000000000000000000000000000000000000000000000000081526004016120129061379a565b60405180910390fd5b612023612632565b34816000018181525050878160200181905250868160400181905250600c60003373ffffffffffffffffffffffffffffffffffffffff1673ffffffffffffffffffffffffffffffffffffffff16815260200190815260200160002081908060018154018082558091505090600182039060005260206000209060070201600090919290919091506000820151816000015560208201518160010190805190602001906120d0929190612669565b5060408201518160020190805190602001906120ed9291906126f3565b5060608201518160030160008201518160000155602082015181600101556040820151816002019080519060200190612127929190612740565b50505060808201518160060160006101000a81548160ff0219169083151502179055505050506000600f8054905011801561217a5750600f60008154811061216b57fe5b90600052602060002001543410155b156122fd576121876127c0565b60008090505b600e80549050811080156121b85750600f81815481106121a957fe5b90600052602060002001543410155b156121ca57808060010191505061218d565b600181038260000181815250506001600c60003373ffffffffffffffffffffffffffffffffffffffff1673ffffffffffffffffffffffffffffffffffffffff1681526020019081526020016000208054905003826020018181525050878260400181905250600d60003373ffffffffffffffffffffffffffffffffffffffff1673ffffffffffffffffffffffffffffffffffffffff1681526020019081526020016000208290806001815401808255809150509060018203906000526020600020906003020160009091929091909150600082015181600001556020820151816001015560408201518160020190805190602001906122ca929190612740565b505050507f744b881a25971efd286cf16da8b9c684ec04deeab58650ac9134f432baa30f1060405160405180910390a150505b60008090505b885181101561238f5787818151811061231857fe5b6020026020010151600a60008b848151811061233057fe5b602002602001015173ffffffffffffffffffffffffffffffffffffffff1673ffffffffffffffffffffffffffffffffffffffff168152602001908152602001600020600001600082825401925050819055508080600101915050612303565b507f69ee10f8865f0d317c7a1b74da8e2cbffcc7097a4077b37fb42fba449101f93560405160405180910390a15050505050505050565b606081600080905060008090505b600980549050811080156123e6575081155b156124905760001515600a60006009848154811061240057fe5b9060005260206000200160009054906101000a900473ffffffffffffffffffffffffffffffffffffffff1673ffffffffffffffffffffffffffffffffffffffff1673ffffffffffffffffffffffffffffffffffffffff16815260200190815260200160002060010160009054906101000a900460ff161515141561248357600191505b80806001019150506123d4565b5060001515811515146124d8576040517f08c379a00000000000000000000000000000000000000000000000000000000081526004016124cf906138da565b60405180910390fd5b6060845160405190808252806020026020018201604052801561250a5781602001602082028038833980820191505090505b50905060008090505b855181101561259757600a600087838151811061252c57fe5b602002602001015173ffffffffffffffffffffffffffffffffffffffff1673ffffffffffffffffffffffffffffffffffffffff1681526020019081526020016000206000015482828151811061257e57fe5b6020026020010181815250508080600101915050612513565b50809350505050919050565b600981815481106125b057fe5b906000526020600020016000915054906101000a900473ffffffffffffffffffffffffffffffffffffffff1681565b60608383836040516020016125f693929190613614565b60405160208183030381529060405290509392505050565b508054600082556007029060005260206000209081019061262f91906127e1565b50565b6040518060a0016040528060008152602001606081526020016060815260200161265a612863565b81526020016000151581525090565b8280548282559060005260206000209081019282156126e2579160200282015b828111156126e15782518260006101000a81548173ffffffffffffffffffffffffffffffffffffffff021916908373ffffffffffffffffffffffffffffffffffffffff16021790555091602001919060010190612689565b5b5090506126ef9190612884565b5090565b82805482825590600052602060002090810192821561272f579160200282015b8281111561272e578251825591602001919060010190612713565b5b50905061273c91906128c7565b5090565b828054600181600116156101000203166002900490600052602060002090601f016020900481019282601f1061278157805160ff19168380011785556127af565b828001600101855582156127af579182015b828111156127ae578251825591602001919060010190612793565b5b5090506127bc91906128c7565b5090565b60405180606001604052806000815260200160008152602001606081525090565b61286091905b8082111561285c5760008082016000905560018201600061280891906128ec565b600282016000612818919061290d565b60038201600080820160009055600182016000905560028201600061283d919061292e565b50506006820160006101000a81549060ff0219169055506007016127e7565b5090565b90565b60405180606001604052806000815260200160008152602001606081525090565b6128c491905b808211156128c057600081816101000a81549073ffffffffffffffffffffffffffffffffffffffff02191690555060010161288a565b5090565b90565b6128e991905b808211156128e55760008160009055506001016128cd565b5090565b90565b508054600082559060005260206000209081019061290a91906128c7565b50565b508054600082559060005260206000209081019061292b91906128c7565b50565b50805460018160011615610100020316600290046000825580601f106129545750612973565b601f01602090049060005260206000209081019061297291906128c7565b5b50565b60008135905061298581613c09565b92915050565b60008083601f84011261299d57600080fd5b8235905067ffffffffffffffff8111156129b657600080fd5b6020830191508360208202830111156129ce57600080fd5b9250929050565b600082601f8301126129e657600080fd5b81356129f96129f4826139d4565b6139a7565b91508181835260208401935060208101905083856020840282011115612a1e57600080fd5b60005b83811015612a4e5781612a348882612976565b845260208401935060208301925050600181019050612a21565b5050505092915050565b60008083601f840112612a6a57600080fd5b8235905067ffffffffffffffff811115612a8357600080fd5b602083019150836020820283011115612a9b57600080fd5b9250929050565b600082601f830112612ab357600080fd5b8135612ac6612ac1826139fc565b6139a7565b91508181835260208401935060208101905083856020840282011115612aeb57600080fd5b60005b83811015612b1b5781612b018882612bc3565b845260208401935060208301925050600181019050612aee565b5050505092915050565b60008083601f840112612b3757600080fd5b8235905067ffffffffffffffff811115612b5057600080fd5b602083019150836001820283011115612b6857600080fd5b9250929050565b600082601f830112612b8057600080fd5b8135612b93612b8e82613a24565b6139a7565b91508082526020830160208301858383011115612baf57600080fd5b612bba838284613ba9565b50505092915050565b600081359050612bd281613c20565b92915050565b600060208284031215612bea57600080fd5b6000612bf884828501612976565b91505092915050565b60008060008060008060608789031215612c1a57600080fd5b600087013567ffffffffffffffff811115612c3457600080fd5b612c4089828a0161298b565b9650965050602087013567ffffffffffffffff811115612c5f57600080fd5b612c6b89828a01612a58565b9450945050604087013567ffffffffffffffff811115612c8a57600080fd5b612c9689828a01612b25565b92509250509295509295509295565b600060208284031215612cb757600080fd5b600082013567ffffffffffffffff811115612cd157600080fd5b612cdd848285016129d5565b91505092915050565b600080600060608486031215612cfb57600080fd5b600084013567ffffffffffffffff811115612d1557600080fd5b612d21868287016129d5565b935050602084013567ffffffffffffffff811115612d3e57600080fd5b612d4a86828701612aa2565b925050604084013567ffffffffffffffff811115612d6757600080fd5b612d7386828701612b6f565b9150509250925092565b600060208284031215612d8f57600080fd5b6000612d9d84828501612bc3565b91505092915050565b6000612db28383612de5565b60208301905092915050565b6000612dca83836135f6565b60208301905092915050565b612ddf81613b61565b82525050565b612dee81613b06565b82525050565b612dfd81613b06565b82525050565b612e0c81613af4565b82525050565b6000612e1d82613a70565b612e278185613aab565b9350612e3283613a50565b8060005b83811015612e63578151612e4a8882612da6565b9750612e5583613a91565b925050600181019050612e36565b5085935050505092915050565b6000612e7b82613a7b565b612e858185613abc565b9350612e9083613a60565b8060005b83811015612ec1578151612ea88882612dbe565b9750612eb383613a9e565b925050600181019050612e94565b5085935050505092915050565b612ed781613b18565b82525050565b612ee681613b73565b82525050565b6000612ef782613a86565b612f018185613ad8565b9350612f11818560208601613bb8565b612f1a81613beb565b840191505092915050565b6000612f3082613a86565b612f3a8185613ae9565b9350612f4a818560208601613bb8565b80840191505092915050565b6000612f63603883613ad8565b91507f4572726f723a2074686572652068617665206265656e206e6f20646f6e61746960008301527f6f6e7320666f7220746869732062656e656669636961727900000000000000006020830152604082019050919050565b6000612fc9602083613ad8565b91507f4572726f723a2063616d706169676e20646561646c696e6520657870697265646000830152602082019050919050565b6000613009603e83613ad8565b91507f4572726f723a2063616e6e6f742061636365737320746869732066756e63746960008301527f6f6e616c6974792066726f6d207468652063757272656e7420737461746500006020830152604082019050919050565b600061306f604983613ad8565b91507f4572726f723a20546f74616c20706f766964656420776569732061726520646960008301527f66666572656e742066726f6d207468652070726f76696465642077656973207060208301527f6172746974696f6e7300000000000000000000000000000000000000000000006040830152606082019050919050565b60006130fb603183613ad8565b91507f4572726f723a206f6e6c792062656e656669636961726965732063616e20616360008301527f63657373207468652077697468647261770000000000000000000000000000006020830152604082019050919050565b6000613161602183613ad8565b91507f4572726f723a205769746864726177207472616e73616374696f6e206572726f60008301527f72000000000000000000000000000000000000000000000000000000000000006020830152604082019050919050565b60006131c7602683613ad8565b91507f4572726f723a204672617564207265666f756e64207472616e73616374696f6e60008301527f206572726f7200000000000000000000000000000000000000000000000000006020830152604082019050919050565b600061322d603983613ad8565b91507f4572726f723a205761697420756e74696c20616c6c2062656e6566696369617260008301527f69657320776974686472617720746865697220726577617264000000000000006020830152604082019050919050565b6000613293604283613ad8565b91507f4572726f723a2064657374696e61746f72732073697a6520697320646966666560008301527f72656e742066726f6d2074686520776569277320706172746974696f6e20736960208301527f7a650000000000000000000000000000000000000000000000000000000000006040830152606082019050919050565b600061331f604083613ad8565b91507f596f752068617665206e6f74206d61646520646f6e6174696f6e732f7265706f60008301527f7274206f7220796f75206861766520616c72656164792077697468647261776e6020830152604082019050919050565b6000613385602683613ad8565b91507f4572726f723a2066756e6374696f6e20726573657276656420746f206f72676160008301527f6e697a65727300000000000000000000000000000000000000000000000000006020830152604082019050919050565b60006133eb600083613acd565b9150600082019050919050565b6000613405602e83613ad8565b91507f4572726f723a20596f75206861766520616c7265616479207265706f7274656460008301527f20746869732063616d706169676e0000000000000000000000000000000000006020830152604082019050919050565b600061346b604983613ad8565b91507f4572726f723a205468652063616d706169676e206973206e6f7420737461727460008301527f6564206f7220796f75277265206e6f7420616e206f7267616e697a657220746f60208301527f20737461727420697400000000000000000000000000000000000000000000006040830152606082019050919050565b60006134f7603d83613ad8565b91507f4572726f723a206f6e65206f72206d6f7265206f66207468652070726f76696460008301527f65642062656e6566696369617269657320646f206e6f742065786973740000006020830152604082019050919050565b600061355d601583613ad8565b91507f4572726f723a2030207765692070726f766964656400000000000000000000006000830152602082019050919050565b600061359d603683613ad8565b91507f4572726f723a20596f75206e65656420746f20696e7665737420736f6d65206560008301527f7468657220746f207265706f72742061206672617564000000000000000000006020830152604082019050919050565b6135ff81613b57565b82525050565b61360e81613b57565b82525050565b60006136208286612f25565b915061362c8285612f25565b91506136388284612f25565b9150819050949350505050565b6000613650826133de565b9150819050919050565b600060208201905061366f6000830184612e03565b92915050565b600060208201905061368a6000830184612df4565b92915050565b60006040820190506136a56000830185612dd6565b6136b26020830184613605565b9392505050565b600060208201905081810360008301526136d38184612e12565b905092915050565b600060208201905081810360008301526136f58184612e70565b905092915050565b60006020820190506137126000830184612edd565b92915050565b600060208201905081810360008301526137328184612eec565b905092915050565b6000602082019050818103600083015261375381612f56565b9050919050565b6000602082019050818103600083015261377381612fbc565b9050919050565b6000602082019050818103600083015261379381612ffc565b9050919050565b600060208201905081810360008301526137b381613062565b9050919050565b600060208201905081810360008301526137d3816130ee565b9050919050565b600060208201905081810360008301526137f381613154565b9050919050565b60006020820190508181036000830152613813816131ba565b9050919050565b6000602082019050818103600083015261383381613220565b9050919050565b6000602082019050818103600083015261385381613286565b9050919050565b6000602082019050818103600083015261387381613312565b9050919050565b6000602082019050818103600083015261389381613378565b9050919050565b600060208201905081810360008301526138b3816133f8565b9050919050565b600060208201905081810360008301526138d38161345e565b9050919050565b600060208201905081810360008301526138f3816134ea565b9050919050565b6000602082019050818103600083015261391381613550565b9050919050565b6000602082019050818103600083015261393381613590565b9050919050565b600060208201905061394f6000830184613605565b92915050565b600060408201905061396a6000830185613605565b6139776020830184612ece565b9392505050565b60006040820190506139936000830185613605565b6139a06020830184613605565b9392505050565b6000604051905081810181811067ffffffffffffffff821117156139ca57600080fd5b8060405250919050565b600067ffffffffffffffff8211156139eb57600080fd5b602082029050602081019050919050565b600067ffffffffffffffff821115613a1357600080fd5b602082029050602081019050919050565b600067ffffffffffffffff821115613a3b57600080fd5b601f19601f8301169050602081019050919050565b6000819050602082019050919050565b6000819050602082019050919050565b600081519050919050565b600081519050919050565b600081519050919050565b6000602082019050919050565b6000602082019050919050565b600082825260208201905092915050565b600082825260208201905092915050565b600081905092915050565b600082825260208201905092915050565b600081905092915050565b6000613aff82613b37565b9050919050565b6000613b1182613b37565b9050919050565b60008115159050919050565b6000819050613b3282613bfc565b919050565b600073ffffffffffffffffffffffffffffffffffffffff82169050919050565b6000819050919050565b6000613b6c82613b85565b9050919050565b6000613b7e82613b24565b9050919050565b6000613b9082613b97565b9050919050565b6000613ba282613b37565b9050919050565b82818337600083830152505050565b60005b83811015613bd6578082015181840152602081019050613bbb565b83811115613be5576000848401525b50505050565b6000601f19601f8301169050919050565b60058110613c0657fe5b50565b613c1281613af4565b8114613c1d57600080fd5b50565b613c2981613b57565b8114613c3457600080fd5b5056fea365627a7a72315820f3aaeae7f18214c62cec075a535e0f6454810f297337e8936ec90e511a8ec1056c6578706572696d656e74616cf564736f6c63430005100040",
  "source": "pragma solidity >=0.4.21 <0.7.0;\r\npragma experimental ABIEncoderV2;\r\n\r\nimport \"./Library.sol\";\r\n\r\ncontract Campaign{\r\n\r\n    using Library for Library.Reward;\r\n    using Library for Library.Donation;\r\n    using Library for Library.DonationReward;\r\n    using Library for Library.FraudReporter;\r\n\r\n\r\n    enum State {PENDING, RUNNING, EXPIRED, DEACTIVATED, BLOCKED}\r\n    State public state;\r\n\r\n    string campaign_name;\r\n    string campaign_description;\r\n    string campaign_image;\r\n    string campaign_image_hash;\r\n\r\n    address[] public organizers;\r\n    mapping(address => bool) private organizers_donation;\r\n    uint initial_donation_amount;\r\n\r\n    string beneficiaries_names;\r\n    address payable[] public beneficiaries;\r\n    mapping(address => Library.Reward) public beneficiaries_map;\r\n\r\n    address[] donors;\r\n    mapping(address => Library.Donation[]) private donations;\r\n    mapping(address => Library.DonationReward[]) private donations_rewards;\r\n\r\n    string[] donation_rewards;\r\n    uint[] rewards_prices;\r\n\r\n    uint thresholdFraud;\r\n    uint fraud_report_amount;\r\n    address[] fraud_reporters;\r\n    mapping(address => uint) reports_investments;\r\n\r\n    uint campaign_end_timestamp;\r\n\r\n    event campainStatus(State s);\r\n    event donationSuccess();\r\n    event donationRewardUnlocked();\r\n    event withdrawSuccess(address beneficiary, uint amount);\r\n    event refoundEmitted(uint amount, uint plus);\r\n    event fraudReported(State s);\r\n\r\n    modifier isOrganizer(address expected) {\r\n        bool is_organizer = false;\r\n        for(uint i = 0; i<organizers.length && !is_organizer; i++){\r\n            if(organizers[i] == expected)\r\n                is_organizer = true;\r\n        }\r\n\r\n        require(is_organizer, \"Error: function reserved to organizers\");\r\n        _;\r\n    }\r\n\r\n    modifier isBeneficiary(address b){\r\n        require(beneficiaries_map[b].flag==true, \"Error: only beneficiaries can access the withdraw\");\r\n        _;\r\n    }\r\n\r\n    modifier requireState(State s){\r\n        require(s==state, \"Error: cannot access this functionality from the current state\");\r\n        _;\r\n    }\r\n\r\n    modifier beneficiariesExist(address[] memory b) {\r\n        bool error = false;\r\n        for(uint i = 0; i<beneficiaries.length && !error; i++){\r\n            if(beneficiaries_map[beneficiaries[i]].flag == false)\r\n                error = true;\r\n        }\r\n\r\n        require(error==false, \"Error: one or more of the provided beneficiaries do not exist\");\r\n        _;\r\n    }\r\n\r\n    modifier campaignNotEnded(uint current_timestamp) {\r\n        require(current_timestamp < campaign_end_timestamp, \"Error: campaign deadline expired\");\r\n        _;\r\n    }\r\n\r\n    constructor(address[] memory _organizers, address payable[] memory _beneficiaries, string memory _beneficiaries_names, uint _end_date,\r\n    string memory name, string memory _description, string[] memory rewards_names, uint[] memory rewards_costs, uint fraudThreshold, string memory imgage_url, string memory image_hash) public {\r\n\r\n        uint l = _organizers.length;\r\n        for(uint i = 0; i < l; i++) {\r\n            organizers.push(_organizers[i]);\r\n            organizers_donation[_organizers[i]] = false;\r\n        }\r\n\r\n        l = _beneficiaries.length;\r\n        for(uint i = 0; i < l; i++) {\r\n            beneficiaries.push(_beneficiaries[i]);\r\n            beneficiaries_map[_beneficiaries[i]].amount = 0;\r\n            beneficiaries_map[_beneficiaries[i]].flag = true;\r\n        }\r\n\r\n        beneficiaries_names = _beneficiaries_names;\r\n        campaign_end_timestamp = _end_date;\r\n\r\n\r\n        campaign_name = name;\r\n        campaign_description = _description;\r\n        state = State.PENDING;\r\n\r\n        donation_rewards = rewards_names;\r\n        rewards_prices = rewards_costs;\r\n\r\n        thresholdFraud = fraudThreshold;\r\n        fraud_report_amount = 0;\r\n        initial_donation_amount = 0;\r\n\r\n        campaign_image = imgage_url;\r\n        campaign_image_hash = image_hash;\r\n        emit campainStatus(state);\r\n    }\r\n\r\n    function startCampaign(address[] calldata to, uint[] calldata wei_partition, string calldata contact_email)\r\n     campaignNotEnded(block.timestamp) external payable isOrganizer(msg.sender) beneficiariesExist(to) requireState(State.PENDING){//RQ-PARAMS \r\n        \r\n        makeDonation(to, wei_partition, contact_email);\r\n\r\n        if(organizers_donation[msg.sender] == false)\r\n            organizers_donation[msg.sender] = true;\r\n\r\n        uint organizers_donors = 0;\r\n        for(uint i = 0; i<organizers.length; i++){\r\n            if(organizers_donation[organizers[i]] == true)\r\n                organizers_donors++;\r\n        }\r\n\r\n        initial_donation_amount += msg.value;\r\n\r\n        if(organizers_donors==organizers.length)\r\n            state = State.RUNNING;\r\n        else\r\n            state = State.PENDING;\r\n\r\n        emit campainStatus(state);\r\n    }\r\n\r\n\r\n    function makeDonation(address[] memory to, uint[] memory wei_partition, string memory contact_email)public payable\r\n     campaignNotEnded(block.timestamp)beneficiariesExist(to){\r\n         \r\n        require(state==State.RUNNING || (state==State.PENDING && organizers_donation[msg.sender]==false),\r\n                \"Error: The campaign is not started or you're not an organizer to start it\");\r\n        require(msg.value>0, \"Error: 0 wei provided\");\r\n        require(to.length==wei_partition.length, \"Error: destinators size is different from the wei's partition size\");\r\n        \r\n        uint total_donation = 0;\r\n        for(uint i = 0; i<wei_partition.length; i++){\r\n            total_donation += wei_partition[i];\r\n        }\r\n        require(msg.value==total_donation,\"Error: Total povided weis are different from the provided weis partitions\");\r\n        \r\n\r\n        Library.Donation memory d;\r\n\r\n        d.amount = msg.value;\r\n        d.donation_beneficiaries = to;\r\n        d.danation_partitions = wei_partition;\r\n        donations[msg.sender].push(d);\r\n\r\n        //Check for rewards\r\n        if(rewards_prices.length>0 && msg.value>=rewards_prices[0]){\r\n            Library.DonationReward memory reward;\r\n            uint i = 0;\r\n            while(i<donation_rewards.length && msg.value>=rewards_prices[i]){\r\n                i++;\r\n            }\r\n\r\n            reward.max_reward_index = i - 1;\r\n            reward.donation_index = donations[msg.sender].length - 1;\r\n            reward.email_contact = contact_email;\r\n\r\n            donations_rewards[msg.sender].push(reward);\r\n\r\n            emit donationRewardUnlocked();\r\n        }\r\n\r\n        for(uint i = 0; i<to.length; i++)\r\n            beneficiaries_map[to[i]].amount += wei_partition[i];\r\n\r\n        emit donationSuccess();\r\n    }\r\n\r\n\r\n    function beneficiaryWithdraw() external isBeneficiary(msg.sender) requireState(State.EXPIRED){\r\n        require(beneficiaries_map[msg.sender].amount > 0, \"Error: there have been no donations for this beneficiary\");\r\n\r\n        uint amount = beneficiaries_map[msg.sender].amount;\r\n        beneficiaries_map[msg.sender].amount = 0;\r\n        (bool success, ) = msg.sender.call.value(amount)(\"\");\r\n\r\n        require(success==true, \"Error: Withdraw transaction error\");\r\n\r\n        emit withdrawSuccess(msg.sender,amount);\r\n\r\n    }\r\n\r\n\r\n    function endCampaign() public isOrganizer(msg.sender) requireState(State.RUNNING){\r\n        state = State.EXPIRED;\r\n\r\n        //Subdivide ether from reporter to all beneficiaries\r\n        if (fraud_report_amount > 0){\r\n            uint plus = uint(fraud_report_amount/beneficiaries.length);\r\n            for(uint i = 0; i<beneficiaries.length; i++)\r\n                beneficiaries_map[beneficiaries[i]].amount += plus;\r\n        }\r\n\r\n        emit campainStatus(state);\r\n    }\r\n\r\n\r\n    function deactivateCampaign() public isOrganizer(msg.sender) requireState(State.EXPIRED){\r\n        require(address(this).balance==0, \"Error: Wait until all beneficiaries withdraw their reward\");\r\n        state = State.DEACTIVATED;\r\n\r\n        emit campainStatus(state);\r\n    }\r\n\r\n\r\n    function getBeneficiaries() public view returns(address payable[] memory){\r\n        return beneficiaries;\r\n    }\r\n\r\n    function getDeadline() public view returns(uint){\r\n        return campaign_end_timestamp;\r\n    }\r\n\r\n    function getBeneficiariesRewards(address[] memory _ben) public view beneficiariesExist(_ben) returns(uint[] memory){\r\n        uint[] memory rewards = new uint[](_ben.length);\r\n        for(uint i = 0; i<_ben.length; i++)\r\n            rewards[i] = beneficiaries_map[_ben[i]].amount;\r\n\r\n        return rewards;\r\n    }\r\n\r\n\r\n    function getDonationReward() external view returns(string memory){\r\n        string memory rewards = \"\";\r\n        string memory delimeter = \"@\";\r\n        Library.DonationReward[] memory user_donations_rewards = donations_rewards[msg.sender];\r\n\r\n        for(uint i = 0; i<user_donations_rewards.length; i++){\r\n           for(uint k = 0; k<=user_donations_rewards[i].max_reward_index; k++){\r\n                rewards = strConcat(rewards, delimeter, donation_rewards[k]);\r\n           }\r\n        }\r\n\r\n        return rewards;\r\n    }\r\n\r\n    function reportFraud() external payable requireState(State.RUNNING){\r\n        require(reports_investments[msg.sender]==0, \"Error: You have already reported this campaign\");\r\n        require(msg.value>0, \"Error: You need to invest some ether to report a fraud\");\r\n\r\n        reports_investments[msg.sender] = msg.value;\r\n        fraud_reporters.push(msg.sender);\r\n\r\n        fraud_report_amount += msg.value;\r\n\r\n        if(fraud_reporters.length >= thresholdFraud)\r\n            state = State.BLOCKED;\r\n\r\n        emit fraudReported(state);\r\n    }\r\n\r\n\r\n    function fraudWithdraw() external payable requireState(State.BLOCKED){\r\n        uint index;\r\n        if (organizers_donation[msg.sender]==true) //If organizer do not consider the firt donation sice it is the inital\r\n            index = 1;\r\n        else\r\n            index = 0;\r\n\r\n        require(donations[msg.sender].length>index || reports_investments[msg.sender]>0,\r\n        \"You have not made donations/report or you have already withdrawn\");\r\n\r\n        uint amount = 0;\r\n        Library.Donation[] memory user_donation = donations[msg.sender];\r\n        while(index < user_donation.length){\r\n            amount += user_donation[index].amount;\r\n            index++;\r\n        }\r\n\r\n        delete donations[msg.sender]; //remove all donation before refounding to avoid reentrancy\r\n\r\n        uint plus = 0;\r\n        if(reports_investments[msg.sender]>0){//If the sender is a reporter\r\n            plus = uint(initial_donation_amount/fraud_reporters.length);\r\n            reports_investments[msg.sender] = 0;  //remove reporter investment to avoid reentrancy\r\n        }\r\n\r\n        (bool success, ) = msg.sender.call.value(amount+plus)(\"\");\r\n        require(success==true, \"Error: Fraud refound transaction error\");\r\n\r\n        emit refoundEmitted(amount, plus);\r\n\r\n    }\r\n\r\n    function strConcat(string memory a, string memory b, string memory c) internal pure returns (string memory) {\r\n        return string(abi.encodePacked(a, b, c));\r\n    }\r\n\r\n\r\n}",
  "sourcePath": "G:\\SSD Workspace\\Ethereum\\BitCollect\\contracts\\Campaign.sol",
  "compiler": {
    "name": "solc",
    "version": "0.5.16+commit.9c3226ce.Emscripten.clang"
  },
  "schemaVersion": "3.2.0",
  "updatedAt": "2020-07-11T14:04:15.473Z",
  "devdoc": {
    "methods": {}
  },
  "userdoc": {
    "methods": {}
  }
}