{
  "contractName": "Campaign",
  "abi": [
    {
      "inputs": [
        {
          "internalType": "address[]",
          "name": "_organizers",
          "type": "address[]"
        },
        {
          "internalType": "address payable[]",
          "name": "_beneficiaries",
          "type": "address[]"
        },
        {
          "internalType": "uint256",
          "name": "_end_date",
          "type": "uint256"
        },
        {
          "internalType": "uint256[]",
          "name": "rewards_costs",
          "type": "uint256[]"
        },
        {
          "internalType": "uint256",
          "name": "fraudThreshold",
          "type": "uint256"
        },
        {
          "internalType": "string",
          "name": "campaign_info_hashes",
          "type": "string"
        }
      ],
      "payable": false,
      "stateMutability": "nonpayable",
      "type": "constructor"
    },
    {
      "anonymous": false,
      "inputs": [
        {
          "indexed": false,
          "internalType": "enum Campaign.State",
          "name": "s",
          "type": "uint8"
        }
      ],
      "name": "campainStatus",
      "type": "event"
    },
    {
      "anonymous": false,
      "inputs": [],
      "name": "donationRewardUnlocked",
      "type": "event"
    },
    {
      "anonymous": false,
      "inputs": [],
      "name": "donationSuccess",
      "type": "event"
    },
    {
      "anonymous": false,
      "inputs": [
        {
          "indexed": false,
          "internalType": "enum Campaign.State",
          "name": "s",
          "type": "uint8"
        }
      ],
      "name": "fraudReported",
      "type": "event"
    },
    {
      "anonymous": false,
      "inputs": [
        {
          "indexed": false,
          "internalType": "uint256",
          "name": "amount",
          "type": "uint256"
        },
        {
          "indexed": false,
          "internalType": "uint256",
          "name": "plus",
          "type": "uint256"
        }
      ],
      "name": "refoundEmitted",
      "type": "event"
    },
    {
      "anonymous": false,
      "inputs": [
        {
          "indexed": false,
          "internalType": "address",
          "name": "beneficiary",
          "type": "address"
        },
        {
          "indexed": false,
          "internalType": "uint256",
          "name": "amount",
          "type": "uint256"
        }
      ],
      "name": "withdrawSuccess",
      "type": "event"
    },
    {
      "constant": true,
      "inputs": [
        {
          "internalType": "uint256",
          "name": "",
          "type": "uint256"
        }
      ],
      "name": "beneficiaries",
      "outputs": [
        {
          "internalType": "address payable",
          "name": "",
          "type": "address"
        }
      ],
      "payable": false,
      "stateMutability": "view",
      "type": "function"
    },
    {
      "constant": true,
      "inputs": [
        {
          "internalType": "address",
          "name": "",
          "type": "address"
        }
      ],
      "name": "beneficiaries_map",
      "outputs": [
        {
          "internalType": "uint256",
          "name": "amount",
          "type": "uint256"
        },
        {
          "internalType": "bool",
          "name": "flag",
          "type": "bool"
        }
      ],
      "payable": false,
      "stateMutability": "view",
      "type": "function"
    },
    {
      "constant": true,
      "inputs": [],
      "name": "campaign_end_timestamp",
      "outputs": [
        {
          "internalType": "uint256",
          "name": "",
          "type": "uint256"
        }
      ],
      "payable": false,
      "stateMutability": "view",
      "type": "function"
    },
    {
      "constant": true,
      "inputs": [],
      "name": "info_hashes",
      "outputs": [
        {
          "internalType": "string",
          "name": "",
          "type": "string"
        }
      ],
      "payable": false,
      "stateMutability": "view",
      "type": "function"
    },
    {
      "constant": true,
      "inputs": [
        {
          "internalType": "uint256",
          "name": "",
          "type": "uint256"
        }
      ],
      "name": "organizers",
      "outputs": [
        {
          "internalType": "address",
          "name": "",
          "type": "address"
        }
      ],
      "payable": false,
      "stateMutability": "view",
      "type": "function"
    },
    {
      "constant": true,
      "inputs": [
        {
          "internalType": "uint256",
          "name": "",
          "type": "uint256"
        }
      ],
      "name": "rewards_prices",
      "outputs": [
        {
          "internalType": "uint256",
          "name": "",
          "type": "uint256"
        }
      ],
      "payable": false,
      "stateMutability": "view",
      "type": "function"
    },
    {
      "constant": true,
      "inputs": [],
      "name": "state",
      "outputs": [
        {
          "internalType": "enum Campaign.State",
          "name": "",
          "type": "uint8"
        }
      ],
      "payable": false,
      "stateMutability": "view",
      "type": "function"
    },
    {
      "constant": false,
      "inputs": [
        {
          "internalType": "address[]",
          "name": "to",
          "type": "address[]"
        },
        {
          "internalType": "uint256[]",
          "name": "wei_partition",
          "type": "uint256[]"
        },
        {
          "internalType": "string",
          "name": "contact_email",
          "type": "string"
        }
      ],
      "name": "startCampaign",
      "outputs": [],
      "payable": true,
      "stateMutability": "payable",
      "type": "function"
    },
    {
      "constant": false,
      "inputs": [
        {
          "internalType": "address[]",
          "name": "to",
          "type": "address[]"
        },
        {
          "internalType": "uint256[]",
          "name": "wei_partition",
          "type": "uint256[]"
        },
        {
          "internalType": "string",
          "name": "contact_email",
          "type": "string"
        }
      ],
      "name": "makeDonation",
      "outputs": [],
      "payable": true,
      "stateMutability": "payable",
      "type": "function"
    },
    {
      "constant": false,
      "inputs": [],
      "name": "beneficiaryWithdraw",
      "outputs": [],
      "payable": false,
      "stateMutability": "nonpayable",
      "type": "function"
    },
    {
      "constant": false,
      "inputs": [],
      "name": "endCampaign",
      "outputs": [],
      "payable": false,
      "stateMutability": "nonpayable",
      "type": "function"
    },
    {
      "constant": false,
      "inputs": [],
      "name": "deactivateCampaign",
      "outputs": [],
      "payable": false,
      "stateMutability": "nonpayable",
      "type": "function"
    },
    {
      "constant": true,
      "inputs": [
        {
          "internalType": "address[]",
          "name": "_ben",
          "type": "address[]"
        }
      ],
      "name": "getBeneficiariesRewards",
      "outputs": [
        {
          "internalType": "uint256[]",
          "name": "",
          "type": "uint256[]"
        }
      ],
      "payable": false,
      "stateMutability": "view",
      "type": "function"
    },
    {
      "constant": true,
      "inputs": [],
      "name": "getDonationReward",
      "outputs": [
        {
          "internalType": "uint256[]",
          "name": "",
          "type": "uint256[]"
        }
      ],
      "payable": false,
      "stateMutability": "view",
      "type": "function"
    },
    {
      "constant": false,
      "inputs": [],
      "name": "reportFraud",
      "outputs": [],
      "payable": true,
      "stateMutability": "payable",
      "type": "function"
    },
    {
      "constant": false,
      "inputs": [],
      "name": "fraudWithdraw",
      "outputs": [],
      "payable": true,
      "stateMutability": "payable",
      "type": "function"
    },
    {
      "constant": true,
      "inputs": [],
      "name": "getBeneficiaries",
      "outputs": [
        {
          "internalType": "address payable[]",
          "name": "",
          "type": "address[]"
        }
      ],
      "payable": false,
      "stateMutability": "view",
      "type": "function"
    }
  ],
  "bytecode": "0x60806040523480156200001157600080fd5b5060405162003c3f38038062003c3f833981810160405260c08110156200003757600080fd5b81019080805160405193929190846401000000008211156200005857600080fd5b838201915060208201858111156200006f57600080fd5b82518660208202830111640100000000821117156200008d57600080fd5b8083526020830192505050908051906020019060200280838360005b83811015620000c6578082015181840152602081019050620000a9565b5050505090500160405260200180516040519392919084640100000000821115620000f057600080fd5b838201915060208201858111156200010757600080fd5b82518660208202830111640100000000821117156200012557600080fd5b8083526020830192505050908051906020019060200280838360005b838110156200015e57808201518184015260208101905062000141565b5050505090500160405260200180519060200190929190805160405193929190846401000000008211156200019257600080fd5b83820191506020820185811115620001a957600080fd5b8251866020820283011164010000000082111715620001c757600080fd5b8083526020830192505050908051906020019060200280838360005b8381101562000200578082015181840152602081019050620001e3565b5050505090500160405260200180519060200190929190805160405193929190846401000000008211156200023457600080fd5b838201915060208201858111156200024b57600080fd5b82518660018202830111640100000000821117156200026957600080fd5b8083526020830192505050908051906020019080838360005b838110156200029f57808201518184015260208101905062000282565b50505050905090810190601f168015620002cd5780820380516001836020036101000a031916815260200191505b5060405250505060008090505b86518110156200051d576001878281518110620002f357fe5b602002602001015190806001815401808255809150509060018203906000526020600020016000909192909190916101000a81548173ffffffffffffffffffffffffffffffffffffffff021916908373ffffffffffffffffffffffffffffffffffffffff160217905550506000600260008984815181106200037157fe5b602002602001015173ffffffffffffffffffffffffffffffffffffffff1673ffffffffffffffffffffffffffffffffffffffff16815260200190815260200160002060006101000a81548160ff0219169083151502179055506004868281518110620003d957fe5b602002602001015190806001815401808255809150509060018203906000526020600020016000909192909190916101000a81548173ffffffffffffffffffffffffffffffffffffffff021916908373ffffffffffffffffffffffffffffffffffffffff160217905550506000600560008884815181106200045757fe5b602002602001015173ffffffffffffffffffffffffffffffffffffffff1673ffffffffffffffffffffffffffffffffffffffff16815260200190815260200160002060000181905550600160056000888481518110620004b357fe5b602002602001015173ffffffffffffffffffffffffffffffffffffffff1673ffffffffffffffffffffffffffffffffffffffff16815260200190815260200160002060010160006101000a81548160ff0219169083151502179055508080600101915050620002da565b5083600e8190555082600990805190602001906200053d929190620005f2565b5080600f90805190602001906200055692919062000644565b5060008060006101000a81548160ff021916908360048111156200057657fe5b021790555081600a819055506000600b8190555060006003819055507f66fe4817acfd8756899e5d70b8db5e2f51795f380411f9aa53f14f246cd7d2046000809054906101000a900460ff1660405180826004811115620005d357fe5b60ff16815260200191505060405180910390a1505050505050620006f3565b82805482825590600052602060002090810192821562000631579160200282015b828111156200063057825182559160200191906001019062000613565b5b509050620006409190620006cb565b5090565b828054600181600116156101000203166002900490600052602060002090601f016020900481019282601f106200068757805160ff1916838001178555620006b8565b82800160010185558215620006b8579182015b82811115620006b75782518255916020019190600101906200069a565b5b509050620006c79190620006cb565b5090565b620006f091905b80821115620006ec576000816000905550600101620006d2565b5090565b90565b61353c80620007036000396000f3fe6080604052600436106100fe5760003560e01c80639af6549a11610095578063c19d93fb11610064578063c19d93fb146104bc578063c3a4de36146104f5578063d059de1914610585578063e86ae70014610768578063efeb5e5814610882576100fe565b80639af6549a146104095780639c378d8014610420578063a4c8be1e1461042a578063a4e00d6e146104a5576100fe565b806371aac7f9116100d157806371aac7f9146102cb5780637f1e573c146102e2578063913b722c1461034e57806395931ba2146103ba576100fe565b806324881536146101035780634f42b0d8146102265780635d3e9613146102305780636cd9b608146102a0575b600080fd5b6102246004803603606081101561011957600080fd5b810190808035906020019064010000000081111561013657600080fd5b82018360208201111561014857600080fd5b8035906020019184602083028401116401000000008311171561016a57600080fd5b90919293919293908035906020019064010000000081111561018b57600080fd5b82018360208201111561019d57600080fd5b803590602001918460208302840111640100000000831117156101bf57600080fd5b9091929391929390803590602001906401000000008111156101e057600080fd5b8201836020820111156101f257600080fd5b8035906020019184600183028401116401000000008311171561021457600080fd5b90919293919293905050506108fd565b005b61022e610f5e565b005b34801561023c57600080fd5b5061027f6004803603602081101561025357600080fd5b81019080803573ffffffffffffffffffffffffffffffffffffffff1690602001909291905050506115cf565b60405180838152602001821515151581526020019250505060405180910390f35b3480156102ac57600080fd5b506102b5611600565b6040518082815260200191505060405180910390f35b3480156102d757600080fd5b506102e0611606565b005b3480156102ee57600080fd5b506102f76118c0565b6040518080602001828103825283818151815260200191508051906020019060200280838360005b8381101561033a57808201518184015260208101905061031f565b505050509050019250505060405180910390f35b34801561035a57600080fd5b50610363611a9a565b6040518080602001828103825283818151815260200191508051906020019060200280838360005b838110156103a657808201518184015260208101905061038b565b505050509050019250505060405180910390f35b3480156103c657600080fd5b506103f3600480360360208110156103dd57600080fd5b8101908080359060200190929190505050611b28565b6040518082815260200191505060405180910390f35b34801561041557600080fd5b5061041e611b49565b005b610428611ed5565b005b34801561043657600080fd5b506104636004803603602081101561044d57600080fd5b8101908080359060200190929190505050612186565b604051808273ffffffffffffffffffffffffffffffffffffffff1673ffffffffffffffffffffffffffffffffffffffff16815260200191505060405180910390f35b3480156104b157600080fd5b506104ba6121c2565b005b3480156104c857600080fd5b506104d161240b565b604051808260048111156104e157fe5b60ff16815260200191505060405180910390f35b34801561050157600080fd5b5061050a61241d565b6040518080602001828103825283818151815260200191508051906020019080838360005b8381101561054a57808201518184015260208101905061052f565b50505050905090810190601f1680156105775780820380516001836020036101000a031916815260200191505b509250505060405180910390f35b6107666004803603606081101561059b57600080fd5b81019080803590602001906401000000008111156105b857600080fd5b8201836020820111156105ca57600080fd5b803590602001918460208302840111640100000000831117156105ec57600080fd5b919080806020026020016040519081016040528093929190818152602001838360200280828437600081840152601f19601f8201169050808301925050505050505091929192908035906020019064010000000081111561064c57600080fd5b82018360208201111561065e57600080fd5b8035906020019184602083028401116401000000008311171561068057600080fd5b919080806020026020016040519081016040528093929190818152602001838360200280828437600081840152601f19601f820116905080830192505050505050509192919290803590602001906401000000008111156106e057600080fd5b8201836020820111156106f257600080fd5b8035906020019184600183028401116401000000008311171561071457600080fd5b91908080601f016020809104026020016040519081016040528093929190818152602001838380828437600081840152601f19601f8201169050808301925050505050505091929192905050506124bb565b005b34801561077457600080fd5b5061082b6004803603602081101561078b57600080fd5b81019080803590602001906401000000008111156107a857600080fd5b8201836020820111156107ba57600080fd5b803590602001918460208302840111640100000000831117156107dc57600080fd5b919080806020026020016040519081016040528093929190818152602001838360200280828437600081840152601f19601f820116905080830192505050505050509192919290505050612c6e565b6040518080602001828103825283818151815260200191508051906020019060200280838360005b8381101561086e578082015181840152602081019050610853565b505050509050019250505060405180910390f35b34801561088e57600080fd5b506108bb600480360360208110156108a557600080fd5b8101908080359060200190929190505050612e61565b604051808273ffffffffffffffffffffffffffffffffffffffff1673ffffffffffffffffffffffffffffffffffffffff16815260200191505060405180910390f35b42600e548110610975576040517f08c379a00000000000000000000000000000000000000000000000000000000081526004018080602001828103825260208152602001807f4572726f723a2063616d706169676e20646561646c696e65206578706972656481525060200191505060405180910390fd5b33600080905060008090505b60018054905081108015610993575081155b15610a15578273ffffffffffffffffffffffffffffffffffffffff16600182815481106109bc57fe5b9060005260206000200160009054906101000a900473ffffffffffffffffffffffffffffffffffffffff1673ffffffffffffffffffffffffffffffffffffffff161415610a0857600191505b8080600101915050610981565b5080610a6c576040517f08c379a00000000000000000000000000000000000000000000000000000000081526004018080602001828103825260268152602001806133f86026913960400191505060405180910390fd5b888880806020026020016040519081016040528093929190818152602001838360200280828437600081840152601f19601f82011690508083019250505050505050600080905060008090505b60048054905081108015610acb575081155b15610b7557600015156005600060048481548110610ae557fe5b9060005260206000200160009054906101000a900473ffffffffffffffffffffffffffffffffffffffff1673ffffffffffffffffffffffffffffffffffffffff1673ffffffffffffffffffffffffffffffffffffffff16815260200190815260200160002060010160009054906101000a900460ff1615151415610b6857600191505b8080600101915050610ab9565b506000151581151514610bd3576040517f08c379a000000000000000000000000000000000000000000000000000000000815260040180806020018281038252603d815260200180613495603d913960400191505060405180910390fd5b60008060009054906101000a900460ff166004811115610bef57fe5b816004811115610bfb57fe5b14610c51576040517f08c379a000000000000000000000000000000000000000000000000000000000815260040180806020018281038252603e81526020018061323e603e913960400191505060405180910390fd5b610d228c8c80806020026020016040519081016040528093929190818152602001838360200280828437600081840152601f19601f820116905080830192505050505050508b8b80806020026020016040519081016040528093929190818152602001838360200280828437600081840152601f19601f820116905080830192505050505050508a8a8080601f016020809104026020016040519081016040528093929190818152602001838380828437600081840152601f19601f820116905080830192505050505050506124bb565b60001515600260003373ffffffffffffffffffffffffffffffffffffffff1673ffffffffffffffffffffffffffffffffffffffff16815260200190815260200160002060009054906101000a900460ff1615151415610dd4576001600260003373ffffffffffffffffffffffffffffffffffffffff1673ffffffffffffffffffffffffffffffffffffffff16815260200190815260200160002060006101000a81548160ff0219169083151502179055505b600080905060008090505b600180549050811015610e9257600115156002600060018481548110610e0157fe5b9060005260206000200160009054906101000a900473ffffffffffffffffffffffffffffffffffffffff1673ffffffffffffffffffffffffffffffffffffffff1673ffffffffffffffffffffffffffffffffffffffff16815260200190815260200160002060009054906101000a900460ff1615151415610e855781806001019250505b8080600101915050610ddf565b5034600360008282540192505081905550600180549050811415610ed85760016000806101000a81548160ff02191690836004811115610ece57fe5b0217905550610efc565b60008060006101000a81548160ff02191690836004811115610ef657fe5b02179055505b7f66fe4817acfd8756899e5d70b8db5e2f51795f380411f9aa53f14f246cd7d2046000809054906101000a900460ff1660405180826004811115610f3c57fe5b60ff16815260200191505060405180910390a150505050505050505050505050565b60046000809054906101000a900460ff166004811115610f7a57fe5b816004811115610f8657fe5b14610fdc576040517f08c379a000000000000000000000000000000000000000000000000000000000815260040180806020018281038252603e81526020018061323e603e913960400191505060405180910390fd5b600060011515600260003373ffffffffffffffffffffffffffffffffffffffff1673ffffffffffffffffffffffffffffffffffffffff16815260200190815260200160002060009054906101000a900460ff16151514156110405760019050611045565b600090505b80600760003373ffffffffffffffffffffffffffffffffffffffff1673ffffffffffffffffffffffffffffffffffffffff1681526020019081526020016000208054905011806110d457506000600d60003373ffffffffffffffffffffffffffffffffffffffff1673ffffffffffffffffffffffffffffffffffffffff16815260200190815260200160002054115b611129576040517f08c379a00000000000000000000000000000000000000000000000000000000081526004018080602001828103825260408152602001806133b86040913960400191505060405180910390fd5b60008090506060600760003373ffffffffffffffffffffffffffffffffffffffff1673ffffffffffffffffffffffffffffffffffffffff168152602001908152602001600020805480602002602001604051908101604052809291908181526020016000905b8282101561139657838290600052602060002090600702016040518060a0016040529081600082015481526020016001820180548060200260200160405190810160405280929190818152602001828054801561124157602002820191906000526020600020905b8160009054906101000a900473ffffffffffffffffffffffffffffffffffffffff1673ffffffffffffffffffffffffffffffffffffffff16815260200190600101908083116111f7575b505050505081526020016002820180548060200260200160405190810160405280929190818152602001828054801561129957602002820191906000526020600020905b815481526020019060010190808311611285575b50505050508152602001600382016040518060600160405290816000820154815260200160018201548152602001600282018054600181600116156101000203166002900480601f01602080910402602001604051908101604052809291908181526020018280546001816001161561010002031660029004801561135f5780601f106113345761010080835404028352916020019161135f565b820191906000526020600020905b81548152906001019060200180831161134257829003601f168201915b50505050508152505081526020016006820160009054906101000a900460ff1615151515815250508152602001906001019061118f565b5050505090505b80518310156113cf578083815181106113b257fe5b60200260200101516000015182019150828060010193505061139d565b600760003373ffffffffffffffffffffffffffffffffffffffff1673ffffffffffffffffffffffffffffffffffffffff168152602001908152602001600020600061141a9190612e9d565b60008090506000600d60003373ffffffffffffffffffffffffffffffffffffffff1673ffffffffffffffffffffffffffffffffffffffff1681526020019081526020016000205411156114c057600c805490506003548161147757fe5b0490506000600d60003373ffffffffffffffffffffffffffffffffffffffff1673ffffffffffffffffffffffffffffffffffffffff168152602001908152602001600020819055505b60003373ffffffffffffffffffffffffffffffffffffffff1682850160405180600001905060006040518083038185875af1925050503d8060008114611522576040519150601f19603f3d011682016040523d82523d6000602084013e611527565b606091505b505090506001151581151514611588576040517f08c379a00000000000000000000000000000000000000000000000000000000081526004018080602001828103825260268152602001806133176026913960400191505060405180910390fd5b7f9bb5f29b9278b7f706a7caa67770ad63d5af89b481bdc02309439d76ca0a19df8483604051808381526020018281526020019250505060405180910390a1505050505050565b60056020528060005260406000206000915090508060000154908060010160009054906101000a900460ff16905082565b600e5481565b33600080905060008090505b60018054905081108015611624575081155b156116a6578273ffffffffffffffffffffffffffffffffffffffff166001828154811061164d57fe5b9060005260206000200160009054906101000a900473ffffffffffffffffffffffffffffffffffffffff1673ffffffffffffffffffffffffffffffffffffffff16141561169957600191505b8080600101915050611612565b50806116fd576040517f08c379a00000000000000000000000000000000000000000000000000000000081526004018080602001828103825260268152602001806133f86026913960400191505060405180910390fd5b60016000809054906101000a900460ff16600481111561171957fe5b81600481111561172557fe5b1461177b576040517f08c379a000000000000000000000000000000000000000000000000000000000815260040180806020018281038252603e81526020018061323e603e913960400191505060405180910390fd5b60026000806101000a81548160ff0219169083600481111561179957fe5b02179055506000600b541115611868576000600480549050600b54816117bb57fe5b04905060008090505b600480549050811015611865578160056000600484815481106117e357fe5b9060005260206000200160009054906101000a900473ffffffffffffffffffffffffffffffffffffffff1673ffffffffffffffffffffffffffffffffffffffff1673ffffffffffffffffffffffffffffffffffffffff1681526020019081526020016000206000016000828254019250508190555080806001019150506117c4565b50505b7f66fe4817acfd8756899e5d70b8db5e2f51795f380411f9aa53f14f246cd7d2046000809054906101000a900460ff16604051808260048111156118a857fe5b60ff16815260200191505060405180910390a1505050565b606080600860003373ffffffffffffffffffffffffffffffffffffffff1673ffffffffffffffffffffffffffffffffffffffff168152602001908152602001600020805480602002602001604051908101604052809291908181526020016000905b82821015611a0a57838290600052602060002090600302016040518060600160405290816000820154815260200160018201548152602001600282018054600181600116156101000203166002900480601f0160208091040260200160405190810160405280929190818152602001828054600181600116156101000203166002900480156119f25780601f106119c7576101008083540402835291602001916119f2565b820191906000526020600020905b8154815290600101906020018083116119d557829003601f168201915b50505050508152505081526020019060010190611922565b50505050905060608151604051908082528060200260200182016040528015611a425781602001602082028038833980820191505090505b50905060008090505b8251811015611a9157828181518110611a6057fe5b602002602001015160000151828281518110611a7857fe5b6020026020010181815250508080600101915050611a4b565b50809250505090565b60606004805480602002602001604051908101604052809291908181526020018280548015611b1e57602002820191906000526020600020905b8160009054906101000a900473ffffffffffffffffffffffffffffffffffffffff1673ffffffffffffffffffffffffffffffffffffffff1681526020019060010190808311611ad4575b5050505050905090565b60098181548110611b3557fe5b906000526020600020016000915090505481565b3360011515600560008373ffffffffffffffffffffffffffffffffffffffff1673ffffffffffffffffffffffffffffffffffffffff16815260200190815260200160002060010160009054906101000a900460ff16151514611bf6576040517f08c379a00000000000000000000000000000000000000000000000000000000081526004018080602001828103825260318152602001806132c56031913960400191505060405180910390fd5b60026000809054906101000a900460ff166004811115611c1257fe5b816004811115611c1e57fe5b14611c74576040517f08c379a000000000000000000000000000000000000000000000000000000000815260040180806020018281038252603e81526020018061323e603e913960400191505060405180910390fd5b6000600560003373ffffffffffffffffffffffffffffffffffffffff1673ffffffffffffffffffffffffffffffffffffffff1681526020019081526020016000206000015411611d0f576040517f08c379a00000000000000000000000000000000000000000000000000000000081526004018080602001828103825260388152602001806132066038913960400191505060405180910390fd5b6000600560003373ffffffffffffffffffffffffffffffffffffffff1673ffffffffffffffffffffffffffffffffffffffff1681526020019081526020016000206000015490506000600560003373ffffffffffffffffffffffffffffffffffffffff1673ffffffffffffffffffffffffffffffffffffffff1681526020019081526020016000206000018190555060003373ffffffffffffffffffffffffffffffffffffffff168260405180600001905060006040518083038185875af1925050503d8060008114611dfe576040519150601f19603f3d011682016040523d82523d6000602084013e611e03565b606091505b505090506001151581151514611e64576040517f08c379a00000000000000000000000000000000000000000000000000000000081526004018080602001828103825260218152602001806132f66021913960400191505060405180910390fd5b7f93740124b37b8f64043ddd706a499c11b58d2642466169e4c310f6b55ead67b63383604051808373ffffffffffffffffffffffffffffffffffffffff1673ffffffffffffffffffffffffffffffffffffffff1681526020018281526020019250505060405180910390a150505050565b60016000809054906101000a900460ff166004811115611ef157fe5b816004811115611efd57fe5b14611f53576040517f08c379a000000000000000000000000000000000000000000000000000000000815260040180806020018281038252603e81526020018061323e603e913960400191505060405180910390fd5b6000600d60003373ffffffffffffffffffffffffffffffffffffffff1673ffffffffffffffffffffffffffffffffffffffff1681526020019081526020016000205414611feb576040517f08c379a000000000000000000000000000000000000000000000000000000000815260040180806020018281038252602e81526020018061341e602e913960400191505060405180910390fd5b60003411612044576040517f08c379a00000000000000000000000000000000000000000000000000000000081526004018080602001828103825260368152602001806134d26036913960400191505060405180910390fd5b34600d60003373ffffffffffffffffffffffffffffffffffffffff1673ffffffffffffffffffffffffffffffffffffffff16815260200190815260200160002081905550600c3390806001815401808255809150509060018203906000526020600020016000909192909190916101000a81548173ffffffffffffffffffffffffffffffffffffffff021916908373ffffffffffffffffffffffffffffffffffffffff1602179055505034600b60008282540192505081905550600a54600c80549050106121305760046000806101000a81548160ff0219169083600481111561212a57fe5b02179055505b7ff0ffd3bfdde8a6f01970d2ce17ab4bdb3d8ea65ed7efca58c63c1c0cc7a8a1826000809054906101000a900460ff166040518082600481111561217057fe5b60ff16815260200191505060405180910390a150565b6001818154811061219357fe5b906000526020600020016000915054906101000a900473ffffffffffffffffffffffffffffffffffffffff1681565b33600080905060008090505b600180549050811080156121e0575081155b15612262578273ffffffffffffffffffffffffffffffffffffffff166001828154811061220957fe5b9060005260206000200160009054906101000a900473ffffffffffffffffffffffffffffffffffffffff1673ffffffffffffffffffffffffffffffffffffffff16141561225557600191505b80806001019150506121ce565b50806122b9576040517f08c379a00000000000000000000000000000000000000000000000000000000081526004018080602001828103825260268152602001806133f86026913960400191505060405180910390fd5b60026000809054906101000a900460ff1660048111156122d557fe5b8160048111156122e157fe5b14612337576040517f08c379a000000000000000000000000000000000000000000000000000000000815260040180806020018281038252603e81526020018061323e603e913960400191505060405180910390fd5b60004714612390576040517f08c379a000000000000000000000000000000000000000000000000000000000815260040180806020018281038252603981526020018061333d6039913960400191505060405180910390fd5b60036000806101000a81548160ff021916908360048111156123ae57fe5b02179055507f66fe4817acfd8756899e5d70b8db5e2f51795f380411f9aa53f14f246cd7d2046000809054906101000a900460ff16604051808260048111156123f357fe5b60ff16815260200191505060405180910390a1505050565b6000809054906101000a900460ff1681565b600f8054600181600116156101000203166002900480601f0160208091040260200160405190810160405280929190818152602001828054600181600116156101000203166002900480156124b35780601f10612488576101008083540402835291602001916124b3565b820191906000526020600020905b81548152906001019060200180831161249657829003601f168201915b505050505081565b42600e548110612533576040517f08c379a00000000000000000000000000000000000000000000000000000000081526004018080602001828103825260208152602001807f4572726f723a2063616d706169676e20646561646c696e65206578706972656481525060200191505060405180910390fd5b83600080905060008090505b60048054905081108015612551575081155b156125fb5760001515600560006004848154811061256b57fe5b9060005260206000200160009054906101000a900473ffffffffffffffffffffffffffffffffffffffff1673ffffffffffffffffffffffffffffffffffffffff1673ffffffffffffffffffffffffffffffffffffffff16815260200190815260200160002060010160009054906101000a900460ff16151514156125ee57600191505b808060010191505061253f565b506000151581151514612659576040517f08c379a000000000000000000000000000000000000000000000000000000000815260040180806020018281038252603d815260200180613495603d913960400191505060405180910390fd5b6001600481111561266657fe5b6000809054906101000a900460ff16600481111561268057fe5b148061270c57506000600481111561269457fe5b6000809054906101000a900460ff1660048111156126ae57fe5b14801561270b575060001515600260003373ffffffffffffffffffffffffffffffffffffffff1673ffffffffffffffffffffffffffffffffffffffff16815260200190815260200160002060009054906101000a900460ff161515145b5b612761576040517f08c379a000000000000000000000000000000000000000000000000000000000815260040180806020018281038252604981526020018061344c6049913960600191505060405180910390fd5b600034116127d7576040517f08c379a00000000000000000000000000000000000000000000000000000000081526004018080602001828103825260158152602001807f4572726f723a2030207765692070726f7669646564000000000000000000000081525060200191505060405180910390fd5b8451865114612831576040517f08c379a00000000000000000000000000000000000000000000000000000000081526004018080602001828103825260428152602001806133766042913960600191505060405180910390fd5b600080905060008090505b865181101561286a5786818151811061285157fe5b602002602001015182019150808060010191505061283c565b508034146128c3576040517f08c379a000000000000000000000000000000000000000000000000000000000815260040180806020018281038252604981526020018061327c6049913960600191505060405180910390fd5b6128cb612ec1565b34816000018181525050878160200181905250868160400181905250600760003373ffffffffffffffffffffffffffffffffffffffff1673ffffffffffffffffffffffffffffffffffffffff1681526020019081526020016000208190806001815401808255809150509060018203906000526020600020906007020160009091929091909150600082015181600001556020820151816001019080519060200190612978929190612ef8565b506040820151816002019080519060200190612995929190612f82565b50606082015181600301600082015181600001556020820151816001015560408201518160020190805190602001906129cf929190612fcf565b50505060808201518160060160006101000a81548160ff0219169083151502179055505050506000600980549050118015612a2257506009600081548110612a1357fe5b90600052602060002001543410155b15612ba557612a2f61304f565b60008090505b60098054905081108015612a60575060098181548110612a5157fe5b90600052602060002001543410155b15612a72578080600101915050612a35565b600181038260000181815250506001600760003373ffffffffffffffffffffffffffffffffffffffff1673ffffffffffffffffffffffffffffffffffffffff1681526020019081526020016000208054905003826020018181525050878260400181905250600860003373ffffffffffffffffffffffffffffffffffffffff1673ffffffffffffffffffffffffffffffffffffffff168152602001908152602001600020829080600181540180825580915050906001820390600052602060002090600302016000909192909190915060008201518160000155602082015181600101556040820151816002019080519060200190612b72929190612fcf565b505050507f744b881a25971efd286cf16da8b9c684ec04deeab58650ac9134f432baa30f1060405160405180910390a150505b60008090505b8851811015612c3757878181518110612bc057fe5b6020026020010151600560008b8481518110612bd857fe5b602002602001015173ffffffffffffffffffffffffffffffffffffffff1673ffffffffffffffffffffffffffffffffffffffff168152602001908152602001600020600001600082825401925050819055508080600101915050612bab565b507f69ee10f8865f0d317c7a1b74da8e2cbffcc7097a4077b37fb42fba449101f93560405160405180910390a15050505050505050565b606081600080905060008090505b60048054905081108015612c8e575081155b15612d3857600015156005600060048481548110612ca857fe5b9060005260206000200160009054906101000a900473ffffffffffffffffffffffffffffffffffffffff1673ffffffffffffffffffffffffffffffffffffffff1673ffffffffffffffffffffffffffffffffffffffff16815260200190815260200160002060010160009054906101000a900460ff1615151415612d2b57600191505b8080600101915050612c7c565b506000151581151514612d96576040517f08c379a000000000000000000000000000000000000000000000000000000000815260040180806020018281038252603d815260200180613495603d913960400191505060405180910390fd5b60608451604051908082528060200260200182016040528015612dc85781602001602082028038833980820191505090505b50905060008090505b8551811015612e555760056000878381518110612dea57fe5b602002602001015173ffffffffffffffffffffffffffffffffffffffff1673ffffffffffffffffffffffffffffffffffffffff16815260200190815260200160002060000154828281518110612e3c57fe5b6020026020010181815250508080600101915050612dd1565b50809350505050919050565b60048181548110612e6e57fe5b906000526020600020016000915054906101000a900473ffffffffffffffffffffffffffffffffffffffff1681565b5080546000825560070290600052602060002090810190612ebe9190613070565b50565b6040518060a00160405280600081526020016060815260200160608152602001612ee96130f2565b81526020016000151581525090565b828054828255906000526020600020908101928215612f71579160200282015b82811115612f705782518260006101000a81548173ffffffffffffffffffffffffffffffffffffffff021916908373ffffffffffffffffffffffffffffffffffffffff16021790555091602001919060010190612f18565b5b509050612f7e9190613113565b5090565b828054828255906000526020600020908101928215612fbe579160200282015b82811115612fbd578251825591602001919060010190612fa2565b5b509050612fcb9190613156565b5090565b828054600181600116156101000203166002900490600052602060002090601f016020900481019282601f1061301057805160ff191683800117855561303e565b8280016001018555821561303e579182015b8281111561303d578251825591602001919060010190613022565b5b50905061304b9190613156565b5090565b60405180606001604052806000815260200160008152602001606081525090565b6130ef91905b808211156130eb57600080820160009055600182016000613097919061317b565b6002820160006130a7919061319c565b6003820160008082016000905560018201600090556002820160006130cc91906131bd565b50506006820160006101000a81549060ff021916905550600701613076565b5090565b90565b60405180606001604052806000815260200160008152602001606081525090565b61315391905b8082111561314f57600081816101000a81549073ffffffffffffffffffffffffffffffffffffffff021916905550600101613119565b5090565b90565b61317891905b8082111561317457600081600090555060010161315c565b5090565b90565b50805460008255906000526020600020908101906131999190613156565b50565b50805460008255906000526020600020908101906131ba9190613156565b50565b50805460018160011615610100020316600290046000825580601f106131e35750613202565b601f0160209004906000526020600020908101906132019190613156565b5b5056fe4572726f723a2074686572652068617665206265656e206e6f20646f6e6174696f6e7320666f7220746869732062656e65666963696172794572726f723a2063616e6e6f742061636365737320746869732066756e6374696f6e616c6974792066726f6d207468652063757272656e742073746174654572726f723a20546f74616c20706f766964656420776569732061726520646966666572656e742066726f6d207468652070726f7669646564207765697320706172746974696f6e734572726f723a206f6e6c792062656e656669636961726965732063616e20616363657373207468652077697468647261774572726f723a205769746864726177207472616e73616374696f6e206572726f724572726f723a204672617564207265666f756e64207472616e73616374696f6e206572726f724572726f723a205761697420756e74696c20616c6c2062656e65666963696172696573207769746864726177207468656972207265776172644572726f723a2064657374696e61746f72732073697a6520697320646966666572656e742066726f6d2074686520776569277320706172746974696f6e2073697a65596f752068617665206e6f74206d61646520646f6e6174696f6e732f7265706f7274206f7220796f75206861766520616c72656164792077697468647261776e4572726f723a2066756e6374696f6e20726573657276656420746f206f7267616e697a6572734572726f723a20596f75206861766520616c7265616479207265706f7274656420746869732063616d706169676e4572726f723a205468652063616d706169676e206973206e6f742073746172746564206f7220796f75277265206e6f7420616e206f7267616e697a657220746f2073746172742069744572726f723a206f6e65206f72206d6f7265206f66207468652070726f76696465642062656e6566696369617269657320646f206e6f742065786973744572726f723a20596f75206e65656420746f20696e7665737420736f6d6520657468657220746f207265706f72742061206672617564a265627a7a72315820d065aaabc59a25d461a9b8bd992c12f6921eadd72d5aeb350cf7c1ee9453195c64736f6c63430005100032",
  "source": "pragma solidity >=0.4.21 <0.7.0;\r\n\r\nimport \"./Library.sol\";\r\n\r\ncontract Campaign{\r\n\r\n    using Library for Library.Reward;\r\n    using Library for Library.Donation;\r\n    using Library for Library.DonationReward;\r\n    using Library for Library.FraudReporter;\r\n\r\n\r\n    enum State {PENDING, RUNNING, EXPIRED, DEACTIVATED, BLOCKED}\r\n    State public state;\r\n\r\n    address[] public organizers;\r\n    mapping(address => bool) private organizers_donation;\r\n    uint initial_donation_amount;\r\n\r\n    address payable[] public beneficiaries;\r\n    mapping(address => Library.Reward) public beneficiaries_map;\r\n\r\n    address[] donors;\r\n    mapping(address => Library.Donation[]) private donations;\r\n    mapping(address => Library.DonationReward[]) private donations_rewards;\r\n\r\n    uint[] public rewards_prices;\r\n\r\n    uint thresholdFraud;\r\n    uint fraud_report_amount;\r\n    address[] fraud_reporters;\r\n    mapping(address => uint) reports_investments;\r\n\r\n    uint public campaign_end_timestamp;\r\n    string public info_hashes;\r\n\r\n    event campainStatus(State s);\r\n    event donationSuccess();\r\n    event donationRewardUnlocked();\r\n    event withdrawSuccess(address beneficiary, uint amount);\r\n    event refoundEmitted(uint amount, uint plus);\r\n    event fraudReported(State s);\r\n\r\n    modifier isOrganizer(address expected) {\r\n        bool is_organizer = false;\r\n        for(uint i = 0; i<organizers.length && !is_organizer; i++){\r\n            if(organizers[i] == expected)\r\n                is_organizer = true;\r\n        }\r\n\r\n        require(is_organizer, \"Error: function reserved to organizers\");\r\n        _;\r\n    }\r\n\r\n    modifier isBeneficiary(address b){\r\n        require(beneficiaries_map[b].flag==true, \"Error: only beneficiaries can access the withdraw\");\r\n        _;\r\n    }\r\n\r\n    modifier requireState(State s){\r\n        require(s==state, \"Error: cannot access this functionality from the current state\");\r\n        _;\r\n    }\r\n\r\n    modifier beneficiariesExist(address[] memory b) {\r\n        bool error = false;\r\n        for(uint i = 0; i<beneficiaries.length && !error; i++){\r\n            if(beneficiaries_map[beneficiaries[i]].flag == false)\r\n                error = true;\r\n        }\r\n\r\n        require(error==false, \"Error: one or more of the provided beneficiaries do not exist\");\r\n        _;\r\n    }\r\n\r\n    modifier campaignNotEnded(uint current_timestamp) {\r\n        require(current_timestamp < campaign_end_timestamp, \"Error: campaign deadline expired\");\r\n        _;\r\n    }\r\n\r\n    constructor(address[] memory _organizers, address payable[] memory _beneficiaries, uint _end_date,\r\n    uint[] memory rewards_costs, uint fraudThreshold, string memory campaign_info_hashes) public {\r\n\r\n        for(uint i = 0; i < _organizers.length; i++) {\r\n            organizers.push(_organizers[i]);\r\n            organizers_donation[_organizers[i]] = false;\r\n\r\n            beneficiaries.push(_beneficiaries[i]);\r\n            beneficiaries_map[_beneficiaries[i]].amount = 0;\r\n            beneficiaries_map[_beneficiaries[i]].flag = true;\r\n        }\r\n\r\n        campaign_end_timestamp = _end_date;\r\n        rewards_prices = rewards_costs;\r\n        info_hashes = campaign_info_hashes;\r\n\r\n        state = State.PENDING;\r\n\r\n        thresholdFraud = fraudThreshold;\r\n        fraud_report_amount = 0;\r\n        initial_donation_amount = 0;\r\n\r\n        emit campainStatus(state);\r\n    }\r\n\r\n    function startCampaign(address[] calldata to, uint[] calldata wei_partition, string calldata contact_email)\r\n     campaignNotEnded(block.timestamp) external payable isOrganizer(msg.sender) beneficiariesExist(to) requireState(State.PENDING){//RQ-PARAMS\r\n        \r\n        makeDonation(to, wei_partition, contact_email);\r\n\r\n        if(organizers_donation[msg.sender] == false)\r\n            organizers_donation[msg.sender] = true;\r\n\r\n        uint organizers_donors = 0;\r\n        for(uint i = 0; i<organizers.length; i++){\r\n            if(organizers_donation[organizers[i]] == true)\r\n                organizers_donors++;\r\n        }\r\n\r\n        initial_donation_amount += msg.value;\r\n\r\n        if(organizers_donors==organizers.length)\r\n            state = State.RUNNING;\r\n        else\r\n            state = State.PENDING;\r\n\r\n        emit campainStatus(state);\r\n    }\r\n\r\n\r\n    function makeDonation(address[] memory to, uint[] memory wei_partition, string memory contact_email)public payable\r\n     campaignNotEnded(block.timestamp)beneficiariesExist(to){\r\n         \r\n        require(state==State.RUNNING || (state==State.PENDING && organizers_donation[msg.sender]==false),\r\n                \"Error: The campaign is not started or you're not an organizer to start it\");\r\n        require(msg.value>0, \"Error: 0 wei provided\");\r\n        require(to.length==wei_partition.length, \"Error: destinators size is different from the wei's partition size\");\r\n        \r\n        uint total_donation = 0;\r\n        for(uint i = 0; i<wei_partition.length; i++){\r\n            total_donation += wei_partition[i];\r\n        }\r\n        require(msg.value==total_donation,\"Error: Total povided weis are different from the provided weis partitions\");\r\n        \r\n\r\n        Library.Donation memory d;\r\n\r\n        d.amount = msg.value;\r\n        d.donation_beneficiaries = to;\r\n        d.danation_partitions = wei_partition;\r\n        donations[msg.sender].push(d);\r\n\r\n        //Check for rewards\r\n        if(rewards_prices.length>0 && msg.value>=rewards_prices[0]){\r\n            Library.DonationReward memory reward;\r\n            uint i = 0;\r\n            while(i<rewards_prices.length && msg.value>=rewards_prices[i])\r\n                i++;\r\n\r\n            reward.max_reward_index = i - 1;\r\n            reward.donation_index = donations[msg.sender].length - 1;\r\n            reward.email_contact = contact_email;\r\n\r\n            donations_rewards[msg.sender].push(reward);\r\n\r\n            emit donationRewardUnlocked();\r\n        }\r\n\r\n        for(uint i = 0; i<to.length; i++)\r\n            beneficiaries_map[to[i]].amount += wei_partition[i];\r\n\r\n        emit donationSuccess();\r\n    }\r\n\r\n\r\n    function beneficiaryWithdraw() external isBeneficiary(msg.sender) requireState(State.EXPIRED){\r\n        require(beneficiaries_map[msg.sender].amount > 0, \"Error: there have been no donations for this beneficiary\");\r\n\r\n        uint amount = beneficiaries_map[msg.sender].amount;\r\n        beneficiaries_map[msg.sender].amount = 0;\r\n        (bool success, ) = msg.sender.call.value(amount)(\"\");\r\n\r\n        require(success==true, \"Error: Withdraw transaction error\");\r\n\r\n        emit withdrawSuccess(msg.sender,amount);\r\n\r\n    }\r\n\r\n\r\n    function endCampaign() public isOrganizer(msg.sender) requireState(State.RUNNING){\r\n        state = State.EXPIRED;\r\n\r\n        //Subdivide ether from reporter to all beneficiaries\r\n        if (fraud_report_amount > 0){\r\n            uint plus = uint(fraud_report_amount/beneficiaries.length);\r\n            for(uint i = 0; i<beneficiaries.length; i++)\r\n                beneficiaries_map[beneficiaries[i]].amount += plus;\r\n        }\r\n\r\n        emit campainStatus(state);\r\n    }\r\n\r\n\r\n    function deactivateCampaign() public isOrganizer(msg.sender) requireState(State.EXPIRED){\r\n        require(address(this).balance==0, \"Error: Wait until all beneficiaries withdraw their reward\");\r\n        state = State.DEACTIVATED;\r\n\r\n        emit campainStatus(state);\r\n    }\r\n\r\n    function getBeneficiariesRewards(address[] memory _ben) public view beneficiariesExist(_ben) returns(uint[] memory){\r\n        uint[] memory rewards = new uint[](_ben.length);\r\n        for(uint i = 0; i<_ben.length; i++)\r\n            rewards[i] = beneficiaries_map[_ben[i]].amount;\r\n\r\n        return rewards;\r\n    }\r\n\r\n\r\n    function getDonationReward() external view returns(uint[] memory){\r\n        Library.DonationReward[] memory user_donations_rewards = donations_rewards[msg.sender];\r\n        uint[] memory rewards = new uint[](user_donations_rewards.length);\r\n\r\n        for(uint i = 0; i<user_donations_rewards.length; i++)\r\n            rewards[i] = user_donations_rewards[i].max_reward_index;\r\n\r\n        return rewards;\r\n    }\r\n\r\n    function reportFraud() external payable requireState(State.RUNNING){\r\n        require(reports_investments[msg.sender]==0, \"Error: You have already reported this campaign\");\r\n        require(msg.value>0, \"Error: You need to invest some ether to report a fraud\");\r\n\r\n        reports_investments[msg.sender] = msg.value;\r\n        fraud_reporters.push(msg.sender);\r\n\r\n        fraud_report_amount += msg.value;\r\n\r\n        if(fraud_reporters.length >= thresholdFraud)\r\n            state = State.BLOCKED;\r\n\r\n        emit fraudReported(state);\r\n    }\r\n\r\n\r\n    function fraudWithdraw() external payable requireState(State.BLOCKED){\r\n        uint index;\r\n        if (organizers_donation[msg.sender]==true) //If organizer do not consider the firt donation sice it is the inital\r\n            index = 1;\r\n        else\r\n            index = 0;\r\n\r\n        require(donations[msg.sender].length>index || reports_investments[msg.sender]>0,\r\n        \"You have not made donations/report or you have already withdrawn\");\r\n\r\n        uint amount = 0;\r\n        Library.Donation[] memory user_donation = donations[msg.sender];\r\n        while(index < user_donation.length){\r\n            amount += user_donation[index].amount;\r\n            index++;\r\n        }\r\n\r\n        delete donations[msg.sender]; //remove all donation before refounding to avoid reentrancy\r\n\r\n        uint plus = 0;\r\n        if(reports_investments[msg.sender]>0){//If the sender is a reporter\r\n            plus = uint(initial_donation_amount/fraud_reporters.length);\r\n            reports_investments[msg.sender] = 0;  //remove reporter investment to avoid reentrancy\r\n        }\r\n\r\n        (bool success, ) = msg.sender.call.value(amount+plus)(\"\");\r\n        require(success==true, \"Error: Fraud refound transaction error\");\r\n\r\n        emit refoundEmitted(amount, plus);\r\n\r\n    }\r\n\r\n\r\n    function getBeneficiaries() public view returns(address payable[] memory){return beneficiaries;}\r\n\r\n\r\n}",
  "sourcePath": "G:\\SSD Workspace\\Ethereum\\BitCollect\\contracts\\Campaign.sol",
  "compiler": {
    "name": "solc",
    "version": "0.5.16+commit.9c3226ce.Emscripten.clang"
  },
  "schemaVersion": "3.2.0",
  "updatedAt": "2020-07-12T16:10:45.097Z",
  "devdoc": {
    "methods": {}
  },
  "userdoc": {
    "methods": {}
  }
}