{
  "contractName": "Campaign",
  "abi": [
    {
      "inputs": [
        {
          "internalType": "address[]",
          "name": "_organizers",
          "type": "address[]"
        },
        {
          "internalType": "address payable[]",
          "name": "_beneficiaries",
          "type": "address[]"
        },
        {
          "internalType": "uint256",
          "name": "_end_date",
          "type": "uint256"
        },
        {
          "internalType": "uint256[]",
          "name": "rewards_costs",
          "type": "uint256[]"
        },
        {
          "internalType": "uint256",
          "name": "fraudThreshold",
          "type": "uint256"
        },
        {
          "internalType": "string",
          "name": "campaign_info_hashes",
          "type": "string"
        }
      ],
      "payable": false,
      "stateMutability": "nonpayable",
      "type": "constructor"
    },
    {
      "anonymous": false,
      "inputs": [
        {
          "indexed": false,
          "internalType": "enum Campaign.State",
          "name": "s",
          "type": "uint8"
        }
      ],
      "name": "campainStatus",
      "type": "event"
    },
    {
      "anonymous": false,
      "inputs": [],
      "name": "donationRewardUnlocked",
      "type": "event"
    },
    {
      "anonymous": false,
      "inputs": [],
      "name": "donationSuccess",
      "type": "event"
    },
    {
      "anonymous": false,
      "inputs": [
        {
          "indexed": false,
          "internalType": "enum Campaign.State",
          "name": "s",
          "type": "uint8"
        }
      ],
      "name": "fraudReported",
      "type": "event"
    },
    {
      "anonymous": false,
      "inputs": [
        {
          "indexed": false,
          "internalType": "uint256",
          "name": "amount",
          "type": "uint256"
        },
        {
          "indexed": false,
          "internalType": "uint256",
          "name": "plus",
          "type": "uint256"
        }
      ],
      "name": "refoundEmitted",
      "type": "event"
    },
    {
      "anonymous": false,
      "inputs": [
        {
          "indexed": false,
          "internalType": "address",
          "name": "beneficiary",
          "type": "address"
        },
        {
          "indexed": false,
          "internalType": "uint256",
          "name": "amount",
          "type": "uint256"
        }
      ],
      "name": "withdrawSuccess",
      "type": "event"
    },
    {
      "constant": true,
      "inputs": [
        {
          "internalType": "uint256",
          "name": "",
          "type": "uint256"
        }
      ],
      "name": "beneficiaries",
      "outputs": [
        {
          "internalType": "address payable",
          "name": "",
          "type": "address"
        }
      ],
      "payable": false,
      "stateMutability": "view",
      "type": "function"
    },
    {
      "constant": true,
      "inputs": [
        {
          "internalType": "address",
          "name": "",
          "type": "address"
        }
      ],
      "name": "beneficiaries_map",
      "outputs": [
        {
          "internalType": "uint256",
          "name": "amount",
          "type": "uint256"
        },
        {
          "internalType": "bool",
          "name": "flag",
          "type": "bool"
        }
      ],
      "payable": false,
      "stateMutability": "view",
      "type": "function"
    },
    {
      "constant": true,
      "inputs": [],
      "name": "campaign_end_timestamp",
      "outputs": [
        {
          "internalType": "uint256",
          "name": "",
          "type": "uint256"
        }
      ],
      "payable": false,
      "stateMutability": "view",
      "type": "function"
    },
    {
      "constant": true,
      "inputs": [],
      "name": "info_hashes",
      "outputs": [
        {
          "internalType": "string",
          "name": "",
          "type": "string"
        }
      ],
      "payable": false,
      "stateMutability": "view",
      "type": "function"
    },
    {
      "constant": true,
      "inputs": [
        {
          "internalType": "uint256",
          "name": "",
          "type": "uint256"
        }
      ],
      "name": "organizers",
      "outputs": [
        {
          "internalType": "address",
          "name": "",
          "type": "address"
        }
      ],
      "payable": false,
      "stateMutability": "view",
      "type": "function"
    },
    {
      "constant": true,
      "inputs": [
        {
          "internalType": "uint256",
          "name": "",
          "type": "uint256"
        }
      ],
      "name": "rewards_prices",
      "outputs": [
        {
          "internalType": "uint256",
          "name": "",
          "type": "uint256"
        }
      ],
      "payable": false,
      "stateMutability": "view",
      "type": "function"
    },
    {
      "constant": true,
      "inputs": [],
      "name": "state",
      "outputs": [
        {
          "internalType": "enum Campaign.State",
          "name": "",
          "type": "uint8"
        }
      ],
      "payable": false,
      "stateMutability": "view",
      "type": "function"
    },
    {
      "constant": true,
      "inputs": [],
      "name": "thresholdFraud",
      "outputs": [
        {
          "internalType": "uint256",
          "name": "",
          "type": "uint256"
        }
      ],
      "payable": false,
      "stateMutability": "view",
      "type": "function"
    },
    {
      "constant": false,
      "inputs": [
        {
          "internalType": "address[]",
          "name": "to",
          "type": "address[]"
        },
        {
          "internalType": "uint256[]",
          "name": "wei_partition",
          "type": "uint256[]"
        },
        {
          "internalType": "string",
          "name": "contact_email",
          "type": "string"
        }
      ],
      "name": "startCampaign",
      "outputs": [],
      "payable": true,
      "stateMutability": "payable",
      "type": "function"
    },
    {
      "constant": false,
      "inputs": [
        {
          "internalType": "address[]",
          "name": "to",
          "type": "address[]"
        },
        {
          "internalType": "uint256[]",
          "name": "wei_partition",
          "type": "uint256[]"
        },
        {
          "internalType": "string",
          "name": "contact_email",
          "type": "string"
        }
      ],
      "name": "makeDonation",
      "outputs": [],
      "payable": true,
      "stateMutability": "payable",
      "type": "function"
    },
    {
      "constant": false,
      "inputs": [],
      "name": "beneficiaryWithdraw",
      "outputs": [],
      "payable": false,
      "stateMutability": "nonpayable",
      "type": "function"
    },
    {
      "constant": false,
      "inputs": [],
      "name": "endCampaign",
      "outputs": [],
      "payable": false,
      "stateMutability": "nonpayable",
      "type": "function"
    },
    {
      "constant": false,
      "inputs": [],
      "name": "deactivateCampaign",
      "outputs": [],
      "payable": false,
      "stateMutability": "nonpayable",
      "type": "function"
    },
    {
      "constant": true,
      "inputs": [
        {
          "internalType": "address[]",
          "name": "_ben",
          "type": "address[]"
        }
      ],
      "name": "getBeneficiariesRewards",
      "outputs": [
        {
          "internalType": "uint256[]",
          "name": "",
          "type": "uint256[]"
        }
      ],
      "payable": false,
      "stateMutability": "view",
      "type": "function"
    },
    {
      "constant": true,
      "inputs": [],
      "name": "getDonationReward",
      "outputs": [
        {
          "internalType": "uint256[]",
          "name": "",
          "type": "uint256[]"
        }
      ],
      "payable": false,
      "stateMutability": "view",
      "type": "function"
    },
    {
      "constant": false,
      "inputs": [],
      "name": "reportFraud",
      "outputs": [],
      "payable": true,
      "stateMutability": "payable",
      "type": "function"
    },
    {
      "constant": false,
      "inputs": [],
      "name": "fraudWithdraw",
      "outputs": [],
      "payable": true,
      "stateMutability": "payable",
      "type": "function"
    },
    {
      "constant": true,
      "inputs": [],
      "name": "getAllBeneficiaries",
      "outputs": [
        {
          "internalType": "address payable[]",
          "name": "",
          "type": "address[]"
        }
      ],
      "payable": false,
      "stateMutability": "view",
      "type": "function"
    },
    {
      "constant": true,
      "inputs": [],
      "name": "getAllOrganizers",
      "outputs": [
        {
          "internalType": "address[]",
          "name": "",
          "type": "address[]"
        }
      ],
      "payable": false,
      "stateMutability": "view",
      "type": "function"
    },
    {
      "constant": true,
      "inputs": [],
      "name": "getAllRewardsPrices",
      "outputs": [
        {
          "internalType": "uint256[]",
          "name": "",
          "type": "uint256[]"
        }
      ],
      "payable": false,
      "stateMutability": "view",
      "type": "function"
    },
    {
      "constant": true,
      "inputs": [],
      "name": "getReportsNumber",
      "outputs": [
        {
          "internalType": "uint256",
          "name": "",
          "type": "uint256"
        }
      ],
      "payable": false,
      "stateMutability": "view",
      "type": "function"
    },
    {
      "constant": true,
      "inputs": [
        {
          "internalType": "address",
          "name": "b",
          "type": "address"
        }
      ],
      "name": "getBeneficiaryReward",
      "outputs": [
        {
          "internalType": "uint256",
          "name": "",
          "type": "uint256"
        }
      ],
      "payable": false,
      "stateMutability": "view",
      "type": "function"
    }
  ],
  "bytecode": "0x60806040523480156200001157600080fd5b5060405162003f4e38038062003f4e833981810160405260c08110156200003757600080fd5b81019080805160405193929190846401000000008211156200005857600080fd5b838201915060208201858111156200006f57600080fd5b82518660208202830111640100000000821117156200008d57600080fd5b8083526020830192505050908051906020019060200280838360005b83811015620000c6578082015181840152602081019050620000a9565b5050505090500160405260200180516040519392919084640100000000821115620000f057600080fd5b838201915060208201858111156200010757600080fd5b82518660208202830111640100000000821117156200012557600080fd5b8083526020830192505050908051906020019060200280838360005b838110156200015e57808201518184015260208101905062000141565b5050505090500160405260200180519060200190929190805160405193929190846401000000008211156200019257600080fd5b83820191506020820185811115620001a957600080fd5b8251866020820283011164010000000082111715620001c757600080fd5b8083526020830192505050908051906020019060200280838360005b8381101562000200578082015181840152602081019050620001e3565b5050505090500160405260200180519060200190929190805160405193929190846401000000008211156200023457600080fd5b838201915060208201858111156200024b57600080fd5b82518660018202830111640100000000821117156200026957600080fd5b8083526020830192505050908051906020019080838360005b838110156200029f57808201518184015260208101905062000282565b50505050905090810190601f168015620002cd5780820380516001836020036101000a031916815260200191505b5060405250505060008090505b86518110156200051d576001878281518110620002f357fe5b602002602001015190806001815401808255809150509060018203906000526020600020016000909192909190916101000a81548173ffffffffffffffffffffffffffffffffffffffff021916908373ffffffffffffffffffffffffffffffffffffffff160217905550506000600260008984815181106200037157fe5b602002602001015173ffffffffffffffffffffffffffffffffffffffff1673ffffffffffffffffffffffffffffffffffffffff16815260200190815260200160002060006101000a81548160ff0219169083151502179055506004868281518110620003d957fe5b602002602001015190806001815401808255809150509060018203906000526020600020016000909192909190916101000a81548173ffffffffffffffffffffffffffffffffffffffff021916908373ffffffffffffffffffffffffffffffffffffffff160217905550506000600560008884815181106200045757fe5b602002602001015173ffffffffffffffffffffffffffffffffffffffff1673ffffffffffffffffffffffffffffffffffffffff16815260200190815260200160002060000181905550600160056000888481518110620004b357fe5b602002602001015173ffffffffffffffffffffffffffffffffffffffff1673ffffffffffffffffffffffffffffffffffffffff16815260200190815260200160002060010160006101000a81548160ff0219169083151502179055508080600101915050620002da565b5083600e8190555082600990805190602001906200053d929190620005f2565b5080600f90805190602001906200055692919062000644565b5060008060006101000a81548160ff021916908360048111156200057657fe5b021790555081600a819055506000600b8190555060006003819055507f66fe4817acfd8756899e5d70b8db5e2f51795f380411f9aa53f14f246cd7d2046000809054906101000a900460ff1660405180826004811115620005d357fe5b60ff16815260200191505060405180910390a1505050505050620006f3565b82805482825590600052602060002090810192821562000631579160200282015b828111156200063057825182559160200191906001019062000613565b5b509050620006409190620006cb565b5090565b828054600181600116156101000203166002900490600052602060002090601f016020900481019282601f106200068757805160ff1916838001178555620006b8565b82800160010185558215620006b8579182015b82811115620006b75782518255916020019190600101906200069a565b5b509050620006c79190620006cb565b5090565b620006f091905b80821115620006ec576000816000905550600101620006d2565b5090565b90565b61384b80620007036000396000f3fe6080604052600436106101355760003560e01c80639c378d80116100ab578063d059de191161006f578063d059de1914610653578063dd4c844114610836578063dd9c331b1461089b578063e86ae70014610907578063efeb5e5814610a21578063f19f892d14610a9c57610135565b80639c378d80146104ee578063a4c8be1e146104f8578063a4e00d6e14610573578063c19d93fb1461058a578063c3a4de36146105c357610135565b80635d3e9613116100fd5780635d3e96131461036a5780636cd9b608146103da57806371aac7f9146104055780637f1e573c1461041c57806395931ba2146104885780639af6549a146104d757610135565b80631e67f7211461013a57806324881536146101a65780632f14bae8146102c95780634f42b0d8146103355780635859682b1461033f575b600080fd5b34801561014657600080fd5b5061014f610ac7565b6040518080602001828103825283818151815260200191508051906020019060200280838360005b83811015610192578082015181840152602081019050610177565b505050509050019250505060405180910390f35b6102c7600480360360608110156101bc57600080fd5b81019080803590602001906401000000008111156101d957600080fd5b8201836020820111156101eb57600080fd5b8035906020019184602083028401116401000000008311171561020d57600080fd5b90919293919293908035906020019064010000000081111561022e57600080fd5b82018360208201111561024057600080fd5b8035906020019184602083028401116401000000008311171561026257600080fd5b90919293919293908035906020019064010000000081111561028357600080fd5b82018360208201111561029557600080fd5b803590602001918460018302840111640100000000831117156102b757600080fd5b9091929391929390505050610b55565b005b3480156102d557600080fd5b506102de6111b6565b6040518080602001828103825283818151815260200191508051906020019060200280838360005b83811015610321578082015181840152602081019050610306565b505050509050019250505060405180910390f35b61033d611244565b005b34801561034b57600080fd5b506103546118b5565b6040518082815260200191505060405180910390f35b34801561037657600080fd5b506103b96004803603602081101561038d57600080fd5b81019080803573ffffffffffffffffffffffffffffffffffffffff1690602001909291905050506118c2565b60405180838152602001821515151581526020019250505060405180910390f35b3480156103e657600080fd5b506103ef6118f3565b6040518082815260200191505060405180910390f35b34801561041157600080fd5b5061041a6118f9565b005b34801561042857600080fd5b50610431611bb3565b6040518080602001828103825283818151815260200191508051906020019060200280838360005b83811015610474578082015181840152602081019050610459565b505050509050019250505060405180910390f35b34801561049457600080fd5b506104c1600480360360208110156104ab57600080fd5b8101908080359060200190929190505050611d8d565b6040518082815260200191505060405180910390f35b3480156104e357600080fd5b506104ec611dae565b005b6104f661213a565b005b34801561050457600080fd5b506105316004803603602081101561051b57600080fd5b81019080803590602001909291905050506123eb565b604051808273ffffffffffffffffffffffffffffffffffffffff1673ffffffffffffffffffffffffffffffffffffffff16815260200191505060405180910390f35b34801561057f57600080fd5b50610588612427565b005b34801561059657600080fd5b5061059f612670565b604051808260048111156105af57fe5b60ff16815260200191505060405180910390f35b3480156105cf57600080fd5b506105d8612682565b6040518080602001828103825283818151815260200191508051906020019080838360005b838110156106185780820151818401526020810190506105fd565b50505050905090810190601f1680156106455780820380516001836020036101000a031916815260200191505b509250505060405180910390f35b6108346004803603606081101561066957600080fd5b810190808035906020019064010000000081111561068657600080fd5b82018360208201111561069857600080fd5b803590602001918460208302840111640100000000831117156106ba57600080fd5b919080806020026020016040519081016040528093929190818152602001838360200280828437600081840152601f19601f8201169050808301925050505050505091929192908035906020019064010000000081111561071a57600080fd5b82018360208201111561072c57600080fd5b8035906020019184602083028401116401000000008311171561074e57600080fd5b919080806020026020016040519081016040528093929190818152602001838360200280828437600081840152601f19601f820116905080830192505050505050509192919290803590602001906401000000008111156107ae57600080fd5b8201836020820111156107c057600080fd5b803590602001918460018302840111640100000000831117156107e257600080fd5b91908080601f016020809104026020016040519081016040528093929190818152602001838380828437600081840152601f19601f820116905080830192505050505050509192919290505050612720565b005b34801561084257600080fd5b506108856004803603602081101561085957600080fd5b81019080803573ffffffffffffffffffffffffffffffffffffffff169060200190929190505050612ed3565b6040518082815260200191505060405180910390f35b3480156108a757600080fd5b506108b0612f1f565b6040518080602001828103825283818151815260200191508051906020019060200280838360005b838110156108f35780820151818401526020810190506108d8565b505050509050019250505060405180910390f35b34801561091357600080fd5b506109ca6004803603602081101561092a57600080fd5b810190808035906020019064010000000081111561094757600080fd5b82018360208201111561095957600080fd5b8035906020019184602083028401116401000000008311171561097b57600080fd5b919080806020026020016040519081016040528093929190818152602001838360200280828437600081840152601f19601f820116905080830192505050505050509192919290505050612f77565b6040518080602001828103825283818151815260200191508051906020019060200280838360005b83811015610a0d5780820151818401526020810190506109f2565b505050509050019250505060405180910390f35b348015610a2d57600080fd5b50610a5a60048036036020811015610a4457600080fd5b810190808035906020019092919050505061316a565b604051808273ffffffffffffffffffffffffffffffffffffffff1673ffffffffffffffffffffffffffffffffffffffff16815260200191505060405180910390f35b348015610aa857600080fd5b50610ab16131a6565b6040518082815260200191505060405180910390f35b60606001805480602002602001604051908101604052809291908181526020018280548015610b4b57602002820191906000526020600020905b8160009054906101000a900473ffffffffffffffffffffffffffffffffffffffff1673ffffffffffffffffffffffffffffffffffffffff1681526020019060010190808311610b01575b5050505050905090565b42600e548110610bcd576040517f08c379a00000000000000000000000000000000000000000000000000000000081526004018080602001828103825260208152602001807f4572726f723a2063616d706169676e20646561646c696e65206578706972656481525060200191505060405180910390fd5b33600080905060008090505b60018054905081108015610beb575081155b15610c6d578273ffffffffffffffffffffffffffffffffffffffff1660018281548110610c1457fe5b9060005260206000200160009054906101000a900473ffffffffffffffffffffffffffffffffffffffff1673ffffffffffffffffffffffffffffffffffffffff161415610c6057600191505b8080600101915050610bd9565b5080610cc4576040517f08c379a00000000000000000000000000000000000000000000000000000000081526004018080602001828103825260268152602001806137076026913960400191505060405180910390fd5b888880806020026020016040519081016040528093929190818152602001838360200280828437600081840152601f19601f82011690508083019250505050505050600080905060008090505b60048054905081108015610d23575081155b15610dcd57600015156005600060048481548110610d3d57fe5b9060005260206000200160009054906101000a900473ffffffffffffffffffffffffffffffffffffffff1673ffffffffffffffffffffffffffffffffffffffff1673ffffffffffffffffffffffffffffffffffffffff16815260200190815260200160002060010160009054906101000a900460ff1615151415610dc057600191505b8080600101915050610d11565b506000151581151514610e2b576040517f08c379a000000000000000000000000000000000000000000000000000000000815260040180806020018281038252603d8152602001806137a4603d913960400191505060405180910390fd5b60008060009054906101000a900460ff166004811115610e4757fe5b816004811115610e5357fe5b14610ea9576040517f08c379a000000000000000000000000000000000000000000000000000000000815260040180806020018281038252603e81526020018061354d603e913960400191505060405180910390fd5b610f7a8c8c80806020026020016040519081016040528093929190818152602001838360200280828437600081840152601f19601f820116905080830192505050505050508b8b80806020026020016040519081016040528093929190818152602001838360200280828437600081840152601f19601f820116905080830192505050505050508a8a8080601f016020809104026020016040519081016040528093929190818152602001838380828437600081840152601f19601f82011690508083019250505050505050612720565b60001515600260003373ffffffffffffffffffffffffffffffffffffffff1673ffffffffffffffffffffffffffffffffffffffff16815260200190815260200160002060009054906101000a900460ff161515141561102c576001600260003373ffffffffffffffffffffffffffffffffffffffff1673ffffffffffffffffffffffffffffffffffffffff16815260200190815260200160002060006101000a81548160ff0219169083151502179055505b600080905060008090505b6001805490508110156110ea5760011515600260006001848154811061105957fe5b9060005260206000200160009054906101000a900473ffffffffffffffffffffffffffffffffffffffff1673ffffffffffffffffffffffffffffffffffffffff1673ffffffffffffffffffffffffffffffffffffffff16815260200190815260200160002060009054906101000a900460ff16151514156110dd5781806001019250505b8080600101915050611037565b50346003600082825401925050819055506001805490508114156111305760016000806101000a81548160ff0219169083600481111561112657fe5b0217905550611154565b60008060006101000a81548160ff0219169083600481111561114e57fe5b02179055505b7f66fe4817acfd8756899e5d70b8db5e2f51795f380411f9aa53f14f246cd7d2046000809054906101000a900460ff166040518082600481111561119457fe5b60ff16815260200191505060405180910390a150505050505050505050505050565b6060600480548060200260200160405190810160405280929190818152602001828054801561123a57602002820191906000526020600020905b8160009054906101000a900473ffffffffffffffffffffffffffffffffffffffff1673ffffffffffffffffffffffffffffffffffffffff16815260200190600101908083116111f0575b5050505050905090565b60046000809054906101000a900460ff16600481111561126057fe5b81600481111561126c57fe5b146112c2576040517f08c379a000000000000000000000000000000000000000000000000000000000815260040180806020018281038252603e81526020018061354d603e913960400191505060405180910390fd5b600060011515600260003373ffffffffffffffffffffffffffffffffffffffff1673ffffffffffffffffffffffffffffffffffffffff16815260200190815260200160002060009054906101000a900460ff1615151415611326576001905061132b565b600090505b80600760003373ffffffffffffffffffffffffffffffffffffffff1673ffffffffffffffffffffffffffffffffffffffff1681526020019081526020016000208054905011806113ba57506000600d60003373ffffffffffffffffffffffffffffffffffffffff1673ffffffffffffffffffffffffffffffffffffffff16815260200190815260200160002054115b61140f576040517f08c379a00000000000000000000000000000000000000000000000000000000081526004018080602001828103825260408152602001806136c76040913960400191505060405180910390fd5b60008090506060600760003373ffffffffffffffffffffffffffffffffffffffff1673ffffffffffffffffffffffffffffffffffffffff168152602001908152602001600020805480602002602001604051908101604052809291908181526020016000905b8282101561167c57838290600052602060002090600702016040518060a0016040529081600082015481526020016001820180548060200260200160405190810160405280929190818152602001828054801561152757602002820191906000526020600020905b8160009054906101000a900473ffffffffffffffffffffffffffffffffffffffff1673ffffffffffffffffffffffffffffffffffffffff16815260200190600101908083116114dd575b505050505081526020016002820180548060200260200160405190810160405280929190818152602001828054801561157f57602002820191906000526020600020905b81548152602001906001019080831161156b575b50505050508152602001600382016040518060600160405290816000820154815260200160018201548152602001600282018054600181600116156101000203166002900480601f0160208091040260200160405190810160405280929190818152602001828054600181600116156101000203166002900480156116455780601f1061161a57610100808354040283529160200191611645565b820191906000526020600020905b81548152906001019060200180831161162857829003601f168201915b50505050508152505081526020016006820160009054906101000a900460ff16151515158152505081526020019060010190611475565b5050505090505b80518310156116b55780838151811061169857fe5b602002602001015160000151820191508280600101935050611683565b600760003373ffffffffffffffffffffffffffffffffffffffff1673ffffffffffffffffffffffffffffffffffffffff168152602001908152602001600020600061170091906131ac565b60008090506000600d60003373ffffffffffffffffffffffffffffffffffffffff1673ffffffffffffffffffffffffffffffffffffffff1681526020019081526020016000205411156117a657600c805490506003548161175d57fe5b0490506000600d60003373ffffffffffffffffffffffffffffffffffffffff1673ffffffffffffffffffffffffffffffffffffffff168152602001908152602001600020819055505b60003373ffffffffffffffffffffffffffffffffffffffff1682850160405180600001905060006040518083038185875af1925050503d8060008114611808576040519150601f19603f3d011682016040523d82523d6000602084013e61180d565b606091505b50509050600115158115151461186e576040517f08c379a00000000000000000000000000000000000000000000000000000000081526004018080602001828103825260268152602001806136266026913960400191505060405180910390fd5b7f9bb5f29b9278b7f706a7caa67770ad63d5af89b481bdc02309439d76ca0a19df8483604051808381526020018281526020019250505060405180910390a1505050505050565b6000600c80549050905090565b60056020528060005260406000206000915090508060000154908060010160009054906101000a900460ff16905082565b600e5481565b33600080905060008090505b60018054905081108015611917575081155b15611999578273ffffffffffffffffffffffffffffffffffffffff166001828154811061194057fe5b9060005260206000200160009054906101000a900473ffffffffffffffffffffffffffffffffffffffff1673ffffffffffffffffffffffffffffffffffffffff16141561198c57600191505b8080600101915050611905565b50806119f0576040517f08c379a00000000000000000000000000000000000000000000000000000000081526004018080602001828103825260268152602001806137076026913960400191505060405180910390fd5b60016000809054906101000a900460ff166004811115611a0c57fe5b816004811115611a1857fe5b14611a6e576040517f08c379a000000000000000000000000000000000000000000000000000000000815260040180806020018281038252603e81526020018061354d603e913960400191505060405180910390fd5b60026000806101000a81548160ff02191690836004811115611a8c57fe5b02179055506000600b541115611b5b576000600480549050600b5481611aae57fe5b04905060008090505b600480549050811015611b5857816005600060048481548110611ad657fe5b9060005260206000200160009054906101000a900473ffffffffffffffffffffffffffffffffffffffff1673ffffffffffffffffffffffffffffffffffffffff1673ffffffffffffffffffffffffffffffffffffffff168152602001908152602001600020600001600082825401925050819055508080600101915050611ab7565b50505b7f66fe4817acfd8756899e5d70b8db5e2f51795f380411f9aa53f14f246cd7d2046000809054906101000a900460ff1660405180826004811115611b9b57fe5b60ff16815260200191505060405180910390a1505050565b606080600860003373ffffffffffffffffffffffffffffffffffffffff1673ffffffffffffffffffffffffffffffffffffffff168152602001908152602001600020805480602002602001604051908101604052809291908181526020016000905b82821015611cfd57838290600052602060002090600302016040518060600160405290816000820154815260200160018201548152602001600282018054600181600116156101000203166002900480601f016020809104026020016040519081016040528092919081815260200182805460018160011615610100020316600290048015611ce55780601f10611cba57610100808354040283529160200191611ce5565b820191906000526020600020905b815481529060010190602001808311611cc857829003601f168201915b50505050508152505081526020019060010190611c15565b50505050905060608151604051908082528060200260200182016040528015611d355781602001602082028038833980820191505090505b50905060008090505b8251811015611d8457828181518110611d5357fe5b602002602001015160000151828281518110611d6b57fe5b6020026020010181815250508080600101915050611d3e565b50809250505090565b60098181548110611d9a57fe5b906000526020600020016000915090505481565b3360011515600560008373ffffffffffffffffffffffffffffffffffffffff1673ffffffffffffffffffffffffffffffffffffffff16815260200190815260200160002060010160009054906101000a900460ff16151514611e5b576040517f08c379a00000000000000000000000000000000000000000000000000000000081526004018080602001828103825260318152602001806135d46031913960400191505060405180910390fd5b60026000809054906101000a900460ff166004811115611e7757fe5b816004811115611e8357fe5b14611ed9576040517f08c379a000000000000000000000000000000000000000000000000000000000815260040180806020018281038252603e81526020018061354d603e913960400191505060405180910390fd5b6000600560003373ffffffffffffffffffffffffffffffffffffffff1673ffffffffffffffffffffffffffffffffffffffff1681526020019081526020016000206000015411611f74576040517f08c379a00000000000000000000000000000000000000000000000000000000081526004018080602001828103825260388152602001806135156038913960400191505060405180910390fd5b6000600560003373ffffffffffffffffffffffffffffffffffffffff1673ffffffffffffffffffffffffffffffffffffffff1681526020019081526020016000206000015490506000600560003373ffffffffffffffffffffffffffffffffffffffff1673ffffffffffffffffffffffffffffffffffffffff1681526020019081526020016000206000018190555060003373ffffffffffffffffffffffffffffffffffffffff168260405180600001905060006040518083038185875af1925050503d8060008114612063576040519150601f19603f3d011682016040523d82523d6000602084013e612068565b606091505b5050905060011515811515146120c9576040517f08c379a00000000000000000000000000000000000000000000000000000000081526004018080602001828103825260218152602001806136056021913960400191505060405180910390fd5b7f93740124b37b8f64043ddd706a499c11b58d2642466169e4c310f6b55ead67b63383604051808373ffffffffffffffffffffffffffffffffffffffff1673ffffffffffffffffffffffffffffffffffffffff1681526020018281526020019250505060405180910390a150505050565b60016000809054906101000a900460ff16600481111561215657fe5b81600481111561216257fe5b146121b8576040517f08c379a000000000000000000000000000000000000000000000000000000000815260040180806020018281038252603e81526020018061354d603e913960400191505060405180910390fd5b6000600d60003373ffffffffffffffffffffffffffffffffffffffff1673ffffffffffffffffffffffffffffffffffffffff1681526020019081526020016000205414612250576040517f08c379a000000000000000000000000000000000000000000000000000000000815260040180806020018281038252602e81526020018061372d602e913960400191505060405180910390fd5b600034116122a9576040517f08c379a00000000000000000000000000000000000000000000000000000000081526004018080602001828103825260368152602001806137e16036913960400191505060405180910390fd5b34600d60003373ffffffffffffffffffffffffffffffffffffffff1673ffffffffffffffffffffffffffffffffffffffff16815260200190815260200160002081905550600c3390806001815401808255809150509060018203906000526020600020016000909192909190916101000a81548173ffffffffffffffffffffffffffffffffffffffff021916908373ffffffffffffffffffffffffffffffffffffffff1602179055505034600b60008282540192505081905550600a54600c80549050106123955760046000806101000a81548160ff0219169083600481111561238f57fe5b02179055505b7ff0ffd3bfdde8a6f01970d2ce17ab4bdb3d8ea65ed7efca58c63c1c0cc7a8a1826000809054906101000a900460ff16604051808260048111156123d557fe5b60ff16815260200191505060405180910390a150565b600181815481106123f857fe5b906000526020600020016000915054906101000a900473ffffffffffffffffffffffffffffffffffffffff1681565b33600080905060008090505b60018054905081108015612445575081155b156124c7578273ffffffffffffffffffffffffffffffffffffffff166001828154811061246e57fe5b9060005260206000200160009054906101000a900473ffffffffffffffffffffffffffffffffffffffff1673ffffffffffffffffffffffffffffffffffffffff1614156124ba57600191505b8080600101915050612433565b508061251e576040517f08c379a00000000000000000000000000000000000000000000000000000000081526004018080602001828103825260268152602001806137076026913960400191505060405180910390fd5b60026000809054906101000a900460ff16600481111561253a57fe5b81600481111561254657fe5b1461259c576040517f08c379a000000000000000000000000000000000000000000000000000000000815260040180806020018281038252603e81526020018061354d603e913960400191505060405180910390fd5b600047146125f5576040517f08c379a000000000000000000000000000000000000000000000000000000000815260040180806020018281038252603981526020018061364c6039913960400191505060405180910390fd5b60036000806101000a81548160ff0219169083600481111561261357fe5b02179055507f66fe4817acfd8756899e5d70b8db5e2f51795f380411f9aa53f14f246cd7d2046000809054906101000a900460ff166040518082600481111561265857fe5b60ff16815260200191505060405180910390a1505050565b6000809054906101000a900460ff1681565b600f8054600181600116156101000203166002900480601f0160208091040260200160405190810160405280929190818152602001828054600181600116156101000203166002900480156127185780601f106126ed57610100808354040283529160200191612718565b820191906000526020600020905b8154815290600101906020018083116126fb57829003601f168201915b505050505081565b42600e548110612798576040517f08c379a00000000000000000000000000000000000000000000000000000000081526004018080602001828103825260208152602001807f4572726f723a2063616d706169676e20646561646c696e65206578706972656481525060200191505060405180910390fd5b83600080905060008090505b600480549050811080156127b6575081155b15612860576000151560056000600484815481106127d057fe5b9060005260206000200160009054906101000a900473ffffffffffffffffffffffffffffffffffffffff1673ffffffffffffffffffffffffffffffffffffffff1673ffffffffffffffffffffffffffffffffffffffff16815260200190815260200160002060010160009054906101000a900460ff161515141561285357600191505b80806001019150506127a4565b5060001515811515146128be576040517f08c379a000000000000000000000000000000000000000000000000000000000815260040180806020018281038252603d8152602001806137a4603d913960400191505060405180910390fd5b600160048111156128cb57fe5b6000809054906101000a900460ff1660048111156128e557fe5b14806129715750600060048111156128f957fe5b6000809054906101000a900460ff16600481111561291357fe5b148015612970575060001515600260003373ffffffffffffffffffffffffffffffffffffffff1673ffffffffffffffffffffffffffffffffffffffff16815260200190815260200160002060009054906101000a900460ff161515145b5b6129c6576040517f08c379a000000000000000000000000000000000000000000000000000000000815260040180806020018281038252604981526020018061375b6049913960600191505060405180910390fd5b60003411612a3c576040517f08c379a00000000000000000000000000000000000000000000000000000000081526004018080602001828103825260158152602001807f4572726f723a2030207765692070726f7669646564000000000000000000000081525060200191505060405180910390fd5b8451865114612a96576040517f08c379a00000000000000000000000000000000000000000000000000000000081526004018080602001828103825260428152602001806136856042913960600191505060405180910390fd5b600080905060008090505b8651811015612acf57868181518110612ab657fe5b6020026020010151820191508080600101915050612aa1565b50803414612b28576040517f08c379a000000000000000000000000000000000000000000000000000000000815260040180806020018281038252604981526020018061358b6049913960600191505060405180910390fd5b612b306131d0565b34816000018181525050878160200181905250868160400181905250600760003373ffffffffffffffffffffffffffffffffffffffff1673ffffffffffffffffffffffffffffffffffffffff1681526020019081526020016000208190806001815401808255809150509060018203906000526020600020906007020160009091929091909150600082015181600001556020820151816001019080519060200190612bdd929190613207565b506040820151816002019080519060200190612bfa929190613291565b5060608201518160030160008201518160000155602082015181600101556040820151816002019080519060200190612c349291906132de565b50505060808201518160060160006101000a81548160ff0219169083151502179055505050506000600980549050118015612c8757506009600081548110612c7857fe5b90600052602060002001543410155b15612e0a57612c9461335e565b60008090505b60098054905081108015612cc5575060098181548110612cb657fe5b90600052602060002001543410155b15612cd7578080600101915050612c9a565b600181038260000181815250506001600760003373ffffffffffffffffffffffffffffffffffffffff1673ffffffffffffffffffffffffffffffffffffffff1681526020019081526020016000208054905003826020018181525050878260400181905250600860003373ffffffffffffffffffffffffffffffffffffffff1673ffffffffffffffffffffffffffffffffffffffff168152602001908152602001600020829080600181540180825580915050906001820390600052602060002090600302016000909192909190915060008201518160000155602082015181600101556040820151816002019080519060200190612dd79291906132de565b505050507f744b881a25971efd286cf16da8b9c684ec04deeab58650ac9134f432baa30f1060405160405180910390a150505b60008090505b8851811015612e9c57878181518110612e2557fe5b6020026020010151600560008b8481518110612e3d57fe5b602002602001015173ffffffffffffffffffffffffffffffffffffffff1673ffffffffffffffffffffffffffffffffffffffff168152602001908152602001600020600001600082825401925050819055508080600101915050612e10565b507f69ee10f8865f0d317c7a1b74da8e2cbffcc7097a4077b37fb42fba449101f93560405160405180910390a15050505050505050565b6000600560008373ffffffffffffffffffffffffffffffffffffffff1673ffffffffffffffffffffffffffffffffffffffff168152602001908152602001600020600001549050919050565b60606009805480602002602001604051908101604052809291908181526020018280548015612f6d57602002820191906000526020600020905b815481526020019060010190808311612f59575b5050505050905090565b606081600080905060008090505b60048054905081108015612f97575081155b1561304157600015156005600060048481548110612fb157fe5b9060005260206000200160009054906101000a900473ffffffffffffffffffffffffffffffffffffffff1673ffffffffffffffffffffffffffffffffffffffff1673ffffffffffffffffffffffffffffffffffffffff16815260200190815260200160002060010160009054906101000a900460ff161515141561303457600191505b8080600101915050612f85565b50600015158115151461309f576040517f08c379a000000000000000000000000000000000000000000000000000000000815260040180806020018281038252603d8152602001806137a4603d913960400191505060405180910390fd5b606084516040519080825280602002602001820160405280156130d15781602001602082028038833980820191505090505b50905060008090505b855181101561315e57600560008783815181106130f357fe5b602002602001015173ffffffffffffffffffffffffffffffffffffffff1673ffffffffffffffffffffffffffffffffffffffff1681526020019081526020016000206000015482828151811061314557fe5b60200260200101818152505080806001019150506130da565b50809350505050919050565b6004818154811061317757fe5b906000526020600020016000915054906101000a900473ffffffffffffffffffffffffffffffffffffffff1681565b600a5481565b50805460008255600702906000526020600020908101906131cd919061337f565b50565b6040518060a001604052806000815260200160608152602001606081526020016131f8613401565b81526020016000151581525090565b828054828255906000526020600020908101928215613280579160200282015b8281111561327f5782518260006101000a81548173ffffffffffffffffffffffffffffffffffffffff021916908373ffffffffffffffffffffffffffffffffffffffff16021790555091602001919060010190613227565b5b50905061328d9190613422565b5090565b8280548282559060005260206000209081019282156132cd579160200282015b828111156132cc5782518255916020019190600101906132b1565b5b5090506132da9190613465565b5090565b828054600181600116156101000203166002900490600052602060002090601f016020900481019282601f1061331f57805160ff191683800117855561334d565b8280016001018555821561334d579182015b8281111561334c578251825591602001919060010190613331565b5b50905061335a9190613465565b5090565b60405180606001604052806000815260200160008152602001606081525090565b6133fe91905b808211156133fa576000808201600090556001820160006133a6919061348a565b6002820160006133b691906134ab565b6003820160008082016000905560018201600090556002820160006133db91906134cc565b50506006820160006101000a81549060ff021916905550600701613385565b5090565b90565b60405180606001604052806000815260200160008152602001606081525090565b61346291905b8082111561345e57600081816101000a81549073ffffffffffffffffffffffffffffffffffffffff021916905550600101613428565b5090565b90565b61348791905b8082111561348357600081600090555060010161346b565b5090565b90565b50805460008255906000526020600020908101906134a89190613465565b50565b50805460008255906000526020600020908101906134c99190613465565b50565b50805460018160011615610100020316600290046000825580601f106134f25750613511565b601f0160209004906000526020600020908101906135109190613465565b5b5056fe4572726f723a2074686572652068617665206265656e206e6f20646f6e6174696f6e7320666f7220746869732062656e65666963696172794572726f723a2063616e6e6f742061636365737320746869732066756e6374696f6e616c6974792066726f6d207468652063757272656e742073746174654572726f723a20546f74616c20706f766964656420776569732061726520646966666572656e742066726f6d207468652070726f7669646564207765697320706172746974696f6e734572726f723a206f6e6c792062656e656669636961726965732063616e20616363657373207468652077697468647261774572726f723a205769746864726177207472616e73616374696f6e206572726f724572726f723a204672617564207265666f756e64207472616e73616374696f6e206572726f724572726f723a205761697420756e74696c20616c6c2062656e65666963696172696573207769746864726177207468656972207265776172644572726f723a2064657374696e61746f72732073697a6520697320646966666572656e742066726f6d2074686520776569277320706172746974696f6e2073697a65596f752068617665206e6f74206d61646520646f6e6174696f6e732f7265706f7274206f7220796f75206861766520616c72656164792077697468647261776e4572726f723a2066756e6374696f6e20726573657276656420746f206f7267616e697a6572734572726f723a20596f75206861766520616c7265616479207265706f7274656420746869732063616d706169676e4572726f723a205468652063616d706169676e206973206e6f742073746172746564206f7220796f75277265206e6f7420616e206f7267616e697a657220746f2073746172742069744572726f723a206f6e65206f72206d6f7265206f66207468652070726f76696465642062656e6566696369617269657320646f206e6f742065786973744572726f723a20596f75206e65656420746f20696e7665737420736f6d6520657468657220746f207265706f72742061206672617564a265627a7a723158200a80d6aa4186ba757ec30cc00093cd836d27838dfc05598490fb05112a0b3ddd64736f6c63430005100032",
  "source": "pragma solidity >=0.4.21 <0.7.0;\r\n\r\nimport \"./Library.sol\";\r\n\r\ncontract Campaign{\r\n\r\n    using Library for Library.Reward;\r\n    using Library for Library.Donation;\r\n    using Library for Library.DonationReward;\r\n    using Library for Library.FraudReporter;\r\n\r\n\r\n    enum State {PENDING, RUNNING, EXPIRED, DEACTIVATED, BLOCKED}\r\n    State public state;\r\n\r\n    address[] public organizers;\r\n    mapping(address => bool) private organizers_donation;\r\n    uint initial_donation_amount;\r\n\r\n    address payable[] public beneficiaries;\r\n    mapping(address => Library.Reward) public beneficiaries_map;\r\n\r\n    address[] donors;\r\n    mapping(address => Library.Donation[]) private donations;\r\n    mapping(address => Library.DonationReward[]) private donations_rewards;\r\n\r\n    uint[] public rewards_prices;\r\n\r\n    uint public thresholdFraud;\r\n    uint fraud_report_amount;\r\n    address[] fraud_reporters;\r\n    mapping(address => uint) reports_investments;\r\n\r\n    uint public campaign_end_timestamp;\r\n    string public info_hashes;\r\n\r\n    event campainStatus(State s);\r\n    event donationSuccess();\r\n    event donationRewardUnlocked();\r\n    event withdrawSuccess(address beneficiary, uint amount);\r\n    event refoundEmitted(uint amount, uint plus);\r\n    event fraudReported(State s);\r\n\r\n    modifier isOrganizer(address expected) {\r\n        bool is_organizer = false;\r\n        for(uint i = 0; i<organizers.length && !is_organizer; i++){\r\n            if(organizers[i] == expected)\r\n                is_organizer = true;\r\n        }\r\n\r\n        require(is_organizer, \"Error: function reserved to organizers\");\r\n        _;\r\n    }\r\n\r\n    modifier isBeneficiary(address b){\r\n        require(beneficiaries_map[b].flag==true, \"Error: only beneficiaries can access the withdraw\");\r\n        _;\r\n    }\r\n\r\n    modifier requireState(State s){\r\n        require(s==state, \"Error: cannot access this functionality from the current state\");\r\n        _;\r\n    }\r\n\r\n    modifier beneficiariesExist(address[] memory b) {\r\n        bool error = false;\r\n        for(uint i = 0; i<beneficiaries.length && !error; i++){\r\n            if(beneficiaries_map[beneficiaries[i]].flag == false)\r\n                error = true;\r\n        }\r\n\r\n        require(error==false, \"Error: one or more of the provided beneficiaries do not exist\");\r\n        _;\r\n    }\r\n\r\n    modifier campaignNotEnded(uint current_timestamp) {\r\n        require(current_timestamp < campaign_end_timestamp, \"Error: campaign deadline expired\");\r\n        _;\r\n    }\r\n\r\n    constructor(address[] memory _organizers, address payable[] memory _beneficiaries, uint _end_date,\r\n    uint[] memory rewards_costs, uint fraudThreshold, string memory campaign_info_hashes) public {\r\n\r\n        for(uint i = 0; i < _organizers.length; i++) {\r\n            organizers.push(_organizers[i]);\r\n            organizers_donation[_organizers[i]] = false;\r\n\r\n            beneficiaries.push(_beneficiaries[i]);\r\n            beneficiaries_map[_beneficiaries[i]].amount = 0;\r\n            beneficiaries_map[_beneficiaries[i]].flag = true;\r\n        }\r\n\r\n        campaign_end_timestamp = _end_date;\r\n        rewards_prices = rewards_costs;\r\n        info_hashes = campaign_info_hashes;\r\n\r\n        state = State.PENDING;\r\n\r\n        thresholdFraud = fraudThreshold;\r\n        fraud_report_amount = 0;\r\n        initial_donation_amount = 0;\r\n\r\n        emit campainStatus(state);\r\n    }\r\n\r\n    function startCampaign(address[] calldata to, uint[] calldata wei_partition, string calldata contact_email)\r\n     campaignNotEnded(block.timestamp) external payable isOrganizer(msg.sender) beneficiariesExist(to) requireState(State.PENDING){//RQ-PARAMS\r\n        \r\n        makeDonation(to, wei_partition, contact_email);\r\n\r\n        if(organizers_donation[msg.sender] == false)\r\n            organizers_donation[msg.sender] = true;\r\n\r\n        uint organizers_donors = 0;\r\n        for(uint i = 0; i<organizers.length; i++){\r\n            if(organizers_donation[organizers[i]] == true)\r\n                organizers_donors++;\r\n        }\r\n\r\n        initial_donation_amount += msg.value;\r\n\r\n        if(organizers_donors==organizers.length)\r\n            state = State.RUNNING;\r\n        else\r\n            state = State.PENDING;\r\n\r\n        emit campainStatus(state);\r\n    }\r\n\r\n\r\n    function makeDonation(address[] memory to, uint[] memory wei_partition, string memory contact_email)public payable\r\n     campaignNotEnded(block.timestamp)beneficiariesExist(to){\r\n         \r\n        require(state==State.RUNNING || (state==State.PENDING && organizers_donation[msg.sender]==false),\r\n                \"Error: The campaign is not started or you're not an organizer to start it\");\r\n        require(msg.value>0, \"Error: 0 wei provided\");\r\n        require(to.length==wei_partition.length, \"Error: destinators size is different from the wei's partition size\");\r\n        \r\n        uint total_donation = 0;\r\n        for(uint i = 0; i<wei_partition.length; i++){\r\n            total_donation += wei_partition[i];\r\n        }\r\n        require(msg.value==total_donation,\"Error: Total povided weis are different from the provided weis partitions\");\r\n        \r\n\r\n        Library.Donation memory d;\r\n\r\n        d.amount = msg.value;\r\n        d.donation_beneficiaries = to;\r\n        d.danation_partitions = wei_partition;\r\n        donations[msg.sender].push(d);\r\n\r\n        //Check for rewards\r\n        if(rewards_prices.length>0 && msg.value>=rewards_prices[0]){\r\n            Library.DonationReward memory reward;\r\n            uint i = 0;\r\n            while(i<rewards_prices.length && msg.value>=rewards_prices[i])\r\n                i++;\r\n\r\n            reward.max_reward_index = i - 1;\r\n            reward.donation_index = donations[msg.sender].length - 1;\r\n            reward.email_contact = contact_email;\r\n\r\n            donations_rewards[msg.sender].push(reward);\r\n\r\n            emit donationRewardUnlocked();\r\n        }\r\n\r\n        for(uint i = 0; i<to.length; i++)\r\n            beneficiaries_map[to[i]].amount += wei_partition[i];\r\n\r\n        emit donationSuccess();\r\n    }\r\n\r\n\r\n    function beneficiaryWithdraw() external isBeneficiary(msg.sender) requireState(State.EXPIRED){\r\n        require(beneficiaries_map[msg.sender].amount > 0, \"Error: there have been no donations for this beneficiary\");\r\n\r\n        uint amount = beneficiaries_map[msg.sender].amount;\r\n        beneficiaries_map[msg.sender].amount = 0;\r\n        (bool success, ) = msg.sender.call.value(amount)(\"\");\r\n\r\n        require(success==true, \"Error: Withdraw transaction error\");\r\n\r\n        emit withdrawSuccess(msg.sender,amount);\r\n\r\n    }\r\n\r\n\r\n    function endCampaign() public isOrganizer(msg.sender) requireState(State.RUNNING){\r\n        state = State.EXPIRED;\r\n\r\n        //Subdivide ether from reporter to all beneficiaries\r\n        if (fraud_report_amount > 0){\r\n            uint plus = uint(fraud_report_amount/beneficiaries.length);\r\n            for(uint i = 0; i<beneficiaries.length; i++)\r\n                beneficiaries_map[beneficiaries[i]].amount += plus;\r\n        }\r\n\r\n        emit campainStatus(state);\r\n    }\r\n\r\n\r\n    function deactivateCampaign() public isOrganizer(msg.sender) requireState(State.EXPIRED){\r\n        require(address(this).balance==0, \"Error: Wait until all beneficiaries withdraw their reward\");\r\n        state = State.DEACTIVATED;\r\n\r\n        emit campainStatus(state);\r\n    }\r\n\r\n    function getBeneficiariesRewards(address[] memory _ben) public view beneficiariesExist(_ben) returns(uint[] memory){\r\n        uint[] memory rewards = new uint[](_ben.length);\r\n        for(uint i = 0; i<_ben.length; i++)\r\n            rewards[i] = beneficiaries_map[_ben[i]].amount;\r\n\r\n        return rewards;\r\n    }\r\n\r\n\r\n    function getDonationReward() external view returns(uint[] memory){\r\n        Library.DonationReward[] memory user_donations_rewards = donations_rewards[msg.sender];\r\n        uint[] memory rewards = new uint[](user_donations_rewards.length);\r\n\r\n        for(uint i = 0; i<user_donations_rewards.length; i++)\r\n            rewards[i] = user_donations_rewards[i].max_reward_index;\r\n\r\n        return rewards;\r\n    }\r\n\r\n    function reportFraud() external payable requireState(State.RUNNING){\r\n        require(reports_investments[msg.sender]==0, \"Error: You have already reported this campaign\");\r\n        require(msg.value>0, \"Error: You need to invest some ether to report a fraud\");\r\n\r\n        reports_investments[msg.sender] = msg.value;\r\n        fraud_reporters.push(msg.sender);\r\n\r\n        fraud_report_amount += msg.value;\r\n\r\n        if(fraud_reporters.length >= thresholdFraud)\r\n            state = State.BLOCKED;\r\n\r\n        emit fraudReported(state);\r\n    }\r\n\r\n\r\n    function fraudWithdraw() external payable requireState(State.BLOCKED){\r\n        uint index;\r\n        if (organizers_donation[msg.sender]==true) //If organizer do not consider the firt donation sice it is the inital\r\n            index = 1;\r\n        else\r\n            index = 0;\r\n\r\n        require(donations[msg.sender].length>index || reports_investments[msg.sender]>0,\r\n        \"You have not made donations/report or you have already withdrawn\");\r\n\r\n        uint amount = 0;\r\n        Library.Donation[] memory user_donation = donations[msg.sender];\r\n        while(index < user_donation.length){\r\n            amount += user_donation[index].amount;\r\n            index++;\r\n        }\r\n\r\n        delete donations[msg.sender]; //remove all donation before refounding to avoid reentrancy\r\n\r\n        uint plus = 0;\r\n        if(reports_investments[msg.sender]>0){//If the sender is a reporter\r\n            plus = uint(initial_donation_amount/fraud_reporters.length);\r\n            reports_investments[msg.sender] = 0;  //remove reporter investment to avoid reentrancy\r\n        }\r\n\r\n        (bool success, ) = msg.sender.call.value(amount+plus)(\"\");\r\n        require(success==true, \"Error: Fraud refound transaction error\");\r\n\r\n        emit refoundEmitted(amount, plus);\r\n\r\n    }\r\n\r\n\r\n    function getAllBeneficiaries() public view returns(address payable[] memory){return beneficiaries;}\r\n\r\n    function getAllOrganizers() public view returns(address[] memory){return organizers;}\r\n\r\n    function getAllRewardsPrices() public view returns(uint[] memory){return rewards_prices;}\r\n\r\n    function getReportsNumber() public view returns(uint){return fraud_reporters.length;}\r\n\r\n    function getBeneficiaryReward(address b)public view returns(uint){return beneficiaries_map[b].amount;}\r\n\r\n\r\n}",
  "sourcePath": "G:\\SSD Workspace\\Ethereum\\BitCollect\\contracts\\Campaign.sol",
  "compiler": {
    "name": "solc",
    "version": "0.5.16+commit.9c3226ce.Emscripten.clang"
  },
  "schemaVersion": "3.2.0",
  "updatedAt": "2020-07-12T17:36:09.442Z",
  "devdoc": {
    "methods": {}
  },
  "userdoc": {
    "methods": {}
  }
}